:0200000420409A
:100000009721C05F938181F097020000938282055F
:100010007390523093020000638402007350107C8E
:100020001701C0DF130101FE9700C0DF938080FD40
:10003000638300008290732540F181450146812051
:100040009700C0DF938000FC6383000082909702DA
:1000500000009382C2007390523003230000F5BF6A
:10006000F322203473231034F3233034D5BF82803D
:10007000411122C6000801003244410182800684F9
:100080009721C05F938181E81731C05F1301C12FB1
:100090008142130300406385A2001A918502E5BFE7
:1000A000137101FF93020000631B55089772000053
:1000B0009382421B1703C05F1303C3F493838182AF
:1000C000638C6200635A730003A50200910223202F
:1000D000A3001103E34A73FE977200009382821813
:1000E0001703C0E7130303F29703C0E7938383F179
:1000F000638C6200635A730003A5020091022320FF
:10010000A3001103E34A73FE0F1000001713C05F32
:10011000130343629733C05F938303E7635773000E
:10012000232003001103E34D73FE11C2029617351D
:1001300000001305052DEF306028EF30C02F0D3F74
:10014000F32710303707010013078702F98F89CB97
:10015000F32700300967D98F739007307350300050
:10016000054597750000938565DA1776000013063C
:1001700026DA3120EF30E025A28082808280411192
:1001800006C2F32240F1130300006385620073008E
:0E0190005010F5BFEF10E075924041018280E3
:10020000797106D622D40018232EA4FC232CB4FC2A
:10021000232AC4FC2328D4FC832784FD9D8B91E7EB
:10022000832784FD8983860731A0832784FD898302
:10023000850786072324F4FE832744FD89C7832787
:1002400084FE910719A0832784FE2324F4FE23262D
:1002500004FE81A88327C4FE858B81E72945EF1022
:1002600070468327C4FE8A070327C4FDBA979C43C0
:100270000326C4FEBE85B7774020138587C8EF10DC
:100280003040832704FD89CB8327C4FE8A070327D8
:10029000C4FDBA9723A007008327C4FE8507232641
:1002A000F4FE0327C4FE832784FEE345F7FA2945BD
:1002B000EF1050410100B2502254456182803971E3
:1002C00022DE8000232EA4FC232CB4FC232AC4FCB1
:1002D0002328D4FC2326E4FC2324F4FC232204FD5D
:1002E000232604FE0F00F00F832784FCBE850BE558
:1002F00005282326A4FE0F00F00F0F00F00F832720
:1003000044FCBE850BE5052A2326A4FE0F00F00F52
:100310000F00F00F832744FDBE85032604FD0BF577
:10032000C5222326A4FE0F00F00F0F00F00F832735
:10033000C4FDBE85032684FD0BF5C5242326A4FE3B
:100340000F00F00F0F00F00F8327C4FCBE850BE5F4
:1003500005262326A4FE0F00F00F0F00F00F8325C3
:10036000C4FE0BE5052C2326A4FE0F00F00F832707
:10037000C4FE3E85725421618280397122DE800084
:10038000232EA4FC232CB4FC232AC4FC2328D4FC55
:100390002326E4FC2324F4FC232204FD232014FD63
:1003A000232604FE0F00F00F832784FCBE850BE597
:1003B00005282326A4FE0F00F00F0F00F00F83275F
:1003C00004FCBE850BE5052E2326A4FE0F00F00FCE
:1003D0000F00F00F832744FCBE850BE5052A23267A
:1003E000A4FE0F00F00F0F00F00F832744FDBE8521
:1003F000032604FD0BF5C5222326A4FE0F00F00FF3
:100400000F00F00F8327C4FDBE85032684FD0BF586
:10041000C5242326A4FE0F00F00F0F00F00F832742
:10042000C4FCBE850BE505262326A4FE0F00F00FB5
:100430000F00F00F8325C4FE0BE505302326A4FE34
:100440000F00F00F8327C4FE3E8572542161828025
:10045000797122D60018232EA4FC232CB4FC232A65
:10046000C4FC0F00F00F8327C4FDBE85032684FD66
:100470000BF5C5622326A4FE0F00F00F0F00F00F4E
:10048000832744FDBE850BE505642326A4FE0F00EB
:10049000F00F81473E85325445618280797106D6DE
:1004A00022D40018232EA4FC232CB4FC0F00F00F40
:1004B0008327C4FDBE85032684FD0BF5C584232652
:1004C000A4FE0F00F00F8325C4FEB77740201385EC
:1004D00007C9EF10F01A81473E85B250225445619A
:1004E0008280011122CE00100F00F00F0B45008218
:1004F0002326A4FE0F00F00F81473E85724405615C
:1005000082801D71A2CE80102326A4FA2324B4FA7F
:100510008327C4FAD84F832784FA3D8F8327C4FAF0
:10052000D8CF8327C4FA98438327C4FA9C4B3D8FC6
:100530008327C4FA98C38327C4FAD84B8327C4FA05
:10054000DC533D8F8327C4FAD8CB8327C4FA984B5A
:100550008327C4FADC473D8F8327C4FA98CB8327CF
:10056000C4FAD8538327C4FA9C533D8F8327C4FA17
:10057000D8D38327C4FA98478327C4FADC433D8F36
:100580008327C4FA98C78327C4FAD84F8327C4FAAD
:100590009C4F3D8F8327C4FAD8CF8327C4FA984352
:1005A0008327C4FADC4393C6F7FF8327C4FA9C472A
:1005B000F58FB98F2324F4FC8327C4FAD84B832703
:1005C000C4FA9C4F93C6F7FF8327C4FADC4FF58F1C
:1005D000B98F232EF4FC8327C4FAD8438327C4FAA7
:1005E0009C4793C6F7FF8327C4FADC47F58FB98F82
:1005F0002326F4FC8327C4FA984F8327C4FADC4FE0
:1006000093C6F7FF8327C4FA9C53F58FB98F232035
:10061000F4FE8327C4FA98478327C4FADC4793C6BD
:10062000F7FF8327C4FA9C4BF58FB98F2328F4FC7E
:100630008327C4FAD84F8327C4FA9C5393C6F7FF85
:100640008327C4FADC53F58FB98F2322F4FE832766
:10065000C4FAD8478327C4FA9C4B93C6F7FF832775
:10066000C4FA9C43F58FB98F232AF4FC8327C4FA7C
:1006700098538327C4FADC5393C6F7FF8327C4FA41
:10068000DC4BF58FB98F2324F4FE8327C4FA984BF3
:100690008327C4FA9C4393C6F7FF8327C4FADC433D
:1006A000F58FB98F232CF4FC8327C4FAD853832702
:1006B000C4FADC4B93C6F7FF8327C4FA9C4FF58F2F
:1006C000B98F2326F4FE0327C4FC832784FCB98F4B
:1006D0002326F4FC032784FC832784FDB98F23247D
:1006E000F4FC032744FD832704FDB98F232AF4FC7F
:1006F000832704FD93C7F7FF2328F4FC032704FE98
:100700008327C4FDB98F2320F4FE0327C4FD83276C
:10071000C4FEB98F232EF4FC032784FE832744FEF6
:10072000B98F2324F4FE832744FE93C7F7FF2322C7
:10073000F4FE032784FC8327C4FD9396D700832708
:1007400084FCCD83D58F3D8F8327C4FD93964700CE
:10075000832784FCF183D58F3D8F8327C4FA98C308
:100760000327C4FD832784FC9396D7008327C4FD09
:10077000CD83D58F3D8F832784FC939647008327B5
:10078000C4FDF183D58F3D8F8327C4FAD8CB0327CF
:10079000C4FC8327C4FC93963700832704FEF583AB
:1007A000D58F3D8F8327C4FC93969701832704FE42
:1007B0009D83D58F3D8F8327C4FAD8C3032704FEBA
:1007C000832704FE939637008327C4FCF583D58FD7
:1007D0003D8F832704FE939697018327C4FC9D8356
:1007E000D58F3D8F8327C4FA98CF032704FD832735
:1007F00044FE9396F701832704FD8583D58F3D8FB3
:10080000832744FE9396A701832704FD9983D58F00
:100810003D8F8327C4FA98C7032744FE832704FD2E
:100820009396F701832744FE8583D58F3D8F8327D9
:1008300004FD9396A701832744FE9983D58F3D8FAE
:100840008327C4FAD8CF032744FD832784FE9396D9
:100850006701832744FDA983D58F3D8F832784FEBD
:100860009396F700832744FDC583D58F3D8F83275B
:10087000C4FAD8C7032784FE832744FD93966701F3
:10088000832784FEA983D58F3D8F832744FD9396CC
:10089000F700832784FEC583D58F3D8F8327C4FA55
:1008A00098D3032784FD8327C4FE9396970183275B
:1008B00084FD9D83D58F3D8F832784FD939677019B
:1008C0008327C4FEA583D58F3D8F8327C4FA98CB99
:1008D0000327C4FE832784FD939697018327C4FED4
:1008E0009D83D58F3D8F8327C4FE93967701832701
:1008F00084FDA583D58F3D8F8327C4FAD8D301000B
:10090000764425618280011106CE22CC0010232678
:10091000A4FE9305000F0325C4FEE5369305100ED3
:100920000325C4FEF93E9305200D0325C4FED13EE8
:100930009305300C0325C4FEE9369305400B0325CF
:10094000C4FEC1369305500A0325C4FE5D3E9305DF
:1009500060090325C4FE7536930570080325C4FE9F
:100960004D36930580070325C4FE613E930590062E
:100970000325C4FE79369305A0050325C4FE513630
:100980009305B0040325C4FEAD3E0100F24062446D
:1009900005618280011106CE22CC00102326A4FE20
:1009A000930560090325C4FEA93E9305700803253D
:1009B000C4FE813E930580070325C4FE9936930546
:1009C00090060325C4FE353E9305A0050325C4FE0D
:1009D0000D3E9305B0040325C4FE25360100F24008
:1009E000624405618280797106D622D40018232ED4
:1009F000A4FC232CB4FC232AC4FC832744FDA1CFF0
:100A00000325C4FDEF108064232604FE2DA80327D0
:100A100084FD8327C4FE8A07BA979443032784FD85
:100A20008327C4FE91078A07BA97DC433E86B685C2
:100A3000B7774020138587CAEF1080448327C4FE10
:100A400085072326F4FE0327C4FE9147E3D1E7FC84
:100A50002945EF1020470100B250225445618280A1
:100A6000197186DEA2DC0001232EA4F8232CB4F831
:100A7000232AC4F82328D4F82326E4F82324F4F8FE
:100A8000232204F9232014F9832704F9138707018B
:100A9000832784F998C3832704F89C432324F4FE16
:100AA000832704F8DC432326F4FE832704F89C47BD
:100AB0002320F4FE832704F8DC472322F4FE832757
:100AC00044F89C43232CF4FC832744F8DC43232E76
:100AD000F4FC832744F89C472328F4FC832744F83C
:100AE000DC47232AF4FCB7174080938767C0232490
:100AF000F4FA232E04FA832784FE2326F4FA8327AC
:100B0000C4FE2320F4FC832704FE2328F4FA832761
:100B100044FE2322F4FC832784FD232AF4FA83274E
:100B2000C4FD2324F4FC832704FD232CF4FA83273B
:100B300044FD2326F4FC930784FA1040BE85B77762
:100B40004020138547CB4535930784FA3E85653BA6
:100B5000032744FB832784FEB98F232AF4FA032753
:100B600084FC8327C4FEB98F2324F4FC032784FB71
:100B7000832704FEB98F232CF4FA0327C4FC8327B0
:100B800044FEB98F2326F4FC930784FA1040BE85F7
:100B9000B7774020138507CCB935832784F8638263
:100BA0000716A9A8032784FA8327C4F89C43B98FA2
:100BB0002324F4FA8327C4F891072326F4F80327A3
:100BC000C4FB8327C4F89C43B98F232EF4FA8327F0
:100BD000C4F891072326F4F8930784FA3E855D3B19
:100BE000930784FA1040BE85B77740201385C7CCA1
:100BF000DD3B832784F8E1172324F4F8032784F8E6
:100C00009D47E3E1E7FA032784FA832684F89147B6
:100C100063F6D7008327C4F89C4325A0832784F874
:100C200085C38327C4F89443032684F88147918FB2
:100C30008E07938707027D56B317F600F58F11A034
:100C40008147B98F2324F4FA8327C4F89107232618
:100C5000F4F80327C4FB832684F8914763F1D70295
:100C60008327C4F89443032684F88147918F8E0725
:100C7000938707047D56B317F600F58F11A08147BF
:100C8000B98F232EF4FA032784FA832684F88D473C
:100C900063EAD700832784F88E07B7060080B3D7AE
:100CA000F60011A08147B98F2324F4FA0327C4FB6F
:100CB000832684F88D4763F5D702832684F8A147FD
:100CC000638EF600832684F8B7070020F117B697E5
:100CD0008E07B7060080B3D7F60021A0814711A088
:100CE0008147B98F232EF4FA930784FA1040BE850A
:100CF000B7774020138587CDFD31930784FA3E8571
:100D000051398327C4FC93C717002326F4FC9307AB
:100D100084FA1040BE85B7774020138547CEE13175
:100D200049A0032784FA832744F99C43B98F2324DD
:100D3000F4FA832744F99107232AF4F80327C4FB24
:100D4000832744F99C43B98F232EF4FA832744F96F
:100D50009107232AF4F8032784FA8327C4F998C358
:100D60008327C4F99107232EF4F80327C4FB8327B4
:100D7000C4F998C38327C4F99107232EF4F8832775
:100D800004F9E1172328F4F8930784FA1040BE858C
:100D9000B7774020138587CFB931930784FA3E8512
:100DA000D53E032704F99D47E3EDE7F6032784FAD0
:100DB000832604F9914763F6D700832744F99C43BF
:100DC00025A0832704F985C3832744F99443032688
:100DD00004F98147918F8E07938707027D56B317D9
:100DE000F600F58F11A08147B98F2324F4FA8327E9
:100DF00044F99107232AF4F80327C4FB832604F956
:100E0000914763F1D702832744F99443032604F9F9
:100E10008147918F8E07938707047D56B317F6009D
:100E2000F58F11A08147B98F232EF4FA832704F997
:100E3000BDCF032704F9914763F5E700832784FAC0
:100E40001DA0832704F999CF032784FA832604F988
:100E50008147958F8E0793870702FD56B397F6005B
:100E6000F98F11A081470327C4F91CC38327C4F954
:100E70009107232EF4F8032704F9914763F0E70262
:100E80000327C4FB832604F98147958F8E07938738
:100E90000704FD56B397F600F98F11A08147032789
:100EA000C4F91CC38327C4F99107232EF4F8032740
:100EB00084FA832604F98D4763EAD700832704F96F
:100EC0008E07B7060080B3D7F60011A08147B98F0F
:100ED0002324F4FA0327C4FB832604F98D4763F522
:100EE000D702832604F9A147638EF600832604F90E
:100EF000B7070020F117B6978E07B7060080B3D763
:100F0000F60021A0814711A08147B98F232EF4FA62
:100F1000930784FA1040BE85B7774020138547D0E9
:100F2000D9340327C4FA832784FEB98F2326F4FA21
:100F3000032704FC8327C4FEB98F2320F4FC032776
:100F400004FB832704FEB98F2328F4FA032744FC0B
:100F5000832744FEB98F2322F4FC930784FA1040C0
:100F6000BE85B77740201385C7D0B53C930784FA78
:100F70003E85513A032744FB832784FEB98F232AF9
:100F8000F4FA032784FC8327C4FEB98F2324F4FCDE
:100F9000032784FB832704FEB98F232CF4FA03274D
:100FA000C4FC832744FEB98F2326F4FC930784FAFC
:100FB0001040BE85B7774020138587D12D34032795
:100FC00044FB8327C4F998C38327C4F99107232ED0
:100FD000F4F8032784FC8327C4F998C38327C4F952
:100FE0009107232EF4F8032784FB8327C4F998C3C1
:100FF0008327C4F99107232EF4F80327C4FC832721
:10100000C4F998C381473E85F650665409618280D1
:10101000357106CF22CD0011232EA4F6232CB4F671
:10102000232AC4F62328D4F62326E4F62324F4F650
:10103000232204F7232014F7832784F7032704F7D8
:1010400098C3832704F69C43232EF4FC832704F6DD
:10105000DC432320F4FE832704F69C47232AF4FC78
:10106000832704F6DC47232CF4FC832744F69C43B7
:101070002326F4FC832744F6DC432328F4FC83274F
:1010800044F69C472322F4FC832744F6DC472324C0
:10109000F4FCB7174080938767C0232EF4F8232809
:1010A00004FA8327C4FD2320F4FA832704FE232AAD
:1010B000F4FA832744FD2322F4FA832784FD232CAA
:1010C000F4FA8327C4FC2324F4FA832704FD232E97
:1010D000F4FA832744FC2326F4FA832784FC232094
:1010E000F4FC9307C4F91040BE85B7774020138500
:1010F00047CBD5389307C4F93E85EFF0DF8003274F
:1011000084FA8327C4FDB98F2324F4FA0327C4FB90
:10111000832704FEB98F232EF4FA0327C4FA83270A
:1011200044FDB98F2326F4FA032704FC832784FDAA
:10113000B98F2320F4FC9307C4F91040BE85B7771C
:101140004020138507CCEFF01F8A832784F663863F
:101150000716B9A80327C4F98327C4F69C43B98F9F
:10116000232EF4F88327C4F691072326F4F60327E9
:1011700004FB8327C4F69C43B98F2328F4FA832702
:10118000C4F691072326F4F69307C4F93E85EFF0E1
:101190007F809307C4F91040BE85B7774020138540
:1011A000C7CCEFF05F84832784F6E1172324F4F69D
:1011B000032784F69D47E3EFE7F80327C4F9832666
:1011C00084F6914763F6D7008327C4F69C4325A095
:1011D000832784F685C38327C4F69443032684F6C5
:1011E0008147918F8E07938707027D56B317F600CC
:1011F000F58F11A08147B98F232EF4F88327C4F609
:1012000091072326F4F6032704FB832684F69147EF
:1012100063F1D7028327C4F69443032684F68147FB
:10122000918F8E07938707047D56B317F600F58FCD
:1012300011A08147B98F2328F4FA0327C4F9832624
:1012400084F68D4763EAD700832784F68E07B706B6
:101250000080B3D7F60011A08147B98F232EF4F890
:10126000032704FB832684F68D4763F5D702832684
:1012700084F6A147638EF600832684F6B707002024
:10128000F117B6978E07B7060080B3D7F60021A0F6
:10129000814711A08147B98F2328F4FA9307C4F935
:1012A0001040BE85B7774020138587CDEFF0AFF3B0
:1012B0009307C4F93E85EFF0EFED832704FC93C755
:1012C00017002320F4FC9307C4F91040BE85B777BC
:1012D0004020138547CEEFF00FF159A8832744F73C
:1012E0009C432326F4FE832744F79107232AF4F630
:1012F000832744F79C432324F4FE832744F7910774
:10130000232AF4F60327C4F98327C4FE3D8F8327DD
:10131000C4F798C38327C4F79107232EF4F6032755
:1013200004FB832784FE3D8F8327C4F798C383275C
:10133000C4F79107232EF4F68327C4FE232EF4F876
:10134000832784FE2328F4FA832704F7E117232850
:10135000F4F69307C4F91040BE85B7774020138593
:1013600087CFEFF04FE89307C4F93E85EFF08FE2A7
:10137000032704F79D47E3E3E7F6232604FE23242F
:1013800004FE832704F763880710032704F79147B7
:1013900063F6E700832744F79C4325A0832704F7DF
:1013A00085C3832744F79843832604F78147958FA5
:1013B0008E0793870702FD56B397F600F98F11A0A9
:1013C00081472326F4FE832744F79107232AF4F666
:1013D000032704F7914763F1E702832744F7984313
:1013E000832604F78147958F8E0793870704FD5660
:1013F000B397F600F98F11A081472324F4FE8327C9
:1014000044F79107232AF4F6032704F7914763F87A
:10141000E7000327C4F98327C4FEB98F35A08327CB
:1014200004F795C30327C4F98327C4FE3D8F8326A1
:1014300004F78147958F8E0793870702FD56B39770
:10144000F600F98F11A081470327C4F71CC3832737
:10145000C4F79107232EF4F6032704F7914763F3AB
:10146000E702032704FB832784FE3D8F832604F7CE
:101470008147958F8E0793870704FD56B397F60033
:10148000F98F11A081470327C4F71CC38327C4F732
:101490009107232EF4F6032704F7914763E8E70248
:1014A000832704F781E78327C4F915A00327C4F92C
:1014B000832604F78147958F8E0793870702FD5691
:1014C000B397F60093C7F7FFF98F11A08147232E3A
:1014D000F4F8032704F7914763F2E702032704FBBC
:1014E000832604F78147958F8E0793870704FD565F
:1014F000B397F60093C7F7FFF98F19A0832704FB72
:101500002328F4FA9307C4F91040BE85B77740202A
:10151000138547D2EFF02FCD0327C4F98327C4FEEC
:10152000D98F232EF4F8032704FB832784FED98F59
:101530002328F4FA0327C4F9832604F78D4763EAC6
:10154000D700832704F78E07B7060080B3D7F600CD
:1015500011A08147B98F232EF4F8032704FB8326BB
:1015600004F78D4763F5D702832604F7A147638EFE
:10157000F600832604F7B7070020F117B6978E0709
:10158000B7060080B3D7F60021A0814711A081479C
:10159000B98F2328F4FA9307C4F91040BE85B777B2
:1015A0004020138547D0EFF00FC4032704FA8327A8
:1015B000C4FDB98F2320F4FA032744FB832704FEDC
:1015C000B98F232AF4FA032744FA832744FDB98FFD
:1015D0002322F4FA032784FB832784FDB98F232C6D
:1015E000F4FA9307C4F91040BE85B77740201385FD
:1015F000C7D0EFF04FBF9307C4F93E85EFF0AFB00F
:10160000032784FA8327C4FDB98F2324F4FA032720
:10161000C4FB832704FEB98F232EF4FA0327C4FAF0
:10162000832744FDB98F2326F4FA032704FC83277C
:1016300084FDB98F2320F4FC9307C4F91040BE85C4
:10164000B7774020138587D1EFF0EFB9832784FA6D
:101650002326F4F88327C4FB2328F4F88327C4FA4D
:10166000232AF4F8832704FC232CF4F8232204FE15
:10167000832744FE3E85FA406A440D6182805D7195
:1016800086C6A2C48008232EA4FA232CB4FA232AE7
:10169000C4FA2328D4FAB7174000938707C023223F
:1016A000F4FC93070010232CF4FC232404FC232EC9
:1016B00004FC232604FC232004FE232804FC23220C
:1016C00004FE232A04FC232404FE930744FC03267F
:1016D00004FBBE85B7774020138547CBEFF0AFB052
:1016E000930744FC3E85EFF00FA2832784FB6388B9
:1016F000071685A0032744FC8327C4FB9C43B98FAE
:101700002322F4FC8327C4FB9107232EF4FA03273A
:1017100084FD8327C4FB9C43B98F232CF4FC8327CF
:10172000C4FB9107232EF4FA930744FC3E85EFF0A7
:101730008F9D930744FC032604FBBE85B7774020AA
:101740001385C7CCEFF02FAA832784FBE117232C46
:10175000F4FA032784FB9D47E3EEE7F8032744FCF4
:10176000832684FB914763F6D7008327C4FB9C4301
:1017700025A0832784FB85C38327C4FB94430326CA
:1017800084FB8147918F8E07938707027D56B3179D
:10179000F600F58F11A08147B98F2322F4FC83272F
:1017A000C4FB9107232EF4FA032784FD832684FBD0
:1017B000914763F1D7028327C4FB9443032684FB3C
:1017C0008147918F8E07938707047D56B317F600E4
:1017D000F58F11A08147B98F232CF4FC032744FC1B
:1017E000832684FB8D4763EAD700832784FB8E071B
:1017F000B7060080B3D7F60011A08147B98F232226
:10180000F4FC032784FD832684FB8D4763F5D70210
:10181000832684FBA147638EF600832684FBB707EB
:101820000020F117B6978E07B7060080B3D7F600F1
:1018300021A0814711A08147B98F232CF4FC930785
:1018400044FC032604FBBE85B7774020138587CD73
:10185000EFF06F99930744FC3E85EFF0CF8A232683
:1018600004FEB1A88327C4FE8E07032744FBBA9762
:10187000032744FC98C38327C4FE8E0791070327E0
:1018800044FBBA97032784FD98C30327C4FE894706
:1018900063C7E700930744FC3E85EFF0CF869307CC
:1018A00044FC032604FBBE85B7774020138507D38D
:1018B000EFF06F938327C4FE85072326F4FE0327EA
:1018C000C4FE8D47E3D0E7FA81473E85B640264403
:1018D00061618280011122CE0010232604FEF327CD
:1018E00000B02326F4FE8327C4FE3E8572440561C2
:1018F0008280397106DE22DC8000930700022326F5
:10190000F4FE930700022324F4FE232804FCB147CD
:101910002322F4FE8327C4FE8D832320F4FE832735
:10192000C4FE9D8B89E7832704FE860729A08327B1
:1019300004FE850786072320F4FEB7774020138531
:10194000C7D3EF00A070B707008093850700B77773
:1019500040201385C7D42D23B70700809385077DCA
:10196000B77740201385C7D5212BB7170080938503
:10197000C773B77740201385C7D61923B7170080E0
:10198000938507FAB77740201385C7D7D529B717AE
:101990000080938507FBB77740201385C7D8CD21FA
:1019A00093854101B77740201385C7D9D129232ECC
:1019B00004FCE16773900730B7774020138507DB9D
:1019C000EF00C068013FAA87232CF4FC1386410175
:1019D0008325C4FEB70700801385077DEFE05FA76E
:1019E000D53DAA87232AF4FC032744FD832784FDE1
:1019F000B307F740BE85B77740201385C7DB492181
:101A000085460546A14513854101EFE06FFFB77795
:101A10004020138587DDEF006063B7774020138592
:101A2000C7DDEF00A0627D35AA87232CF4FC814638
:101A3000138641018325C4FEB70700801385077D07
:101A40003D39493DAA87232AF4FC032744FD832717
:101A500084FDB307F740BE85B7774020138587DE46
:101A6000052185460546A14513854101EFE04FF963
:101A7000B7774020138587DDD12BB77740201385BA
:101A800047E0E923813DAA87232CF4FCEFE07FA502
:101A90009135AA87232AF4FC032744FD832784FD7C
:101AA000B307F740BE85B7774020138507E1C92EFD
:101AB000B7774020138507E3512B293DAA87232CB4
:101AC000F4FC832544FEB7270080138547F4EFE03C
:101AD000FF9C0935AA87232AF4FC032744FD8327AA
:101AE00084FDB307F740BE85B7774020138507E133
:101AF000412E832744FE8A0785460146BE85B727C7
:101B00000080138547F4EFE0AFEFB77740201385EF
:101B100087DD2D2BB77740201385C7E3052B5D3B71
:101B2000AA87232CF4FCB7170080138807FAB7178D
:101B30000080938707FB371700801307C77383263E
:101B4000C4FE370600801306067D832584FE370514
:101B5000008013050500EFE08FF6AD3BAA87232A2E
:101B6000F4FC032744FD832784FDB307F740BE85BB
:101B7000B77740201385C7DB2126832704FE910712
:101B800085460546BE85B71700801385C773EFE00D
:101B90002FE7B7774020138587DD4D29B7774020A1
:101BA000138587E465213D33AA87232CF4FC930534
:101BB00004FD02C0B7170080938807FAB7170080AA
:101BC000138807FB832784FE37070080130707006D
:101BD0008326C4FE370600801306067D3715008075
:101BE0001305C573EFE0DFE7F531AA87232AF4FC7C
:101BF000032744FD832784FDB307F740BE85B777ED
:101C00004020138587DEAD2C832704FE910785468F
:101C10000546BE85B71700801385C773EFE04FDE1A
:101C2000B7774020138587DD1521B77740201385CE
:101C300047E029294531AA87232CF4FCEFE07F8A6D
:101C40005139AA87232AF4FC032744FD832784FD06
:101C5000B307F740BE85B7774020138507E10D2411
:101C6000B7774020138507E3D526AD31AA87232C0B
:101C7000F4FC832544FEB7270080138547F4EFE08A
:101C8000FF818939AA87232AF4FC032744FD83278F
:101C900084FDB307F740BE85B7774020138507E181
:101CA000C522832744FE8A0785460146BE85B7279D
:101CB0000080138547F4EFE0AFD4B7774020138559
:101CC00087DD6926B7774020138547E5412619311E
:101CD000AA87232CF4FCB727008093884771B71795
:101CE0000080138807FAB7170080938707FB371720
:101CF00000801307C7738326C4FE370600801306CF
:101D0000067D832584FE3705008013050500EFE07E
:101D1000CFE6C936AA87232AF4FC032744FD83278C
:101D200084FDB307F740BE85B77740201385C7DB36
:101D3000812A85460546832504FEB7170080138552
:101D4000C773EFE0EFCBB7774020138587DDFD2C1D
:101D5000B7774020138507E6D52CAD3EAA87232C04
:101D6000F4FC930504FD02C0B7170080938807FABE
:101D7000B7170080138807FB832784FE370700808E
:101D8000130707008326C4FE370600801306067D6E
:101D9000371500801305C573EFF08FA7253EAA877E
:101DA000232AF4FC032744FD832784FDB307F7406F
:101DB000BE85B7774020138587DED9208546054646
:101DC000832504FEB71700801385C773EFE04FC368
:101DD000B7774020138587DD952CB7774020138592
:101DE00047E0AD24C53CAA87232CF4FCEFE06FEF5D
:101DF000D534AA87232AF4FC032744FD832784FDD6
:101E0000B307F740BE85B7774020138507E18D28DB
:101E1000B7774020138507E3152C6D3CAA87232C48
:101E2000F4FC832544FEB7270080138547F4EFE0D8
:101E3000EFE64D34AA87232AF4FC032744FD8327C9
:101E400084FDB307F740BE85B7774020138507E1CF
:101E50000528832744FE8A0785460146BE85B727A5
:101E60000080138547F4EFE0AFB9B77740201385C2
:101E700087DDE92A81473E85F250625421618280E4
:101E800039713EDA2ED232D436D63AD842DC46DE2A
:101E90009707C05F9387878722CC804326CA06CEE8
:101EA000AA8409C41C4C99E32285D5230C44541000
:101EB0002686228536C6EF00F02DF2406244D244D9
:101EC0002161828001119707C05F9387278422CC0C
:101ED000804306CEAA8519C41C4C89E72AC62285F0
:101EE0007D23B245104422856244F240056109A079
:101EF000011122CC06CE2A8401C91C4D91E732C6BD
:101F00002EC471233246A24597570000938747F8A5
:101F10006315F60250401C46FD171CC663DF07021E
:101F2000184E63C7E70093F7F50F29476397E70259
:101F300022856244F24005610DA297570000938705
:101F400027F76314F6001044F9B7975700009387FA
:101F500027F2E312F6FC50447DBF1C4213F5F50F47
:101F60001387170018C22380B700F240624405614E
:101F70008280011126CA4AC806CE22CC4EC652C45F
:101F8000AA842E8901C51C4D91E311239C4C8044E9
:101F900099E32685ED2997570000938767EF631C27
:101FA000F402C0408357C400A18BB1C71C48A1C72D
:101FB000FD59294A1C4483450900FD17B1E91CC499
:101FC00063DE07062286A94526854128FD5763085A
:101FD000F502294535A097570000938767ED6314F4
:101FE000F4008044C1B797570000938767E8E31B6C
:101FF000F4FAC04445BFA2852685052255D97D55F2
:10200000F2406244D2444249B249224A0561828088
:102010001CC4050963D70700184C63CBE70063892C
:1020200045011C401387170018C02380B70059B71B
:10203000228626851D20E31F35F7D1B71C40138764
:10204000170018C029472380E70061B797F7BF5FE3
:102050009387C76BAA85884329BF011122CC26CA62
:102060004AC806CE4EC6AA842E89328401C51C4DAC
:1020700091E3312997570000938787E16319F406AC
:10208000C0401C4C1CC48357C400A18BC9C31C484E
:10209000BDCF1C4808409379F90F1379F90F1D8DB6
:1020A0005C486346F500A2852685E9242DE51C449D
:1020B0000505FD171CC41C401387170018C023809A
:1020C00037015C486389A7008357C400858B81CBA7
:1020D000A9476316F900A2852685692C0DEDF2400B
:1020E00062444A85D2444249B24905618280975789
:1020F00000009387E7DB6314F400804459B79757D7
:1021000000009387E7D6E31EF4F6C0449DBFA28586
:10211000268521203DDD7D59D9B7411197F7BF5F55
:102120009387C75E26C2844322C44AC006C62A8952
:102130002E8489C49C4C99E32685912E97570000E4
:10214000938707D5631CF402C0400317C40093179C
:102150000701C18393F68700B5EE93F607019DEE64
:10216000A5472320F900136707042316E4007D55D3
:10217000B2402244924402494101828097570000B4
:10218000938707D36314F4008044C1B797570000C6
:10219000938707CEE31BF4FAC04445BF918B8DC7EC
:1021A0004C5889C9930744046384F5004A85C52BBC
:1021B000232A04028357C4002322040093F7B7FDA7
:1021C0002316F4001C481CC08357C40093E7870003
:1021D0002316F4001C4881EF8357C4001307002026
:1021E00093F707286385E700A2854A85BD218357B9
:1021F000C40013F7170005C75C4823240400B30785
:10220000F0401CCC1C480145A5F78317C40013F708
:10221000070839DF93E707042316F40089BF898B89
:10222000014791E3584818C4F1BF83D7C500011195
:1022300022CC26CA06CE4AC84EC613F78700AA8407
:102240002E8465E7D8416347E000B8416344E0006D
:102250000145C1A058546DDF03A9040093963701CE
:1022600023A0040063DE060668488357C400918BF0
:1022700099C75C401D8D5C5899C33C401D8D5C54D2
:102280000C502A86814626858297FD570357C40045
:10229000631DF5009440F54763E4D708B707402075
:1022A0008507B3D7D700858BA5CF1C482322040010
:1022B0001CC09317370163D80700FD576314F5005E
:1022C0009C4091E368C84C5823A02401D1D19307C6
:1022D00044046384F5002685D921232A04028DBF96
:1022E0000C508546014626850297FD57E31FF5F6FB
:1022F0009C40A5DF75476385E70059476395E70074
:1023000023A02401B1B78357C40093E70704231621
:10231000F400F2406244D2444249B24905618280ED
:10232000136707042316E400EDB783A90501E381D1
:1023300009F203A905008D8B23A03501330939412A
:10234000014791E3D84918C4E35420F11C540C50C0
:10235000CA864E8626858297634AA0008357C400AA
:102360007D5593E707042316F40065B7AA9933094E
:10237000A940D9BF9C49B9CF011122CC06CE2A84ED
:1023800011C51C4D81E72EC61922B2459757000092
:10239000938707B0639BF5004C408397C50095C7B2
:1023A00022856244F240056149B597570000938742
:1023B00027B06394F5000C44CDB79757000093877E
:1023C00027ABE39CF5FC4C44C9BFF2406244014595
:1023D0000561828001458280411122C406C62A849B
:1023E0002316B5002317C50023200500232205006E
:1023F000232405002322050623280500232A05009F
:10240000232C0500214681451305C505ED249717AA
:102410000000938707855CD0971700009387678734
:102420001CD4971700009387A78B5CD497170000E4
:102430009387678E00D01CD8B2402244410182802D
:1024400097050000938545F3B9A2411126C21306F2
:1024500080069384F5FFB384C4024AC02E8922C447
:1024600006C693854407D5262A8419C9232005006A
:1024700023222501310508C4138684068145A52C35
:102480002285B240224492440249410182801C4D7F
:10249000BDE3411106C622C497070000938787FA5F
:1024A0001CD597F7BF5F9387A7269C432324050479
:1024B00023260504232805046314F50085471CCD55
:1024C0002A841D2848C02285052808C422852D207D
:1024D00048C4484001469145013708440546A54592
:1024E000E53D48440946C945C53D85471CCCB24039
:1024F0002244410182808280411197F7BF5F938718
:10250000272126C284434AC006C69C4C22C42A897D
:1025100099E32685AD3F938484048044DC40FD1715
:1025200063D607009C40B1CF8440C5BF0317C400E9
:1025300031E7C177850723220406232004002322E4
:102540000400232404005CC423280400232A04007C
:10255000232C0400214681451305C405692A232A3A
:102560000402232C040223240404232604042285C9
:10257000B2402244924402494101828013048406FD
:1025800079BF91454A85D13588C02A8451FDB1472C
:102590002320F900E9BF797122D44AD052CC56CA1F
:1025A0005AC85EC606D626D24ECE2A8AAE8A1304F2
:1025B00085040149054BFD5B09ECB25022544A8564
:1025C00092540259F249624AD24A424BB24B456197
:1025D0008280044483294400FD1963D4090000402B
:1025E000E1BF83D7C400637BFB008397E40063876C
:1025F0007701A6855285829A3369A900938484065F
:10260000E1BF1971A6DAAE848395E500A2DC86DE0F
:10261000328463DC050083D7C40023A0060093F74F
:1026200007089DE39307004015A0300836C6B92778
:10263000B246E34205FE7247BD67F98F7977BA97D4
:1026400093B717009CC2F9BF930700041CC0F65053
:102650006654D65401450961828083D7C5000111B3
:1026600022CC06CE26CA4AC8898B2E8489CF9307EE
:1026700074041CC01CC885475CC8F2406244D24444
:1026800042490561828074003000AA849D3FA245C2
:102690002A8926855D2A01ED8317C40013F70720D8
:1026A00069FFF19B93E727002316F400C9B797074A
:1026B0000000938727D99CD48357C40008C008C85A
:1026C00093E707082316F400A2475CC8B24789CFF6
:1026D0008315E4002685E12D01C98357C400F19BD1
:1026E00093E717002316F4008357C4003369F900F9
:1026F0002316240159B73D432A876373C302937796
:10270000F700BDEFADE5937606FF3D8ABA960CC3A0
:102710004CC30CC74CC74107E36BD7FE11E2828064
:10272000B306C3408A069702000096966780A6000B
:102730002307B700A306B7002306B700A305B70019
:102740002305B700A304B7002304B700A303B70011
:102750002303B700A302B7002302B700A301B70009
:102760002301B700A300B7002300B700828093F5D0
:10277000F50F93968500D58D93960501D58D61B79C
:10278000939627009702000096968682E78086FA45
:102790009680C1171D8F3E96E374C3F8A5B7CDC5CB
:1027A00083A7C5FF411122C406C626C21384C5FFF4
:1027B00063D307003E94AA84952D97F7BF5F938754
:1027C00067F79C4389EF2322040097F7BF5F23A399
:1027D00087F62244B24026859244410189AD637E4A
:1027E000F40014403307D4006396E7009843DC43B9
:1027F000369718C05CC0D1BFBA87D84319C3E37DF0
:10280000E4FE94433386D700631F86001040B296DF
:1028100094C33386D700E31EC7FA10435843B296D9
:1028200094C3D8C37DB76375C400B1479CC055B786
:102830001040B306C4006316D70014435843B29641
:1028400014C058C0C0C371B78280011126CA9384D6
:102850003500F19806CE22CC4AC84EC6A104B14735
:1028600063F7F404B14463E6B4042A89C12397F7FB
:10287000BF5F938727EC98433A8431E497F7BF5FB3
:10288000938787EB9C4381EB81454A854D2697F7DB
:10289000BF5F23A3A7EAA6854A85512EFD59631978
:1028A0003507B1472320F9004A85512329A0E3DCED
:1028B00004FAB1471CC10145F2406244D244424986
:1028C000B249056182801C40858F63C00704AD4614
:1028D00063F6F6001CC03E9404C001A85C4063147B
:1028E000870217F7BF5F2327F7E44A85892313057B
:1028F000B4009307440061993307F54055DF3A94DB
:10290000898F1CC055BF5CC3CDB722874040B5B787
:10291000130435007198E30185FCB305A4404A8592
:102920003926E31B35FBB5BF1C46FD171CC663DA11
:102930000700184E63C5E700A9476394F5006FF0E0
:10294000CFF11C422E851387170018C22380B700D1
:102950008280011122CC26CA4AC84EC652C406CE75
:102960002A89AE893284B304D6007D5A6314940058
:10297000014509A8834504004E864A85753705043C
:10298000E31645FFF2406244D2444249B249224A2A
:1029900005618280357122CD26CB4AC94EC706CF4C
:1029A00052C556C35AC1DEDEE2DCE6DAAA89AE843D
:1029B0003289368409C51C4D99E3EFF05FAD974726
:1029C00000009387E74C639BF40C83A4490083D7F2
:1029D000C400A18BF5C79C48E5C793070002A30478
:1029E000F1029307000302D22305F10222C6930BE2
:1029F0005002974A0000938AAA4D054C294B4A84FD
:102A00008347040099C36390770FB30C2441638D0F
:102A10000C00E6864A86A6854E85253FFD5763064F
:102A2000F51E9256E69636D283470400638F071C44
:102A3000FD571309140002C802CE3ECA02CCA309F6
:102A4000010482D48345090015465685D92613040E
:102A50001900C24759E913F7070109C71307000214
:102A6000A309E10413F7870009C71307B002A309FC
:102A7000E104834609001307A0026380E608F247D9
:102A80004A84814625460347040093051400130732
:102A900007FD6379E60AB5CA3ECE85A897470000D0
:102AA000938707416395F40083A489000DB7974786
:102AB00000009387E73BE39CF4F083A4C90001BFC7
:102AC000A6854E85EFF06FE509D97D55FA406A4439
:102AD000DA444A49BA492A4A9A4A0A4BF65B665C82
:102AE000D65C0D618280050421BF33055541331545
:102AF000AC00C98F3EC82289B1B732479306470060
:102B0000184336C6634907023ACE034704009307C9
:102B1000E002631FF704034714009307A002631B3E
:102B2000F702B2470904138747009C433AC663C1C2
:102B300007023ECA35A83307E04093E727003ACEA4
:102B40003EC8E1B7B387670385462E84BA9725BF91
:102B5000FD57C5B7050402CA81468147254603478C
:102B6000040093051400130707FD6376E606F1F2EF
:102B7000834504000D46174500001305E535512C2B
:102B800011CD97470000938727351D8D93070004CB
:102B9000B397A700424505045D8D2AC8834504000C
:102BA0001946174500001305653313091400230463
:102BB000B10285243DC197D7BFDF9387A74495E72E
:102BC0004247B2471377071009CF91073EC6925785
:102BD000D2973ED22DB5B387670385462E84BA9728
:102BE000BDBF9D07E19BA107D5B778009706000000
:102BF000938666D626860C084E8597000000E7006F
:102C00000000FD572A8AE314F5FC83D7C40093F72C
:102C10000704E39C07EA125555BD780097060000AB
:102C2000938666D326860C084E85092ED9BF41119E
:102C300022C42A842E859707C05F23A5073406C6C1
:102C4000412DFD576319F5009707C05F93878733C0
:102C50009C4391C31CC0B240224441018280411177
:102C600022C42E848395E50006C69D2B634905008A
:102C70007C48AA977CC8B240224441018280835795
:102C8000C4007D777D17F98F2316F400EDB783D745
:102C9000C500011122CC26CA4AC84EC606CE93F7FB
:102CA0000710AA842E843289B68991C78395E500DE
:102CB000894601462D228357C4007D777D17F98F01
:102CC0002316F4008315E4006244F240CE864A865F
:102CD000B24942492685D24405613DA8411122C42A
:102CE0002E848395E50006C6DD28FD570357C400F2
:102CF000631BF500FD77FD17F98F2316F400B24032
:102D00002244410182808567D98F2316F40068C868
:102D1000FDB78395E5001DA8411122C42A842E85A4
:102D2000B28536869707C05F23AE072406C6052501
:102D3000FD576319F5009707C05F9387A7249C434D
:102D400091C31CC0B240224441018280411122C47F
:102D50002A842E859707C05F23A6072206C65D2911
:102D6000FD576319F5009707C05F9387A7219C4320
:102D700091C31CC0B240224441018280411122C44F
:102D80002A842E85B2859707C05F23AD071E06C62D
:102D90005D21FD576319F5009707C05F9387871E74
:102DA0009C4391C31CC0B240224441018280411126
:102DB00022C42A842E859707C05F23A5071C06C658
:102DC0007129FD576319F5009707C05F9387871B2B
:102DD0009C4391C31CC0B2402244410182804111F6
:102DE00022C42A842E85B28536869707C05F23AB1E
:102DF000071806C66121FD576319F5009707C05FE4
:102E0000938747189C4391C31CC0B24022444101A0
:102E1000828093F5F50F2A966314C50001458280E0
:102E200083470500E38DB7FE0505FDB782808280EC
:102E3000797156CA9C49BA8A984522D426D24ECE78
:102E400052CC06D64AD05AC85EC6AA892E84B2840D
:102E5000368A63D3E700BA879CC00347340419C39A
:102E600085079CC01C4093F7070281C79C408907D7
:102E70009CC00329040013796900631A0900130B2D
:102E80009401FD5B5C449840998F634CF9041C40AD
:102E90008346340493F70702B336D000A5EB13063C
:102EA0003404D2854E85829AFD576303F5041C4095
:102EB00011469840998B544481446397C700B3846A
:102EC000E64063D3040081441C4418486354F7006F
:102ED000998FBE94014969047D5B6398240501457F
:102EE00009A885465A86D2854E85829A631E750149
:102EF0007D55B250225492540259F249624AD24A44
:102F0000424BB24B456182800509ADBF3307D40007
:102F100013060003A301C704034754049387160054
:102F2000A2978906A381E7049DBF85462286D285A4
:102F30004E85829AE30E65FB050945B7797122D467
:102F400026D24AD04ECE06D652CC56CA5AC8B689D8
:102F500083C685019307E0063289AA842E841386EE
:102F600035046380F61E63E2D7069307300663825A
:102F7000F60A63EDD700638A061E93078005638611
:102F8000F616930A24042301D40469A89307400683
:102F90006386F60093079006E395F6FE1C4008430F
:102FA00093F6070893054500C1C21C410CC363D8C2
:102FB00007001307D002B307F040A301E4049746CB
:102FC0000000938626F2294765A0930730076382A5
:102FD000F61A63EFD7009307F006638FF6049307A2
:102FE0000007E390F6FA9C4193E707029CC109A809
:102FF000930750076382F60493078007E393F6F87C
:1030000093078007A302F404974600009386C6EE58
:10301000DDA01C43938A2504938647009C4314C378
:103020002381F5048547B5A293F607041C410CC320
:10303000BDDEC207C187A5BF0C401C4313F80508BD
:10304000138547006305080008C39C4339A093F526
:10305000050408C3FDD983D707001307F006638A68
:10306000E60C974600009386E6E72947A30104048F
:103070004C400CC463C5050008406D9908C099E335
:10308000B28A91CDB28AB3F5E702FD1AB69583C52F
:1030900005002380BA00B3D5E70263F2E70AA1472F
:1030A000631EF7001C40858B91CB58401C4863C7BA
:1030B000E70093070003A38FFAFEFD1A330656417B
:1030C00010C84E87CA867000A285268595337D5A22
:1030D0006315450D7D55B250225492540259F24960
:1030E000624AD24A424B45618280A382D504974608
:1030F0000000938626DF0C40084313F805081C41A6
:1031000011056300080208C313F7150001C793E512
:1031100005020CC04147B9FB0C4093F5F5FD0CC00E
:10312000B1B713F8050408C3E30008FEC207C18362
:10313000E1BF974600009386E6DA214705BFAE87D8
:1031400099B794411C43CC4913F8060813854700EE
:103150006306080008C39C438CC301A808C393F608
:1031600006049C43F5DA2390B70023280400B28AB2
:1031700089BF1C43D04181459386470014C383AA6D
:1031800007005685EFF0FFC801C53305554148C01B
:103190005C401CC8A30104042DB714485686CA8598
:1031A00026858299E30845F31C40898B8DE7B24759
:1031B0004844E352F5F23E8539BF85465686CA85B6
:1031C00026858299E30865F1050A5C443247998FA8
:1031D000E345FAFEE9BF014A930A94017D5BF5B726
:1031E000411122C42A842E85B28536869707C05F96
:1031F00023AA07D806C64528FD576319F500970787
:10320000C05F938727D89C4391C31CC0B24022441F
:1032100041018280011106CE22CC00102326A4FE9B
:103220005D222A87930780051CC3FD573E85F24027
:10323000624405618280011106CE22CC0010232653
:10324000A4FE2324B4FE41222A87930780FA1CC3DC
:10325000FD573E85F240624405618280011122CE15
:1032600000102326A4FE8327C4FEFD1793B7170082
:1032700093F7F70F3E85724405618280011106CEF7
:1032800022CC00102326A4FE2324B4FE2322C4FE55
:103290001D2A2A87930780051CC3FD573E85F240EF
:1032A000624405618280011106CE22CC00102326E3
:1032B000A4FE2324B4FE2322C4FE31222A879307CE
:1032C00080051CC3FD573E85F24062440561828043
:1032D000797122D60018232EA4FCB717008083A78B
:1032E00007712326F4FEB737008013874738B747A6
:1032F0000080938747B86314F700FD57A9A0B7175C
:10330000008003A707718327C4FD3E97B74700805D
:10331000938747B86370F702B717008003A7077158
:103320008327C4FD3E97B717008023A8E770832743
:10333000C4FE11A8B717008037470080130747B8AD
:1033400023A8E770FD573E8532544561828079712C
:1033500006D622D40018232EA4FC232CB4FC232A46
:10336000C4FC0327C4FD85476309F700A9282A8701
:10337000930780051CC3FD572DA8832784FD2324B4
:10338000F4FE232604FE39A8032784FE8327C4FE07
:10339000BA9783C707003E85B12C8327C4FE8507F3
:1033A0002326F4FE0327C4FE832744FDE36EF7FCC7
:1033B00081473E85B250225445618280AA8581466C
:1033C00001460145F1A897E7BF5F938727348843FB
:1033D0008280411122C406C69707000093874715D3
:1033E0002A8499C38145992297E7BF5F9387473223
:1033F00088431C5591C382972285EF309007411175
:10340000974700009387C7E522C4174400001304C0
:1034100024E51D8C26C206C60984BE8411E4B24090
:1034200022449244410182807D1493172400A69780
:103430009C438297E5B7411197470000938707E2C5
:1034400022C417440000130464E11D8C26C24AC044
:1034500006C6098481443E8963968402974700002A
:103460009387C7DF17440000130484DF1D8C098491
:1034700081443E89639F8400B240224492440249C1
:103480004101828093972400CA979C4385048297C8
:10349000E1B793972400CA979C4385048297D9BFCC
:1034A00097E7BF5F938787299C432A8E8DE717078D
:1034B000C05F130767A497E7BF5F23A1E72817D56D
:1034C000BFDF130525B4BA8719C51C411705C05FB6
:1034D0002328F5AABA87D8437D487D556347E80479
:1034E000630E0E0203A887086301080493182700DF
:1034F000C29823A0C8000323081005463316E6002F
:103500003363C3002320681023A0D80889466317BB
:10351000DE0083264810558E2322C810930617001C
:103520000A07D4C3BA978CC701458280797152CCFF
:1035300056CA5AC85EC606D622D426D24AD04ECE25
:1035400062C42A8B2E8A97EABF5F938A2A1F854B13
:1035500003A40A0011C84440832984081389F4FF96
:103560008A04A294635E0900B25022549254025914
:10357000F249624AD24A424BB24B224C45618280A8
:10358000630E0A00639509007D19F114E1BF9317DA
:103590002900CE9783A70708E39847FF5840DC40EF
:1035A0007D176318270323222401F9DF032C44002D
:1035B0006388090083A6091033972B01F98E89EEE1
:1035C0008297584083A70A00E31487F9E30EF4FAC0
:1035D00041B723A20400D1BF93162900CE968C4296
:1035E00083A64910758F01E75A858297D9BF2E852A
:1035F0008297C1BF011106CE22CC00102326A4FE63
:103600000327C4FEA9476314F70035451128032595
:10361000C4FE3920AA873E85F2406244056182805B
:10362000011106CE22CC00102326A4FE8325C4FE61
:10363000B71700801385876EB128AA873E85F240B0
:10364000624405618280411106C622C40008F16708
:1036500093850720B71700801385876E31200100FE
:10366000B240224441018280011106CE22CC0010DA
:103670002326A4FE2324B4FE8327C4FE9C439C433C
:10368000832584FE0325C4FE82970100F240624434
:1036900005618280011106CE22CC00102326A4FEF3
:1036A0002324B4FE8327C4FE9C43DC43832584FE8D
:1036B0000325C4FE8297AA873E85F24062440561D5
:1036C0008280011106CE22CC00102326A4FE2324E2
:1036D000B4FE8327C4FE9C43DC4B832584FE032574
:1036E000C4FE8297AA873E85F240624405618280CB
:1036F000011122CE00102326A4FE0327C4FE9387C7
:1037000001816315F700B707000211A081473E85CC
:10371000724405618280011122CE00102326A4FE8E
:103720000327C4FE938701816314F700894711A022
:1037300081473E85724405618280011122CE0010CE
:103740002326A4FE2324B4FE832784FE91E7B71723
:1037500000809387070321A8032784FE854763170A
:10376000F700B71700809387070311A081473E85B4
:10377000724405618280011122CE00102326A4FE2E
:103780002324B4FE832784FE99E38D4709A80327E9
:1037900084FE85476314F7009D4711A081473E854D
:1037A0007244056182805D7186C6A2C4CAC2CEC061
:1037B00052DE56DC5ADA5ED862D666D48008232EF2
:1037C000A4FA8327C4FB3E8525372326A4FC0327C0
:1037D000C4FCB167F117BA979C432324F4FC032778
:1037E000C4FCB167E117BA979C432322F4FC03277A
:1037F000C4FCB167F117BA979C43032784FCE31814
:10380000F7FC832784FC3E8C814C93190C00014902
:10381000832744FC3E8A814A336B4901B3EB59014B
:10382000DA875E883E85C285B640264416498649B9
:10383000725AE25A525BC25B325CA25C6161828066
:10384000797106D622D44AD24ED00018232EA4FC79
:10385000232CB4FC2328C4FC232AD4FC8327C4FDD6
:103860002326F4FE8327C4FE3E8559352324A4FE77
:10387000832784FD8E073E87832784FE3E979167CA
:103880009107BA973E87FD571CC3832784FD8E0797
:103890003E87832784FE3E979167BA973E878327AA
:1038A00004FD1CC3832744FD13D9070081498327E6
:1038B00084FD8E073E87832784FE3E97916791079C
:1038C000BA974A8798C381473E85B250225412590D
:1038D000825945618280011106CE22CC0010232638
:1038E00004FEF32740F12326F4FE8327C4FE3E8521
:1038F000EF30E0212324A4FE032584FEEF30C01E18
:10390000AA873E85F240624405618280397106DEF5
:1039100022DC80002326A4FC0325C4FCED3B2324E9
:10392000A4FE8327C4FC2322F4FE832744FEDC4349
:10393000A9EF232604FE81A08325C4FE0325C4FC31
:10394000ED3B2320A4FE8325C4FE0325C4FC2535BE
:10395000232EA4FC832704FE9C43DC4F8326C4FC57
:1039600001468325C4FD032504FE82978327C4FEF8
:1039700085072326F4FE0327C4FE832784FEE34D38
:10398000F7FA832744FE0547D8C30100F25062547A
:1039900021618280397106DE22DC80002326A4FCAE
:1039A0002324B4FC2322C4FC2320D4FCFD5723266B
:1039B000F4FEEF1040362320A4FE232404FE213F12
:1039C000232EA4FC0325C4FCB933232CA4FC032719
:1039D00004FE85476308F700832704FE81C7832719
:1039E000C4FE49A0232204FE91A0832544FE0325A2
:1039F000C4FC5133232AA4FC832544FE0325C4FCC4
:103A00002D3B2324A4FE0327C4FD832784FE6318D3
:103A1000F700032784FC832744FD6300F702232477
:103A200004FE832744FE85072322F4FE032744FE79
:103A3000832784FDE34BF7FA11A00100832784FE5E
:103A400085C3832784FE9C43DC4F832604FC032626
:103A500044FC832584FC032584FE82972326A4FE50
:103A60008327C4FE3E85F2506254216182807971C1
:103A700022D60018232EA4FC232CB4FC232AC4FC39
:103A80002328D4FCFD572326F4FE8327C4FE3E855D
:103A9000325445618280011106CE22CC00102326CB
:103AA000A4FEEF104027AA873E85F24062440561DC
:103AB0008280797106D622D40018232EA4FC232CF0
:103AC000B4FCFD572326F4FE39352324A4FE8327B6
:103AD00084FE95C3032784FD854763EFE7008327B2
:103AE00084FE9C43DC43832584FD032584FE82976A
:103AF0002326A4FE11A001008327C4FE3E85B250F8
:103B0000225445618280397106DE22DC8000232642
:103B1000A4FC2324B4FCFD572326F4FE832784FC55
:103B2000C1CB232404FE453B2320A4FE0325C4FC73
:103B3000EFF07FBE232EA4FC232204FEA1A0832548
:103B400044FE0325C4FCEFF01FC3232CA4FC8325F3
:103B500044FE0325C4FCEFF05FBE2324A4FE03272C
:103B600004FE832784FE6318F700032784FC832761
:103B700084FD6300F702232404FE832744FE8507A7
:103B80002322F4FE032744FE8327C4FDE349F7FA0A
:103B900011A00100832784FE81CF832784FE9C43EC
:103BA000DC53832584FC032584FE82972326A4FE10
:103BB0008327C4FE3E85F2506254216182803971B0
:103BC00006DE22DC80002326A4FC2324B4FCFD575F
:103BD0002326F4FE832784FCC9CB232404FEEFF0C4
:103BE0009FCF2320A4FE0325C4FCEFF0DFB2232ED9
:103BF000A4FC232204FEA1A0832544FE0325C4FCCB
:103C0000EFF07FB7232CA4FC832544FE0325C4FCDE
:103C1000EFF0BFB22324A4FE032704FE832784FE13
:103C20006318F700032784FC832784FD6300F702F1
:103C3000232404FE832744FE85072322F4FE032762
:103C400044FE8327C4FDE349F7FA11A0010083274E
:103C500084FE81CF832784FE9C439C57832584FC6C
:103C6000032584FE82972326A4FE8327C4FE3E8577
:103C7000F250625421618280797106D622D40018F4
:103C8000232EA4FC232CB4FC232AC4FCFD5723269A
:103C9000F4FE8327C4FD2324F4FE0325C4FDEFF0C6
:103CA0003FA52322A4FE032784FD89476309F70467
:103CB000032784FD894763C8E700032784FD854700
:103CC000630EF700F1A8032784FD8D47630DF70409
:103CD000032784FD91476309F708D9A0832744FD92
:103CE000CDCB032584FEEFF01FACAA872E880327D7
:103CF00044FD1CC323220701232604FE59A8832761
:103D000044FDD1CB832744FD9C432320F4FE83272D
:103D100004FE8A073E87832744FEBA9723A0070044
:103D2000232604FE8DA8832744FDA5CB832744FDCD
:103D30009C432320F4FE832704FE8A073E878327C3
:103D400044FEBA973E8785471CC30F008004832733
:103D500004FE8A073E87832744FEBA979C432326A6
:103D6000F4FE232604FE15A8232604FE832744FD23
:103D70009DC7832744FD9C432320F4FE832704FE34
:103D80008A073E87832744FEBA979C432326F4FE86
:103D900039A0010031A0010021A0010011A0010003
:103DA0008327C4FE3E85B2502254456182807971DA
:103DB00006D622D40018232EA4FC232CB4FCEF201A
:103DC000B057AA872326F4FE9307C4FE3E86894592
:103DD0000325C4FD5535AA873E85B250225445615E
:103DE0008280797106D622D40018232EA4FC232CBD
:103DF000B4FCEF207054AA872326F4FE9307C4FE78
:103E00003E868D450325C4FD853DAA873E85B2507B
:103E1000225445618280011122CE00102326A4FE87
:103E20000327C4FE938781816314F700814711A0A3
:103E3000FD573E85724405618280011122CE00103B
:103E40002326A4FE0327C4FE938781816317F7000E
:103E5000B7470F009387072411A081473E8572441E
:103E600005618280011122CE00102326A4FE0327C3
:103E7000C4FE938781816317F700B717008093878B
:103E8000070311A081473E857244056182800111BC
:103E900022CE00102326A4FE8327C4FE634AF0002E
:103EA0000327C4FE0A079387C180BA979C4311A0D9
:103EB00081473E85724405618280011122CE001047
:103EC000F32740F12326F4FE8327C4FE3E85724487
:103ED00005618280011122CE0010A147F3A70730AF
:103EE0002326F4FE0100724405618280011122CE76
:103EF0000010A147F3B707302326F4FE01007244F7
:103F000005618280011122CE0010A147F3A747303E
:103F10002326F4FE0100724405618280011122CE45
:103F20000010A147F3B747302326F4FE0100724486
:103F300005618280011122CE001093070008F3A7CB
:103F400047302326F4FE010072440561828001118E
:103F500022CE001093070008F3B747302326F4FE63
:103F60000100724405618280011122CE0010856734
:103F700093870780F3A747302326F4FE010072449D
:103F800005618280011122CE00108567938707802A
:103F9000F3B747302326F4FE0100724405618280A6
:103FA000797122D60018232EA4FC8327C4FD05476F
:103FB000B317F7002326F4FE8327C4FEF3A7473088
:103FC0002324F4FE0100325445618280797122D6A7
:103FD0000018232EA4FC8327C4FD0547B317F70060
:103FE0002326F4FE8327C4FEF3B747302324F4FED0
:103FF0000100325445618280011106CE22CC0010AE
:104000002326A4FE2324B4FE13054006EF207034BB
:10401000011106CE22CC00102326A4FE2324B4FED8
:104020001305800CEF20F0325D7186C696C49AC2EB
:104030009EC022DE2ADC2EDA32D836D63AD43ED2E0
:1040400042D046CE72CC76CA7AC87EC680081305A6
:10405000C012EF2010301D7186CE96CC9ACA9EC831
:10406000A2C6AAC4AEC2B2C036DE3ADC3EDA42D83C
:1040700046D672D476D27AD07ECE80103D3D2A8745
:104080000A079387C180BA979C432326F4FA8327B3
:10409000C4FA85C70325C4FAF1332324A4FA83277D
:1040A00084FA83A7070E2322F4FA832784FA83A7CE
:1040B000870D832544FA0D4582970100F640E642BC
:1040C0005643C6433644264596450646F256625741
:1040D000D2574258B258225E925E025FF24F25617B
:1040E00073002030797106D622D40018232EA4FC48
:1040F000232CB4FCD9332A870A079387C180BA9747
:104100009C432326F4FEF32720342324F4FE832744
:10411000C4FE9DC70325C4FEEFF0DFD42322A4FE16
:10412000832784FE93F7F73F032744FE9387070E08
:104130008A07BA979C478325C4FD0325C4FE82974E
:104140000100B2502254456182801D7186CE96CC0A
:104150009ACA9EC8A2C6AAC4AEC2B2C036DE3ADCB3
:104160003EDA42D846D672D476D27AD07ECE80104D
:10417000EFF0BFD42A870A079387C180BA979C4380
:104180002326F4FA8327C4FA8DC70325C4FAEFF077
:104190007FCD2324A4FA832784FA83A7071423223C
:1041A000F4FA832784FA83A78713832544FA1D45ED
:1041B00082970100F640E6425643C6433644264500
:1041C00096450646F2566257D2574258B258225E7A
:1041D000925E025FF24F256173002030797106D63E
:1041E00022D40018232EA4FC232CB4FCEFF0FFCC27
:1041F000AA873E85EFF0BFC92326A4FE0325C4FE8F
:10420000EF1040172320A4FE2322B4FE832704FED0
:10421000032844FEA9450146B386B70036853335E9
:10422000F5003307C800B307E5003E87B6873A8834
:10423000BE8542860325C4FEEF10201A0100B2504D
:104240002254456182800000000000000000000050
:10425000000000000000000000000000000000005E
:10426000000000000000000000000000000000004E
:10427000000000000000000000000000000000003E
:10428000197186DE96DC9ADA9ED8A2D6AAD4AED26E
:10429000B2D0B6CEBACCBECAC2C8C6C6F2C4F6C286
:1042A000FAC07EDE0001EFF05FC12A870A0793871C
:1042B000C180BA979C432326F4FAF32720342324A1
:1042C000F4FAF32710342322F4FAF32730342320AE
:1042D000F4FAF3275030232EF4F88327C4FAE9C701
:1042E0000325C4FAEFF01FB8232CA4F8832784FA1F
:1042F00093F7F73F232AF4F8832784FA63D8070853
:10430000032744F9AD4763D7E7008327C4F993F740
:10431000F7039DEF832684F9032744F9BA878607BC
:10432000BA978E07B69783A787092326F4F88326C2
:1043300084F9032744F9BA878607BA978E07B69798
:1043400083A707098325C4F8032544F98297A9A800
:104350008327C4F913F7F70389476317F704F32793
:1043600070302328F4F8832784F983A7C70D232608
:10437000F4F8832704F99C432324F4F8832784F872
:104380008325C4F8032544F9829739A8032784F9C3
:10439000832744F99387070E8A07BA979C4783259A
:1043A00044F90325C4FA8297F650E6525653C65391
:1043B0003654265596550656F6466647D64746481D
:1043C000B648264E964E064FF25F096173002030C4
:1043D00000000000000000000000000000000000DD
:1043E00000000000000000000000000000000000CD
:1043F0000000000000001D7186CE96CC9ACA9EC8AF
:10440000A2C6AAC4AEC2B2C036DE3ADC3EDA42D898
:1044100046D672D476D27AD07ECE8010EFF0FFA945
:104420002A870A079387C180BA979C432326F4FA08
:104430008327C4FA8DC70325C4FAEFF0BFA2232453
:10444000A4FA832784FA83A787212322F4FA8327F7
:1044500084FA83A70721832544FA41458297010006
:10446000F640E6425643C643364426459645064640
:10447000F2566257D2574258B258225E925E025F9D
:10448000F24F2561730020301D7186CE96CC9ACAFA
:104490009EC8A2C6AAC4AEC2B2C036DE3ADC3EDABC
:1044A00042D846D672D476D27AD07ECE8010EFF043
:1044B000DFA02A870A079387C180BA979C432326E7
:1044C000F4FA8327C4FA8DC70325C4FAEFF09F9945
:1044D0002324A4FA832784FA83A707232322F4FA48
:1044E000832784FA83A78722832544FA4545829748
:1044F0000100F640E6425643C643364426459645FB
:104500000646F2566257D2574258B258225E925E21
:10451000025FF24F2561730020301D7186CE96CC6C
:104520009ACA9EC8A2C6AAC4AEC2B2C036DE3ADCDF
:104530003EDA42D846D672D476D27AD07ECE801079
:10454000EFF0BF972A870A079387C180BA979C43E9
:104550002326F4FA8327C4FA8DC70325C4FAEFF0A3
:104560007F902324A4FA832784FA83A78724232215
:10457000F4FA832784FA83A70724832544FA49455C
:1045800082970100F640E6425643C643364426452C
:1045900096450646F2566257D2574258B258225EA6
:1045A000925E025FF24F2561730020301D7186CE4E
:1045B00096CC9ACA9EC8A2C6AAC4AEC2B2C036DE03
:1045C0003ADC3EDA42D846D672D476D27AD07ECE63
:1045D0008010EFF09F8E2A870A079387C180BA97D1
:1045E0009C432326F4FA8327C4FA8DC70325C4FA13
:1045F000EFF05F872324A4FA832784FA83A7072692
:104600002322F4FA832784FA83A78725832544FA93
:104610004D4582970100F640E6425643C643364474
:10462000264596450646F2566257D2574258B2582A
:10463000225E925E025FF24F2561730020301D7191
:1046400086CE96CC9ACA9EC8A2C6AAC4AEC2B2C032
:1046500036DE3ADC3EDA42D846D672D476D27AD00A
:104660007ECE8010EFF07F852A870A079387C1806E
:10467000BA979C432326F4FA8327C4FA8DC70325EF
:10468000C4FAEFF02FFE2324A4FA832784FA83A729
:1046900087272322F4FA832784FA83A70727832511
:1046A00044FA514582970100F640E6425643C6431C
:1046B0003644264596450646F2566257D25742582A
:1046C000B258225E925E025FF24F25617300203085
:1046D0001D7186CE96CC9ACA9EC8A2C6AAC4AEC286
:1046E000B2C036DE3ADC3EDA42D846D672D476D252
:1046F0007AD07ECE8010EFF04FFC2A870A0793878E
:10470000C180BA979C432326F4FA8327C4FA8DC745
:104710000325C4FAEFF00FF52324A4FA832784FAC3
:1047200083A707292322F4FA832784FA83A78728FB
:10473000832544FA554582970100F640E6425643E8
:10474000C6433644264596450646F2566257D2572A
:104750004258B258225E925E025FF24F25617300AA
:1047600020301D7186CE96CC9ACA9EC8A2C6AAC415
:10477000AEC2B2C036DE3ADC3EDA42D846D672D499
:1047800076D27AD07ECE8010EFF02FF32A870A07F8
:104790009387C180BA979C432326F4FA8327C4FAEF
:1047A0008DC70325C4FAEFF0EFEB2324A4FA832787
:1047B00084FA83A7872A2322F4FA832784FA83A71B
:1047C000072A832544FA594582970100F640E642BC
:1047D0005643C6433644264596450646F25662572A
:1047E000D2574258B258225E925E025FF24F256164
:1047F000730020301D7186CE96CC9ACA9EC8A2C680
:10480000AAC4AEC2B2C036DE3ADC3EDA42D846D6E0
:1048100072D476D27AD07ECE8010EFF00FEA2A875B
:104820000A079387C180BA979C432326F4FA83270B
:10483000C4FA8DC70325C4FAEFF0CFE22324A4FA0B
:10484000832784FA83A7072C2322F4FA832784FA88
:1048500083A7872B832544FA5D4582970100F640A4
:10486000E6425643C6433644264596450646F2562A
:104870006257D2574258B258225E925E025FF24FA0
:104880002561730020301D7186CE96CC9ACA9EC8D1
:10489000A2C6AAC4AEC2B2C036DE3ADC3EDA42D804
:1048A00046D672D476D27AD07ECE8010EFF0EFE08A
:1048B0002A870A079387C180BA979C432326F4FA74
:1048C0008327C4FA8DC70325C4FAEFF0AFD9232498
:1048D000A4FA832784FA83A7872D2322F4FA832757
:1048E00084FA83A7072D832544FA61458297010046
:1048F000F640E6425643C6433644264596450646AC
:10490000F2566257D2574258B258225E925E025F08
:10491000F24F2561730020301D7186CE96CC9ACA65
:104920009EC8A2C6AAC4AEC2B2C036DE3ADC3EDA27
:1049300042D846D672D476D27AD07ECE8010EFF0AE
:10494000CFD72A870A079387C180BA979C4323262B
:10495000F4FA8327C4FA8DC70325C4FAEFF08FD089
:104960002324A4FA832784FA83A7072F2322F4FAA7
:10497000832784FA83A7872E832544FA6545829787
:104980000100F640E6425643C64336442645964566
:104990000646F2566257D2574258B258225E925E8D
:1049A000025FF24F2561730020301D7186CE96CCD8
:1049B0009ACA9EC8A2C6AAC4AEC2B2C036DE3ADC4B
:1049C0003EDA42D846D672D476D27AD07ECE8010E5
:1049D000EFF0AFCE2A870A079387C180BA979C432E
:1049E0002326F4FA8327C4FA8DC70325C4FAEFF00F
:1049F0006FC72324A4FA832784FA83A7873023224E
:104A0000F4FA832784FA83A70730832544FA69459B
:104A100082970100F640E6425643C6433644264597
:104A200096450646F2566257D2574258B258225E11
:104A3000925E025FF24F2561730020301D7186CEB9
:104A400096CC9ACA9EC8A2C6AAC4AEC2B2C036DE6E
:104A50003ADC3EDA42D846D672D476D27AD07ECECE
:104A60008010EFF08FC52A870A079387C180BA9715
:104A70009C432326F4FA8327C4FA8DC70325C4FA7E
:104A8000EFF04FBE2324A4FA832784FA83A70732CA
:104A90002322F4FA832784FA83A78731832544FAF3
:104AA0006D4582970100F640E6425643C6433644C0
:104AB000264596450646F2566257D2574258B25896
:104AC000225E925E025FF24F2561730020301D71FD
:104AD00086CE96CC9ACA9EC8A2C6AAC4AEC2B2C09E
:104AE00036DE3ADC3EDA42D846D672D476D27AD076
:104AF0007ECE8010EFF06FBC2A870A079387C180B3
:104B0000BA979C432326F4FA8327C4FA8DC703255A
:104B1000C4FAEFF02FB52324A4FA832784FA83A7DD
:104B200087332322F4FA832784FA83A70733832564
:104B300044FA714582970100F640E6425643C64367
:104B40003644264596450646F2566257D257425895
:104B5000B258225E925E025FF24F256173002030F0
:104B60001D7186CE96CC9ACA9EC8A2C6AAC4AEC2F1
:104B7000B2C036DE3ADC3EDA42D846D672D476D2BD
:104B80007AD07ECE8010EFF04FB32A870A07938742
:104B9000C180BA979C432326F4FA8327C4FA8DC7B1
:104BA0000325C4FAEFF00FAC2324A4FA832784FA78
:104BB00083A707352322F4FA832784FA83A787344F
:104BC000832544FA754582970100F640E642564334
:104BD000C6433644264596450646F2566257D25796
:104BE0004258B258225E925E025FF24F2561730016
:104BF00020301D7186CE96CC9ACA9EC8A2C6AAC481
:104C0000AEC2B2C036DE3ADC3EDA42D846D672D404
:104C100076D27AD07ECE8010EFF02FAA2A870A07AC
:104C20009387C180BA979C432326F4FA8327C4FA5A
:104C30008DC70325C4FAEFF0EFA22324A4FA83273B
:104C400084FA83A787362322F4FA832784FA83A77A
:104C50000736832544FA794582970100F640E642FB
:104C60005643C6433644264596450646F256625795
:104C7000D2574258B258225E925E025FF24F2561CF
:104C8000730020301D7186CE96CC9ACA9EC8A2C6EB
:104C9000AAC4AEC2B2C036DE3ADC3EDA42D846D64C
:104CA00072D476D27AD07ECE8010EFF00FA12A8710
:104CB0000A079387C180BA979C432326F4FA832777
:104CC000C4FA8DC70325C4FAEFF0CF992324A4FAC0
:104CD000832784FA83A707382322F4FA832784FAE8
:104CE00083A78737832544FA7D4582970100F640E4
:104CF000E6425643C6433644264596450646F25696
:104D00006257D2574258B258225E925E025FF24F0B
:104D1000256173002030011122CE0010F32750309E
:104D20002326F4FE8327C4FE93F7F7032326F4FE1D
:104D30000327C4FE8947630DF7000327C4FE8D4790
:104D4000630AF7000327C4FE85476307F70039A00D
:104D50008D4731A0914721A0854711A081473E850D
:104D6000724405618280797122D60018232EA4FC3A
:104D7000232CB4FCF32750302326F4FE8327C4FEF3
:104D800093F707FC2326F4FE832784FD2324F4FEF7
:104D90000327C4FD914763E0E7068327C4FD13970B
:104DA0002700B7774020938787F6BA979C4382877E
:104DB000832784FE739077308327C4FE93E7270010
:104DC000739057300DA8832784FE73907730832724
:104DD000C4FE93E737007390573031A8832784FED1
:104DE00093E717007390573039A0832784FEF19B17
:104DF00073905730010001003254456182800111E7
:104E000022CE00102326A4FE8327C4FEF517714787
:104E1000636DF70013972700B77740209387C7F794
:104E2000BA979C438287854719A0010081473E8538
:104E3000724405618280797106D622D40018232E2F
:104E4000A4FC232CB4FC232AC4FC232604FE8327C1
:104E5000C4FD99E3FD5749A8032784FDFD4763E09E
:104E6000E708832784FD13972700B77740209387AF
:104E700007FFBA979C438287832744FD81C7EFF0E1
:104E80006F858DA0EFF08F86B1A8832744FD81C781
:104E9000EFF04F8781A8EFF06F88A9A0832744FD2A
:104EA00081C7EFF02F893DA8EFF06F8A25A88327EF
:104EB00044FD81C7EFF04F8B35A0EFF0AF8C1DA004
:104EC000832744FD99C7832784FD3E85EFF04F8DEE
:104ED00011A8832784FD3E85EFF04F8F21A0FD5759
:104EE0002326F4FE8327C4FE3E85B250225445613A
:104EF0008280797122D60018232EA4FC232CB4FCC6
:104F0000232AC4FC8327C4FD2326F4FE032784FD43
:104F1000AD4763C2E702832744FD91CF0327C4FE58
:104F2000832784FD9387070E8A07BA97032744FDDA
:104F300098C7814711A0FD573E8532544561828054
:104F4000397106DE22DC80002326A4FC8327C4FC02
:104F50002322F4FE832744FEDC43639E0710FD57A3
:104F600073B04730FD5773B04734F3271030232018
:104F7000F4FE032704FE8967F98F99E7032704FEEF
:104F8000B7070400F98F99C7FD5773B03730FD5745
:104F900073B02730032704FEB7070400F98F81C7D9
:104FA000FD5773B00718232604FEB9A0832644FEDC
:104FB0000327C4FEBA878607BA978E07B69723A839
:104FC0000708832644FE0327C4FEBA878607BA97DC
:104FD0008E07B69723AA0708832644FE0327C4FE3C
:104FE000BA878607BA978E07B69723AC0708832738
:104FF000C4FE85072326F4FE0327C4FEFD47E3D73E
:10500000E7FA232404FE1DA0032744FE832784FE21
:105010009387070E8A07BA9737474020130787FF01
:1050200098C7832784FE85072324F4FE032784FE84
:10503000AD47E3DBE7FCB7474020938507280145F0
:10504000EFF07FD2F3271030232EF4FC0327C4FDAA
:10505000C16793878702F98F99CBF3270030232EFE
:10506000F4FC0327C4FD8967D98F73900730832729
:1050700044FE0547D8C30100F2506254216182808A
:10508000797106D622D40018232EA4FC232CB4FC5C
:10509000232AC4FC2328D4FC232604FE8327C4FD32
:1050A0002324F4FE032584FDEFF07FD5AA8799E33E
:1050B000D55711AA832744FD85CF832684FE032775
:1050C00084FDBA878607BA978E07B697032744FDF3
:1050D00023A8E708832684FE032784FDBA87860772
:1050E000BA978E07B697032704FD23ACE708D1A82B
:1050F000832784FDF51771476362F70C1397270028
:10510000B777402093870707BA979C438287832607
:1051100084FE032784FDBA878607BA978E07B69761
:10512000374740201307470E23A8E708832684FE4D
:10513000032784FDBA878607BA978E07B697032799
:1051400004FD23AAE708B5A8832684FE032784FD6F
:10515000BA878607BA978E07B69737474020130756
:10516000C71D23A8E708832684FE032784FDBA878A
:105170008607BA978E07B697032704FD23AAE70888
:1051800089A0832684FE032784FDBA878607BA9701
:105190008E07B697374740201307070123A8E70873
:1051A000832684FE032784FDBA878607BA978E0775
:1051B000B697032704FD23AAE70821A0D157232689
:1051C000F4FE8327C4FE3E85B2502254456182809E
:1051D000011106CE22CC00102326A4FE2324B4FE07
:1051E000832784FE0546BE850325C4FEEFF0BFC4B9
:1051F000AA873E85F240624405618280011106CE95
:1052000022CC00102326A4FE2324B4FE832784FE90
:105210000146BE850325C4FEEFF0FFC1AA873E8587
:10522000F240624405618280011106CE22CC00105A
:105230002326A4FEEFF03FAEAA873E85F2406244EB
:1052400005618280797106D622D40018232EA4FC31
:10525000232CB4FC8327C4FD2326F4FE832784FD7E
:1052600099EBB747402093850728032584FDEFF08D
:105270009FAF81470DA0032784FD8547631CF7007E
:10528000B7774020938507B8032584FDEFF0BFADC5
:10529000814711A0FD573E85B2502254456182805E
:1052A000011122CE00102326A4FE2324B4FE2322C3
:1052B000C4FE81473E85724405618280397122DED9
:1052C00080002326A4FC01438143232464FE23267B
:1052D00074FE732500B82322A4FE732500B023209A
:1052E000A4FE732500B8232EA4FC832844FE0325C6
:1052F000C4FD6395A802032544FEAA8501461398C0
:1053000005008147032604FEB286014733E6D70035
:105310002324C4FEB367E8002326F4FE832784FE1B
:105320000328C4FE3E85C285725421618280797152
:1053300006D622D44AD24ED00018232EA4FC8327AE
:10534000C4FD81E70149814921A80325C4FDEFE09F
:10535000DFAE2326A4FE8327C4FE3E89FD87BE89D7
:10536000CA874E883E85C285B2502254125982594E
:1053700045618280797106D622D40018232EA4FCC0
:10538000814701482320F4FE232204FF0325C4FDA6
:10539000EFE05FAD2326A4FE8327C4FE8DC78327DD
:1053A000C4FE83A7C7132324F4FE832784FE81CF82
:1053B000832784FE9C43F843930704FE3E8685457D
:1053C000032584FE0297832704FE032844FE3E85BE
:1053D000C285B250225445618280797106D622D4AA
:1053E00026D20018232EA4FC2328B4FC232AC4FCB4
:1053F000FD572326F4FE0325C4FDEFE0BFA62324BA
:10540000A4FE832784FE8DCF832784FE83A7C71342
:105410002322F4FE832744FE85C7832744FE9C4352
:10542000A4470325C4FDEFE01F9FAA87032604FDC0
:10543000832644FDBE85032544FE82942326A4FED4
:105440008327C4FE3E85B250225492544561828027
:10545000011122CE00102326A4FE938701813E85F0
:10546000724405618280011122CE00102326A4FE21
:105470009D473E85724405618280011122CE001055
:105480002326A4FE938701813E85724405618280B4
:10549000011122CE00102326A4FE8D473E857244C2
:1054A00005618280797106D622D40018232EA4FCCF
:1054B000232CB4FCFD572326F4FE0325C4FDEFE0A6
:1054C0007F9A2324A4FE832784FE9DC7832784FE1E
:1054D00083A7C70D2322F4FE832744FE91CF8327A1
:1054E00044FE9C43F843930784FD3E868D45032587
:1054F00044FE02972326A4FE8327C4FE3E85B250B5
:10550000225445618280797106D622D40018232E58
:10551000A4FC232CB4FCFD572326F4FE0325C4FD74
:10552000EFE05F942324A4FE832784FE9DC7832796
:1055300084FE83A7C70D2322F4FE832744FE91CF68
:10554000832744FE9C43F843930784FD3E868945A8
:10555000032544FE02972326A4FE8327C4FE3E852E
:10556000B250225445618280797106D622D4001847
:10557000232EA4FC232CB4FC232604FE0325C4FD07
:10558000EFE05F8E2324A4FE832784FE9DC783273C
:1055900084FE83A7C70D2322F4FE832744FE91CF08
:1055A000832744FE9C43F843930784FD3E86914540
:1055B000032544FE02972326A4FE8327C4FE3E85CE
:1055C000B250225445618280011106CE22CC0010D7
:1055D0002326A4FE0325C4FEEFE0DF88AA873E85CC
:1055E000F240624405618280797106D622D40018A7
:1055F000232EA4FC232CB4FC232AC4FC0325C4FDC5
:10560000EFE05F862326A4FE8327C4FE99CB032602
:1056100044FD832584FD0325C4FEEFF09F8DAA87FA
:1056200011A0FD573E85B250225445618280011180
:1056300022CE00102326A4FE2324B4FE832784FE5A
:1056400083D7070013F737008D476314F70091479E
:1056500011A089473E85724405618280797122D606
:105660000018232EA4FCF32710342326F4FE8327EE
:10567000C4FE3E85325445618280011122CE001065
:105680002326A4FE2324B4FE832784FE73901734BC
:1056900081473E85724405618280011122CE00104F
:1056A0002326A4FE0327C4FEB71700809387873EF6
:1056B0006315F700B707000C11A081473E857244BF
:1056C00005618280011122CE00102326A4FE03274B
:1056D000C4FEB71700809387873E6314F700ED4739
:1056E00011A081473E85724405618280011122CE5E
:1056F00000102326A4FE0327C4FEB717008093875B
:10570000873E6314F7009D4711A081473E85724490
:1057100005618280011122CE00102326A4FE2324DD
:10572000B4FE832784FE91E7B717008093870703B1
:1057300011A081473E85724405618280011122CE0D
:1057400000102326A4FE2324B4FE832784FE99E3BD
:10575000AD4711A081473E85724405618280797111
:1057600006D622D40018232EA4FC0325C4FDEFF096
:10577000DFF22326A4FE0327C4FEB707200091070B
:10578000BA979C433E85B25022544561828079711C
:1057900006D622D40018232EA4FC232CB4FC032507
:1057A000C4FDEFF09FEF2326A4FE0327C4FEB70736
:1057B00020009107BA973E87832784FD1CC3010010
:1057C000B250225445618280797106D622D40018E5
:1057D000232EA4FC232CB4FC0325C4FDEFF0FFEB27
:1057E0002326A4FE0327C4FEB7072000BA973E87EE
:1057F000832784FD1CC381473E85B25022544561F6
:105800008280797106D622D40018232EA4FC0325A9
:10581000C4FDEFF09FE82326A4FE0327C4FEB707CC
:105820002000BA979C433E85B25022544561828045
:10583000797106D622D40018232EA4FC232CB4FCA4
:10584000232AC4FC0325C4FDEFF03FE52326A4FE74
:105850000325C4FDEFF09FE9AA872324F4FE8327E4
:1058600084FE85C7032744FD832784FE637FF700FA
:10587000832784FD8A073E878327C4FEBA973E8725
:10588000832744FD1CC3814711A0FD573E85B250BC
:10589000225445618280797106D622D40018232EC5
:1058A000A4FC232CB4FC0325C4FDEFF01FDF23264A
:1058B000A4FE832784FD8A073E878327C4FEBA9708
:1058C0009C433E85B250225445618280797106D650
:1058D00022D40018232EA4FC232CB4FC232AC4FCBD
:1058E0000325C4FDEFF07FDB2326A4FE832784FD80
:1058F00095878A073E878327C4FE3E978967BA97B4
:105900009C432324F4FE832744FD81CF832784FD19
:10591000FD8B0547B317F7003E87832784FED98F99
:1059200029A8832784FDFD8B0547B317F70093C78C
:10593000F7FF3E87832784FEF98F032784FD1587B1
:105940000A07BA860327C4FEBA96096736971CC3AE
:105950000100B250225445618280011106CE22CC52
:1059600000102326A4FE2324B4FE1305C012EF105A
:10597000401E797106D622D40018232EA4FC232CB5
:10598000B4FC832784FD2326F4FE0325C4FEEFF038
:105990001FDD2324A4FE0325C4FEEFF0BFD2AA8797
:1059A0002322F4FE032784FE832744FE6372F70458
:1059B0000327C4FE832784FE8A07BA979C478DCBB2
:1059C0000327C4FE832784FE8A07BA9703A88700AB
:1059D000032684FE8326C4FE032784FEBA87860737
:1059E000BA978E07B69783A78708BE853285029837
:1059F000832584FE0325C4FEEFF07FD90100B25059
:105A0000225445618280397106DE22DC8000232623
:105A1000A4FC8327C4FC2322F4FE832744FEDC433A
:105A200063920712232604FE31A20325C4FCEFF083
:105A30007FC92320A4FE8325C4FE0325C4FCEFF008
:105A40007FCD232EA4FC8325C4FE0325C4FCEFF0E8
:105A5000FFCE232CA4FC8327C4FD9C439C43032539
:105A6000C4FD8297232404FE95A00146832584FE6D
:105A7000032544FEEFF09FE50146832584FE0325C0
:105A8000C4FCEFF0FFDA032744FE832784FE8A0775
:105A9000BA9723A40700832644FE032784FEBA870F
:105AA0008607BA978E07B69723A20708832644FE77
:105AB000032784FEBA878607BA978E07B69723A472
:105AC0000708832784FE85072324F4FE032784FE2A
:105AD000832704FEE34BF7F881450325C4FCEFF070
:105AE000BFCE8327C4FD9C43DC4F832644FE014682
:105AF000832584FD0325C4FD82978327C4FD9C4331
:105B0000D84F832644FEB767402013862797832506
:105B100084FD0325C4FD02978327C4FD9C43DC5309
:105B2000832584FD0325C4FD82978327C4FE850752
:105B30002326F4FE8327C4FEE359F0EE832744FEB8
