:0200000420409A
:100000009731C05F93810167970200009382820558
:100010007390523093020000638402007350107C8E
:100020001701C0DF130101FE9700C0DF938080FD40
:10003000638300008290732540F181450146812051
:100040009700C0DF938000FC6383000082909702DA
:1000500000009382C2007390523003230000F5BF6A
:10006000F322203473231034F3233034D5BF82803D
:10007000411122C6000801003244410182800684F9
:100080009731C05F9381015F1381C1E881421303FF
:1000900000406385A2001A918502E5BF137101FF3C
:1000A0009302000063195508979200009382829E84
:1000B0001703C05F130303F593838182638C62008F
:1000C000635A730003A5020091022320A3001103C9
:1000D000E34A73FE979200009382C29B1703C0E726
:1000E000130343F29703C0E79383C3F1638C620069
:1000F000635A730003A5020091022320A300110399
:10010000E34A73FE0F1000001733C05F130303D9D7
:100110009383C1A863577300232003001103E34DA9
:1001200073FE11C20296175500001305E58AEF40D1
:100130005006EF40B00D2D3FF32710303707010078
:1001400013078702F98F89CBF32700300967D98F0E
:1001500073900730735030000545978500009385F4
:10016000E55D178600001306A65D3120EF40D00341
:10017000A28082808280411106C2F32240F11303E3
:1001800000006385620073005010F5BFEF00207619
:0601900092404101828053
:100200001D71A2CE80102326A4FA2324B4FA8327DA
:10021000C4FAD84F832784FA3D8F8327C4FAD8CFF6
:100220008327C4FA98438327C4FA9C4B3D8F8327C6
:10023000C4FA98C38327C4FAD84B8327C4FADC5383
:100240003D8F8327C4FAD8CB8327C4FA984B8327E2
:10025000C4FADC473D8F8327C4FA98CB8327C4FABE
:10026000D8538327C4FA9C533D8F8327C4FAD8D32D
:100270008327C4FA98478327C4FADC433D8F83273A
:10028000C4FA98C78327C4FAD84F8327C4FA9C4F6F
:100290003D8F8327C4FAD8CF8327C4FA9843832796
:1002A000C4FADC4393C6F7FF8327C4FA9C47F58F53
:1002B000B98F2324F4FC8327C4FAD84B8327C4FACC
:1002C0009C4F93C6F7FF8327C4FADC4FF58FB98F95
:1002D000232EF4FC8327C4FAD8438327C4FA9C470F
:1002E00093C6F7FF8327C4FADC47F58FB98F23261F
:1002F000F4FC8327C4FA984F8327C4FADC4F93C6D3
:10030000F7FF8327C4FA9C53F58FB98F2320F4FE9F
:100310008327C4FA98478327C4FADC4793C6F7FFBC
:100320008327C4FA9C4BF58FB98F2328F4FC8327CD
:10033000C4FAD84F8327C4FA9C5393C6F7FF832788
:10034000C4FADC53F58FB98F2322F4FE8327C4FA55
:10035000D8478327C4FA9C4B93C6F7FF8327C4FA78
:100360009C43F58FB98F232AF4FC8327C4FA985352
:100370008327C4FADC5393C6F7FF8327C4FADC4B08
:10038000F58FB98F2324F4FE8327C4FA984B832773
:10039000C4FA9C4393C6F7FF8327C4FADC43F58F66
:1003A000B98F232CF4FC8327C4FAD8538327C4FACB
:1003B000DC4B93C6F7FF8327C4FA9C4FF58FB98FA8
:1003C0002326F4FE0327C4FC832784FCB98F23264D
:1003D000F4FC032784FC832784FDB98F2324F4FCD9
:1003E000032744FD832704FDB98F232AF4FC8327C8
:1003F00004FD93C7F7FF2328F4FC032704FE83279B
:10040000C4FDB98F2320F4FE0327C4FD8327C4FE57
:10041000B98F232EF4FC032784FE832744FEB98F73
:100420002324F4FE832744FE93C7F7FF2322F4FE20
:10043000032784FC8327C4FD9396D700832784FC7D
:10044000CD83D58F3D8F8327C4FD939647008327A7
:1004500084FCF183D58F3D8F8327C4FA98C303278B
:10046000C4FD832784FC9396D7008327C4FDCD83E6
:10047000D58F3D8F832784FC939647008327C4FD47
:10048000F183D58F3D8F8327C4FAD8CB0327C4FCD3
:100490008327C4FC93963700832704FEF583D58F0A
:1004A0003D8F8327C4FC93969701832704FE9D8389
:1004B000D58F3D8F8327C4FAD8C3032704FE832733
:1004C00004FE939637008327C4FCF583D58F3D8FB8
:1004D000832704FE939697018327C4FC9D83D58FC1
:1004E0003D8F8327C4FA98CF032704FD832744FE5A
:1004F0009396F701832704FD8583D58F3D8F83274E
:1005000044FE9396A701832704FD9983D58F3D8FE1
:100510008327C4FA98C7032744FE832704FD9396D4
:10052000F701832744FE8583D58F3D8F832704FD04
:100530009396A701832744FE9983D58F3D8F832708
:10054000C4FAD8CF032744FD832784FE939667011E
:10055000832744FDA983D58F3D8F832784FE9396FF
:10056000F700832744FDC583D58F3D8F8327C4FAC9
:10057000D8C7032784FE832744FD9396670183270A
:1005800084FEA983D58F3D8F832744FD9396F70082
:10059000832784FEC583D58F3D8F8327C4FA98D3E4
:1005A000032784FD8327C4FE93969701832784FD48
:1005B0009D83D58F3D8F832784FD93967701832775
:1005C000C4FEA583D58F3D8F8327C4FA98CB03271C
:1005D000C4FE832784FD939697018327C4FE9D83E1
:1005E000D58F3D8F8327C4FE93967701832784FDA3
:1005F000A583D58F3D8F8327C4FAD8D301007644D5
:1006000025618280011106CE22CC00102326A4FE93
:100610009305000F0325C4FEE5369305100E032550
:10062000C4FEF93E9305200D0325C4FED13E93057B
:10063000300C0325C4FEE9369305400B0325C4FEA8
:10064000C1369305500A0325C4FE5D3E930560093B
:100650000325C4FE7536930570080325C4FE4D3688
:10066000930580070325C4FE613E9305900603258C
:10067000C4FE79369305A0050325C4FE51369305C3
:10068000B0040325C4FEAD3E0100F24062440561A2
:1006900082805D7186C6A2C48008232EA4FA232C12
:1006A000B4FA232AC4FA2328D4FAB7174000938750
:1006B00007C02322F4FC93070010232CF4FC23240E
:1006C00004FC232E04FC232604FC232004FE232800
:1006D00004FC232204FE232A04FC232404FE9307A3
:1006E00044FC3E850537832784FB63800714A1A063
:1006F000032744FC8327C4FB9C43B98F2322F4FCCB
:100700008327C4FB9107232EF4FA032784FD832754
:10071000C4FB9C43B98F232CF4FC8327C4FB9107B3
:10072000232EF4FA930744FC3E85E93D832784FB9E
:10073000E117232CF4FA032784FB9D47E3EAE7FA49
:10074000032744FC832684FB914763F6D700832765
:10075000C4FB9C4325A0832784FB85C38327C4FB5C
:100760009443032684FB8147918F8E07938707026A
:100770007D56B317F600F58F11A08147B98F23225C
:10078000F4FC8327C4FB9107232EF4FA032784FD8E
:10079000832684FB914763F1D7028327C4FB9443EC
:1007A000032684FB8147918F8E07938707047D562C
:1007B000B317F600F58F11A08147B98F232CF4FCF5
:1007C000032744FC832684FB8D4763EAD7008327F5
:1007D00084FB8E07B7060080B3D7F60011A08147CF
:1007E000B98F2322F4FC032784FD832684FB8D47E5
:1007F00063F5D702832684FBA147638EF600832628
:1008000084FBB7070020F117B6978E07B706008064
:10081000B3D7F60021A0814711A08147B98F232CBF
:10082000F4FC930744FC3E85F13B232604FE91A093
:100830008327C4FE8E07032744FBBA97032744FC93
:1008400098C38327C4FE8E079107032744FBBA97FA
:10085000032784FD98C30327C4FE894763C6E700C6
:10086000930744FC3E85793B8327C4FE85072326F6
:10087000F4FE0327C4FE8D47E3DCE7FA81473E859B
:10088000B640264461618280011122CE00102326E9
:1008900004FEF32700B02326F4FE8327C4FE3E8522
:1008A000724405618280797122D60018232EA4FC3F
:1008B000232CB4FC232AC4FC0F00F00F8327C4FDB3
:1008C000BE85032684FD0BF5C5622326A4FE0F001A
:1008D000F00F832744FDBE850BE505642326A4FEA7
:1008E0000F00F00F81473E8532544561828001112F
:1008F00006CE22CC0010232604FEB78740201385A5
:10090000C728EF20A001E16773900730232404FE7D
:100910003DAA232604FEB1A8853F2322A4FEB707E3
:10092000008013870700832784FE8A07BA979843BD
:100930008146B73700801386C7E9BA85B7070080BC
:100940001385C701B93389372320A4FE032704FE8A
:10095000832744FE1D8FB73700809386C7EB83271C
:10096000C4FE8A07B69798C38327C4FE850723264B
:10097000F4FE0327C4FE93071003E3DFE7F8232602
:1009800004FE99A811372322A4FEB707008013871D
:100990000700832784FE8A07BA97984313864191FC
:1009A000BA85B70700801385C701F53DF13D2320C7
:1009B000A4FE032704FE832744FE1D8FB737008063
:1009C000938647FA8327C4FE8A07B69798C383277E
:1009D000C4FE85072326F4FE0327C4FE93071003F5
:1009E000E3D2E7FAB707008013870700832784FE66
:1009F0008A07BA979C43BE85B7874020138547294D
:100A0000EF10D071232604FE05A8B73700801387A6
:100A1000C7EB8327C4FE8A07BA979C433E8683258B
:100A2000C4FEB78740201385072BEF10306F832754
:100A3000C4FE85072326F4FE0327C4FE9307100394
:100A4000E3D5E7FC832784FE85072324F4FE0327F0
:100A500084FE9547E3DFE7EAB78740201385872DBB
:100A6000EF10D06B81473E85F24062440561828081
:100A7000011106CE22CC0010AA87A307F4FE93072B
:100A8000F4FE0546BE850545EF10B06E0100F2404C
:100A9000624405618280011122CE0010AA872324BE
:100AA000B4FE2322C4FE2320D4FEA307F4FE0100DB
:100AB000724405618280011106CE22CC0010AA8703
:100AC0002324B4FE2322C4FE2320D4FEA307F4FE75
:100AD0008347F4FE89C78347F4FE3E85513F0100FA
:100AE000F240624405618280797122D60018232E7B
:100AF000A4FC232CB4FC8327C4FD2326F4FE31A0E0
:100B00008327C4FE85072326F4FE8327C4FE83C7FC
:100B1000070081CB832784FD1387F7FF232CE4FC98
:100B2000E5F30327C4FE8327C4FDB307F7403E85E2
:100B3000325445618280011122CE0010AA87A3079A
:100B4000F4FE0347F4FE9307F00263FAE70003475D
:100B5000F4FE9307900363E4E700854711A0814703
:100B6000858B93F7F70F3E8572440561828079711A
:100B700006D622D40018232EA4FC232604FE3DA072
:100B80000327C4FEBA878A07BA9786073E8683275B
:100B9000C4FD9C43938617000327C4FD14C383C779
:100BA0000700B297938707FD2326F4FE8327C4FD31
:100BB0009C4383C707003E85BD3FAA87F1F3832787
:100BC000C4FE3E85B250225445618280397106DEF2
:100BD00022DC8000232EA4FC232CB4FC232AC4FC9A
:100BE0002328D4FC2326E4FC2324F4FC232204FD44
:100BF000232014FD832744FD2324F4FE832704FCD3
:100C0000898BC1E3832704FC858BA5EF832784FCB4
:100C10002326F4FE35A0832744FD13871700232ADB
:100C2000E4FC0327C4FD832604FD3E86832584FD62
:100C30001305000202978327C4FE85072326F4FECE
:100C40000327C4FE832744FCE367F7FC1DA8832722
:100C500084FCFD172324F4FC0327C4FC832784FCB5
:100C6000BA9703C50700832744FD13871700232A7B
:100C7000E4FC0327C4FD832604FD3E86832584FD12
:100C80000297832784FCE1F7832704FC898B85CFB7
:100C90000DA0832744FD13871700232AE4FC0327B4
:100CA000C4FD832604FD3E86832584FD13050002D2
:100CB0000297032744FD832784FEB307F7400327E9
:100CC00044FCE3E8E7FC832744FD3E85F250625490
:100CD00021618280797106D622D400182326A4FED1
:100CE0002324B4FE2322C4FE2320D4FE232EE4FCBE
:100CF000232CF4FCC287232814FDA30BF4FC1C4412
:100D0000898BD1E35C409DCB1C44858B85CB83478D
:100D100074FD81E71C44B18B95C35C40FD175CC03A
:100D200031A8832784FD13871700232CE4FC0327B5
:100D3000C4FDBA97130700032380E700032784FD4F
:100D40001C406375F702032784FDFD47E3FBE7FCC6
:100D500031A8832784FD13871700232CE4FC032785
:100D6000C4FDBA97130700032380E7001C44858B5A
:100D700099CB032784FD5C406377F700032784FD4C
:100D8000FD47E3F8E7FC1C44C18B638607101C4455
:100D900093F70740A1E3832784FD8DCF032784FDCC
:100DA0001C406307F700032784FD5C406314F702CF
:100DB000832784FDFD17232CF4FC832784FD99CB26
:100DC000032704FDC1476317F700832784FDFD1740
:100DD000232CF4FC032704FDC1476319F7021C44CC
:100DE00093F7070285E7032784FDFD4763E0E702E9
:100DF000832784FD13871700232CE4FC0327C4FDFD
:100E0000BA97130780072380E700A5A0032704FDF6
:100E1000C1476319F7021C4493F7070285C70327EC
:100E200084FDFD4763E0E702832784FD13871700F5
:100E3000232CE4FC0327C4FDBA9713078005238005
:100E4000E70005A8032704FD89476314F702032779
:100E500084FDFD4763EFE700832784FD13871700B8
:100E6000232CE4FC0327C4FDBA9713072006238034
:100E7000E700032784FDFD4763EFE700832784FD38
:100E800013871700232CE4FC0327C4FDBA9713072C
:100E900000032380E700032784FDFD4763E4E706A2
:100EA000834774FD99CF832784FD13871700232C74
:100EB000E4FC0327C4FDBA971307D0022380E700A0
:100EC00091A01C44918B99CF832784FD1387170031
:100ED000232CE4FC0327C4FDBA971307B002238038
:100EE000E7000DA01C44A18B91CF832784FD1387BD
:100EF0001700232CE4FC0327C4FDBA971307000254
:100F00002380E7008328840003284400832784FD8E
:100F10000327C4FD832604FE032644FE832584FEA6
:100F20000325C4FE6531AA873E85B250225445612F
:100F30008280597186D6A2D48018232EA4FA232C3D
:100F4000B4FA232AC4FA2328D4FA2326E4FA232263
:100F500004FB232014FBA305F4FA232604FE8327B5
:100F6000C4FA81E75C40BD9B5CC05C4093F70740DE
:100F700081C78327C4FAC9C30327C4FA832744FA65
:100F8000B377F702A305F4FE0347B4FEA54763E970
:100F9000E7008347B4FE9387070393F7F70F15A085
:100FA0005C4093F7070281C79307100419A09307C9
:100FB00010060347B4FEBA9793F7F70FD91793F7C4
:100FC000F70F0327C4FE930617002326D4FE9306CB
:100FD00004FF3697230CF7FC0327C4FA832744FA4F
:100FE000B357F7022326F4FA8327C4FA91C70327DD
:100FF000C4FEFD47E3F2E7F88346B4FA130784FC26
:101000005C403EC41C403EC2832704FA3EC0832895
:1010100044FA36888327C4FE832604FB032644FB58
:10102000832584FB0325C4FB7531AA873E85B65012
:10103000265465618280197186D6A2D48018232E29
:10104000A4FA232CB4FA232AC4FA2328D4FA23249A
:10105000E4FA2326F4FAC28723261401A303F4FA40
:10106000232604FE832784FA0327C4FAD98F81E755
:101070005C4CBD9B5CCC5C4C93F7074099C78327C5
:1010800084FA0327C4FAD98FC5C3832784FA0328B7
:10109000C4FA504414483E85C285EF107047AA87B1
:1010A0002E88A305F4FE0347B4FEA54763E9E700D5
:1010B0008347B4FE9387070393F7F70F15A05C4CA3
:1010C00093F7070281C79307100419A0930710062E
:1010D0000347B4FEBA9793F7F70FD91793F7F70FB3
:1010E0000327C4FE930617002326D4FE930604FFAD
:1010F0003697230CF7FC50441448032584FA8325C3
:10110000C4FAEF10100BAA872E882324F4FA2326A2
:1011100004FB832784FA0327C4FAD98F91C70327D6
:10112000C4FEFD47E3F3E7F65044834674FA130721
:1011300084FC5C4C3EC41C4C3EC25C483EC0B28841
:1011400036888327C4FE832604FB032644FB8325BD
:1011500084FB0325C4FBBD3EAA873E85B6502654BA
:1011600009618280757106C722C526C30009232E36
:10117000A4F8232CB4F8232AC4F82328D4F8232471
:10118000E4F82326F4F8232204F9232014F9232673
:1011900004FE232804FC232A04FC032684F8832667
:1011A000C4F8032584F88325C4F8EF20101EAA870D
:1011B0008DC783280400032804F88D473787402013
:1011C0001307072E832604F9032644F9832584F99F
:1011D0000325C4F9E53AAA8781ABB787402003A667
:1011E000872F83A6C72F032584F88325C4F8EF2013
:1011F000B02AAA8763D6070283280400032804F8CC
:101200009147378740201307472E832604F903268A
:1012100044F9832584F90325C4F94D3AAA8729A303
:10122000B787402003A6073083A64730032584F8FC
:101230008325C4F8EF20101CAA876353F0041C40D8
:10124000918B91C7B78740201387C72E29A0B787F6
:1012500040201387472F1C40918B99C3914711A0C1
:101260008D4783280400032804F8832604F9032605
:1012700044F9832584F90325C4F9893AAA876DA125
:10128000B787402003A6873083A6C730032584F89C
:101290008325C4F8EF201016AA876341F002B787B0
:1012A000402003A6073183A64731032584F8832510
:1012B000C4F8EF20701EAA8763D707021C403EC007
:1012C000832804F8032844F8032784F88327C4F804
:1012D000832604F9032644F9832584F90325C4F9F8
:1012E0009129AA8791A1A30504FE01468146032501
:1012F00084F88325C4F8EF20301AAA8763D3070245
:101300008547A305F4FE032684F88326C4F8014527
:101310008145EF207066AA872E882324F4F82326BF
:1013200004F91C4093F707409DE799472322F4F8FE
:101330001DA08327C4FE138717002326E4FE13078E
:1013400004FFBA9713070003238CE7FA832744F8B6
:10135000FD172322F4F80327C4FEFD4763E7E700E7
:10136000032744F8A547E3E6E7FC032584F8832533
:10137000C4F8EF30C03FAA872322F4FE032544FEC1
:10138000EF30E04AAA872E883E86C286032584F87D
:101390008325C4F8EF20505EAA872E883E85C2853B
:1013A000B787402013870757832744F88E07BA97DB
:1013B00003A847009C433E86C286EF203018AA87C8
:1013C0002E882324F4FC232604FD032584FC832596
:1013D000C4FCEF300040AA872320F4FE032504FE5E
:1013E000EF30804BAA872E883E86C286032584FC78
:1013F0008325C4FCEF205058AA872E882328F4FCAC
:10140000232A04FDB787402003A6873183A6C7316E
:10141000032504FD832544FDEF20C07DAA87635585
:10142000F004832704FE85072320F4FE032504FE31
:10143000EF308046B787402013870757832744F84B
:101440008E07BA9703A847009C433E86C286EF20CA
:10145000607AAA8763C50704232004FE832744FE1D
:1014600085072322F4FE25A8B787402003A68731ED
:1014700083A6C731032504FD832544FDEF20D00159
:10148000AA8763CE0700832704FE89C7832704FE4B
:10149000858B91C7832704FE85072320F4FE8327CD
:1014A00044F8D9E7032544FEEF306038AA872E8838
:1014B0003E86C286032584F88325C4F8EF20D04BEE
:1014C000AA872E882328F4FC232A04FD8544B787A5
:1014D000402003A6873183A6C731032504FD832559
:1014E00044FDEF20607BAA8763C30700814493F724
:1014F000F40F93C7170093F7F70F85E3B7874020E2
:1015000003A6873183A6C731032504FD832544FD47
:10151000EF20406EAA87635AF00C832744FE858B28
:1015200063860710832744FE85072322F4FEFDA867
:10153000832744F8232EF4FCB1A08327C4FDFD17B4
:10154000232EF4FC032704FEA947B377F70213F711
:10155000F70F8327C4FE938617002326D4FE1307B4
:1015600007031377F70F930604FFB697238CE7FA68
:10157000032704FEA947B357F7022320F4FE83276D
:1015800004FE99C70327C4FEFD47E3F8E7FA05A068
:10159000010031A88327C4FE138717002326E4FE29
:1015A000130704FFBA9713070003238CE7FA0327F6
:1015B000C4FEFD4763E9E7008327C4FD1387F7FFF7
:1015C000232EE4FCE1FB0327C4FEFD4763E0E706AE
:1015D0008327C4FE138717002326E4FE130704FFA6
:1015E000BA971307E002238CE7FA89A0032744FE89
:1015F000A947B367F70213F7F70F8327C4FE938653
:1016000017002326D4FE130707031377F70F93065B
:1016100004FFB697238CE7FA032744FEA947B34794
:10162000F7022322F4FE832744FE99C70327C4FE52
:10163000FD47E3FDE7FA11A001001C40898BB9EBDF
:101640001C40858BA1CB832704F895CB8347B4FE40
:1016500081E71C40B18B85C7832704F8FD17232041
:10166000F4F831A88327C4FE138717002326E4FE6D
:10167000130704FFBA9713070003238CE7FA032725
:10168000C4FE832704F86377F7000327C4FEFD47F1
:10169000E3FAE7FC0327C4FEFD4763E4E70683475C
:1016A000B4FE99CF8327C4FE138717002326E4FED8
:1016B000130704FFBA971307D002238CE7FA91A00F
:1016C0001C40918B99CF8327C4FE138717002326D4
:1016D000E4FE130704FFBA971307B002238CE7FA5E
:1016E0000DA01C40A18B91CF8327C4FE1387170048
:1016F0002326E4FE130704FFBA9713070002238C86
:10170000E7FA130784FA83280400032804F88327E0
:10171000C4FE832604F9032644F9832584F90325AE
:10172000C4F9EFF0AFCAAA873E85BA402A449A446A
:1017300049618280317106DF22DD26DB4AD94ED72E
:1017400052D556D35AD15ECF62CD66CB6AC96EC729
:101750008001232EA4F6232CB4F6232AC4F62328D2
:10176000D4F62324E4F62326F4F6232204F72320D8
:1017700014F7032684F68326C4F6032584F683250E
:10178000C4F6EF208040AA879DEFB787402003A6CC
:10179000073083A64730032584F68325C4F6EF205F
:1017A0006045AA876341F002B787402003A6872FD0
:1017B00083A6C72F032584F68325C4F6EF20C04DEA
:1017C000AA8763D707021C403EC0832804F603287B
:1017D00044F6032784F68327C4F6832604F70326FA
:1017E00044F7832584F70325C4F7AD3AAA8749ABAC
:1017F000854401468146032584F68325C4F6EF20FF
:10180000A049AA8763C307008144A30994FA8347C8
:1018100034FB81CF832784F62324F4F60327C4F610
:10182000B7070080B98F2326F4F61C4093F70740D2
:1018300081E799472322F4F6832784F60328C4F628
:101840002324F4F8232604F9832784F80328C4F812
:1018500093574801232CF4F4232E04F4832784F5B2
:1018600093F7F77F938717C02326F4FA832784F82A
:101870000328C4F813F9F7FF370710007D17B37971
:10188000E800136B0900B707F03FB3EBF90023241E
:1018900064F9232674F90325C4FAEF205079B78739
:1018A000402003A6073283A64732EF202049AA87AB
:1018B0002E883E85C285B787402003A6873283A63F
:1018C000C732EF10007AAA872E883E89C289832703
:1018D00084F80328C4F8378740200326073383267B
:1018E00047333E85C285EF203009AA872E883E8582
:1018F000C285B787402003A6873383A6C733EF206E
:10190000E043AA872E883E86C2864A85CE85EF10A0
:101910004075AA872E883E85C285EF205065AA872C
:10192000232EF4FA0325C4FBEF207070B787402004
:1019300003A6073483A64734EF204040AA872E88A9
:101940003E85C285B787402003A6873183A6C7316D
:10195000EF102071AA872E883E85C285EF20306166
:10196000AA872326F4FA0325C4FBEF20506CB7871F
:10197000402003A6873483A6C734EF20203CAA87E3
:101980002E883E89C2890325C4FAEF20506AB787A2
:10199000402003A6073583A64735EF20203AAA87C3
:1019A0002E883E86C2864A85CE85EF20E07CAA87B7
:1019B0002E882320F4FA232204FB032604FA83262C
:1019C00044FA032504FA832544FAEF202037AA8736
:1019D0002E88232CF4F8232E04F98327C4FA938746
:1019E000F73F3E8DFD87BE8D931C4D01014C232496
:1019F00084F9232694F9032984F88329C4F88327DA
:101A000004FA032844FA3E86C2863E85C285EF105A
:101A10004065AA872E883E8BC28BB787402003265D
:101A200004FA832644FA03A5873583A5C735EF203A
:101A3000A074AA872E883E8CC28CB787402003A64C
:101A4000073683A64736032584F98325C4F9EF10AA
:101A50007040AA872E883E85C285B787402003A69E
:101A6000873683A6C736EF10C05FAA872E883E86CA
:101A7000C286032584F98325C4F9EF10B03DAA87F7
:101A80002E883E85C285B787402003A6073783A6E8
:101A90004737EF10005DAA872E883E86C286032551
:101AA00084F98325C4F9EF10F03AAA872E883E8680
:101AB000C2866285E685EF10C05AAA872E883E86C8
:101AC000C2865A85DE85EF10F038AA872E883E85BB
:101AD000C285B787402003A6873783A6C737EF1094
:101AE0004058AA872E883E86C2864A85CE85EF203A
:101AF000E024AA872E882324F4F8232604F98327D8
:101B000084F80328C4F83E86C286032584F683251C
:101B1000C4F6EF206018AA8763DB07028327C4FBA3
:101B2000FD17232EF4FA832784F80328C4F8378797
:101B30004020032687368326C7363E85C285EF10B0
:101B40007031AA872E882324F4F8232604F903276A
:101B5000C4FB9307300663CAE7000327C4FB93075F
:101B6000D0F96344F700914711A09547232CF4FA6C
:101B70001840856793870780F98FD1C7B7874020C2
:101B800003A6073883A64738032584F68325C4F6C1
:101B9000EF204006AA8763CC0704B787402003A63E
:101BA000873883A6C738032584F68325C4F6EF203B
:101BB000A00EAA8763DD0702832744F60327C4FB30
:101BC000635CF700032744F68327C4FBB307F740A1
:101BD000FD172322F4F619A0232204F61C4093E7F4
:101BE00007401CC0232C04FA232E04FA29A88327BB
:101BF00044F691CB1C4093F7074091C7832744F6E6
:101C0000FD172322F4F6832704F6232AF4FA032788
:101C100004F6832784FB63FBE700032744FB832749
:101C200084FBB307F740232AF4FA19A0232A04FA05
:101C30001C40898B91C7832784FB99C3232A04FA0C
:101C40008327C4FB9DC3832784F80328C4F83E86FA
:101C5000C286032584F68325C4F6EF10B01FAA8739
:101C60002E882324F4F6232604F7832744F7232A17
:101C7000F4F8834734FB91CB032A84F60327C4F698
:101C8000B7070080B34AF70029A0032A84F6832A05
:101C9000C4F61840FD779387F77FF98F3EC08328FD
:101CA00044FB032844F65287D687832604F703268D
:101CB00044F7832584F70325C4F7EFF0AFCA232A3E
:101CC000A4F6832784FBDDCB1C4093F7070281C772
:101CD0009307500419A093075006032744F793066F
:101CE0001700232AD4F60328C4F7832604F73A867C
:101CF000832584F73E8502988327C4FB13D7F741D9
:101D00008327C4FBB98F998F3E868327C4FBFD834D
:101D100093F6F70F832784FBFD1715473AC23EC0A1
:101D200081482948B6873287832604F7032644F77B
:101D3000832584F70325C4F7EFF0AF9F232AA4F689
:101D40001C40898B85CF0DA0832744F7138717008C
:101D5000232AE4F60327C4F7832604F73E86832567
:101D600084F7130500020297032744F7832744F9F9
:101D7000B307F740032704F6E3E8E7FC832744F7BB
:101D80003E85FA506A54DA544A59BA592A5A9A5A2C
:101D90000A5BFA4B6A4CDA4C4A4DBA4D2961828093
:101DA000717106D722D54AD34ED152CF56CD5ACBD8
:101DB0005EC962C766C56AC36EC10019232EA4F648
:101DC000232CB4F6232AC4F62328D4F62326E4F6DB
:101DD000232E04FA832784F7E396072EB7174020B3
:101DE000938767A9232EF4F66F00D02D832704F77D
:101DF00003C7070093075002630BF702832704F71A
:101E000003C507008327C4FB13871700232EE4FABA
:101E10000327C4F7832644F73E86832584F7029779
:101E2000832704F785072328F4F66F00B02983275A
:101E300004F785072328F4F6232604FC832704F7F8
:101E400083C70700811741476366F70A1397270086
:101E5000B787402093870739BA979C4382878327A7
:101E6000C4FC93E717002326F4FC832704F78507B7
:101E70002328F4F685472320F4FC41A08327C4FCE3
:101E800093E727002326F4FC832704F785072328FC
:101E9000F4F685472320F4FC8DA08327C4FC93E748
:101EA00047002326F4FC832704F785072328F4F64C
:101EB00085472320F4FC91A08327C4FC93E7870087
:101EC0002326F4FC832704F785072328F4F68547A7
:101ED0002320F4FC1DA08327C4FC93E707012326DD
:101EE000F4FC832704F785072328F4F6854723208D
:101EF000F4FC21A0232004FC0100832704FC9DFFA7
:101F0000232404FC832704F783C707003E85EFE002
:101F10009FC2AA8789CB930704F73E85EFE03FC5B0
:101F20002324A4FCA1A8832704F703C70700930771
:101F3000A0026315F7048327C4F6138747002326FE
:101F4000E4F69C432324F4FA832784FA63DF070032
:101F50008327C4FC93E727002326F4FC832784FA15
:101F6000B307F0402324F4FC29A0832784FA232418
:101F7000F4FC832704F785072328F4F6232204FCC6
:101F8000832704F703C707009307E002631BF706E4
:101F90008327C4FC93E707402326F4FC832704F738
:101FA00085072328F4F6832704F783C707003E85B7
:101FB000EFE07FB8AA8789CB930704F73E85EFE06F
:101FC0001FBB2322A4FC35A8832704F703C70700FF
:101FD0009307A0026317F7028327C4F6138747000D
:101FE0002326E4F69C432322F4FA832744FA63D39E
:101FF000070081472322F4FC832704F78507232861
:10200000F4F6832704F783C70700938787F94947C6
:10201000636DF70C13972700B78740209387473DE0
:10202000BA979C4382878327C4FC93E70710232633
:10203000F4FC832704F785072328F4F6832704F7A5
:1020400003C707009307C0066313F70A8327C4FC7E
:1020500093E707202326F4FC832704F7850723282A
:10206000F4F671A08327C4FC93E707082326F4FC49
:10207000832704F785072328F4F6832704F703C78B
:102080000700930780066316F7068327C4FC93E7CF
:1020900007042326F4FC832704F785072328F4F696
:1020A00089A88327C4FC93E707102326F4FC832721
:1020B00004F785072328F4F635A88327C4FC93E7A3
:1020C00007202326F4FC832704F785072328F4F64A
:1020D00015A08327C4FC93E707102326F4FC83276D
:1020E00004F785072328F4F631A0010021A00100A0
:1020F00011A00100832704F783C707009387B7FD6A
:10210000130730056368F77813972700B7874020D7
:1021100093870742BA979C438287832704F703C7B4
:10212000070093078007630AF700832704F703C7B4
:102130000700930780056316F700C147232CF4FAC4
:1021400089A0832704F703C707009307F0066316E7
:10215000F700A147232CF4FA2DA0832704F703C727
:102160000700930720066316F7008947232CF4FA2B
:1021700009A8A947232CF4FA8327C4FCBD9B232676
:10218000F4FC832704F703C707009307800563184F
:10219000F7008327C4FC93E707022326F4FC832778
:1021A00004F703C7070093079006630FF700832720
:1021B00004F703C70700930740066307F700832768
:1021C000C4FCCD9B2326F4FC8327C4FC93F7074073
:1021D00091C78327C4FCF99B2326F4FC832704F7CB
:1021E00003C7070093079006630AF700832704F7E5
:1021F00003C7070093074006631BF71A8327C4FC35
:1022000093F70720D5C38327C4F69D07E19B138767
:1022100087002326E4F603A847009C43232CF4F808
:10222000232E04F98327C4F913D9F7418327C4F96E
:1022300093D9F741832784F933CA27018327C4F947
:10224000B3CA3701B3072A413E873337EA003388E0
:102250003A413307E8403A883E8AC28A5286D68697
:102260008327C4F9FD8313F7F70F832784FB3E8B85
:10227000814B8327C4FC3EC6832784FC3EC483274E
:1022800044FC3EC25EC0DA883A883287B68783262D
:1022900044F70326C4FB832584F70325C4F7EFE046
:1022A0009FD9232EA4FA25A48327C4FC93F70710F3
:1022B000ADC38327C4F6138747002326E4F69C4367
:1022C000232AF4F8832744F913D7F741832744F9E5
:1022D000B98F998FBE86832744F9FD8313F7F70FD3
:1022E0008327C4FC3EC2832784FC3EC0832844FC71
:1022F000032884FBBA873687832644F70326C4FB6A
:10230000832584F70325C4F7EFE0BFC2232EA4FA88
:102310007DAA8327C4FC93F7070499CB8327C4F6CF
:10232000138747002326E4F69C4393F7F70F3DA05D
:102330008327C4FC93F7070899CB8327C4F6138738
:1023400047002326E4F69C43C207C18701A88327E0
:10235000C4F6138747002326E4F69C432328F4F8A9
:10236000832704F913D7F741832704F9B98F998F8D
:10237000BE86832704F9FD8313F7F70F8327C4FC78
:102380003EC2832784FC3EC0832844FC032884FB90
:10239000BA873687832644F70326C4FB832584F750
:1023A0000325C4F7EFE0FFB8232EA4FA0DA283277C
:1023B000C4FC93F70720A1CB8327C4F69D07E19BBC
:1023C000138787002326E4F69843DC43832684FBA7
:1023D000368C814C8326C4FC36C6832684FC36C4E6
:1023E000832644FC36C266C0E2880148832644F74F
:1023F0000326C4FB832584F70325C4F7EFE0BFC39E
:10240000232EA4FAE9A08327C4FC93F70710A1C3E5
:102410008327C4F6138747002326E4F698438327CF
:10242000C4FC3EC2832784FC3EC0832844FC0328AE
:1024300084FB8147832644F70326C4FB832584F766
:102440000325C4F7EFE0FFAE232EA4FA49A08327AB
:10245000C4FC93F7070499CB8327C4F6138747007E
:102460002326E4F69C4393F7F70F3DA08327C4FC93
:1024700093F7070899CB8327C4F6138747002326D1
:10248000E4F69C43C207C18301A88327C4F61387DF
:1024900047002326E4F69C432320F4FA8327C4FC58
:1024A0003EC2832784FC3EC0832844FC032884FB6F
:1024B0008147032704FA832644F70326C4FB8325B8
:1024C00084F70325C4F7EFE0DFA6232EA4FA8327C1
:1024D00004F785072328F4F6F5A6832704F703C736
:1024E0000700930760046318F7008327C4FC93E791
:1024F00007022326F4FC8327C4F69D07E19B13877C
:1025000087002326E4F69843DC438326C4FC36C0C8
:10251000832884FC032844FC832644F70326C4FB59
:10252000832584F70325C4F7EFE0DFC3232EA4FA45
:10253000832704F785072328F4F669A6832704F781
:1025400003C7070093077006630AF700832704F7A1
:1025500003C7070093077004631AF7000327C4FC3E
:10256000856793870780D98F2326F4FC832704F798
:1025700003C7070093075004630AF700832704F793
:1025800003C70700930770046318F7008327C4FC90
:1025900093E707022326F4FC8327C4F69D07E19BFB
:1025A000138787002326E4F69843DC438326C4FC84
:1025B00036C0832884FC032844FC832644F7032682
:1025C000C4FB832584F70325C4F7EFF0AF96232ED1
:1025D000A4FA832704F785072328F4F6E5A48547A2
:1025E000232AF4FA8327C4FC898B85EF0DA0832767
:1025F000C4FB13871700232EE4FA0327C4F78326AE
:1026000044F73E86832584F713050002029783274B
:1026100044FB13871700232AE4FA032784FCE3E82A
:10262000E7FC8327C4F6138747002326E4F69C4380
:1026300013F5F70F8327C4FB13871700232EE4FA43
:102640000327C4F7832644F73E86832584F7029741
:102650008327C4FC898B85CF0DA08327C4FB1387F8
:102660001700232EE4FA0327C4F7832644F73E8697
:10267000832584F7130500020297832744FB138701
:102680001700232AE4FA032784FCE3E8E7FC832706
:1026900004F785072328F4F635A48327C4F61387A7
:1026A00047002326E4F69C432328F4FA832744FCBE
:1026B00081C7832744FC11A0FD57BE85032504FB79
:1026C000EFE08FC22326A4FA8327C4FC93F70740C8
:1026D00091CB0327C4FA832744FC6373F700BA87BE
:1026E0002326F4FA8327C4FC898BBDE30DA083273E
:1026F000C4FB13871700232EE4FA0327C4F78326AD
:1027000044F73E86832584F713050002029783274A
:10271000C4FA138717002326E4FA032784FCE3E8AE
:10272000E7FC3DA0832704FB138717002328E4FA66
:1027300003C507008327C4FB13871700232EE4FA81
:102740000327C4F7832644F73E86832584F7029740
:10275000832704FB83C7070089CF8327C4FC93F733
:102760000740E9D3832744FC1387F7FF2322E4FCC7
:10277000D5FB8327C4FC898B85CF0DA08327C4FBA1
:1027800013871700232EE4FA0327C4F7832644F7A0
:102790003E86832584F71305000202978327C4FA37
:1027A000138717002326E4FA032784FCE3E8E7FCF9
:1027B000832704F785072328F4F629A2A1472324B9
:1027C000F4FC8327C4FC93E717022326F4FCA30739
:1027D00004F88347F4F8A9C78327C4F61387470092
:1027E0002326E4F69C433E8D814D8327C4FC3EC6E0
:1027F000832784FC3EC4832744FC3EC202C0C148F8
:1028000001486A87EE87832644F70326C4FB8325A5
:1028100084F70325C4F7EFE01F82232EA4FA3DA816
:102820008327C4F6138747002326E4F69C433E879C
:102830008327C4FC3EC2832784FC3EC0832844FC1B
:1028400041488147832644F70326C4FB832584F748
:102850000325C4F7EFE0EFED232EA4FA832704F756
:1028600085072328F4F6B9A88327C4FB138717002C
:10287000232EE4FA0327C4F7832644F73E868325F4
:1028800084F7130550020297832704F7850723284E
:10289000F4F60DA8832704F703C507008327C4FBBC
:1028A00013871700232EE4FA0327C4F7832644F77F
:1028B0003E86832584F70297832704F7850723281C
:1028C000F4F60100832704F783C70700639007D25B
:1028D0000327C4FB832744F76366F700832744F785
:1028E000FD1719A08327C4FB0327C4F7832644F7E9
:1028F0003E86832584F7014502978327C4FB3E85E6
:10290000BA502A541A598A597A4AEA4A5A4BCA4B37
:102910003A4CAA4C1A4D8A4D4D6182805D7106D6A3
:1029200022D40018232EA4FC4CC010C454C418C8D0
:102930005CC8232C0401232E140193070402911771
:102940002324F4FE032784FE930744FE8326C4FD5C
:102950007D56BE85B7174020138567ABEFF04FC497
:102960002326A4FE8327C4FE3E85B2502254616113
:1029700082809707C05F9387E74FB2862E86AA852D
:10298000884309A0411122C42A842E85B285368647
:1029900023A401A806C6EF10F078FD576317F500D1
:1029A000938781A89C4391C31CC0B240224441013B
:1029B0008280AE87328836872A836396062097689E
:1029C00000009388A8C763FEC50A41676374E60ADE
:1029D0001307F00F3337C7000E07B356E600B6985B
:1029E00083C60800369793060002998E99CAB3975A
:1029F000D7003357E5003318D600B365F70033131B
:102A0000D5001355080133F7A502131608014182BA
:102A100093560301B3D5A5024207D98EB307B60278
:102A20002E8763FCF600C2961387F5FF63E7060165
:102A300063F5F6001387E5FFC2969D8EB3F7A602F5
:102A4000420313530301B3D6A602C20733E3670060
:102A5000B305D6023685637BB30042931385F6FF38
:102A6000636603016374B3001385E6FF4207498F71
:102A700081454DA8B70600014147E360D6F661479E
:102A8000A9BF01E6854633D8C602C166637ED80871
:102A90009306F00F63F306012147B356E800B6989A
:102AA00083C60800BA9613070002158F49E7B3875B
:102AB00007418545135608019318080193D808016A
:102AC0009356030133F7C702B3D7C7024207D98E23
:102AD0003385F8023E8763FCA600C2961387F7FF92
:102AE00063E7060163F5A6001387E7FFC296898EA8
:102AF000B3F7C602420313530301B3D6C602C2079B
:102B000033E36700B388D8023685637B13014293B1
:102B10001385F6FF63660301637413011385E6FFF3
:102B20004207498F3A858280B70600014147E36634
:102B3000D8F661479DB73318E800B3D5D7003313F3
:102B4000E500B356D50013550801B397E70033F7F6
:102B5000A502B3E8F60093170801C18313D6080154
:102B6000B3D5A5024207518FB386B7022E86637C88
:102B7000D70042971386F5FF636707016375D70097
:102B80001386E5FF4297B306D74033F7A602C20883
:102B900093D80801B3D6A6024207B385D702B3671C
:102BA0001701368763FCB700C2971387F6FF63E708
:102BB000070163F5B7001387E6FFC2978D8F931562
:102BC0000601D98DC5BD63E2D514416763FEE602F7
:102BD0001308F00F3337D8000E0733D8E600976597
:102BE00000009385A5A5C29503C8050093050002C2
:102BF0003A98B385054185E10547E3E5F6F23335BB
:102C0000C5001347150039BFB70500014147E3E68A
:102C1000B6FC6147D9B733570601B396B600D98ED3
:102C200093DE060133D70701B378D703B397B70014
:102C3000335805013363F80093970601C183135895
:102C400003013316B6003357D703C20833E808012F
:102C5000338FE7023A8E637CE8013698130EF7FF54
:102C60006367D8006375E801130EE7FF36983308F1
:102C7000E841B378D8033358D803C208B38E0703AA
:102C800093170301C183B3E7F800428763FCD701C0
:102C9000B6971307F8FF63E7D70063F5D70113076B
:102CA000E8FFB697420EB387D741C16E3367EE0097
:102CB0001388FEFF33730701935807013378060129
:102CC0004182330E03033388080393560E01330306
:102CD000C30242939A96B388C80263F30601F6983A
:102CE00013D60601B29863E01703E39317D9C167BF
:102CF000FD17FD8EC206337EFE003315B500F29639
:102D00008145E371D5E27D17A5B38145014719BD22
:102D1000B2883687AA872E886398061C97660000BB
:102D20009386C69163F8C50A4163637E6608130300
:102D3000F00F6373C30021473353E6009A9603CE26
:102D40000600130300023A9E3303C341630C0300E1
:102D5000B3956500335EC501B31866003368BE00E5
:102D6000B317650013D608013377C802139508011D
:102D7000418193D607013358C8024207D98E3308E0
:102D8000050363F80601C69663E5160163F30601C1
:102D9000C696B386064133F7C602C207C183B3D6CF
:102DA000C602B306D50213150701C98F63F8D70011
:102DB000C69763E5170163F3D700C697958F33D5A0
:102DC000670081458280370300014147E36666F66C
:102DD00061479DB701E60546B3581603416663F3A4
:102DE000C8081306F00F63731601214733D6E800B5
:102DF000B29603CE0600130300023A9E3303C3418A
:102E000063190306B385154113D70801139508010B
:102E1000418113D60701B3F6E502B3D5E502C20638
:102E2000D18EB305B50263F8B600C69663E5160108
:102E300063F3B600C696B385B640B3F6E502C207A3
:102E4000C183B3D5E502B305B50213950601C98F59
:102E500063F8B700C69763E5170163F3B700C69739
:102E60008D8FB1BF370600014147E3E1C8F86147E4
:102E7000B5BFB398680033D7C501B3176500335E9B
:102E8000C50113D50801B376A702B3956500336E6B
:102E9000BE0093950801C18113560E013357A70256
:102EA000C206D18E3387E50263F8E600C69663E575
:102EB000160163F3E600C6963386E640B376A602B3
:102EC000420E135E0E013356A602C2063386C502B9
:102ED000B3E5C60163F8C500C69563E5150163F364
:102EE000C500C695918D0DB7E3EED5EC416763F54E
:102EF000E604930EF00F33B7DE000E0733D3E6007F
:102F000097580000938888739A9883CE0800130E10
:102F10000002BA9E330EDE4163170E0263E4B60070
:102F20006369C500B307C540958D3335F500338817
:102F3000A5403E85C28579B5B70800014147E3EF5A
:102F400016FB614765BF3357D601B396C601D98ECC
:102F500013D8060133D7D50133730703B395C501E1
:102F6000B357D501CD8F93950601C18193D8070141
:102F70003316C6013315C501335707034203B3683F
:102F80001301338FE5023A8363FCE801B69813031B
:102F9000F7FF63E7D80063F5E8011303E7FFB6988E
:102FA000B388E84133FF0803B3D80803420F3388DE
:102FB000150393950701C181B365BF00C68763FC04
:102FC0000501B6959387F8FF63E7D50063F5050122
:102FD0009387E8FFB6954203416F3363F30093078D
:102FE000FFFFB378F300B385054113530301135872
:102FF0000601F18F3387F802B307F302B3880803A1
:1030000033030303BE981358070146986373F8000F
:103010007A93935708013E93C167FD173378F80000
:1030200042087D8F429763E66500639C6500637A82
:10303000E5003306C7403337C70036973303E34014
:1030400032873307E5403335E500B3856540898D28
:10305000B397D5013357C70133E5E700B3D5C501B1
:1030600095B3370810007D18B378B8008E089357D1
:10307000D501011113D745013378D800B3E7170103
:1030800093D846010E0826CA4AC89374F77F93F86E
:10309000F87F1357D60106CE22CC4EC613D9F501C0
:1030A000FD82336707010E050E063388144163164F
:1030B000D9226351000F63980802B366C700638783
:1030C00006569305F8FF89E92A963335A600BA9784
:1030D000AA9732858544B1A89306F07F631DD80076
:1030E0009304F07F79AA9306F07F638CD418B70617
:1030F0008000558FC2859306800363C9B608FD46DC
:1031000063C0B606130800023308B840B3160701BF
:10311000B358B60033160601B3E616013336C000C5
:10312000558E3357B7002A963E97B337A600BA9705
:103130003285139787006356071485041307F07FC1
:103140006385E448B70680FFFD16FD8E9355150094
:1031500005899397F6014D8D5D8D93D7160015A2C5
:10316000938605FE93080002B356D7000148638892
:10317000150113080004B305B8403318B7003366CF
:10318000C8003336C000558E014771BF598E3336A3
:10319000C000DDBF630B080AB38598408DE4B3E639
:1031A000A700638B06409386F5FF99E63295BA97A0
:1031B0003336C500B29739BF1308F07F639D050110
:1031C000BA87328531BF9306F07FE38BD8FEB7060E
:1031D0008000D58FAE869305800363C4D506FD4578
:1031E00063CBD502130800023308D8403353D5000F
:1031F000B395070133150501B3E565003335A0002C
:103200004D8DB3D6D7003295B387E6003336C5006F
:10321000B297C68439BF938506FE13030002B3D567
:10322000B70001486388660013080004B306D8405D
:103230003398D7003365A8003335A0004D8D814603
:10324000D9B75D8D3335A000DDBF9386140093F5AB
:10325000E67FBDE1B3E6A700A9E463830636B36663
:10326000C70085C22A96BA973335A600AA97139746
:103270008700328563570700370780FF7D17F98F76
:10328000854413777500630407341377F50091467E
:10329000630FD7329306450033B5A600AA9736854B
:1032A0003DA699DE598EE30D06E20149B7074000BD
:1032B00001459304F07F21AE9305F07F6385B6301E
:1032C0002A963E97B337A6003E971315F70105825D
:1032D000518D93571700B6846DB76356000D6391F7
:1032E0000808B366C700638306349305F8FF91E9C5
:1032F0003306C5403335C500998F898F32858544A3
:10330000B1A09306F07FE30DD8DC9306800363C879
:10331000B608FD4663CFB604130800023308B84070
:10332000B3160701B358B60033160601B3E616010B
:103330003336C000558E3357B7003306C540338748
:10334000E740B337C500B307F740328513978700CE
:10335000E35907F2370480007D147D8CAA8975A299
:103360009306F07FE38FD4F0B7068000558FC285B7
:1033700069BF938605FE93080002B356D700014843
:103380006388150113080004B305B8403318B7006B
:103390003366C8003336C000558E014779BF598E59
:1033A0003336C000DDBF6304080C3388984095E8CD
:1033B000B3E5A700638E05269305F8FF91E9330571
:1033C000A640B307F7403336A600918F368905BF74
:1033D0001303F07F631F6800BA8732859304F07F80
:1033E0007DA09305F07FE389B8FEB7058000CD8FFF
:1033F000C285130880036348B8067D48634EB8024F
:10340000130300023303B340335EB5003398670003
:10341000331565003368C8013335A0003365A80053
:10342000B3D5B7003305A640B307B7403336A6007F
:10343000918FC684368919BF138805FE130E0002CA
:1034400033D8070101436388C50113030004B305A2
:10345000B3403393B7003365A3003335A000336521
:10346000A8008145C1B75D8D3335A000DDBF9385D0
:10347000140093F5E57FB5E533E8A700B365C70011
:10348000B1E4631808006389051ABA873285368962
:10349000CDBBE38805DE3308C540B385E740B338CC
:1034A0000501B385154113948500635A0400330563
:1034B000A640B307F7403336A600918FC9BF3365E6
:1034C000B800630F0516AE87428565BB6318080018
:1034D000638A0516BA873285368919B1E38205C039
:1034E000E9B3B309C540B33535013384E7400D8CEA
:1034F0009315840063D70506B309A640B307F740C8
:10350000333636013384C740368935C02285EF1003
:10351000A03D130785FFFD4763C1E706930700023F
:10352000998F3314E400B3D7F9005D8C3395E9002B
:10353000634E9706058F93071700FD4663C5F60493
:10354000130700021D8F3356F500B316E400331540
:10355000E500D18E3335A000558DB357F40081447A
:103560000DB333E5890055F181478144C1A84E85EB
:10357000EF1080371305050269BF130485FD3394EE
:103580008900014575B70517130600023357E4009B
:1035900081466387C700930600049D8EB316D4004E
:1035A000558D3335A000598D814755BFB70780FF32
:1035B000FD17998CE18FF1B1BA873285AE84D1B114
:1035C000BA8732857DB99304F07F8147014513970F
:1035D0008700635B070085041307F07F6389E406B7
:1035E000370780FF7D17F98F1397D7010D81598D0C
:1035F0001307F07F8D836399E4005D8D814709C5D2
:10360000B70708000145014913F7F47FB2075207D5
:10361000F2406244B1839315F901D98F33E7B700C3
:10362000D2444249B249BA8505618280C28491B9C7
:10363000BA873285C284A1BD81470145014941BF96
:103640008147EDBF01450149B70740009DB1814762
:10365000014559BF797113D8450126D24ECE52CCBF
:103660005AC85EC69394C50006D622D44AD056CA1C
:103670001378F87F2A8BB28B368AB18093D9F50103
:10368000630408089307F07F630AF80C935AD50186
:103690008E04B3E49A00B70A8000B3EA540113140D
:1036A0003500130918C0014B13554A019314CA0081
:1036B0001378F57FB180135AFA016304080C93075D
:1036C000F07F6309F8101395340093D7DB015D8D0B
:1036D000B7048000C98C139F3B00130518C08147B5
:1036E00013172B005D8F7D17B94633C64901330888
:1036F000A94063E3E610975600009386A6EC0A07FC
:103700003697184336970287B3EAA40063820A0605
:103710009DC82685EF10401D930755FF71476349EB
:10372000F702F54A130485FFB38AFA40B394840084
:10373000B35A5B01B3EA9A0033148B001308D0C06C
:103740003309A8408DB7EF10201A13050502E9B719
:10375000930485FDB31A9B000144CDB7B3EAA400DE
:10376000638C0A002A84A68A1309F07F0D4B2DBFB3
:1037700001440149054B0DBF01441309F07F094B7A
:1037800025B733EF740163000F068DC82685EF104F
:10379000A015930755FF71476348F7027547130F4C
:1037A00085FF1D8FB394E40133D7EB00D98C339F91
:1037B000EB011306D0C03305A64015B75E85EF10A8
:1037C000A01213050502F1B7930485FDB3949B0085
:1037D000014FC5B733EF7401630B0F005E8F130504
:1037E000F07F8D47F5BD814401458547D5BD8144B6
:1037F0001305F07F8947EDB563E6540163939A2A78
:103800006361E42B9396FA01135714009317F401A4
:1038100093DA1A0033E4E6001395840093548F0181
:10382000458D135E0501B3D8CA0313130501135365
:1038300003011357040193158F00B3F4CA03C68F15
:10384000B3061303939A040133675701637CD700CF
:103850002A97938FF8FF6367A7006375D700938F4C
:10386000E8FF2A97158FB35EC70342044180337780
:10387000C703F686B308D3034207418F637C170161
:103880002A979386FEFF6367A700637517019386E7
:10389000EEFF2A97C20FB3EFDF00C1663304174172
:1038A0009388F6FF13DF0F0133F71F0193DE050145
:1038B000B3F81501B3031703B3041F033387EE02F4
:1038C000B302DF03330F970013D703017A976373B3
:1038D0009700B692135F0701169FC162FD12B3767F
:1038E0005700C206B3F353009E966367E401FE845B
:1038F000631EE40363FCD702AE9733B7B7002A9781
:103900003A949384FFFF636685006311850263EF39
:10391000B7006366E401631B8F0063F9D700AE97BD
:1039200033B7B7002A979384EFFF3A94B386D74012
:103930003304E441B3B7D7001D8C7D5F6305850E6A
:10394000335FC40313D706013374C403B307E3031F
:103950004204598C7A87637CF4002A941307FFFF92
:103960006367A4006375F4001307EFFF2A941D8CAE
:10397000335FC403C206C1823374C403FA873303BE
:10398000E3034204558C637C64002A949307FFFF91
:103990006367A400637564009307EFFF2A944207EE
:1039A0005D8F93170701C1833304644013530701EC
:1039B000338E1703B308130333836E02B38EFE02F4
:1039C00093570E01C69EF69763F41701C1663693AE
:1039D00093D807019A9841637D13B3F66700C20636
:1039E000337E6E00F29663661401631E14193A8FDB
:1039F0009DCA2A94130FF7FF6361A4026366140142
:103A00006312141963FDD50093971500B3B5B70081
:103A10002E95130FE7FF2A94BE8563141401638467
:103A2000B600136F1F001307F83F6357E00A937740
:103A30007F0081CF9377FF0091466388D70093067C
:103A40004F0033BFE601FA94368F9397740063D822
:103A50000700B70700FFFD17FD8C13070840930709
:103A6000E07F63C8E710135F3F009397D401B3E78B
:103A7000E70113D5340032051377F77F5207B250B0
:103A800022543181598D7E063367C5009254025904
:103A9000F249624AD24A424BB24B3E85BA854561F1
:103AA00082807D1881478DBB4E86D684228FDA872F
:103AB00009476380E70C0D476386E70A0547E394EF
:103AC000E7F60145814785A85286DDB7B7040800AF
:103AD000014F01468D47E9BF0545198D93078003C6
:103AE000E3C1A7FEFD4763CAA7041308E841B397E3
:103AF00004013357AF0033180F01D98F3338000159
:103B0000B3E7070133D5A40013F7770001CF13F70C
:103B1000F70091466308D70013874700B337F700D3
:103B20003E95BA8713178500634A07041317D5011A
:103B30008D83D98F0D8101473DBF8557998F93069E
:103B40000002B3D7F40001476306D5001308E84329
:103B500033970401336FE701333FE001B3E7E70137
:103B600001455DB73705080081471307F07F01461F
:103B700019B7014581471307F07FF5BD014581471E
:103B80000547D5BD7A873A8F69BD13D74501B70779
:103B90001000FD1713D846012A83AA8E1377F77FEA
:103BA0001305F07FB3F8B700328FF58FFD811378DE
:103BB000F87FFD82631AA70033EE680005456314A1
:103BC0000E006305E80082806315A8005D8E054540
:103BD0007DFA0545E31907FFE397F8FEE395EEFF4D
:103BE0006388D5006DF333E568003335A00082802B
:103BF0000145828013D84501B7071000FD1713D780
:103C000046011378F87F930EF07FB3F8B7002A834C
:103C1000F58FFD81328E1377F77FFD826318D8010F
:103C2000B3EEA80063850E06F9550DA86316D701FB
:103C3000B3EEC700E39A0EFE631D080433E5A80047
:103C40001335150019E35D8E15CE11E5638AD50095
:103C500085C9FD5521A0FD5591C2B6852E8582806E
:103C6000E34807FF6354E800F5F9E5B7E3E217FF1F
:103C7000639CF800E36E6EFCE368C3FF8145F9BF07
:103C80008545E9BF65FDE9B7E3E0F8FEC5BFE3019F
:103C900007FB4DFF014545BF13D84501B70710008D
:103CA000FD1713D746011378F87F930EF07FB3F812
:103CB000B7002A83F58FFD81328E1377F77FFD825F
:103CC0006318D801B3EEA80063850E0689450DA8D8
:103CD0006316D701B3EEC700E39A0EFE631D080416
:103CE00033E5A8001335150019E35D8E15CE11E5F7
:103CF000638AD50085C9FD5521A0FD5591C2B685C1
:103D00002E858280E34807FF6354E800F5F9E5B7A4
:103D1000E3E217FF639CF800E36E6EFCE368C3FF09
:103D20008145F9BF8545E9BF65FDE9B7E3E0F8FEE8
:103D3000C5BFE30107FB4DFF014545BF79714ECE7D
:103D400093D9450122D426D252CC56CA5AC893944C
:103D5000C50006D64AD05EC693F9F97F2A84328B15
:103D6000B68AB18013DAF501638109089307F07F01
:103D70006385F90C9357D5018E04DD8CB70780005D
:103D8000DD8C13193500938919C0814B13D54A0175
:103D90001394CA001375F57F318093DAFA0161C17B
:103DA0009307F07F6305F5109357DB010E045D8CDC
:103DB000B70780005D8C130515C093173B000147C2
:103DC00093962B00D98E4E95FD16B94533465A0170
:103DD0001308150063EED50E9755000093854582B4
:103DE0008A06AE969442AE96828633E9A400630FAB
:103DF00009048DC82685EF00302F130755FFF147C2
:103E000063C7E702F547130985FF998FB39424012F
:103E1000B357F400DD8C331924019309D0C0B38962
:103E2000A940A5B7EF00502C13050502F9B793047C
:103E300085FDB31494000149CDB733E9A400630BA9
:103E400009002A899309F07F8D4B89B78144814904
:103E5000854B2DBF81449309F07F894B05BFB36724
:103E60006401B1CF0DC82285EF001028930655FFDD
:103E7000F14763C8D7027547930785FF158F331441
:103E8000F4003357EB00598CB317FB001307D0C075
:103E90003305A7402DB75A85EF00102513050502FD
:103EA000F1B7130485FD33148B008147C5B7B367A1
:103EB000640191CBDA871305F07F0D4711B70144F8
:103EC00001450547F5BD01441305F07F0947CDBD08
:103ED000416F930EFFFF1357090193D80701337900
:103EE000D901B3F7D701B3852803B3862703B30FEE
:103EF000F7023383F50193D506019A95330E170324
:103F000063F3F5017A9E93D30501B3F5D501B3F6BA
:103F1000D601135F0401B372D401C205B695B30E86
:103F20005702B386220333092F033303D90113D970
:103F300006011A993307E7036374D90141631A979D
:103F4000935E0901C169BA9E1387F9FF3379E900CD
:103F5000F98E13D404014209F98C369933879702FC
:103F6000CA933303F402B3869802B3878802B388F6
:103F7000660093560701C69663F36600CE9793D802
:103F80000601C169B38FF8009387F9FFFD8E7D8F1D
:103F9000B3889202C206BA96B3075402B3049F02D2
:103FA00033038F02BE9413D40801A29463F3F40088
:103FB0004E93C167FD1733F7F400B3F8F8004207DA
:103FC0001E9E469733392E01769733042701369E7D
:103FD000B336DE00B308F401338FD8003337D7018E
:103FE00033342401598CC180B3B8F801B336DF00F3
:103FF0002694B3E6D80036941A9493577F0126048A
:104000005D8C93179E00CD8FB337F000135E7E0159
:1040100013179F00B3E7C701D98F131774006358B4
:10402000070A13D71700858BD98F1317F401D98F7F
:1040300005809306F83F635ED00813F7770001CF41
:1040400013F7F70091456308B70013874700B337AC
:10405000F7003E94BA8713177400635807003707B8
:1040600000FF7D17798C930608401307E07F634CAF
:10407000D70E13D737009317D401D98F0D80320490
:1040800013F7F67F52073180598C7E063367C400E0
:10409000B250225492540259F249624AD24A424BD7
:1040A000B24B3E85BA854561828052862684CA8796
:1040B0005E8789466309D70A8D46630FD708854610
:1040C000E319D7F6014481479DA05686DDB72A88BB
:1040D0008DB78545958D13078003E345B7FE7D4772
:1040E0006349B7041308E84133170401B3D6B70096
:1040F000B3970701558FB337F000D98F3354B4000D
:1041000013F7770001CF13F7F70091466308D70044
:1041100013874700B337F7003E94BA87131784001C
:10412000634807041317D4018D83D98F0D8081460E
:10413000B9B70557158F130500023357E4008146C0
:104140006386A5001308E843B3160401D58FB3377F
:10415000F000D98F01446DB73704080081479306FA
:10416000F07F014629BF014481479306F07F01BFDC
:1041700001448147854621B7370810007D18B37880
:10418000B8008E089357D501011113D74501337834
:10419000D800B3E7170193D8460126CA4AC89374DA
:1041A000F77F13D9F5011357D6010E0806CE22CC9E
:1041B0004EC693F8F87F9305F07F0E05FD823367B6
:1041C00007010E066395B800B365C70099E193C671
:1041D00016003388144163932623635C000F6395B4
:1041E0000804B366C7008DC21388F4FF631A080081
:1041F0002A963335A600BA97AA973285854495A8A2
:104200009306F07F6399D402137775006300074E1D
:104210001377F5009146630BD74C9306450033B5F1
:10422000A600AA973685D9A19306F07FE38ED4FC29
:10423000B7068000558F9306800363C80609FD46C4
:1042400063C0060793050002B3850541B316B700A6
:10425000B35806013316B600B3E616013336C00074
:10426000558E335707012A963E97B337A600BA9763
:10427000328513978700E35907F885041307F07F09
:104280006384E446B70680FFFD16FD8E9355150046
:1042900005899397F6014D8D5D8D93D71600ADB7C7
:1042A000930608FE93080002B356D70081456308C1
:1042B00018019305000433880541B31507014D8E9D
:1042C0003336C000558E014779BF598E3336C00052
:1042D000DDBF630B080AB38598408DE4B3E6A70001
:1042E000638B063E9386F5FF99E63295BA9733368F
:1042F000C500B29721B71308F07F639D0501BA8707
:104300003285E5AC9306F07FE38BD8FEB7068000DC
:10431000D58FAE869305800363C4D506FD4563CB78
:10432000D502130800023308D8403353D500B395A3
:10433000070133150501B3E565003335A0004D8D48
:10434000B3D6D7003295B387E6003336C500B297AF
:10435000C68405B7938506FE13030002B3D5B700E4
:1043600001486388660013080004B306D8403398F8
:10437000D7003365A8003335A0004D8D8146D9B7ED
:104380005D8D3335A000DDBF9386140093F5E67F85
:10439000A9E5B3E6A7009DE463830634B366C700CE
:1043A000E38406E62A96BA973335A600AA971397B0
:1043B00087003285E35A07E4370780FF7D17F98FBE
:1043C000854499B58DDE598E630906220149B707E8
:1043D000400001459304F07F11AE9305F07F6383A5
:1043E000B6302A963E97B337A6003E971315F701CD
:1043F0000582518D93571700B68439B56355000D6A
:1044000063920808B366C700E38006E01388F4FFF0
:10441000631B08003306C5403335C500998F898F6B
:1044200032858544B1A09306F07FE38FD4DC9306F8
:10443000800363C60609FD4663CE060593050002A8
:10444000B3850541B316B700B35806013316B6005D
:10445000B3E616013336C000558E335707013306D5
:10446000C5403387E740B337C500B307F74032850F
:1044700013978700E35A07D8370480007D147D8C9A
:10448000AA896DA29306F07FE380D4D8B706800096
:10449000558F71BF930608FE93080002B356D700EC
:1044A0008145630818019305000433880541B3155D
:1044B00007014D8E3336C000558E01474DB7598EDA
:1044C0003336C000DDBF6304080C3388984095E89C
:1044D000B3E5A700638B05269305F8FF91E9330543
:1044E000A640B307F7403336A600918F368915BF33
:1044F0001303F07F631F6800BA8732859304F07F4F
:104500007DA09305F07FE389B8FEB7058000CD8FCD
:10451000C285130880036348B8067D48634EB8021D
:10452000130300023303B340335EB50033986700D2
:10453000331565003368C8013335A0003365A80022
:10454000B3D5B7003305A640B307B7403336A6004E
:10455000918FC684368929BF138805FE130E000289
:1045600033D8070101436388C50113030004B30571
:10457000B3403393B7003365A3003335A0003365F0
:10458000A8008145C1B75D8D3335A000DDBF93859F
:10459000140093F5E57FBDE533E8A700B365C700D8
:1045A000B1E4631808006386051ABA873285368934
:1045B000A1B9E38B05C43308C540B385E740B338E0
:1045C0000501B385154113948500635A0400330532
:1045D000A640B307F7403336A600918FC9BF3365B5
:1045E000B800630C0516AE87428539B9631A080016
:1045F00063870516BA87328536899304F07F29B11F
:10460000EDDDE9B3B309C540B33535013384E74087
:104610000D8C9315840063D60506B309A640B30735
:10462000F740333636013384C74036892DC02285A2
:10463000652C130785FFFD4763C0E706930700025B
:10464000998F3314E400B3D7F9005D8C3395E900FA
:10465000634D9706058F93071700FD4663C4F60464
:10466000130700021D8F3356F500B316E40033150F
:10467000E500D18E3335A000558DB357F400814449
:1046800061B633E589005DF181478144E9A04E853B
:10469000A12C1305050271BF130485FD3394890015
:1046A00001457DB70517130600023357E400814624
:1046B0006387C700930600049D8EB316D400558D02
:1046C0003335A000598D81475DBFB70780FFFD17C7
:1046D000998CE18F15BEBA873285AE8435B6BA871C
:1046E00032851DB69304F07F8147014513978700FB
:1046F000635B070085041307F07F6387E4063707D1
:1047000080FF7D17F98F1397D7010D81598D1307FE
:10471000F07F8D836399E4005D8D814709C5B707FC
:1047200008000145014913F7F47FB2075207F24030
:104730006244B1839315F901D98F33E7B700D244AE
:104740004249B249BA8505618280BA873285C284FE
:10475000B9BD81470145014951BF8147EDBF0145C1
:104760000149B7074000BDB18147014569BF13D773
:104770004501B70610009387F6FF1377F77F1306FE
:10478000E03FED8FFD816354E6041306D04163588A
:10479000E600370500801345F5FF2E958280D58F02
:1047A00093063043998E7D46634DD6001307D7BEDE
:1047B000B397E7003355D5005D8D99C93305A04007
:1047C000828013053041198D33D5A700FDB701450F
:1047D000828013D74501B70610002A869387F6FF1B
:1047E0001377F77F1305E03FED8FFD81635FE502EF
:1047F000014591E59305E0417D5563D3E500828055
:10480000D58F93063043998EFD4563CAD5001307B3
:10481000D7BEB397E7003355D6005D8D8280130570
:104820003041198D33D5A700828001458280411126
:1048300006C622C426C231CD9357F54133C4A70022
:104840001D8C9354F501228545201307E041A947AB
:10485000098F63CAA702AD47898F5505B357F40086
:104860003314A4002685B2071377F77F5207B1836C
:104870007E05D98F33E7A700B240228522449244B7
:10488000BA85410182805515B317A40026850144DD
:10489000D9BF01478147E5BF411122C406C62A841A
:1048A00029C199201307E041A947098F63C6A702D0
:1048B000AD47898F5505B357F4003314A400228502
:1048C000B2402244B2071377F77F5207B183B3E6B1
:1048D000E700B685410182805515B317A400014455
:1048E000F9BF81470147E1BFC1676376F5029307CE
:1048F000F00FB3B7A7008E07130700021D8FB35741
:10490000F50017450000130565D3AA9703C50700F6
:104910003305A740828037070001C147E36EE5FCFD
:10492000E147D9BF797106D622D40018232EA4FC02
:10493000232CB4FC232AC4FC0327C4FD8547630948
:10494000F700A9282A87930780051CC3FD572DA8C7
:10495000832784FD2324F4FE232604FE39A803279D
:1049600084FE8327C4FEBA9783C707003E85912C37
:104970008327C4FE85072326F4FE0327C4FE83276E
:1049800044FDE36EF7FC81473E85B25022544561F9
:104990008280AA85814601460145F1A897E7BF5F5D
:1049A0009387474D88438280411122C406C69707EA
:1049B00000009387C7142A8499C381453D2A97E74D
:1049C000BF5F9387674B88431C5591C382972285AD
:1049D000EF30F0094111974700009387670B22C41D
:1049E000174400001304C40A1D8C26C206C609849D
:1049F000BE8411E4B24022449244410182807D147D
:104A000093172400A6979C438297E5B741119747D7
:104A100000009387A70722C417440000130404076B
:104A20001D8C26C24AC006C6098481443E8963960D
:104A3000840297470000938767051744000013041A
:104A400024051D8C098481443E89639F8400B24003
:104A50002244924402494101828093972400CA97DC
:104A60009C4385048297E1B793972400CA979C439F
:104A700085048297D9BF97E7BF5F938727429C43FE
:104A80002A8E8DE31387C19F97E7BF5F23A8E74076
:104A900017B5BFDF13050557BA8709C51C4123A207
:104AA000F1A8BA87D8437D487D556347E804630E73
:104AB0000E0203A887086301080493182700C29810
:104AC00023A0C8000323081005463316E60033630D
:104AD000C3002320681023A0D80889466317DE008E
:104AE00083264810558E2322C810930617000A0704
:104AF000D4C3BA978CC701458280797152CC56CA0B
:104B00005AC85EC606D622D426D24AD04ECE62C439
:104B10002A8B2E8A97EABF5F938A4A38854B03A473
:104B20000A0011C84440832984081389F4FF8A04C9
:104B3000A294635E0900B250225492540259F24981
:104B4000624AD24A424BB24B224C45618280630E8C
:104B50000A00639509007D19F114E1BF931729003C
:104B6000CE9783A70708E39847FF5840DC407D179E
:104B70006318270323222401F9DF032C44006388F0
:104B8000090083A6091033972B01F98E89EE8297CD
:104B9000584083A70A00E31487F9E30EF4FA41B7FB
:104BA00023A20400D1BF93162900CE968C4283A67F
:104BB0004910758F01E75A858297D9BF2E85829754
:104BC000C1BF011106CE22CC00102326A4FE03276C
:104BD000C4FEA9476314F700354511280325C4FE18
:104BE0003920AA873E85F240624405618280011126
:104BF00006CE22CC00102326A4FE8325C4FEB737A0
:104C00000080138507E5B128AA873E85F2406244FB
:104C100005618280411106C622C40008F1679385B0
:104C20000720B7370080138507E531200100B24027
:104C3000224441018280011106CE22CC001023269D
:104C4000A4FE2324B4FE8327C4FE9C439C438325F7
:104C500084FE0325C4FE82970100F2406244056190
:104C60008280011106CE22CC00102326A4FE23242C
:104C7000B4FE8327C4FE9C43DC43832584FE0325C6
:104C8000C4FE8297AA873E85F24062440561828015
:104C9000011106CE22CC00102326A4FE2324B4FE4C
:104CA0008327C4FE9C43DC4B832584FE0325C4FE7E
:104CB0008297AA873E85F240624405618280011195
:104CC00022CE00102326A4FE0327C4FEB73700809F
:104CD0009387C7E76315F700B707000211A0814764
:104CE0003E85724405618280011122CE0010232688
:104CF000A4FE0327C4FEB73700809387C7E7631479
:104D0000F700894711A081473E8572440561828082
:104D1000011122CE00102326A4FE2324B4FE8327F3
:104D200084FE91E7B72700809387877921A803271E
:104D300084FE85476317F700B7270080938787793C
:104D400011A081473E85724405618280011122CE07
:104D500000102326A4FE2324B4FE832784FE99E3B7
:104D60008D4709A8032784FE85476314F7009D47F4
:104D700011A081473E857244056182805D7186C6BF
:104D8000A2C4CAC2CEC052DE56DC5ADA5ED862D69F
:104D900066D48008232EA4FA8327C4FB3E850537FA
:104DA0002326A4FC0327C4FCB167F117BA979C43E0
:104DB0002324F4FC0327C4FCB167E117BA979C4392
:104DC0002322F4FC0327C4FCB167F117BA979C4374
:104DD000032784FCE318F7FC832784FC3E8C814C7A
:104DE00093190C000149832744FC3E8A814A336BA6
:104DF0004901B3EB5901DA875E883E85C285B6402A
:104E0000264416498649725AE25A525BC25B325CAA
:104E1000A25C61618280797106D622D44AD24ED0DA
:104E20000018232EA4FC232CB4FC2328C4FC232A22
:104E3000D4FC8327C4FD2326F4FE8327C4FE3E85CD
:104E4000BD3D2324A4FE832784FD8E073E87832750
:104E500084FE3E9791679107BA973E87FD571CC322
:104E6000832784FD8E073E87832784FE3E979167C4
:104E7000BA973E87832704FD1CC3832744FD13D9BB
:104E800007008149832784FD8E073E87832784FEA0
:104E90003E9791679107BA974A8798C381473E85A5
:104EA000B25022541259825945618280011106CEB6
:104EB00022CC0010232604FEF32740F12326F4FE23
:104EC0008327C4FE3E85EF3060252324A4FE0325FE
:104ED00084FEEF304022AA873E85F240624405619D
:104EE0008280397106DE22DC80002326A4FC0325A3
:104EF000C4FCDD3B2324A4FE8327C4FC2322F4FE50
:104F0000832744FEDC43A9EF232604FE81A08325EA
:104F1000C4FE0325C4FCED3B2320A4FE8325C4FE70
:104F20000325C4FC2535232EA4FC832704FE9C43C3
:104F3000DC4F8326C4FC01468325C4FD032504FE03
:104F400082978327C4FE85072326F4FE0327C4FE29
:104F5000832784FEE34DF7FA832744FE0547D8C331
:104F60000100F250625421618280397106DE22DC38
:104F700080002326A4FC2324B4FC2322C4FC232089
:104F8000D4FCFD572326F4FEEF10203D2320A4FE81
:104F9000232404FE213F232EA4FC0325C4FCA933B3
:104FA000232CA4FC032704FE85476308F70083270E
:104FB00004FE81C78327C4FE49A0232204FE91A0DA
:104FC000832544FE0325C4FC5133232AA4FC8325F6
:104FD00044FE0325C4FC2D3B2324A4FE0327C4FD6B
:104FE000832784FE6318F700032784FC832744FD8E
:104FF0006300F702232404FE832744FE850723224F
:10500000F4FE032744FE832784FDE34BF7FA11A047
:105010000100832784FE85C3832784FE9C43DC4FE5
:10502000832604FC032644FC832584FC032584FE9C
:1050300082972326A4FE8327C4FE3E85F250625445
:1050400021618280797122D60018232EA4FC232CA2
:10505000B4FC232AC4FC2328D4FCFD572326F4FEE9
:105060008327C4FE3E85325445618280011106CEFD
:1050700022CC00102326A4FEEF10202EAA873E8506
:10508000F240624405618280797106D622D400180C
:10509000232EA4FC232CB4FCFD572326F4FE393523
:1050A0002324A4FE832784FE95C3032784FD85471C
:1050B00063EFE700832784FE9C43DC43832584FD64
:1050C000032584FE82972326A4FE11A001008327D6
:1050D000C4FE3E85B250225445618280397106DE9D
:1050E00022DC80002326A4FC2324B4FCFD572326C5
:1050F000F4FE832784FCC9C7232404FE453B2320F8
:10510000A4FE0325C4FCCD36232EA4FC232204FEDA
:1051100091A0832544FE0325C4FC0D39232CA4FC57
:10512000832544FE0325C4FCE5362324A4FE03277F
:1051300004FE832784FE6318F700032784FC83277B
:1051400084FD6300F702232404FE832744FE8507C1
:105150002322F4FE032744FE8327C4FDE34BF7FA22
:1051600011A00100832784FE81CF832784FE9C4306
:10517000DC53832584FC032584FE82972326A4FE2A
:105180008327C4FE3E85F2506254216182803971CA
:1051900006DE22DC80002326A4FC2324B4FCFD5779
:1051A0002326F4FE832784FCC9C7232404FEFD398B
:1051B0002320A4FE0325C4FC053E232EA4FC2322A9
:1051C00004FE91A0832544FE0325C4FC4136232C14
:1051D000A4FC832544FE0325C4FC1D3E2324A4FE19
:1051E000032704FE832784FE6318F700032784FC4B
:1051F000832784FD6300F702232404FE832744FEF3
:1052000085072322F4FE032744FE8327C4FDE34BD6
:10521000F7FA11A00100832784FE81CF832784FE43
:105220009C439C57832584FC032584FE8297232678
:10523000A4FE8327C4FE3E85F25062542161828021
:10524000797106D622D40018232EA4FC232CB4FC9A
:10525000232AC4FCFD572326F4FE8327C4FD232400
:10526000F4FE0325C4FDEFF09FA52322A4FE03272F
:1052700084FD89476309F704032784FD894763C8D0
:10528000E700032784FD8547630EF700F1A8032795
:1052900084FD8D47630DF704032784FD914763095F
:1052A000F708D9A0832744FDCDCB032584FEEFF07A
:1052B000FFACAA872E88032744FD1CC323220701C5
:1052C000232604FE59A8832744FDD1CB832744FD20
:1052D0009C432320F4FE832704FE8A073E8783270E
:1052E00044FEBA9723A00700232604FE8DA8832737
:1052F00044FDA5CB832744FD9C432320F4FE832754
:1053000004FE8A073E87832744FEBA973E87854777
:105310001CC30F008004832704FE8A073E8783276F
:1053200044FEBA979C432326F4FE232604FE15A8C8
:10533000232604FE832744FD9DC7832744FD9C4309
:105340002320F4FE832704FE8A073E87832744FE3A
:10535000BA979C432326F4FE39A0010031A0010036
:1053600021A0010011A001008327C4FE3E85B25098
:10537000225445618280797106D622D40018232EEA
:10538000A4FC232CB4FCEF20505CAA872326F4FE57
:105390009307C4FE3E8689450325C4FD5535AA877B
:1053A0003E85B250225445618280797106D622D45E
:1053B0000018232EA4FC232CB4FCEF201059AA873C
:1053C0002326F4FE9307C4FE3E868D450325C4FDC7
:1053D000853DAA873E85B2502254456182800111E5
:1053E00022CE00102326A4FE0327C4FE938741810A
:1053F0006314F700814711A0FD573E857244056193
:105400008280011122CE00102326A4FE0327C4FEB1
:10541000938741816317F700B7470F0093870724ED
:1054200011A081473E85724405618280011122CE20
:1054300000102326A4FE0327C4FE9387418163172F
:10544000F700B72700809387877911A081473E85B1
:10545000724405618280011122CE00102326A4FE31
:105460008327C4FE634CF000B73700800327C4FED7
:105470000A07938787E7BA979C4311A081473E8527
:10548000724405618280011122CE0010F32740F1A1
:105490002326F4FE8327C4FE3E8572440561828084
:1054A000011122CE0010A147F3A707302326F4FEF6
:1054B0000100724405618280011122CE0010A147D3
:1054C000F3B707302326F4FE0100724405618280A1
:1054D000011122CE0010A147F3A747302326F4FE86
:1054E0000100724405618280011122CE0010A147A3
:1054F000F3B747302326F4FE010072440561828031
:10550000011122CE001093070008F3A7473023268D
:10551000F4FE0100724405618280011122CE001068
:1055200093070008F3B747302326F4FE01007244C6
:1055300005618280011122CE001085679387078064
:10554000F3A747302326F4FE0100724405618280F0
:10555000011122CE0010856793870780F3B747308B
:105560002326F4FE0100724405618280797122D6FF
:105570000018232EA4FC8327C4FD0547B317F700AA
:105580002326F4FE8327C4FEF3A747302324F4FE2A
:105590000100325445618280797122D60018232E91
:1055A000A4FC8327C4FD0547B317F7002326F4FEA8
:1055B0008327C4FEF3B747302324F4FE010032549E
:1055C00045618280011106CE22CC00102326A4FE64
:1055D0002324B4FE13054006EF20D038011106CE77
:1055E00022CC00102326A4FE2324B4FE1305800C35
:1055F000EF2050375D7186C696C49AC29EC022DEE7
:105600002ADC2EDA32D836D63AD43ED242D046CE32
:1056100072CC76CA7AC87EC680081305C012EF2005
:1056200070341D7186CE96CC9ACA9EC8A2C6AAC4F2
:10563000AEC2B2C036DE3ADC3EDA42D846D672D4CA
:1056400076D27AD07ECE80103D3D2A87B737008053
:105650000A07938787E7BA979C432326F4FA8327A0
:10566000C4FA85C70325C4FAD1332324A4FA8327B7
:1056700084FA83A7070E2322F4FA832784FA83A7E8
:10568000870D832544FA0D4582970100F640E642D6
:105690005643C6433644264596450646F25662575B
:1056A000D2574258B258225E925E025FF24F256195
:1056B00073002030797106D622D40018232EA4FC62
:1056C000232CB4FCC9332A87B73700800A07938795
:1056D00087E7BA979C432326F4FEF327203423243C
:1056E000F4FE8327C4FE95C70325C4FE813323221D
:1056F000A4FE832784FE93F7F73F032744FE938796
:10570000070E8A07BA979C478325C4FD0325C4FE6C
:1057100082970100B2502254456182801D7186CE6D
:1057200096CC9ACA9EC8A2C6AAC4AEC2B2C036DE81
:105730003ADC3EDA42D846D672D476D27AD07ECEE1
:10574000801091332A87B73700800A07938787E74D
:10575000BA979C432326F4FA8327C4FA85C7032506
:10576000C4FAE9312324A4FA832784FA83A707140F
:105770002322F4FA832784FA83A78713832544FA24
:105780001D4582970100F640E6425643C643364423
:10579000264596450646F2566257D2574258B258A9
:1057A000225E925E025FF24F2561730020307971B4
:1057B00006D622D40018232EA4FC232CB4FCE131FD
:1057C000AA873E8549392326A4FE0325C4FEEF108F
:1057D000401E2320A4FE2322B4FE832704FE0328B8
:1057E00044FEA9450146B386B70036853335F5003A
:1057F0003307C800B307E5003E87B6873A88BE8501
:1058000042860325C4FEEF1020210100B25022542D
:1058100045618280000000000000000000000000E0
:105820000000000000000000000000000000000078
:105830000000000000000000000000000000000068
:105840000000000000000000000000000000000058
:105850000000000000000000000000000000000048
:105860000000000000000000000000000000000038
:105870000000000000000000000000000000000028
:10588000197186DE96DC9ADA9ED8A2D6AAD4AED258
:10589000B2D0B6CEBACCBECAC2C8C6C6F2C4F6C270
:1058A000FAC07EDE0001EFF01FBE2A87B737008006
:1058B0000A07938787E7BA979C432326F4FAF327CE
:1058C00020342324F4FAF32710342322F4FAF327A4
:1058D00030342320F4FAF3275030232EF4F88327B2
:1058E000C4FAE9C70325C4FAEFF05FB4232CA4F887
:1058F000832784FA93F7F73F232AF4F8832784FA5F
:1059000063D80708032744F9AD4763D7E700832727
:10591000C4F993F7F7039DEF832684F9032744F92D
:10592000BA878607BA978E07B69783A78709232673
:10593000F4F8832684F9032744F9BA878607BA97CF
:105940008E07B69783A707098325C4F8032544F972
:105950008297A9A88327C4F913F7F7038947631728
:10596000F704F32770302328F4F8832784F983A7FA
:10597000C70D2326F4F8832704F99C432324F4F865
:10598000832784F88325C4F8032544F9829739A82E
:10599000032784F9832744F99387070E8A07BA9768
:1059A0009C47832544F90325C4FA8297F650E652B2
:1059B0005653C6533654265596550656F6466647F0
:1059C000D6474648B648264E964E064FF25F0961C6
:1059D0007300203000000000000000000000000004
:1059E00000000000000000000000000000000000B7
:1059F000000000000000000000001D7186CE96CC63
:105A00009ACA9EC8A2C6AAC4AEC2B2C036DE3ADCEA
:105A10003EDA42D846D672D476D27AD07ECE801084
:105A2000EFF07FA62A87B73700800A07938787E7BA
:105A3000BA979C432326F4FA8327C4FA8DC703251B
:105A4000C4FAEFF0BF9E2324A4FA832784FA83A725
:105A500087212322F4FA832784FA83A70721832549
:105A600044FA414582970100F640E6425643C64358
:105A70003644264596450646F2566257D257425856
:105A8000B258225E925E025FF24F256173002030B1
:105A90001D7186CE96CC9ACA9EC8A2C6AAC4AEC2B2
:105AA000B2C036DE3ADC3EDA42D846D672D476D27E
:105AB0007AD07ECE8010EFF01F9D2A87B737008006
:105AC0000A07938787E7BA979C432326F4FA83272C
:105AD000C4FA8DC70325C4FAEFF05F952324A4FA16
:105AE000832784FA83A707232322F4FA832784FADF
:105AF00083A78722832544FA454582970100F64013
:105B0000E6425643C6433644264596450646F25677
:105B10006257D2574258B258225E925E025FF24FED
:105B20002561730020301D7186CE96CC9ACA9EC81E
:105B3000A2C6AAC4AEC2B2C036DE3ADC3EDA42D851
