:0200000420409A
:100000009711C05F938181F497020000938282056B
:100010007390523093020000638402007350107C8E
:100020001701C0DF130101FE9700C0DF938080FD40
:10003000638300008290732540F181450146812051
:100040009700C0DF938000FC6383000082909702DA
:1000500000009382C2007390523003230000F5BF6A
:10006000F322203473231034F3233034D5BF82803D
:10007000411122C6000801003244410182800684F9
:100080009711C05F938181EC1701C65F130141A4F2
:100090008142130300406385A2001A918502E5BFE7
:1000A000137101FF93020000631B55089762000063
:1000B0009382C2B11703C05F1303C3F49383818299
:1000C000638C6200635A730003A50200910223202F
:1000D000A3001103E34A73FE97620000938202AF0C
:1000E0001703C0E7130303F29703C0E7938383F179
:1000F000638C6200635A730003A5020091022320FF
:10010000A3001103E34A73FE0F1000001703C05F42
:100110001303436697F3C55F9383835B6357730051
:10012000232003001103E34D73FE11C2029617252D
:1001300000001305E5CBEF105047EF10B04E0D3F18
:10014000F32710303707010013078702F98F89CB97
:10015000F32700300967D98F739007307350300050
:100160000545975500009385A570175600001306A6
:1001700066703120EF10D044A280828082804111CD
:1001800006C2F32240F1130300006385620073008E
:0C0190005010F5BF692C924041018280A4
:10020000011122CE0010232604FEF32700B023267E
:10021000F4FE8327C4FE3E857244056182807971B5
:1002200022D60018232EA4FC232CB4FC232AC4FCC1
:100230002328D4FC8327C4FD370700801307C77722
:1002400098C3832784FD370702801307C71B98C311
:10025000832744FD370704801307C7BF98C32326AD
:1002600004FEA5A0232404FEB1A08327C4FD984367
:100270008326C4FE832704FDB386F602832784FE0B
:10028000B6978A07BA9723A00700832784FD98436F
:100290008326C4FE832704FDB386F602832784FEEB
:1002A000B6978A07BA970D4798C3832784FE8507B8
:1002B0002324F4FE032784FE832704FDE347F7FA93
:1002C0008327C4FE85072326F4FE0327C4FE832765
:1002D00004FDE349F7F8232604FE35A08327C4FD77
:1002E00098438326C4FE832704FDB386F602832742
:1002F000C4FEB6978A07BA97054798C38327C4FEFA
:1003000085072326F4FE0327C4FE832704FDE34765
:10031000F7FC0100325445618280397106DE22DC2F
:1003200026DA8000232EA4FC232CB4FC232AC4FC50
:100330002328D4FC2326E4FC2324F4FC232604FEF7
:1003400029A88325C4FEB757402013854768792222
:100350008327C4FE85072326F4FE0327C4FE8327D4
:1003600004FDE340F7FE232404FE75A0930700007C
:100370002320F4FE232204FE85A00327C4FE832746
:10038000C4FC3307F702832744FEBA978A07032782
:10039000C4FDBA979843832644FE832784FCB38622
:1003A000F602832784FEB6978A07832684FDB697D4
:1003B0009C43B307F7023E85EF102077AA87BE85DE
:1003C000032504FEEF106040AA872320F4FE832754
:1003D00044FE85072322F4FE032744FE8327C4FC42
:1003E000E34DF7F80327C4FE832784FC3307F702A5
:1003F000832784FEBA978A07032744FDB304F700D6
:10040000032504FEEF10206DAA879CC0832784FE7D
:1004100085072324F4FE032784FE832784FCE34717
:10042000F7F40100F2506254D25421618280797154
:1004300006D622D40018B757402013850769752ABD
:10044000B75740201385C7694D2A1306C4FD13070B
:1004500004FE930744FE9306400BBA853E85C133E4
:10046000B75740201385476A492A593BAA87232654
:10047000F4FEB75740201385C76A4122032544FE86
:10048000832504FE0326C4FD9307400B1307400B8E
:100490009306400B5935B75740201385476BB12A57
:1004A0008533AA872324F4FE032784FE8327C4FE12
:1004B000B307F7402324F4FEB75740201385C76BDA
:1004C0003128832584FEB75740201385476C392097
:1004D00081473E85B25022544561828039713EDAAF
:1004E0002ED232D436D63AD842DC46DE9707C05FE9
:1004F0009387C72522CC804326CA06CEAA8409C486
:100500001C4C99E322851D2B0C4454102686228511
:1005100036C6EF001023F2406244D244216182804B
:10052000011126CA4AC806CE22CC4EC652C4AA849D
:100530002E8901C51C4D91E311239C4C804499E305
:100540002685ED29975700009387C71A631CF4028C
:10055000C0408357C400A18BB1C71C48A1C7FD5937
:10056000294A1C4483450900FD17B1E91CC463DE18
:1005700007062286A94526854128FD576308F5020E
:10058000294535A0975700009387C7186314F400D6
:100590008044C1B7975700009387C713E31BF4FA51
:1005A000C04445BFA2852685052255D97D55F24018
:1005B0006244D2444249B249224A056182801CC445
:1005C000050963D70700184C63CBE7006389450131
:1005D0001C401387170018C02380B70059B7228624
:1005E00026851D20E31F35F7D1B71C401387170060
:1005F00018C029472380E70061B79707C05F93873A
:10060000E714AA85884329BF011122CC26CA4AC80B
:1006100006CE4EC6AA842E89328401C51C4D91E3B4
:100620003129975700009387E70C6319F406C040FF
:100630001C4C1CC48357C400A18BC9C31C48BDCF2C
:100640001C4808409379F90F1379F90F1D8D5C4808
:100650006346F500A2852685E9242DE51C440505A1
:10066000FD171CC41C401387170018C023803701D6
:100670005C486389A7008357C400858B81CBA94759
:100680006316F900A2852685692C0DEDF2406244BF
:100690004A85D2444249B249056182809757000099
:1006A000938747076314F400804459B797570000B5
:1006B00093874702E31EF4F6C0449DBFA2852685BA
:1006C00021203DDD7D59D9B741119707C05F938740
:1006D000E70726C2844322C44AC006C62A892E845C
:1006E00089C49C4C99E32685912E975700009387E7
:1006F0006700631CF402C0400317C400931707018E
:10070000C18393F68700B5EE93F607019DEEA547EA
:100710002320F900136707042316E4007D55B24037
:1007200022449244024941018280975700009387F6
:1007300067FE6314F4008044C1B7975700009387A5
:1007400067F9E31BF4FAC04445BF918B8DC74C5841
:1007500089C9930744046384F5004A85C52B232A7D
:1007600004028357C4002322040093F7B7FD231625
:10077000F4001C481CC08357C40093E7870023166D
:10078000F4001C4881EF8357C4001307002093F73F
:1007900007286385E700A2854A85BD218357C400E9
:1007A00013F7170005C75C4823240400B307F04083
:1007B0001CCC1C480145A5F78317C40013F7070894
:1007C00039DF93E707042316F40089BF898B0147BB
:1007D00091E3584818C4F1BF83D7C500011122CC5A
:1007E00026CA06CE4AC84EC613F78700AA842E84AE
:1007F00065E7D8416347E000B8416344E000014544
:10080000C1A058546DDF03A904009396370123A0BB
:10081000040063DE060668488357C400918B99C7BD
:100820005C401D8D5C5899C33C401D8D5C540C5040
:100830002A86814626858297FD570357C400631D8B
:10084000F5009440F54763E4D708B70740208507D3
:10085000B3D7D700858BA5CF1C48232204001CC02A
:100860009317370163D80700FD576314F5009C40C8
:1008700091E368C84C5823A02401D1D193074404C4
:100880006384F5002685D921232A04028DBF0C50EC
:100890008546014626850297FD57E31FF5F69C40E5
:1008A000A5DF75476385E70059476395E70023A0F7
:1008B0002401B1B78357C40093E707042316F4005B
:1008C000F2406244D2444249B249056182801367D2
:1008D00007042316E400EDB783A90501E38109F2BB
:1008E00003A905008D8B23A0350133093941014748
:1008F00091E3D84918C4E35420F11C540C50CA8623
:100900004E8626858297634AA0008357C4007D5592
:1009100093E707042316F40065B7AA993309A940A1
:10092000D9BF9C49B9CF011122CC06CE2A8411C56A
:100930001C4D81E72EC61922B245975700009387B8
:1009400067DB639BF5004C408397C50095C7228504
:100950006244F240056149B597570000938787DBF1
:100960006394F5000C44CDB797570000938787D662
:10097000E39CF5FC4C44C9BFF2406244014505616B
:10098000828001458280411122C406C62A84231632
:10099000B5002317C50023200500232205002324CA
:1009A00005002322050623280500232A0500232C01
:1009B0000500214681451305C505ED249717000064
:1009C000938707855CD097170000938767871CD4AF
:1009D000971700009387A78B5CD497170000938725
:1009E000678E00D01CD8B240224441018280970516
:1009F0000000938545F3B9A2411126C21306800673
:100A00009384F5FFB384C4024AC02E8922C406C66B
:100A100093854407D5262A8419C92320050023225B
:100A20002501310508C4138684068145A52C22853D
:100A3000B240224492440249410182801C4DBDE3F0
:100A4000411106C622C497070000938787FA1CD578
:100A50009707C05F9387C7CF9C43232405042326B1
:100A60000504232805046314F50085471CCD2A845A
:100A70001D2848C02285052808C422852D2048C489
:100A8000484001469145013708440546A545E53DE6
:100A900048440946C945C53D85471CCCB24022445F
:100AA00041018280828041119707C05F938747CAC6
:100AB00026C284434AC006C69C4C22C42A8999E3B4
:100AC0002685AD3F938484048044DC40FD1763D6C3
:100AD00007009C40B1CF8440C5BF0317C40031E775
:100AE000C177850723220406232004002322040063
:100AF000232404005CC423280400232A0400232C9C
:100B00000400214681451305C405692A232A0402ED
:100B1000232C040223240404232604042285B24047
:100B2000224492440249410182801304840679BF21
:100B300091454A85D13588C02A8451FDB14723208B
:100B4000F900E9BF797122D44AD052CC56CA5AC8AA
:100B50005EC606D626D24ECE2A8AAE8A13048504F5
:100B60000149054BFD5B09ECB25022544A85925471
:100B70000259F249624AD24A424BB24B45618280E5
:100B8000044483294400FD1963D409000040E1BFF7
:100B900083D7C400637BFB008397E40063877701FE
:100BA000A6855285829A3369A90093848406E1BFA1
:100BB0001971A6DAAE848395E500A2DC86DE328464
:100BC00063DC050083D7C40023A0060093F7070861
:100BD0009DE39307004015A0300836C6892FB24622
:100BE000E34205FE7247BD67F98F7977BA9793B7ED
:100BF00017009CC2F9BF930700041CC0F65066544E
:100C0000D65401450961828083D7C500011122CCE9
:100C100006CE26CA4AC8898B2E8489CF93077404CE
:100C20001CC01CC885475CC8F2406244D24442499B
:100C30000561828074003000AA849D3FA2452A8904
:100C400026855D2A01ED8317C40013F7072069FF8D
:100C5000F19B93E727002316F400C9B7970700001C
:100C6000938727D99CD48357C40008C008C893E74A
:100C700007082316F400A2475CC8B24789CF831542
:100C8000E4002685F92D01C98357C400F19B93E741
:100C900017002316F4008357C4003369F9002316A4
:100CA000240159B73D432A876373C3029377F70042
:100CB000BDEFADE5937606FF3D8ABA960CC34CC3F3
:100CC0000CC74CC74107E36BD7FE11E28280B30625
:100CD000C3408A069702000096966780A600230705
:100CE000B700A306B7002306B700A305B700230586
:100CF000B700A304B7002304B700A303B70023037E
:100D0000B700A302B7002302B700A301B700230175
:100D1000B700A300B7002300B700828093F5F50F5A
:100D200093968500D58D93960501D58D61B79396E1
:100D300027009702000096968682E78086FA9680C2
:100D4000C1171D8F3E96E374C3F8A5B7CDC583A721
:100D5000C5FF411122C406C626C21384C5FF63D352
:100D600007003E94AA84BD2D9707C05F938787A094
:100D70009C4389EF232204009707C05F23AC879E22
:100D80002244B240268592444101B1AD637EF40015
:100D900014403307D4006396E7009843DC4336974A
:100DA00018C05CC0D1BFBA87D84319C3E37DE4FE45
:100DB00094433386D700631F86001040B29694C3D5
:100DC0003386D700E31EC7FA10435843B29694C344
:100DD000D8C37DB76375C400B1479CC055B71040F8
:100DE000B306C4006316D70014435843B29614C028
:100DF00058C0C0C371B78280011126CA93843500E0
:100E0000F19806CE22CC4AC84EC6A104B14763F77A
:100E1000F404B14463E6B4042A89E9239707C05F68
:100E20009387479598433A8431E49707C05F938747
:100E3000A7949C4381EB81454A8545269707C05F6F
:100E400023ACA792A6854A85492EFD59631935071B
:100E5000B1472320F9004A85792329A0E3DC04FA6D
:100E6000B1471CC10145F2406244D2444249B249F3
:100E7000056182801C40858F63C00704AD4663F620
:100E8000F6001CC03E9404C001A85C4063148702B5
:100E90001707C05F2320F78E4A85B1231305B400DE
:100EA0009307440061993307F54055DF3A94898FE1
:100EB0001CC055BF5CC3CDB722874040B5B71304F3
:100EC00035007198E30185FCB305A4404A853126BD
:100ED000E31B35FBB5BF1C46FD171CC663DA0700D4
:100EE000184E63C5E700A9476394F5006FF0CFF192
:100EF0001C422E851387170018C22380B7008280FA
:100F0000011122CC26CA4AC84EC652C406CE2A892E
:100F1000AE893284B304D6007D5A6314940001452F
:100F200009A8834504004E864A8575370504E316F3
:100F300045FFF2406244D2444249B249224A056127
:100F40008280357122CD26CB4AC94EC706CF52C505
:100F500056C35AC1DEDEE2DCE6DAAA89AE84328903
:100F6000368401C51C4D91E3D13C9747000093871F
:100F70006778639BF40C83A4490083D7C400A18BDA
:100F8000F5C79C48E5C793070002A304F102930745
:100F9000000302D22305F10222C6930B5002974AA6
:100FA0000000938A2A79054C294B4A848347040020
:100FB00099C36390770FB30C2441638D0C00E686D0
:100FC0004A86A6854E852D3FFD576306F51E92562F
:100FD000E69636D283470400638F071CFD5713093A
:100FE000140002C802CE3ECA02CCA309010482D476
:100FF0008345090015465685C92E13041900C247BA
:1010000059E913F7070109C713070002A309E1040F
:1010100013F7870009C71307B002A309E104834649
:1010200009001307A0026380E608F2474A8481465C
:1010300025460347040093051400130707FD637951
:10104000E60AB5CA3ECE85A8974700009387876C0D
:101050006395F40083A489000DB797470000938738
:101060006767E39CF4F083A4C90001BFA6854E85A1
:10107000EFF08FE509D97D55FA406A44DA444A49D0
:10108000BA492A4A9A4A0A4BF65B665CD65C0D61FD
:101090008280050421BF330555413315AC00C98F4B
:1010A0003EC82289B1B7324793064700184336C677
:1010B000634907023ACE034704009307E002631F27
:1010C000F704034714009307A002631BF702B2471B
:1010D0000904138747009C433AC663C107023ECA0E
:1010E00035A83307E04093E727003ACE3EC8E1B782
:1010F000B387670385462E84BA9725BFFD57C5B7CA
:10110000050402CA8146814725460347040093052A
:101110001400130707FD6376E606F1F28345040029
:101120000D461745000013056561452411CD97470D
:1011300000009387A7601D8D93070004B397A70055
:10114000424505045D8D2AC88345040019461745AC
:1011500000001305E55E130914002304B102B52451
:101160003DC197F7BFDF9387E7E995E74247B2476D
:101170001377071009CF91073EC69257D2973ED2F8
:101180002DB5B387670385462E84BA97BDBF9D07EB
:10119000E19BA107D5B7780097060000938686D615
:1011A00026860C084E8597000000E7000000FD57DA
:1011B0002A8AE314F5FC83D7C40093F70704E39C61
:1011C00007EA125555BD780097060000938686D32E
:1011D00026860C084E85392ED9BF411122C42A8497
:1011E0002E8597E7C55F23A3074E06C6EF00302D77
:1011F000FD576319F50097E7C55F9387274D9C431B
:1012000091C31CC0B240224441018280411122C4DA
:101210002E848395E50006C6BD2B634905007C48F6
:10122000AA977CC8B2402244410182808357C400FF
:101230007D777D17F98F2316F400EDB783D7C500AE
:10124000011122CC26CA4AC84EC606CE93F7071013
:10125000AA842E843289B68991C78395E500894690
:1012600001460D2A8357C4007D777D17F98F231619
:10127000F4008315E4006244F240CE864A86B24907
:1012800042492685D24405613DA8411122C42E84DD
:101290008395E50006C6FD28FD570357C400631B70
:1012A000F500FD77FD17F98F2316F400B2402244B4
:1012B000410182808567D98F2316F40068C8FDB785
:1012C0008395E50025A8411122C42A842E85B28584
:1012D000368697E7C55F23AB073E06C6EF001026AC
:1012E000FD576319F50097E7C55F9387273E9C4339
:1012F00091C31CC0B240224441018280411122C4EA
:101300002A842E8597E7C55F23A2073C06C6EF0017
:10131000500FFD576319F50097E7C55F9387073BAB
:101320009C4391C31CC0B2402244410182804111C0
:1013300022C42A842E85B28597E7C55F23A8073883
:1013400006C6EF00300EFD576319F50097E7C55F3D
:101350009387C7379C4391C31CC0B24022444101CC
:101360008280411122C42A842E8597E7C55F23AF6E
:10137000073406C6EF00700DFD576319F50097E7B7
:10138000C55F9387A7349C4391C31CC0B2402244DD
:1013900041018280411122C42A842E85B28536867D
:1013A00097E7C55F23A4073206C6EF00100CFD5770
:1013B0006319F50097E7C55F938747319C4391C355
:1013C0001CC0B24022444101828093F5F50F2A9659
:1013D0006314C5000145828083470500E38DB7FE95
:1013E0000505FDB782808280797156CA9C49BA8A08
:1013F000984522D426D24ECE52CC06D64AD05AC8D0
:101400005EC6AA892E84B284368A63D3E700BA877F
:101410009CC00347340419C385079CC01C4093F744
:10142000070281C79C4089079CC0032904001379E7
:101430006900631A0900130B9401FD5B5C4498403A
:10144000998F634CF9041C408346340493F70702D8
:10145000B336D000A5EB13063404D2854E85829AAC
:10146000FD576303F5041C4011469840998B544482
:1014700081446397C700B384E64063D3040081448A
:101480001C4418486354F700998FBE9401496904BD
:101490007D5B63982405014509A885465A86D28557
:1014A0004E85829A631E75017D55B2502254925426
:1014B0000259F249624AD24A424BB24B456182809C
:1014C0000509ADBF3307D40013060003A301C70409
:1014D0000347540493871600A2978906A381E70463
:1014E0009DBF85462286D2854E85829AE30E65FB96
:1014F000050945B7797122D426D24AD04ECE06D6F8
:1015000052CC56CA5AC8B68983C685019307E006ED
:101510003289AA842E84138635046380F61E63E222
:10152000D706930730066382F60A63EDD700638A15
:10153000061E930780056386F616930A240423018A
:10154000D40469A8930740066386F60093079006C3
:10155000E395F6FE1C40084393F607089305450003
:10156000C1C21C410CC363D807001307D002B307E4
:10157000F040A301E404974600009386E61C294747
:1015800065A0930730076382F61A63EFD7009307CD
:10159000F006638FF60493070007E390F6FA9C4188
:1015A00093E707029CC109A8930750076382F604DA
:1015B00093078007E393F6F893078007A302F404E8
:1015C0009746000093868619DDA01C43938A250464
:1015D000938647009C4314C32381F5048547ADA23D
:1015E00093F607041C410CC3BDDEC207C187A5BF2B
:1015F0000C401C4313F805081385470063050800D9
:1016000008C39C4339A093F5050408C3FDD983D7CB
:1016100007001307F006638AE60C974600009386DE
:10162000A6122947A30104044C400CC463C505005D
:1016300008406D9908C099E3B28A91CDB28AB3F59A
:10164000E702FD1AB69583C505002380BA00B3D51D
:10165000E70263F2E70AA147631EF7001C40858B8F
:1016600091CB58401C4863C7E70093070003A38F42
:10167000FAFEFD1A3306564110C84E87CA8670001E
:10168000A285268595337D5A6314450D7D55B2504C
:10169000225492540259F249624AD24A424B45615D
:1016A0008280A382D504974600009386E6090C4009
:1016B000084313F805081C4111056300080208C31C
:1016C00013F7150001C793E505020CC04147B9FBAC
:1016D0000C4093F5F5FD0CC0B1B713F8050408C331
:1016E000E30008FEC207C183E1BF9746000093866E
:1016F000A605214705BFAE8799B794411C43CC4945
:1017000013F80608138547006306080008C39C43C6
:101710008CC301A808C393F606049C43F5DA239012
:10172000B70023280400B28A89BF1C43D0418145F9
:101730009386470014C383AA07005685793101C5F3
:101740003305554148C05C401CC8A301040435B7AB
:1017500014485686CA8526858299E30945F31C40BC
:10176000898B8DE7B2474844E353F5F23E8505B7D0
:1017700085465686CA8526858299E30965F1050A5C
:101780005C443247998FE345FAFEE9BF014A930A68
:1017900094017D5BF5B7411122C42A842E85B28560
:1017A000368697E7C55F23A307F206C6E521FD57F6
:1017B0006319F50097E7C55F938747F19C4391C391
:1017C0001CC0B24022444101828037078000411191
:1017D0007D17B377A70026C24AC09354F501135969
:1017E000750113D575016D8F1379F90F1375F50F09
:1017F00006C622C4FD818E070E07B306A940639278
:10180000B412635AD00621E163080726FD168DE65F
:10181000BA974A85139757006359070C05051307B4
:10182000F00F6301E5263707007E93F617007D175A
:101830008583F98FD58F55A81306F00F631CC90057
:101840001305F00F5DA01306F00FE30BC9FE37067A
:101850000004518F6D466354D600054755BF1306EB
:101860000002B355D700B306D6403317D70033373D
:10187000E0004D8F71BFB9C633062541631D0900D5
:1018800089CB7D1619E2BA9771B79306F00F631BE7
:10189000D500BA8799A89306F00FE30CD5FEB706DA
:1018A0000004D58FED4663D4C6008547E9BF930693
:1018B0000002918EB3D5C700B397D700B337F000BD
:1018C000CD8FD1B79306190013F5E60F39E16319EF
:1018D0000902E1D319CBBA97139757006357070052
:1018E000370700FC7D17F98F054513F77700630C68
:1018F000071813F7F70091466307D718910761A2FD
:10190000638E071615DF8144B70700021305F00F39
:101910009DAA1306F00F6385C616BA978583368590
:10192000E9B76355D0061DE94A8561D3FD1681EEFE
:10193000998F13975700E35A07FA370400047D1470
:101940007D8C2A89C5A81306F00F1305F00FE30E4E
:10195000C9F86D46635ED600054735A01306F00F43
:101960001305F00FE303C9F837060004518FD5B70C
:1019700013060002B355D700B306D6403317D7007D
:101980003337E0004D8F998F4A8565B7B9CA330662
:1019900025416310090299CB7D1609E6B307F7408C
:1019A000AE8441BF9306F00F631CD500BA87AE84A6
:1019B0002DBF9306F00FE30BD5FEB7060004D58FBD
:1019C000ED4663D4C6008547D1BF93060002918ED1
:1019D00033D8C700B397D700B337F000B367F80028
:1019E00075BF130519001375E50F05ED63140902A2
:1019F00089E74DFF8147814479A0E30807EEB3866C
:101A0000E74013965600B307F740E34206FAFDD2CB
:101A1000B687E1BDE39807EEE30707EEBA87AE8429
:101A200005B53384E7409316540063DC06023304A3
:101A3000F740AE842285412A6D153314A400634615
:101A4000250333052541050513070002B357A400FC
:101A50003305A7403314A40033348000C18F0145FF
:101A600069B569F88147014579B7B70700FCFD17EB
:101A70003305A940E18F95BD4A8585BDBA87C9B3B5
:101A80001305F00F814713975700635B07000505A7
:101A90001307F00F630FE502370700FC7D17F98F7E
:101AA0001307F00F8D836316E50081C7B707400069
:101AB00081441375F50FB2402244A6071317750130
:101AC00013D59700FE04598D458D0249924441017A
:101AD00082808147F1B793577501370680009306DE
:101AE000F6FF93F7F70F9305E007E98E1357F5011B
:101AF000014563FBF50211E71307E0097D556373A8
:101B0000F70082801307500933E5C6006357F700DA
:101B10009387A7F63315F500828013076009B30792
:101B2000F7403355F50082808280411122C406C6F9
:101B30002A84814719CD41289307E009898F13072B
:101B400060096342F70221476355A700611533140A
:101B5000A400260413F5F70F25805E05418DB240E1
:101B600022444101828013079009635DF700130747
:101B7000B50195463317E400898E3337E0003354BE
:101B8000D400598C15476356A7001307B5FF3314CB
:101B9000E400370700FC7D1793767400618F91C6CF
:101BA0003D8891466303D40011079316570063D90B
:101BB0000600B70700FCFD177D8F9307F009898F9A
:101BC0001354370079B7C1676376F5029307F00FB6
:101BD000B3B7A7008E07130700021D8FB357F50098
:101BE000174500001305C5B8AA9703C507003305BC
:101BF000A740828037070001C147E36EE5FCE1475B
:101C0000D9BF011106CE22CC00102326A4FE5D22EE
:101C10002A87930780051CC3FD573E85F240624426
:101C200005618280011106CE22CC00102326A4FE7D
:101C30002324B4FE41222A87930780FA1CC3FD5750
:101C40003E85F240624405618280011122CE00107F
:101C50002326A4FE8327C4FEFD1793B7170093F72E
:101C6000F70F3E85724405618280011106CE22CCB9
:101C700000102326A4FE2324B4FE2322C4FE1D2A22
:101C80002A87930780051CC3FD573E85F2406244B6
:101C900005618280011106CE22CC00102326A4FE0D
:101CA0002324B4FE2322C4FE31222A879307800511
:101CB0001CC3FD573E85F240624405618280797104
:101CC00022D60018232EA4FCB707008083A707752F
:101CD0002326F4FEB70706801387C7ACB707068034
:101CE0009387C72C6314F700FD57A9A0B70700809E
:101CF00003A707758327C4FD3E97B7070680938720
:101D0000C72C6370F702B707008003A70775832706
:101D1000C4FD3E97B707008023A8E7748327C4FE5D
:101D200011A8B7070080370706801307C72C23A820
:101D3000E774FD573E85325445618280797106D63D
:101D400022D40018232EA4FC232CB4FC232AC4FC88
:101D50000327C4FD85476309F700A9282A8793074D
:101D600080051CC3FD572DA8832784FD2324F4FE82
:101D7000232604FE39A8032784FE8327C4FEBA97CE
:101D800083C707003E85B12C8327C4FE8507232621
:101D9000F4FE0327C4FE832744FDE36EF7FC81476E
:101DA0003E85B250225445618280AA858146014613
:101DB0000145F1A897F7BF5F9387479988438280D1
:101DC000411122C406C697070000938747152A844D
:101DD00099C38145992297F7BF5F93876797884397
:101DE0001C5591C382972285EF30700841119747A7
:101DF0000000938767DD22C4174400001304C4DC8D
:101E00001D8C26C206C60984BE8411E4B240224459
:101E10009244410182807D1493172400A6979C432D
:101E20008297E5B74111974700009387A7D922C44D
:101E300017440000130404D91D8C26C24AC006C6EC
:101E4000098481443E896396840297470000938702
:101E500067D717440000130424D71D8C09848144DC
:101E60003E89639F8400B24022449244024941016A
:101E7000828093972400CA979C4385048297E1B798
:101E800093972400CA979C4385048297D9BF97F7FC
:101E9000BF5F9387A78E9C432A8E8DE717D7C55FB8
:101EA0001307077A97F7BF5F23AAE78C17E5BFDF11
:101EB00013054515BA8719C51C4117E5C55F2325CC
:101EC000F580BA87D8437D487D556347E804630EA3
:101ED0000E0203A887086301080493182700C2981C
:101EE00023A0C8000323081005463316E600336319
:101EF000C3002320681023A0D80889466317DE009A
:101F000083264810558E2322C810930617000A070F
:101F1000D4C3BA978CC701458280797152CC56CA16
:101F20005AC85EC606D622D426D24AD04ECE62C445
:101F30002A8B2E8A97FABF5F938A4A84854B03A423
:101F40000A0011C84440832984081389F4FF8A04D5
:101F5000A294635E0900B250225492540259F2498D
:101F6000624AD24A424BB24B224C45618280630E98
:101F70000A00639509007D19F114E1BF9317290048
:101F8000CE9783A70708E39847FF5840DC407D17AA
:101F90006318270323222401F9DF032C44006388FC
:101FA000090083A6091033972B01F98E89EE8297D9
:101FB000584083A70A00E31487F9E30EF4FA41B707
:101FC00023A20400D1BF93162900CE968C4283A68B
:101FD0004910758F01E75A858297D9BF2E85829760
:101FE000C1BF011106CE22CC00102326A4FE032778
:101FF000C4FEA9476314F700354511280325C4FE24
:102000003920AA873E85F240624405618280011131
:1020100006CE22CC00102326A4FE8325C4FEB707DB
:10202000008013858772B128AA873E85F2406244FA
:1020300005618280411106C622C40008F1679385BC
:102040000720B70700801385877231200100B24056
:10205000224441018280011106CE22CC00102326A9
:10206000A4FE2324B4FE8327C4FE9C439C43832503
:1020700084FE0325C4FE82970100F240624405619C
:102080008280011106CE22CC00102326A4FE232438
:10209000B4FE8327C4FE9C43DC43832584FE0325D2
:1020A000C4FE8297AA873E85F24062440561828021
:1020B000011106CE22CC00102326A4FE2324B4FE58
:1020C0008327C4FE9C43DC4B832584FE0325C4FE8A
:1020D0008297AA873E85F2406244056182800111A1
:1020E00022CE00102326A4FE0327C4FE938701817D
:1020F0006315F700B707000211A081473E857244BF
:1021000005618280011122CE00102326A4FE032740
:10211000C4FE938701816314F700894711A08147AA
:102120003E85724405618280011122CE0010232673
:10213000A4FE2324B4FE832784FE91E7B707008022
:102140009387070721A8032784FE85476317F700B5
:10215000B70700809387070711A081473E85724427
:1021600005618280011122CE00102326A4FE2324C3
:10217000B4FE832784FE99E38D4709A8032784FED4
:1021800085476314F7009D4711A081473E8572443F
:10219000056182805D7186C6A2C4CAC2CEC052DE0D
:1021A00056DC5ADA5ED862D666D48008232EA4FAAA
:1021B0008327C4FB3E8525372326A4FC0327C4FCC4
:1021C000B167F117BA979C432324F4FC0327C4FC9E
:1021D000B167E117BA979C432322F4FC0327C4FCA0
:1021E000B167F117BA979C43032784FCE318F7FC07
:1021F000832784FC3E8C814C93190C000149832772
:1022000044FC3E8A814A336B4901B3EB5901DA87BA
:102210005E883E85C285B640264416498649725A74
:10222000E25A525BC25B325CA25C6161828079716E
:1022300006D622D44AD24ED00018232EA4FC232C3A
:10224000B4FC2328C4FC232AD4FC8327C4FD232602
:10225000F4FE8327C4FE3E8559352324A4FE83273C
:1022600084FD8E073E87832784FE3E979167910702
:10227000BA973E87FD571CC3832784FD8E073E8790
:10228000832784FE3E979167BA973E87832704FD94
:102290001CC3832744FD13D907008149832784FD8C
:1022A0008E073E87832784FE3E9791679107BA97F2
:1022B0004A8798C381473E85B250225412598259A9
:1022C00045618280011106CE22CC0010232604FE37
:1022D000F32740F12326F4FE8327C4FE3E85EF302A
:1022E000601E2324A4FE032584FEEF30401BAA8732
:1022F0003E85F240624405618280397106DE22DC4F
:1023000080002326A4FC0325C4FCED3B2324A4FE6B
:102310008327C4FC2322F4FE832744FEDC43A9EF79
:10232000232604FE81A08325C4FE0325C4FCED3BC7
:102330002320A4FE8325C4FE0325C4FC2535232EBB
:10234000A4FC832704FE9C43DC4F8326C4FC014687
:102350008325C4FD032504FE82978327C4FE8507D9
:102360002326F4FE0327C4FE832784FEE34DF7FAF9
:10237000832744FE0547D8C30100F250625421610F
:102380008280397106DE22DC80002326A4FC23240F
:10239000B4FC2322C4FC2320D4FCFD572326F4FEE6
:1023A000EF1040372320A4FE232404FE213F232ED8
:1023B000A4FC0325C4FCB933232CA4FC032704FE8E
:1023C00085476308F700832704FE81C78327C4FE7F
:1023D00049A0232204FE91A0832544FE0325C4FCCA
:1023E0005133232AA4FC832544FE0325C4FC2D3B42
:1023F0002324A4FE0327C4FD832784FE6318F7006B
:10240000032784FC832744FD6300F702232404FE92
:10241000832744FE85072322F4FE032744FE8327F7
:1024200084FDE34BF7FA11A00100832784FE85C3E6
:10243000832784FE9C43DC4F832604FC032644FC54
:10244000832584FC032584FE82972326A4FE83270C
:10245000C4FE3E85F250625421618280797122D699
:102460000018232EA4FC232CB4FC232AC4FC23280C
:10247000D4FCFD572326F4FE8327C4FE3E85325448
:1024800045618280011106CE22CC00102326A4FED5
:10249000EF104028AA873E85F240624405618280A1
:1024A000797106D622D40018232EA4FC232CB4FC68
:1024B000FD572326F4FE39352324A4FE832784FE0A
:1024C00095C3032784FD854763EFE700832784FED8
:1024D0009C43DC43832584FD032584FE82972326C9
:1024E000A4FE11A001008327C4FE3E85B2502254F1
:1024F00045618280397106DE22DC80002326A4FC3F
:102500002324B4FCFD572326F4FE832784FCC9C78B
:10251000232404FE453B2320A4FE0325C4FCDD3612
:10252000232EA4FC232204FE91A0832544FE032530
:10253000C4FC0D39232CA4FC832544FE0325C4FCD4
:10254000E5362324A4FE032704FE832784FE6318B4
:10255000F700032784FC832784FD6300F70223240C
:1025600004FE832744FE85072322F4FE032744FE4E
:102570008327C4FDE34BF7FA11A00100832784FEF3
:1025800081CF832784FE9C43DC53832584FC032571
:1025900084FE82972326A4FE8327C4FE3E85F25044
:1025A000625421618280397106DE22DC800023269C
:1025B000A4FC2324B4FCFD572326F4FE832784FCCB
:1025C000C9C7232404FEFD392320A4FE0325C4FC2F
:1025D000153E232EA4FC232204FE91A0832544FE55
:1025E0000325C4FC4136232CA4FC832544FE03258B
:1025F000C4FC1D3E2324A4FE032704FE832784FE7F
:102600006318F700032784FC832784FD6300F70227
:10261000232404FE832744FE85072322F4FE032798
:1026200044FE8327C4FDE34BF7FA11A00100832782
:1026300084FE81CF832784FE9C439C57832584FCA2
:10264000032584FE82972326A4FE8327C4FE3E85AD
:10265000F250625421618280797106D622D400182A
:10266000232EA4FC232CB4FC232AC4FCFD572326D0
:10267000F4FE8327C4FD2324F4FE0325C4FDEFF0FC
:102680001FA62322A4FE032784FD89476308F704BD
:10269000032784FD894763C8E700032784FD854736
:1026A000630EF700E9A8032784FD8D47630CF70448
:1026B000032784FD91476308F708D1A0832744FDD1
:1026C000C5CB032584FEF934AA872E88032744FD51
:1026D0001CC323220701232604FE59A8832744FD97
:1026E000D1CB832744FD9C432320F4FE832704FEA3
:1026F0008A073E87832744FEBA9723A00700232634
:1027000004FE8DA8832744FDA5CB832744FD9C436D
:102710002320F4FE832704FE8A073E87832744FE96
:10272000BA973E8785471CC30F008004832704FEA9
:102730008A073E87832744FEBA979C432326F4FEEC
:10274000232604FE15A8232604FE832744FD9DC7E7
:10275000832744FD9C432320F4FE832704FE8A073D
:102760003E87832744FEBA979C432326F4FE39A074
:10277000010031A0010021A0010011A00100832768
:10278000C4FE3E85B250225445618280797106D6DE
:1027900022D40018232EA4FC232CB4FCEF203055A7
:1027A000AA872326F4FE9307C4FE3E8689450325A7
:1027B000C4FD5D35AA873E85B250225445618280B2
:1027C000797106D622D40018232EA4FC232CB4FC45
:1027D000EF20F051AA872326F4FE9307C4FE3E861D
:1027E0008D450325C4FD8D3DAA873E85B2502254F8
:1027F00045618280011122CE00102326A4FE03270A
:10280000C4FE938781816314F700814711A0FD57AF
:102810003E85724405618280011122CE001023267C
:10282000A4FE0327C4FE938781816317F700B7478F
:102830000F009387072411A081473E8572440561EC
:102840008280011122CE00102326A4FE0327C4FE9D
:10285000938781816317F700B70700809387070785
:1028600011A081473E85724405618280011122CE0C
:1028700000102326A4FE8327C4FE634AF00003272A
:10288000C4FE0A079387C180BA979C4311A0814771
:102890003E85724405618280011122CE0010F3272B
:1028A00040F12326F4FE8327C4FE3E857244056171
:1028B0008280011122CE0010A147F3A70730232602
:1028C000F4FE0100724405618280011122CE0010E5
:1028D000A147F3B707302326F4FE010072440561D7
:1028E0008280011122CE0010A147F3A74730232692
:1028F000F4FE0100724405618280011122CE0010B5
:10290000A147F3B747302326F4FE01007244056166
:102910008280011122CE001093070008F3A74730F0
:102920002326F4FE0100724405618280011122CE4B
:10293000001093070008F3B747302326F4FE010088
:10294000724405618280011122CE00108567938751
:102950000780F3A747302326F4FE01007244056187
:102960008280011122CE0010856793870780F3B71C
:1029700047302326F4FE010072440561828079719C
:1029800022D60018232EA4FC8327C4FD0547B317C5
:10299000F7002326F4FE8327C4FEF3A74730232441
:1029A000F4FE0100325445618280797122D600180C
:1029B000232EA4FC8327C4FD0547B317F700232665
:1029C000F4FE8327C4FEF3B747302324F4FE01004E
:1029D000325445618280011106CE22CC001023269C
:1029E000A4FE2324B4FE13054006EF20F0310111AC
:1029F00006CE22CC00102326A4FE2324B4FE130509
:102A0000800CEF2070305D7186C696C49AC29EC05D
:102A100022DE2ADC2EDA32D836D63AD43ED242D062
:102A200046CE72CC76CA7AC87EC680081305C0121C
:102A3000EF20902D1D7186CE96CC9ACA9EC8A2C654
:102A4000AAC4AEC2B2C036DE3ADC3EDA42D846D6BE
:102A500072D476D27AD07ECE80103D3D2A870A0786
:102A60009387C180BA979C432326F4FA8327C4FA3C
:102A700085C70325C4FAF1332324A4FA832784FAF3
:102A800083A7070E2322F4FA832784FA83A7870DEE
:102A9000832544FA0D4582970100F640E6425643ED
:102AA000C6433644264596450646F2566257D257E7
:102AB0004258B258225E925E025FF24F2561730067
:102AC0002030797106D622D40018232EA4FC232CA2
:102AD000B4FCD9332A870A079387C180BA979C43ED
:102AE0002326F4FEF32720342324F4FE8327C4FE98
:102AF00095C70325C4FEB1332322A4FE832784FE99
:102B000093F7F73F032744FE9387070E8A07BA9788
:102B10009C478325C4FD0325C4FE82970100B25063
:102B20002254456182801D7186CE96CC9ACA9EC879
:102B3000A2C6AAC4AEC2B2C036DE3ADC3EDA42D881
:102B400046D672D476D27AD07ECE8010B1332A8720
:102B50000A079387C180BA979C432326F4FA8327F8
:102B6000C4FA85C70325C4FAE9392324A4FA8327C4
:102B700084FA83A707142322F4FA832784FA83A70D
:102B80008713832544FA1D4582970100F640E642EB
:102B90005643C6433644264596450646F256625786
:102BA000D2574258B258225E925E025FF24F2561C0
:102BB00073002030797106D622D40018232EA4FC8D
:102BC000232CB4FCD139AA873E854D312326A4FE9F
:102BD0000325C4FEEF1060192320A4FE2322B4FEB7
:102BE000832704FE032844FEA9450146B386B700A7
:102BF00036853335F5003307C800B307E5003E8757
:102C0000B6873A88BE8542860325C4FEEF10401C75
:102C10000100B25022544561828000000000000093
:102C200000000000000000000000000000000000A4
:102C30000000000000000000000000000000000094
:102C40000000000000000000000000000000000084
:102C50000000000000000000000000000000000074
:102C60000000000000000000000000000000000064
:102C70000000000000000000000000000000000054
:102C8000197186DE96DC9ADA9ED8A2D6AAD4AED284
:102C9000B2D0B6CEBACCBECAC2C8C6C6F2C4F6C29C
:102CA000FAC07EDE0001CD3E2A870A079387C180E5
:102CB000BA979C432326F4FAF32720342324F4FA0A
:102CC000F32710342322F4FAF32730342320F4FAC4
:102CD000F3275030232EF4F88327C4FAE9C70325DD
:102CE000C4FAEFF01FB6232CA4F8832784FA93F7D5
:102CF000F73F232AF4F8832784FA63D807080327C9
:102D000044F9AD4763D7E7008327C4F993F7F70386
:102D10009DEF832684F9032744F9BA878607BA977B
:102D20008E07B69783A787092326F4F8832684F9AC
:102D3000032744F9BA878607BA978E07B69783A701
:102D400007098325C4F8032544F98297A9A8832796
:102D5000C4F913F7F70389476317F704F3277030B3
:102D60002328F4F8832784F983A7C70D2326F4F8D2
:102D7000832704F99C432324F4F8832784F88325CC
:102D8000C4F8032544F9829739A8032784F98327D7
:102D900044F99387070E8A07BA979C47832544F91D
:102DA0000325C4FA8297F650E6525653C65336545A
:102DB000265596550656F6466647D6474648B648BF
:102DC000264E964E064FF25F0961730020300000D8
:102DD00000000000000000000000000000000000F3
:102DE00000000000000000000000000000000000E3
:102DF000000000001D7186CE96CC9ACA9EC8A2C65D
:102E0000AAC4AEC2B2C036DE3ADC3EDA42D846D6FA
:102E100072D476D27AD07ECE8010EFF0FFA72A87C8
:102E20000A079387C180BA979C432326F4FA832725
:102E3000C4FA8DC70325C4FAEFF0BFA02324A4FA77
:102E4000832784FA83A787212322F4FA832784FA2D
:102E500083A70721832544FA414582970100F64064
:102E6000E6425643C6433644264596450646F25644
:102E70006257D2574258B258225E925E025FF24FBA
:102E80002561730020301D7186CE96CC9ACA9EC8EB
:102E9000A2C6AAC4AEC2B2C036DE3ADC3EDA42D81E
:102EA00046D672D476D27AD07ECE8010EFF0DF9EF6
:102EB0002A870A079387C180BA979C432326F4FA8E
:102EC0008327C4FA8DC70325C4FAEFF09F97232404
:102ED000A4FA832784FA83A707232322F4FA8327FB
:102EE00084FA83A78722832544FA45458297010007
:102EF000F640E6425643C6433644264596450646C6
:102F0000F2566257D2574258B258225E925E025F22
:102F1000F24F2561730020301D7186CE96CC9ACA7F
:102F20009EC8A2C6AAC4AEC2B2C036DE3ADC3EDA41
:102F300042D846D672D476D27AD07ECE8010EFF0C8
:102F4000BF952A870A079387C180BA979C43232697
:102F5000F4FA8327C4FA8DC70325C4FAEFF07F8EF5
:102F60002324A4FA832784FA83A787242322F4FA4C
:102F7000832784FA83A70724832544FA4945829747
:102F80000100F640E6425643C64336442645964580
:102F90000646F2566257D2574258B258225E925EA7
:102FA000025FF24F2561730020301D7186CE96CCF2
:102FB0009ACA9EC8A2C6AAC4AEC2B2C036DE3ADC65
:102FC0003EDA42D846D672D476D27AD07ECE8010FF
:102FD000EFF09F8C2A870A079387C180BA979C439A
:102FE0002326F4FA8327C4FA8DC70325C4FAEFF029
:102FF0005F852324A4FA832784FA83A70726232244
:10300000F4FA832784FA83A78725832544FA4D455C
:1030100082970100F640E6425643C64336442645B1
:1030200096450646F2566257D2574258B258225E2B
:10303000925E025FF24F2561730020301D7186CED3
:1030400096CC9ACA9EC8A2C6AAC4AEC2B2C036DE88
:103050003ADC3EDA42D846D672D476D27AD07ECEE8
:103060008010EFF07F832A870A079387C180BA9781
:103070009C432326F4FA8327C4FA8DC70325C4FA98
:10308000EFF02FFC2324A4FA832784FA83A7872751
:103090002322F4FA832784FA83A70727832544FA97
:1030A000514582970100F640E6425643C6433644F6
:1030B000264596450646F2566257D2574258B258B0
:1030C000225E925E025FF24F2561730020301D7117
:1030D00086CE96CC9ACA9EC8A2C6AAC4AEC2B2C0B8
:1030E00036DE3ADC3EDA42D846D672D476D27AD090
:1030F0007ECE8010EFF04FFA2A870A079387C180AF
:10310000BA979C432326F4FA8327C4FA8DC7032574
:10311000C4FAEFF00FF32324A4FA832784FA83A7D9
:1031200007292322F4FA832784FA83A78728832593
:1031300044FA554582970100F640E6425643C6439D
:103140003644264596450646F2566257D2574258AF
:10315000B258225E925E025FF24F2561730020300A
:103160001D7186CE96CC9ACA9EC8A2C6AAC4AEC20B
:10317000B2C036DE3ADC3EDA42D846D672D476D2D7
:103180007AD07ECE8010EFF02FF12A870A0793873E
:10319000C180BA979C432326F4FA8327C4FA8DC7CB
:1031A0000325C4FAEFF0EFE92324A4FA832784FA75
:1031B00083A7872A2322F4FA832784FA83A7072A7E
:1031C000832544FA594582970100F640E64256436A
:1031D000C6433644264596450646F2566257D257B0
:1031E0004258B258225E925E025FF24F2561730030
:1031F00020301D7186CE96CC9ACA9EC8A2C6AAC49B
:10320000AEC2B2C036DE3ADC3EDA42D846D672D41E
:1032100076D27AD07ECE8010EFF00FE82A870A07A8
:103220009387C180BA979C432326F4FA8327C4FA74
:103230008DC70325C4FAEFF0CFE02324A4FA832737
:1032400084FA83A7072C2322F4FA832784FA83A71E
:10325000872B832544FA5D4582970100F640E642BC
:103260005643C6433644264596450646F2566257AF
:10327000D2574258B258225E925E025FF24F2561E9
:10328000730020301D7186CE96CC9ACA9EC8A2C605
:10329000AAC4AEC2B2C036DE3ADC3EDA42D846D666
:1032A00072D476D27AD07ECE8010EFF0EFDE2A870D
:1032B0000A079387C180BA979C432326F4FA832791
:1032C000C4FA8DC70325C4FAEFF0AFD72324A4FABC
:1032D000832784FA83A7872D2322F4FA832784FA8D
:1032E00083A7072D832544FA614582970100F640A4
:1032F000E6425643C6433644264596450646F256B0
:103300006257D2574258B258225E925E025FF24F25
:103310002561730020301D7186CE96CC9ACA9EC856
:10332000A2C6AAC4AEC2B2C036DE3ADC3EDA42D889
:1033300046D672D476D27AD07ECE8010EFF0CFD53A
:103340002A870A079387C180BA979C432326F4FAF9
:103350008327C4FA8DC70325C4FAEFF08FCE232448
:10336000A4FA832784FA83A7072F2322F4FA83275A
:1033700084FA83A7872E832544FA65458297010046
:10338000F640E6425643C643364426459645064631
:10339000F2566257D2574258B258225E925E025F8E
:1033A000F24F2561730020301D7186CE96CC9ACAEB
:1033B0009EC8A2C6AAC4AEC2B2C036DE3ADC3EDAAD
:1033C00042D846D672D476D27AD07ECE8010EFF034
:1033D000AFCC2A870A079387C180BA979C432326DC
:1033E000F4FA8327C4FA8DC70325C4FAEFF06FC53A
:1033F0002324A4FA832784FA83A787302322F4FAAC
:10340000832784FA83A70730832544FA6945829786
:103410000100F640E6425643C643364426459645EB
:103420000646F2566257D2574258B258225E925E12
:10343000025FF24F2561730020301D7186CE96CC5D
:103440009ACA9EC8A2C6AAC4AEC2B2C036DE3ADCD0
:103450003EDA42D846D672D476D27AD07ECE80106A
:10346000EFF08FC32A870A079387C180BA979C43DE
:103470002326F4FA8327C4FA8DC70325C4FAEFF094
:103480004FBC2324A4FA832784FA83A7073223227C
:10349000F4FA832784FA83A78731832544FA6D459C
:1034A00082970100F640E6425643C643364426451D
:1034B00096450646F2566257D2574258B258225E97
:1034C000925E025FF24F2561730020301D7186CE3F
:1034D00096CC9ACA9EC8A2C6AAC4AEC2B2C036DEF4
:1034E0003ADC3EDA42D846D672D476D27AD07ECE54
:1034F0008010EFF06FBA2A870A079387C180BA97C6
:103500009C432326F4FA8327C4FA8DC70325C4FA03
:10351000EFF02FB32324A4FA832784FA83A78733F9
:103520002322F4FA832784FA83A70733832544FAF6
:10353000714582970100F640E6425643C643364441
:10354000264596450646F2566257D2574258B2581B
:10355000225E925E025FF24F2561730020301D7182
:1035600086CE96CC9ACA9EC8A2C6AAC4AEC2B2C023
:1035700036DE3ADC3EDA42D846D672D476D27AD0FB
:103580007ECE8010EFF04FB12A870A079387C18063
:10359000BA979C432326F4FA8327C4FA8DC70325E0
:1035A000C4FAEFF00FAA2324A4FA832784FA83A78E
:1035B00007352322F4FA832784FA83A787348325E7
:1035C00044FA754582970100F640E6425643C643E9
:1035D0003644264596450646F2566257D25742581B
:1035E000B258225E925E025FF24F25617300203076
:1035F0001D7186CE96CC9ACA9EC8A2C6AAC4AEC277
:10360000B2C036DE3ADC3EDA42D846D672D476D242
:103610007AD07ECE8010EFF02FA82A870A079387F2
:10362000C180BA979C432326F4FA8327C4FA8DC736
:103630000325C4FAEFF0EFA02324A4FA832784FA29
:1036400083A787362322F4FA832784FA83A70736D1
:10365000832544FA794582970100F640E6425643B5
:10366000C6433644264596450646F2566257D2571B
:103670004258B258225E925E025FF24F256173009B
:1036800020301D7186CE96CC9ACA9EC8A2C6AAC406
:10369000AEC2B2C036DE3ADC3EDA42D846D672D48A
:1036A00076D27AD07ECE8010EFF00F9F2A870A075D
:1036B0009387C180BA979C432326F4FA8327C4FAE0
:1036C0008DC70325C4FAEFF0CF972324A4FA8327EC
:1036D00084FA83A707382322F4FA832784FA83A77E
:1036E0008737832544FA7D4582970100F640E642FC
:1036F0005643C6433644264596450646F25662571B
:10370000D2574258B258225E925E025FF24F256154
:1037100073002030011122CE0010F32750302326F1
:10372000F4FE8327C4FE93F7F7032326F4FE032752
:10373000C4FE8947630DF7000327C4FE8D47630A63
:10374000F7000327C4FE85476307F70039A08D47BC
:1037500031A0914721A0854711A081473E85724441
:1037600005618280797122D60018232EA4FC232CB7
:10377000B4FCF32750302326F4FE8327C4FE93F7CE
:1037800007FC2326F4FE832784FD2324F4FE03276D
:10379000C4FD914763E0E7068327C4FD1397270024
:1037A000B76740209387C78CBA979C43828783274B
:1037B00084FE739077308327C4FE93E727007390CD
:1037C00057300DA8832784FE739077308327C4FE7B
:1037D00093E737007390573031A8832784FE93E72F
:1037E00017007390573039A0832784FEF19B7390A4
:1037F000573001000100325445618280011122CE10
:1038000000102326A4FE8327C4FEF5177147636DBD
:10381000F70013972700B76740209387078EBA9762
:103820009C438287854719A0010081473E857244E9
:1038300005618280797106D622D40018232EA4FC5B
:10384000232CB4FC232AC4FC232604FE8327C4FDB6
:1038500099E3FD5749A8032784FDFD4763E0E70886
:10386000832784FD13972700B767402093874795E8
:10387000BA979C438287832744FD81C7EFF06F830B
:103880008DA0EFF08F84B1A8832744FD81C7EFF0AE
:103890004F8581A8EFF06F86A9A0832744FD81C7DB
:1038A000EFF02F873DA8EFF06F8825A8832744FD10
:1038B00081C7EFF04F8935A0EFF0AF8A1DA08327B5
:1038C00044FD99C7832784FD3E85EFF04F8B11A8F7
:1038D000832784FD3E85EFF04F8D21A0FD572326E1
:1038E000F4FE8327C4FE3E85B25022544561828097
:1038F000797122D60018232EA4FC232CB4FC232A91
:10390000C4FC8327C4FD2326F4FE032784FDAD47B2
:1039100063C2E702832744FD91CF0327C4FE8327B8
:1039200084FD9387070E8A07BA97032744FD98C73B
:10393000814711A0FD573E8532544561828039711F
:1039400006DE22DC80002326A4FC8327C4FC23227D
:10395000F4FE832744FEDC43639D0710FD5773B0DC
:103960004730FD5773B04734F32710302320F4FE5F
:10397000032704FE8967F98F99E7032704FEB70739
:103980000400F98F99C7FD5773B03730FD5773B0F6
:103990002730032704FEB7070400F98F81C7FD57BE
:1039A00073B00718232604FEB9A0832644FE03271C
:1039B000C4FEBA878607BA978E07B69723A807086A
:1039C000832644FE0327C4FEBA878607BA978E076C
:1039D000B69723AA0708832644FE0327C4FEBA87A6
:1039E0008607BA978E07B69723AC07088327C4FECD
:1039F00085072326F4FE0327C4FEFD47E3D7E7FA35
:103A0000232404FE1DA0032744FE832784FE9387FE
:103A1000070E8A07BA97373740201307679D98C764
:103A2000832784FE85072324F4FE032784FEAD4705
:103A3000E3DBE7FCB7374020938507C801451D331A
:103A4000F3271030232EF4FC0327C4FDC1679387AE
:103A50008702F98F99CBF3270030232EF4FC03273C
:103A6000C4FD8967D98F73900730832744FE0547CB
:103A7000D8C30100F250625421618280797106D668
:103A800022D40018232EA4FC232CB4FC232AC4FC2B
:103A90002328D4FC232604FE8327C4FD2324F4FE1C
:103AA000032584FDA13BAA8799E3D55711AA832753
:103AB00044FD85CF832684FE032784FDBA878607CD
:103AC000BA978E07B697032744FD23A8E7088326F5
:103AD00084FE032784FDBA878607BA978E07B697B8
:103AE000032704FD23ACE708D1A8832784FDF5173D
:103AF00071476362F70C13972700B76740209387DD
:103B0000479DBA979C438287832684FE032784FDC2
:103B1000BA878607BA978E07B697373740201307BC
:103B200027AC23A8E708832684FE032784FDBA87F1
:103B30008607BA978E07B697032704FD23AAE708DE
:103B4000B5A8832684FE032784FDBA878607BA9723
:103B50008E07B69737374020130747BB23A8E708DF
:103B6000832684FE032784FDBA878607BA978E07CB
:103B7000B697032704FD23AAE70889A0832684FEBD
:103B8000032784FDBA878607BA978E07B69737371B
:103B900040201307E79E23A8E708832684FE032717
:103BA00084FDBA878607BA978E07B697032704FD68
:103BB00023AAE70821A0D1572326F4FE8327C4FEB9
:103BC0003E85B250225445618280011106CE22CC3E
:103BD00000102326A4FE2324B4FE832784FE05467A
:103BE000BE850325C4FEB931AA873E85F2406244F2
:103BF00005618280011106CE22CC00102326A4FE8E
:103C00002324B4FE832784FE0146BE850325C4FE1B
:103C10001531AA873E85F240624405618280011118
:103C200006CE22CC00102326A4FEEFF0BFAEAA875A
:103C30003E85F240624405618280797106D622D4C5
:103C40000018232EA4FC232CB4FC8327C4FD2326B8
:103C5000F4FE832784FD99EBB7374020938507C88E
:103C6000032584FDEFF01FB081470DA0032784FDDD
:103C70008547631CF700B7574020938507580325F5
:103C800084FDEFF03FAE814711A0FD573E85B25055
:103C9000225445618280011122CE00102326A4FE09
:103CA0002324B4FE2322C4FE81473E85724405616D
:103CB0008280397122DE80002326A4FC01438143E7
:103CC000232464FE232674FE732500B82322A4FE59
:103CD000732500B02320A4FE732500B8232EA4FC76
:103CE000832844FE0325C4FD6395A802032544FEF2
:103CF000AA850146139805008147032604FEB28673
:103D0000014733E6D7002324C4FEB367E800232627
:103D1000F4FE832784FE0328C4FE3E85C2857254C8
:103D200021618280797106D622D44AD24ED0001801
:103D3000232EA4FC8327C4FD81E70149814921A8E2
:103D40000325C4FDEFE05FAD2326A4FE8327C4FE58
:103D50003E89FD87BE89CA874E883E85C285B2509E
:103D600022541259825945618280797106D622D433
:103D70000018232EA4FC814701482320F4FE2322AF
:103D800004FF0325C4FDEFE0DFAB2326A4FE832759
:103D9000C4FE8DC78327C4FE83A7C7132324F4FE64
:103DA000832784FE81CF832784FE9C43F8439307B7
:103DB00004FE3E868545032584FE0297832704FE84
:103DC000032844FE3E85C285B2502254456182805C
:103DD000797106D622D426D20018232EA4FC2328DB
:103DE000B4FC232AC4FCFD572326F4FE0325C4FD9E
:103DF000EFE03FA52324A4FE832784FE8DCF8327F5
:103E000084FE83A7C7132322F4FE832744FE85C7BD
:103E1000832744FE9C43A4470325C4FDEFE09F9DF8
:103E2000AA87032604FD832644FDBE85032544FEA0
:103E300082942326A4FE8327C4FE3E85B2502254DA
:103E4000925445618280011122CE00102326A4FEE7
:103E5000938701813E85724405618280011122CEE3
:103E600000102326A4FE9D473E8572440561828092
:103E7000011122CE00102326A4FE938701813E85E6
:103E8000724405618280011122CE00102326A4FE17
:103E90008D473E85724405618280797106D622D4B1
:103EA0000018232EA4FC232CB4FCFD572326F4FE7B
:103EB0000325C4FDEFE0FF982324A4FE832784FE9E
:103EC0009DC7832784FE83A7C70D2322F4FE832783
:103ED00044FE91CF832744FE9C43F843930784FD1F
:103EE0003E868D45032544FE02972326A4FE8327A4
:103EF000C4FE3E85B250225445618280797106D657
:103F000022D40018232EA4FC232CB4FCFD57232616
:103F1000F4FE0325C4FDEFE0DF922324A4FE8327F3
:103F200084FE9DC7832784FE83A7C70D2322F4FE4A
:103F3000832744FE91CF832744FE9C43F843930795
:103F400084FD3E868945032544FE02972326A4FE70
:103F50008327C4FE3E85B250225445618280797128
:103F600006D622D40018232EA4FC232CB4FC23262E
:103F700004FE0325C4FDEFE0DF8C2324A4FE832789
:103F800084FE9DC7832784FE83A7C70D2322F4FEEA
:103F9000832744FE91CF832744FE9C43F843930735
:103FA00084FD3E869145032544FE02972326A4FE08
:103FB0008327C4FE3E85B2502254456182800111A0
:103FC00006CE22CC00102326A4FE0325C4FEEFE07B
:103FD0005F87AA873E85F2406244056182807971DD
:103FE00006D622D40018232EA4FC232CB4FC232AAA
:103FF000C4FC0325C4FDEFE0DF842326A4FE832751
:10400000C4FE99CB032644FD832584FD0325C4FE0D
:10401000EFF01F8EAA8711A0FD573E85B2502254A3
:1040200045618280011122CE00102326A4FE2324A4
:10403000B4FE832784FE83D7070013F737008D472C
:104040006314F700914711A089473E8572440561CA
:104050008280797122D60018232EA4FCF327103415
:104060002326F4FE8327C4FE3E85325445618280B8
:10407000011122CE00102326A4FE2324B4FE8327A0
:1040800084FE7390173481473E85724405618280B7
:10409000011122CE00102326A4FE0327C4FEB70779
:1040A0000080938787426315F700B707000C11A0C3
:1040B00081473E85724405618280011122CE001045
:1040C0002326A4FE0327C4FEB707008093878742F8
:1040D0006314F700ED4711A081473E8572440561E6
:1040E0008280011122CE00102326A4FE0327C4FEE5
:1040F000B7070080938787426314F7009D4711A09C
:1041000081473E85724405618280011122CE0010F4
:104110002326A4FE2324B4FE832784FE91E7B70759
:1041200000809387070711A081473E85724405618F
:104130008280011122CE00102326A4FE2324B4FE87
:10414000832784FE99E3AD4711A081473E857244E1
:1041500005618280797106D622D40018232EA4FC32
:104160000325C4FD35372326A4FE0327C4FEB70765
:1041700020009107BA979C433E85B2502254456176
:104180008280797106D622D40018232EA4FC232C19
:10419000B4FC0325C4FDED3D2326A4FE0327C4FE85
:1041A000B70720009107BA973E87832784FD1CC379
:1041B0000100B250225445618280797106D622D422
:1041C0000018232EA4FC232CB4FC0325C4FDC93500
:1041D0002326A4FE0327C4FEB7072000BA973E8714
:1041E000832784FD1CC381473E85B250225445611C
:1041F0008280797106D622D40018232EA4FC0325D0
:10420000C4FD79352326A4FE0327C4FEB70720008A
:10421000BA979C433E85B2502254456182807971A1
:1042200006D622D40018232EA4FC232CB4FC232A67
:10423000C4FC0325C4FDA93D2326A4FE0325C4FD1B
:104240004D35AA872324F4FE832784FE85C70327E0
:1042500044FD832784FE637FF700832784FD8A075C
:104260003E878327C4FEBA973E87832744FD1CC33D
:10427000814711A0FD573E85B2502254456182808E
:10428000797106D622D40018232EA4FC232CB4FC6A
:104290000325C4FDF53B2326A4FE832784FD8A075E
:1042A0003E878327C4FEBA979C433E85B250225472
:1042B00045618280797106D622D40018232EA4FC91
:1042C000232CB4FC232AC4FC0325C4FDD1332326AC
:1042D000A4FE832784FD95878A073E878327C4FE33
:1042E0003E978967BA979C432324F4FE832744FDB5
:1042F00081CF832784FDFD8B0547B317F7003E87E9
:10430000832784FED98F29A8832784FDFD8B054749
:10431000B317F70093C7F7FF3E87832784FEF98F13
:10432000032784FD15870A07BA860327C4FEBA96B9
:10433000096736971CC30100B25022544561828040
:10434000011106CE22CC00102326A4FE2324B4FEA5
:104350001305C012EF10401B797106D622D4001845
:10436000232EA4FC232CB4FC832784FD2326F4FEF7
:104370000325C4FEC5332324A4FE0325C4FE353B18
:10438000AA872322F4FE032784FE832744FE637258
:10439000F7040327C4FE832784FE8A07BA979C4745
:1043A0008DCB0327C4FE832784FE8A07BA9703A810
:1043B0008700032684FE8326C4FE032784FEBA8773
:1043C0008607BA978E07B69783A78708BE8532857A
:1043D0000298832584FE0325C4FE65330100B25094
:1043E000225445618280397106DE22DC800023265A
:1043F000A4FC8327C4FC2322F4FE832744FEDC4371
:10440000639C0710232604FE01A20325C4FC75311A
:104410002320A4FE8325C4FE0325C4FCFD31232EE6
:10442000A4FC8325C4FE0325C4FC2133232CA4FC57
:104430008327C4FD9C439C430325C4FD829723240A
:1044400004FE85A00146832584FE032544FE9D3598
:104450000146832584FE0325C4FCD133032744FE93
:10446000832784FE8A07BA9723A40700832644FE85
:10447000032784FEBA878607BA978E07B69723A2CA
:104480000708832644FE032784FEBA878607BA9767
:104490008E07B69723A40708832784FE8507232465
:1044A000F4FE032784FE832704FEE34DF7F88145DD
:1044B0000325C4FC19338327C4FD9C43DC4F8326AA
:1044C00044FE0146832584FD0325C4FD829783278E
:1044D000C4FD9C43D84F832644FEB7474020138633
:1044E0008735832584FD0325C4FD02978327C4FDFA
:1044F0009C43DC53832584FD0325C4FD82978327D9
:10450000C4FE85072326F4FE8327C4FEE35FF0EE96
:10451000832744FE0547D8C30100F250625421614D
:104520008280797106D622D40018232EA4FC232C75
:10453000B4FC232AC4FC2328D4FC8327C4FD2326EF
:10454000F4FE0325C4FDEFF05FB72A87832784FDBF
:1045500063C4E700FD5749A0832744FD95CF094672
:10456000832584FD0325C4FD5D390327C4FE83270D
:1045700084FD8A07BA97032744FD98C78326C4FEA3
:10458000032784FDBA878607BA978E07B697032755
:1045900004FD23A4E70881A00546832584FD0325A7
:1045A000C4FDEFF0DFC70327C4FE832784FD8A071D
:1045B000BA97374740201307073498C78326C4FEAD
:1045C000032784FDBA878607BA978E07B697032715
:1045D00004FD23A2E70881473E85B250225445617D
:1045E0008280797106D622D40018232EA4FC232CB5
:1045F000B4FC8327C4FD2326F4FE0325C4FDEFF09D
:10460000DFAB2A87832784FD63C4E700FD5709A831
:104610000546832584FD0325C4FEEFF0BFC981470D
:104620003E85B250225445618280797106D622D4EB
:104630000018232EA4FC232CB4FC8327C4FD2326BE
:10464000F4FE0325C4FDEFF05FA72A87832784FDCE
:1046500063C4E700FD5709A80146832584FD0325AF
:10466000C4FEEFF03FC581473E85B25022544561FC
:104670008280011122CE00102326A4FE0327C4FE4F
:104680009387C1816315F700B727011011A08147F7
:104690003E85724405618280011122CE00102326DE
:1046A000A4FE0327C4FE9387C1816317F700B707F1
:1046B00000809387874211A081473E85724405613F
:1046C0008280011122CE00102326A4FE2324B4FEF2
:1046D0000327C4FE9387C1816317F700832784FEF5
:1046E00099E39D4769A20327C4FE9387C18163199B
:1046F000F700032784FE85476314F700A14785AAC6
:104700000327C4FE9387C1816319F700032784FE42
:1047100089476314F700A54799AA0327C4FE938726
:10472000C1816319F700032784FE8D476314F700E6
:10473000A94735AA0327C4FE9387C1816319F700EF
:10474000032784FE91476314F700AD470DA20327AA
:10475000C4FE9387C1816319F700032784FE954740
:104760006314F700B14721A20327C4FE9387C181D8
:104770006319F700032784FE99476314F700B547D0
:10478000FDA00327C4FE9387C1816319F7000327A7
:1047900084FE9D476314F700B947D1A80327C4FEE0
:1047A0009387C1816319F700032784FEA14763142F
:1047B000F700BD476DA80327C4FE9387C181631925
:1047C000F700032784FEA5476314F700C14745A0FF
:1047D0000327C4FE9387C1816319F700032784FE72
:1047E000A9476314F700C54759A00327C4FE938760
:1047F000C1816319F700032784FEAD476314F700F6
:10480000C947B5A00327C4FE9387C1816319F70088
:10481000032784FEB1476314F700CD4789A8032717
:10482000C4FE9387C1816319F700032784FEB5474F
:104830006314F700D14725A80327C4FE9387C181DD
:104840006319F700032784FEB9476314F700D547BF
:1048500039A80327C4FE9387C1816319F700032792
:1048600084FEBD476314F700D94711A081473E85F8
:10487000724405618280797106D622D40018232EF5
:10488000A4FC232CB4FC0325C4FDE533AA8723260E
:10489000F4FE8327C4FE91079843832784FD832673
:1048A000C4FE9106D98F9CC281473E85B2502254E6
:1048B00045618280797106D622D40018232EA4FC8B
:1048C000232CB4FC0325C4FD6D33AA872326F4FEF4
:1048D0008327C4FE91079C43032784FD1347F7FFFA
:1048E000BA860327C4FE1107F58F1CC381473E8596
:1048F000B250225445618280797106D622D40018C4
:10490000232EA4FC0325C4FDAD33AA872326F4FE81
:104910008327C4FE9C433E85B25022544561828069
:10492000797106D622D40018232EA4FC0325C4FDD9
:104930008933AA872326F4FE8327C4FEB1079C434C
:104940003E85B250225445618280797106D622D4C8
:104950000018232EA4FC232CB4FC0325C4FDEFF087
:104960005FD1AA872326F4FE8327C4FEA1079C43B8
:10497000032784FD1347F7FFBA860327C4FE2107E8
:10498000F58F1CC381473E85B25022544561828019
:10499000797106D622D40018232EA4FC232CB4FC53
:1049A0000325C4FDEFF0FFCCAA872326F4FE83275E
:1049B000C4FEA1079843832784FD8326C4FEA10675
:1049C000D98F9CC281473E85B25022544561828076
:1049D000797106D622D40018232EA4FC232CB4FC13
:1049E0000325C4FDEFF0FFC8AA872326F4FE832722
:1049F000C4FEB1079843832784FD8326C4FEB10615
:104A0000D98F9CC281473E85B25022544561828035
:104A1000797106D622D40018232EA4FC232CB4FCD2
:104A20000325C4FDEFF0FFC4AA872326F4FE8327E5
:104A3000C4FEB1079C43032784FD1347F7FFBA86E2
:104A40000327C4FE3107F58F1CC381473E85B25052
:104A5000225445618280797106D622D40018232E13
:104A6000A4FC232CB4FC0325C4FDEFF09FC0AA874F
:104A70002326F4FE8327C4FEB1079843832784FDD1
:104A80008326C4FEB106B98F9CC281473E85B250D1
:104A9000225445618280797106D622D40018232ED3
:104AA000A4FC232CB4FC232AC4FC0325C4FDEFF092
:104AB0005FBCAA872326F4FE8327C4FE9387C7031F
:104AC0009C43032784FD1347F7FFBA860327C4FEE0
:104AD0001307C703F58F1CC38327C4FE938787037F
:104AE0009843832744FD8326C4FE93868603D98F8B
:104AF0009CC281473E85B2502254456182807971C3
:104B000006D622D40018232EA4FC232CB4FC0325A3
:104B1000C4FDEFF01FB6AA872326F4FE8327C4FE48
:104B2000938787039C43032784FD1347F7FFBA86C7
:104B30000327C4FE13078703F58F1CC381473E85F7
:104B4000B250225445618280797106D622D4001871
:104B5000232EA4FC232CB4FC232AC4FC0325C4FD6F
:104B6000EFF03FB1AA872326F4FE032744FD9D47BB
:104B700063E9E71C832744FD13972700B7674020AC
:104B8000938707B2BA979C4382878327C4FEE107C5
:104B90009C43032784FD1347F7FFBA860327C4FE0F
:104BA0006107F58F1CC38327C4FE938707029C43CC
:104BB000032784FD1347F7FFBA860327C4FE1307B4
:104BC0000702F58F1CC38327C4FE938787029C438B
:104BD000032784FD1347F7FFBA860327C4FE130794
:104BE0008702F58F1CC38327C4FE938707039C436A
:104BF000032784FD1347F7FFBA860327C4FE130774
:104C00000703F58F1CC335AA8327C4FEE107984329
:104C1000832784FD8326C4FEE106D98F9CC215A29A
:104C20008327C4FE938707029843832784FD832646
:104C3000C4FE93860602D98F9CC221A28327C4FE9C
:104C4000E1079843832784FD8326C4FEE106D98FBC
:104C50009CC28327C4FE938707029843832784FD61
:104C60008326C4FE93860602D98F9CC2D9A88327C7
:104C7000C4FE938787029843832784FD8326C4FE5E
:104C800093868602D98F9CC26DA88327C4FE938722
:104C900007039843832784FD8326C4FE9386060377
:104CA000D98F9CC279A88327C4FE93878702984333
:104CB000832784FD8326C4FE93868602D98F9CC2F7
:104CC0008327C4FE938707039843832784FD8326A5
:104CD000C4FE93860603D98F9CC2A5A08327C4FE79
:104CE000E1079843832784FD8326C4FEE106D98F1C
:104CF0009CC28327C4FE938707029843832784FDC1
:104D00008326C4FE93860602D98F9CC28327C4FEE5
:104D1000938787029843832784FD8326C4FE938666
:104D20008602D98F9CC28327C4FE938707039843CA
:104D3000832784FD8326C4FE93860603D98F9CC2F5
:104D4000010081473E85B2502254456182807971CD
:104D500006D622D40018232EA4FC232CB4FC232A2C
:104D6000C4FC0325C4FDEFF0DF90AA872326F4FEE0
:104D7000032744FD9D4763EAE714832744FD139707
:104D80002700B7674020938707B4BA979C43828770
:104D90008327C4FEF1079843832784FD8326C4FE3E
:104DA000F106D98F9CC215A28327C4FE93874702C0
:104DB0009843832784FD8326C4FE93864602D98FB9
:104DC0009CC221A28327C4FEF1079843832784FD58
:104DD0008326C4FEF106D98F9CC28327C4FE938725
:104DE00047029843832784FD8326C4FE93864602A8
:104DF000D98F9CC2D9A88327C4FE9387C702984342
:104E0000832784FD8326C4FE9386C602D98F9CC265
:104E10006DA88327C4FE938747039843832784FDA7
:104E20008326C4FE93864603D98F9CC279A8832724
:104E3000C4FE9387C7029843832784FD8326C4FE5C
:104E40009386C602D98F9CC28327C4FE93874703EB
:104E50009843832784FD8326C4FE93864603D98F17
:104E60009CC2A5A08327C4FEF1079843832784FD35
:104E70008326C4FEF106D98F9CC28327C4FE938784
:104E800047029843832784FD8326C4FE9386460207
:104E9000D98F9CC28327C4FE9387C7029843832778
:104EA00084FD8326C4FE9386C602D98F9CC28327C5
:104EB000C4FE938747039843832784FD8326C4FE5B
:104EC00093864603D98F9CC2010081473E85B2502C
:104ED000225445618280011106CE22CC0010232687
:104EE000A4FE0325C4FEEFF02FFBAA873E85F24007
:104EF000624405618280797106D622D40018232E7F
:104F0000A4FC232CB4FC832584FD0325C4FDEFF011
:104F10004FFB2326A4FE8327C4FE3E85B2502254B5
:104F200045618280011122CE00102326A4FE0327B2
:104F3000C4FEB7070080938787726315F700B73701
:104F4000011011A081473E857244056182800111E4
:104F500022CE00102326A4FE0327C4FEB70700803C
:104F6000938787726317F700B7070080938787429C
:104F700011A081473E85724405618280011122CED5
:104F800000102326A4FE0327C4FEB70700809387E2
:104F900087726314F700954711A081473E857244DC
:104FA00005618280011122CE00102326A4FE032772
:104FB000C4FEB7070080938787726317F700B707AF
:104FC00000809387070611A081473E8572440561E2
:104FD0008280011122CE00102326A4FE0327C4FEE6
:104FE000B7070080938787726315F7009387C181A5
:104FF00011A081473E85724405618280011122CE55
:1050000000102326A4FE0327C4FEB7070080938761
:1050100087726315F700B707030011A081473E852B
:10502000724405618280011122CE00102326A4FE65
:105030000327C4FEB7070080938787726315F700C4
:10504000B707030011A081473E8572440561828045
:10505000011106CE22CC00102326A4FE0325C4FE97
:10506000FD35AA873E85F2406244056182800111C8
:1050700006CE22CC00102326A4FE0325C4FEFD3D4F
:10508000AA87938707023E85F240624405618280C9
:10509000797106D622D40018232EA4FC0325C4FD62
:1050A0005135AA872326F4FE8327C4FE9C4393C769
:1050B000F7FFFD8393F7F70F3E85B2502254456109
:1050C0008280797106D622D40018232EA4FC232CCA
:1050D000B4FC0325C4FDB935AA872326F4FE0100DC
:1050E0000325C4FD7537AA87E5DF8327C4FE0327A0
:1050F00084FD98C381473E85B25022544561828029
:10510000797106D622D40018232EA4FC232CB4FCDB
:105110000325C4FD013DAA872326F4FE8327C4FE90
:1051200091079C432324F4FE832784FE63D7070062
:10513000832784FD7D5798C301A8832784FE13F736
:10514000F70F832784FD98C381473E85B2502254D0
:1051500045618280797122D60018232EA4FC832712
:10516000C4FD2326F4FE8327C4FEDC433E8532546F
:1051700045618280797106D622D40018232EA4FCC2
:10518000232CB4FC8327C4FD2326F4FE0325C4FD91
:10519000513BAA872324F4FE0325C4FD2135232295
:1051A000A4FE032784FD8327C4FED8C3832744FEBF
:1051B000B1CB832744FE9C439C43032544FE829746
:1051C0002320A4FE032704FE832784FDB347F702B0
:1051D0001387F7FF832784FEE10798C3832784FEA4
:1051E000A1079C43032784FE210793E717001CC3F4
:1051F000832784FEB1079C43032784FE310793E78E
:1052000017001CC381473E85B250225445618280FD
:10521000397106DE22DC80002326A4FC8327C4FC2F
:105220002326F4FE0325C4FCEFF0DFCFAA87232456
:10523000F4FE0325C4FCEFF0FFD62322A4FE83274F
:1052400084FEA1079843832784FEA107BE86B70783
:10525000F9FFFD17F98F9CC2832784FEA1079843AD
:10526000832784FEA107BE86C167D98F9CC2010037
:10527000832784FED1079C43858BFDDB832784FE37
:10528000A1079C43898B99C3A54711A0A947232057
:10529000F4FE832744FE9C439C43032544FE8297EF
:1052A000232EA4FC032704FE8327C4FDB307F702C3
:1052B0003E878327C4FEDC43B357F702232CF4FC5C
:1052C000232A04FC39A00100832744FD8507232AF3
:1052D000F4FC832744FD032784FDE3C6E7FE0100B9
:1052E000F250625421618280797106D622D400186E
:1052F000232EA4FC8327C4FD2326F4FE0327C4FE2B
:105300008327C4FEDC43BE853A85EFC07FDA010007
:10531000B250225445618280397106DE22DC800061
:105320002326A4FC2324B4FC8327C4FC2326F4FEF8
:105330000325C4FCEFF01FC72324A4FE0325C4FCEF
:10534000EFF03FC92322A4FE832784FEB9C7832739
:10535000C4FE375740201307072198C78327C4FE90
:105360000327C4FCD8C78327C4FEA107BE85032535
:1053700084FEF1208327C4FE375740201307872E71
:10538000D8CB8327C4FE0327C4FC98CF8327C4FE51
:10539000D107BE85032584FED9288327C4FE832533
:1053A00084FC3E85EFC0DFD0832744FE95CB0325E8
:1053B000C4FCEFF0BFC4AA872320F4FE0325C4FC7D
:1053C000EFF07FC6AA87232EF4FC832744FE9C437C
:1053D000DC530326C4FD832504FE032544FE829787
:1053E0000100F250625421618280797122D6001846
:1053F000232EA4FC232CB4FC832784FD23A40700C4
:105400008327C4FD81E7832784FD35A08327C4FD5E
:105410002326F4FE31A08327C4FE9C472326F4FEF6
:105420008327C4FE9C47E5FB8327C4FE032784FD36
:1054300098C78327C4FD3E8532544561828001119F
:1054400006CE22CC00102326A4FE2324B4FE8327FC
:10545000C4FEDC43832584FE3E85413F2A878327A3
:10546000C4FED8C30100F24062440561828001118C
:1054700006CE22CC00102326A4FE2324B4FE8327CC
:10548000C4FE9C47832584FE3E8585372A87832773
:10549000C4FE98C70100F240624405618280011198
:1054A00006CE22CC00102326A4FE8327C4FE9C43F4
:1054B000DC570325C4FE8297AA873E85F2406244EA
:1054C00005618280011122CE00102326A4FE8327CD
:1054D000C4FE89EB0327C4FE0A079387C180BA97ED
:1054E0009C4311A081473E85724405618280011171
:1054F00022CE0010F32740F12326F4FE8327C4FEBA
:105500003E85724405618280011122CE001023265F
:10551000A4FE0100FDBF000000000000000000002C
:10552000000000000000000000000000000000007B
:10553000000000000000000000000000000000006B
:10554000000000000000000000000000000000005B
:10555000000000000000000000000000000000004B
:10556000000000000000000000000000000000003B
:10557000000000000000000000000000000000002B
:105580006FD06FC86FD02FC86FD0EFC76FD08FCAE2
:105590006FD06FC76FD02FC76FD0EFC66FD0AFD8A7
:1055A0006FD06FC66FD02FC66FD0EFC56FD0AFC5AD
:1055B0006FD06FC56FD02FC56FD0EFC46FD0AFC4A1
:1055C0006FD05F836FD03F8C6FD01F956FD0FF9DE2
:1055D0006FD0DFA66FD0BFAF6FD09FB86FD07FC145
:1055E0006FD05FCA6FD03FD36FD01FDC6FD0FFE4A6
:1055F0006FD0DFED6FD0BFF66FD09FFF6FE06F8889
:10560000011122CE00102326A4FE0327C4FEB707F3
:105610000080938707066317F700B7D7DF039387E8
:10562000072411A081473E857244056182800111E3
:1056300006CE22CC00102326A4FE0325C4FEC937C3
:10564000AA873E85F240624405618280011106CE40
:1056500022CC00102326A4FE2324B4FE0325C4FE7E
:10566000F937AA873E85F2406244056182800111C4
:1056700006CE22CC00102326A4FE0325C4FE6935E5
:1056800025782000726F756E642025640A00000082
:10569000686F6C6120696E6963696F00686F6C6127
:1056A00020320000686F6C6120330000686F6C610D
:1056B00020340000686F6C6120350000686F6C61F9
:1056C000000000004379636C65732025780A0000B0
:1056D00000000000000000000000000000000000CA
:1056E00000000000000000000000000000000000BA
:1056F00000000000000000000000000000000000AA
:105700000000000000000000000000000000000099
:105710000000000000000000000000000000000089
:105720000000000000000000000000000000000079
:10573000232D302B20000000686C4C006566674507
:10574000464700003031323334353637383941423C
:10575000434445460000000030313233343536379B
:10576000383961626364656600000000000102026E
:1057700003030303040404040404040405050505E9
:1057800005050505050505050505050506060606C5
:1057900006060606060606060606060606060606A9
:1057A0000606060606060606060606060707070795
:1057B0000707070707070707070707070707070779
:1057C0000707070707070707070707070707070769
:1057D0000707070707070707070707070707070759
:1057E0000707070707070707070707070808080845
:1057F0000808080808080808080808080808080829
:105800000808080808080808080808080808080818
:105810000808080808080808080808080808080808
:1058200008080808080808080808080808080808F8
:1058300008080808080808080808080808080808E8
:1058400008080808080808080808080808080808D8
:1058500008080808080808080808080808080808C8
:1058600008080808080808080808080874584020AC
:10587000000000006C6962676C6F737300000000C9
:10588000FA224020A0244020842440200000000070
:10589000000000008C274020C027402082234020A9
:1058A0005C244020F4244020A62540200000000075
:1058B00000000000000000000000000000000000E8
:1058C00000000000582640202E224020E8374020CB
:1058D000DA374020AE374020AE374020C437402072
:1058E00024384020283840202838402028384020BC
:1058F00024384020283840202838402028384020AC
:10590000243840202838402028384020283840209B
:105910002838402024384020243840202438402093
:105920002438402024384020243840202438402087
:105930002438402024384020243840202438402077
:105940002438402024384020243840202438402067
:105950002438402076384020DC384020DC38402095
:1059600088384020DC384020DC384020DC384020BB
:105970009A384020DC384020DC384020DC38402099
:10598000AC384020DC384020DC384020DC38402077
:10599000DC384020BE384020BE384020BE38402091
:1059A000BE384020BE384020BE384020BE3840209F
:1059B000BE384020BE384020BE384020BE3840208F
:1059C000BE384020BE384020BE384020BE3840207F
:1059D000BE384020083B4020B63B4020B63B40202C
:1059E000B63B4020423B4020B63B4020B63B4020E7
:1059F000B63B40207C3B4020B63B4020B63B40209D
:105A0000B63B4020B63B40207C3B40207C3B4020C6
:105A10007C3B40207C3B40207C3B40207C3B40202A
:105A20007C3B40207C3B40207C3B40207C3B40201A
:105A30007C3B40207C3B40207C3B40207C3B40200A
:105A40007C3B40207C3B40203E3940203A3C40207B
:105A50001E3C40200000000000000000000000008C
:105A6000000000007C3A402000000000CA3B4020BB
:105A7000F43B402000000000000000000000000097
:105A8000000000000000000000000000963C4020E4
:105A900000000000B23C4020243D40206A3D4020F0
:105AA000D03D4020463E40205C3E4020703E40209D
:105AB000863E40209A3E4020FC3E40205E3F4020F3
:105AC000BE3F4020DE3F4020244040205240402046
:105AD00070404020E643402000000000000000002D
:105AE00000000000000000000000000000000000B6
:105AF0002245402000000000E24540202A46402088
:105B00000000000000000000F2414020BA414020A7
:105B1000804240201E4240200000000000000000A3
:105B20008A4B4020084C4020204C40203C4C4020D8
:105B30008A4C40206E4C4020A64C4020DC4C40203B
