:0200000420409A
:100000009711C05F938181F497020000938282056B
:100010007390523093020000638402007350107C8E
:100020001701C0DF130101FE9700C0DF938080FD40
:10003000638300008290732540F181450146812051
:100040009700C0DF938000FC6383000082909702DA
:1000500000009382C2007390523003230000F5BF6A
:10006000F322203473231034F3233034D5BF82803D
:10007000411122C6000801003244410182800684F9
:100080009711C05F938181EC1381C1CB814213032F
:1000900000406385A2001A918502E5BF137101FF3C
:1000A000930200006319550897920000938202435F
:1000B0001703C05F130303F593838182638C62008F
:1000C000635A730003A5020091022320A3001103C9
:1000D000E34A73FE97920000938242401703C0E701
:1000E000130343F29703C0E79383C3F1638C620069
:1000F000635A730003A5020091022320A300110399
:10010000E34A73FE0F1000001703C05F13038366FA
:100110009383C18B63577300232003001103E34DC6
:1001200073FE11C20296175500001305E516EF5035
:100130004012EF50A0192D3FF32710303707010070
:1001400013078702F98F89CBF32700300967D98F0E
:1001500073900730735030000545979500009385E4
:10016000650217960000130626023120EF50C00FDB
:10017000A28082808280411106C2F32240F11303E3
:1001800000006385620073005010F5BF952892400F
:040190004101828027
:100200006D712326111023248110000A9307000426
:1002100001482328F4FC232A04FD930704F813075C
:1002200000053A8681453E85EF203076930700042D
:1002300001482320F4FE232204FF930704F413074C
:1002400000043A8681453E85EF203074232004F275
:10025000232204F2232404F2232604F2232804F2A6
:10026000232A04F2232C04F2232E04F281470148AE
:10027000232CF4FC232E04FDB7974020938747BA24
:100280009043D4439847DC472328C4F0232AD4F072
:10029000232CE4F0232EF4F0B7974020938747BB3C
:1002A0009043D4439847DC472320C4F02322D4F062
:1002B0002324E4F02326F4F0B7974020138587B871
:1002C000EF205067130704F2130604F4930504FDAE
:1002D000130504F8930704F03EC2930704F13EC0EF
:1002E000032884FD8328C4FDBA87832604FE0327E0
:1002F00044FEEF009018B7974020138507B9EF2010
:100300007063232604FE35A88327C4FE9D8B99E7DE
:10031000B7974020138587B9EF20D0618327C4FEAB
:10032000130704FFBA9783C707F9BE85B797402024
:100330001385C7B9EF2010608327C4FE85072326E5
:10034000F4FE0327C4FE9307F004E3DFE7FAB79750
:100350004020138587B9EF20F05D81473E858320DB
:10036000C1100324811051618280011122CE00103E
:100370002324A4FE2326B4FE2322C4FE832784FE66
:100380000328C4FE032644FE0116634606003353C9
:10039000C800814325A0931518007D45032644FE1F
:1003A0003306C5403396C500832544FE33D3B700DA
:1003B00033636600032644FEB353C800032644FE9D
:1003C0003306C0401376F6030116634606003397E2
:1003D000C70081463DA893D517007D45032644FEFE
:1003E0003306C0401376F6033306C54033D6C50046
:1003F000832544FEB305B04093F5F5033317B800E9
:10040000518F032644FE3306C0401376F603B3969D
:10041000C70033EE6600B36E7700F2867687B68744
:100420003A883E85C28572440561828069712326BF
:100430001112232481122322211323203113232E6E
:100440004111232C5111232A6111232871112326D4
:100450008111232491112322A1112320B111001A0B
:10046000232EA4F8AE87A30DF4F88327C4F9944B88
:10047000D84B8347B4F993F7F70F3E88814833C3CD
:100480000601B34317018327C4F923A8670023AAF1
:1004900077008327C4F99443D8438327C4F903A87A
:1004A00047029C5333CEF600B34E07018327C4F9AD
:1004B00023A0C70123A2D7018327C4F99453D8539B
:1004C0008327C4F903A8C7019C4F33CCF600B34C73
:1004D00007018327C4F923A0870323A29703832757
:1004E000C4F9944BD84B8327C4F903A8C7009C4791
:1004F00033C6F6002328C4F8B3470701232AF4F8CB
:100500008327C4F9832604F9032744F994CBD8CB75
:100510008327C4F99443D8438327C4F903A8C700A9
:100520009C4713C9F7FF9349F8FF8327C4F903A831
:1005300047019C4B337FF900B3FF0901B3C7E601C4
:100540002324F4F8B347F7012326F4F8832784F82B
:100550000328C4F82324F4FA232604FB8327C4F9D0
:100560009447D8478327C4F903A847019C4B13CB72
:10057000F7FF934BF8FF8327C4F903A8C7019C4FEB
:10058000337AFB00B3FA0B01B3C746012320F4F81A
:10059000B34757012322F4F8832704F8032844F8CB
:1005A0002328F4FA232A04FB8327C4F9944BD84B5D
:1005B0008327C4F903A8C7019C4F13C6F7FF232C58
:1005C000C4F69347F8FF232EF4F68327C4F903A853
:1005D00047029C53832584F70326C4F72E85337D79
:1005E000F500B37D0601B3C7A6012328F4F6B3478F
:1005F000B701232AF4F6832704F7032844F7232CB2
:10060000F4FA232E04FB8327C4F9944FD84F832791
:10061000C4F903A847029C5313C6F7FF2324C4F66A
:100620009347F8FF2326F4F68327C4F903A847006D
:100630009C43832584F60326C4F62E857D8D2320D6
:10064000A4F6B37706012322F4F6832704F60328E1
:1006500044F63E86358E232CC4F4C287B98F232EF0
:10066000F4F4832784F50328C4F52320F4FC232223
:1006700004FD8327C4F99453D8538327C4F903A8EE
:1006800047009C4313C6F7FF2328C4F49347F8FFA1
:10069000232AF4F48327C4F903A8C7009C478325C1
:1006A00004F5032644F52E857D8D2324A4F4B37729
:1006B00006012326F4F4832784F40328C4F43E8639
:1006C000358E2320C4F4C287B98F2322F4F4832704
:1006D00004F4032844F42324F4FC232604FD832695
:1006E00004FB032744FB832784FA0328C4FA33C698
:1006F000F600232CC4F2B3470701232EF4F283271C
:1007000084F30328C4F32328F4FA232A04FB832662
:1007100084FA0327C4FA832784FC0328C4FC33C665
:10072000F6002328C4F2B3470701232AF4F28327F3
:1007300004F3032844F32324F4FA232604FB83263A
:1007400004FC032744FC832784FB0328C4FB33C633
:10075000F6002324C4F2B34707012326F4F28327CB
:1007600084F20328C4F22320F4FC232204FD83270F
:1007700084FB0328C4FB13C7F7FF2320E4F293474D
:10078000F8FF2322F4F2832704F2032844F2232CF7
:10079000F4FA232E04FB032984FA8329C4FA83275D
:1007A00084FA0328C4FA4D463E85C2857D3EAA8759
:1007B0002E883347F900232CE4F0B3C70901232E18
:1007C000F4F0832784FA0328C4FA71463E85C28573
:1007D000693EAA872E88832684F10327C4F13686D2
:1007E0003D8E2328C4F0B3470701232AF4F0832762
:1007F000C4F9832604F1032744F194C3D8C3032921
:1008000004FB832944FB832704FB032844FB1306D2
:10081000D0033E85C285913EAA872E883347F900D2
:100820002324E4F0B3C709012326F4F0832704FB53
:10083000032844FB130670023E85C2853D36AA8715
:100840002E88832684F00327C4F036863D8E23202D
:10085000C4F0B34707012322F4F08327C4F98326A9
:1008600004F0032744F094C7D8C7032984FB8329E5
:10087000C4FB832784FB0328C4FB05463E85C28551
:10088000ED34AA872E883347F900232CE4EEB3C752
:100890000901232EF4EE832784FB0328C4FB1946A9
:1008A0003E85C285D934AA872E88832684EF032704
:1008B000C4EF36863D8E2328C4EEB3470701232AB2
:1008C000F4EE8327C4F9832604EF032744EF94CB87
:1008D000D8CB032904FC832944FC832704FC032888
:1008E00044FC29463E85C2854934AA872E88334771
:1008F000F9002324E4EEB3C709012326F4EE83278D
:1009000004FC032844FC45463E85C285B93CAA87C1
:100910002E88832684EE0327C4EE36863D8E232060
:10092000C4EEB34707012322F4EE8327C4F98326DC
:1009300004EE032744EE94CFD8CF032984FC832907
:10094000C4FC832784FC0328C4FC1D463E85C28565
:10095000293CAA872E883347F900232CE4ECB3C73F
:100960000901232EF4EC832784FC0328C4FC13061E
:1009700090023E85C285D53AAA872E88832684EDCB
:100980000327C4ED36863D8E2328C4ECB347070108
:10099000232AF4EC8327C4F9832604ED032744EDCE
:1009A00094D3D8D301008320C112032481120329D8
:1009B000411283290112032AC111832A8111032BB9
:1009C0004111832B0111032CC110832C8110032DA5
:1009D0004110832D011055618280011106CE22CC79
:1009E00000102326A4FE9305000F0325C4FE3D3C02
:1009F0009305100E0325C4FE153C9305200D032519
:100A0000C4FE2D349305300C0325C4FE0534930534
:100A1000400B0325C4FE193C9305500A0325C4FE70
:100A20003134930560090325C4FE09349305700829
:100A30000325C4FEE53A930580070325C4FEFD3275
:100A4000930590060325C4FED5329305A005032522
:100A5000C4FEE93A9305B0040325C4FEC13A01007F
:100A6000F240624405618280011106CE22CC001062
:100A70002326A4FE930560090325C4FE453A930589
:100A800070080325C4FE5D32930580070325C4FE6C
:100A9000713A930590060325C4FE493A9305A005D3
:100AA0000325C4FE61329305B0040325C4FEBD3A9C
:100AB0000100F240624405618280797122D60018FB
:100AC000232EA4FC232CB4FC814501462320B4FE34
:100AD0002322C4FE232604FEA5A00326C4FE8325EC
:100AE000C4FD2E9603460600B28601479D450326A7
:100AF000C4FE3386C5400E06930506FE63C6050098
:100B00003398B600814729A813D51600FD45918D6D
:100B1000B355B5003318C70033E80501B397C600D5
:100B2000032604FE5D8E2320C4FE032644FE3366A6
:100B300006012322C4FE0326C4FE05062326C4FEA6
:100B40008325C4FE032684FDE3C9C5F8832704FE7C
:100B5000032844FE3E85C285325445618280797106
:100B600022D60018232EA4FC2328B4FC232AC4FC7C
:100B7000232CD4FC232604FE85A09D460327C4FE17
:100B80003387E6400E07930607FE63C80600032777
:100B900044FDB357D700014815A0832644FD1396A2
:100BA0001600FD46998EB316D600032604FDB357F2
:100BB000E600D58F832644FD33D8E6000327C4FE24
:100BC0008326C4FD369793F6F70F2300D70003273B
:100BD000C4FE05072326E4FE8326C4FE032784FD06
:100BE000E3CDE6F80100325445618280797106D682
:100BF00022D40018232EA4FC232604FEB9A88327A0
:100C0000C4FE8E070327C4FDBA972322F4FE2324D3
:100C100004FE25A0832784FE032744FEBA9783C7DA
:100C20000700BE85B7974020138547BCEF20805052
:100C3000832784FE85072324F4FE032784FE9D4733
:100C4000E3DAE7FCB79740201385C7BCEF20804E5E
:100C50008327C4FE85072326F4FE0327C4FE91479D
:100C6000E3DFE7F8B79740201385C7BCEF20804C3F
:100C70000100B250225445618280517186D7A2D5BD
:100C8000CAD3CED1D2CFD6CDDACBDEC9E2C7E6C544
:100C9000EAC3EEC18019232EA4F6232CB4F6232A2E
:100CA000C4F62324D4F62326E4F62328F4F62320DE
:100CB00004F7232214F7832784F60328C4F6C146D9
:100CC00001473385D7002A863336F600B305E8009E
:100CD000B307B600BE85AA862E87832784F794C300
:100CE000D8C3A1454840D13B2324A4FC2326B4FC0F
:100CF0005C40A107A1453E85C9332320A4FC2322E3
:100D0000B4FCA1450840553B232CA4FA232EB4FA89
:100D10001C40A107A1453E854D332328A4FA232A70
:100D2000B4FA814737184080130868C02324F4F8C8
:100D3000232604F9832784FC0328C4FC2328F4F821
:100D4000232A04F9832704FC032844FC232CF4F809
:100D5000232E04F9832784FB0328C4FB2320F4FA01
:100D6000232204FB832704FB032844FB2324F4FAF7
:100D7000232604FBB7974020138547BDEF20803B17
:100D8000930784F83E859D35930784F83E85B131FD
:100D9000832704FA032844FA032784FC334BF70023
:100DA0000327C4FCB34B0701232064FB232274FBFD
:100DB000832784FA0328C4FA032704FC334CF70082
:100DC000032744FCB34C0701232484FB232694FB14
:100DD000B7974020138587BEEF20C035930784F86E
:100DE0003E852935832704F6032744F6D98F638F80
:100DF000071641A8A145032504F7C131AA862E870D
:100E0000832784F80328C4F833CDF600B34D0701D7
:100E10002324A4F92326B4F9A145032504F7713945
:100E2000AA872E883E86C286B79740201385C7BF03
:100E3000EF204030930784F83E853D31B79740203E
:100E40001385C7C0EF20002F930784F83E85793BB8
:100E5000832704F7A1072328F4F6832704F6032841
:100E600044F6E1567D57B385D7002E853335F5001E
:100E70003306E800B307C5003E862320B4F62322DC
:100E8000C4F6832744F6BDF7832744F691E703278A
:100E900004F69D47E3E0E7F6832704F6BE850325C5
:100EA00004F72139AA862E87832784F80328C4F8FB
:100EB00033C6F600232CC4F4B3470701232EF4F401
:100EC000832784F50328C4F52324F4F8232604F9A2
:100ED000832704F6BE85032504F7C536AA872E8826
:100EE0003E87C287032604F6832644F6B795402042
:100EF0001385C5C1EF200024832684F80327C4F896
:100F0000032604F68147918F8E0793878703138604
:100F100007FE6348060093070008B39AC700014A1A
:100F200015A013060008935516007D461D8E33D676
:100F3000C5008145B39AF500B36A5601130600084F
:100F4000331AF600B3C746012328F4F4B347570118
:100F5000232AF4F4832704F5032844F52324F4F822
:100F6000232604F9930784F83E85FD3C832784FA01
:100F70000328C4FA13C717002324E4F49347080096
:100F80002326F4F4832784F40328C4F42324F4FAF6
:100F9000232604FBB7974020138507C3EF20801951
:100FA000930784F83E8599314DA0A145032544F768
:100FB0002936AA862E87832784F80328C4F833C6E7
:100FC000F6002320C4F4B34707012322F4F4832757
:100FD00004F4032844F42324F4F8232604F9832793
:100FE00084F80328C4F8A146BE8542860325C4F7C9
:100FF000BD36B7974020138587C4EF20A013930711
:1010000084F83E85E536930784F83E85B13C832716
:1010100044F7A107232AF4F68327C4F7A107232E58
:10102000F4F6832684F60327C4F6E1557D56B3878C
:10103000B6003E853335D5003308C70033070501B8
:101040003A882324F4F6232604F78327C4F6B1FF55
:101050008327C4F691E7032784F69D47E3E7E7F487
:10106000832784F6BE85032544F7813CAA862E8714
:10107000832784F80328C4F833C6F600232CC4F26F
:10108000B3470701232EF4F2832784F30328C4F324
:101090002324F4F8232604F9832784F80328C4F8CA
:1010A000032784F6BA86BE8542860325C4F7453CED
:1010B000B79740201385C7BCEF20C007832684F86C
:1010C0000327C4F8032684F68147918F8E07938700
:1010D0008703138607FE6348060093070008B39949
:1010E000C700014915A013060008935516007D4658
:1010F0001D8E33D6C5008145B399F500B36936011D
:10110000130600083319F600B3C726012328F4F2AA
:10111000B3473701232AF4F2832704F3032844F367
:101120002324F4F8232604F9832784F60327C4F73D
:10113000BA97232EF4F6B7974020138587C5EF1092
:10114000707F930784F83E855534832704F903287C
:1011500044F9032784FC3D8F2324E4F20327C4FCD5
:10116000B34707012326F4F2832784F20328C4F24D
:101170002328F4F8232A04F9832784F90328C4F9DF
:10118000032704FC3D8F2320E4F2032744FCB347EC
:1011900007012322F4F2832704F2032844F2232CCC
:1011A000F4F8232E04F9B7974020138547C6EF10B3
:1011B0007078930784F83E85153C930784F83E8544
:1011C000EFF0BF81832704FA032844FA032784FC45
:1011D0003D8F232CE4F00327C4FCB3470701232EE3
:1011E000F4F0832784F10328C4F12320F4FA2322A6
:1011F00004FB832784FA0328C4FA032704FC3D8FE9
:101200002328E4F0032744FCB3470701232AF4F022
:10121000832704F1032844F12324F4FA232604FB52
:10122000B7974020138507C7EF10D070930784F855
:101230003E856D3A832704FA032844FAA146BE8509
:1012400042860325C4F7213A8327C4F71387870012
:10125000832784FA0328C4FAA146BE8542863A85CC
:10126000FD3881473E85BE502E541E598E597E4A08
:10127000EE4A5E4BCE4B3E4CAE4C1E4D8E4D6D61DC
:101280008280011106CE22CC0010AA87A307F4FEAB
:101290009307F4FE0546BE850545EF1090790100E1
:1012A000F240624405618280011122CE0010AA87BB
:1012B0002324B4FE2322C4FE2320D4FEA307F4FE7D
:1012C0000100724405618280011106CE22CC00101B
:1012D000AA872324B4FE2322C4FE2320D4FEA3071E
:1012E000F4FE8347F4FE89C78347F4FE3E85513FF1
:1012F0000100F240624405618280797122D60018B3
:10130000232EA4FC232CB4FC8327C4FD2326F4FE47
:1013100031A08327C4FE85072326F4FE8327C4FE5D
:1013200083C7070081CB832784FD1387F7FF232C16
:10133000E4FCE5F30327C4FE8327C4FDB307F740AD
:101340003E85325445618280011122CE0010AA8769
:10135000A307F4FE0347F4FE9307F00263FAE700E5
:101360000347F4FE9307900363E4E700854711A069
:101370008147858B93F7F70F3E8572440561828024
:10138000797106D622D40018232EA4FC232604FE4D
:101390003DA00327C4FEBA878A07BA9786073E8610
:1013A0008327C4FD9C43938617000327C4FD14C301
:1013B00083C70700B297938707FD2326F4FE832790
:1013C000C4FD9C4383C707003E85BD3FAA87F1F358
:1013D0008327C4FE3E85B250225445618280397114
:1013E00006DE22DC8000232EA4FC232CB4FC232A5E
:1013F000C4FC2328D4FC2326E4FC2324F4FC23226D
:1014000004FD232014FD832744FD2324F4FE8327B9
:1014100004FC898BC1E3832704FC858BA5EF83271C
:1014200084FC2326F4FE35A0832744FD1387170090
:10143000232AE4FC0327C4FD832604FD3E8683257E
:1014400084FD1305000202978327C4FE8507232627
:10145000F4FE0327C4FE832744FCE367F7FC1DA8C2
:10146000832784FCFD172324F4FC0327C4FC832773
:1014700084FCBA9703C50700832744FD1387170030
:10148000232AE4FC0327C4FD832604FD3E8683252E
:1014900084FD0297832784FCE1F7832704FC898B72
:1014A00085CF0DA0832744FD13871700232AE4FC72
:1014B0000327C4FD832604FD3E86832584FD130592
:1014C00000020297032744FD832784FEB307F740F9
:1014D000032744FCE3E8E7FC832744FD3E85F25004
:1014E000625421618280797106D622D400182326A5
:1014F000A4FE2324B4FE2322C4FE2320D4FE232EE4
:10150000E4FC232CF4FCC287232814FDA30BF4FC79
:101510001C44898BD1E35C409DCB1C44858B85CBDF
:10152000834774FD81E71C44B18B95C35C40FD1774
:101530005CC031A8832784FD13871700232CE4FCAB
:101540000327C4FDBA97130700032380E70003278E
:1015500084FD1C406375F702032784FDFD47E3FB10
:10156000E7FC31A8832784FD13871700232CE4FCB4
:101570000327C4FDBA97130700032380E7001C4428
:10158000858B99CB032784FD5C406377F7000327A5
:1015900084FDFD47E3F8E7FC1C44C18B638607101C
:1015A0001C4493F70740A1E3832784FD8DCF0327D5
:1015B00084FD1C406307F700032784FD5C4063142F
:1015C000F702832784FDFD17232CF4FC832784FD79
:1015D00099CB032704FDC1476317F700832784FDD8
:1015E000FD17232CF4FC032704FDC1476319F70200
:1015F0001C4493F7070285E7032784FDFD4763E05A
:10160000E702832784FD13871700232CE4FC0327BC
:10161000C4FDBA97130780072380E700A5A003271E
:1016200004FDC1476319F7021C4493F7070285C7FD
:10163000032784FDFD4763E0E702832784FD1387CA
:101640001700232CE4FC0327C4FDBA971307800579
:101650002380E70005A8032704FD89476314F702E8
:10166000032784FDFD4763EFE700832784FD13878D
:101670001700232CE4FC0327C4FDBA9713072006A8
:101680002380E700032784FDFD4763EFE7008327FE
:1016900084FD13871700232CE4FC0327C4FDBA97AD
:1016A000130700032380E700032784FDFD4763E45D
:1016B000E706834774FD99CF832784FD13871700BE
:1016C000232CE4FC0327C4FDBA971307D002238020
:1016D000E70091A01C44918B99CF832784FD138749
:1016E0001700232CE4FC0327C4FDBA971307B002AC
:1016F0002380E7000DA01C44A18B91CF832784FD9C
:1017000013871700232CE4FC0327C4FDBA971307A3
:1017100000022380E70083288400032844008327F5
:1017200084FD0327C4FD832604FE032644FE83258F
:1017300084FE0325C4FE6531AA873E85B25022543B
:1017400045618280597186D6A2D48018232EA4FACE
:10175000232CB4FA232AC4FA2328D4FA2326E4FA41
:10176000232204FB232014FBA305F4FA232604FE02
:101770008327C4FA81E75C40BD9B5CC05C4093F763
:10178000074081C78327C4FAC9C30327C4FA832744
:1017900044FAB377F702A305F4FE0347B4FEA54766
:1017A00063E9E7008347B4FE9387070393F7F70FD6
:1017B00015A05C4093F7070281C79307100419A096
:1017C000930710060347B4FEBA9793F7F70FD9179C
:1017D00093F7F70F0327C4FE930617002326D4FEC2
:1017E000930604FF3697230CF7FC0327C4FA8327DC
:1017F00044FAB357F7022326F4FA8327C4FA91C7B1
:101800000327C4FEFD47E3F2E7F88346B4FA130763
:1018100084FC5C403EC41C403EC2832704FA3EC0A8
:10182000832844FA36888327C4FE832604FB0326D4
:1018300044FB832584FB0325C4FB7531AA873E85C1
:10184000B650265465618280197186D6A2D480185C
:10185000232EA4FA232CB4FA232AC4FA2328D4FA78
:101860002324E4FA2326F4FAC28723261401A303CF
:10187000F4FA232604FE832784FA0327C4FAD98FB7
:1018800081E75C4CBD9B5CCC5C4C93F7074099C7EF
:10189000832784FA0327C4FAD98FC5C3832784FA20
:1018A0000328C4FA504414483E85C285EF105052B4
:1018B000AA872E88A305F4FE0347B4FEA54763E973
:1018C000E7008347B4FE9387070393F7F70F15A04C
:1018D0005C4C93F7070281C79307100419A0930784
:1018E00010060347B4FEBA9793F7F70FD91793F78B
:1018F000F70F0327C4FE930617002326D4FE930692
:1019000004FF3697230CF7FC50441448032584FA4F
:101910008325C4FAEF10F015AA872E882324F4FA41
:10192000232604FB832784FA0327C4FAD98F91C79F
:101930000327C4FEFD47E3F3E7F65044834674FAF9
:10194000130784FC5C4C3EC41C4C3EC25C483EC049
:10195000B28836888327C4FE832604FB032644FB13
:10196000832584FB0325C4FBBD3EAA873E85B65074
:10197000265409618280757106C722C526C30009F5
:10198000232EA4F8232CB4F8232AC4F82328D4F84F
:101990002324E4F82326F4F8232204F9232014F95D
:1019A000232604FE232804FC232A04FC032684F8AF
:1019B0008326C4F8032584F88325C4F8EF20F02893
:1019C000AA878DC783280400032804F88D4737971A
:1019D0004020130787D2832604F9032644F9832580
:1019E00084F90325C4F9E53AAA8791ABB79740205B
:1019F00003A607D483A647D4032584F88325C4F817
:101A0000EF209035AA8763D70702832804000328B4
:101A100004F89147379740201307C7D2832604F96B
:101A2000032644F9832584F90325C4F9EFF03F9B8D
:101A3000AA8731A3B797402003A687D483A6C7D42B
:101A4000032584F88325C4F8EF20D026AA876354A1
:101A5000F0041C40918B91C7B7974020138747D360
:101A600029A0B79740201387C7D31C40918B99C3F7
:101A7000914711A08D4783280400032804F883268A
:101A800004F9032644F9832584F90325C4F9EFF00A
:101A90001F95AA876DA1B797402003A607D583A6F7
:101AA00047D5032584F88325C4F8EF20B020AA8702
:101AB0006341F002B797402003A687D583A6C7D518
:101AC000032584F88325C4F8EF201029AA8763D75B
:101AD00007021C403EC0832804F8032844F803276B
:101AE00084F88327C4F8832604F9032644F9832560
:101AF00084F90325C4F99129AA8791A1A30504FEBD
:101B000001468146032584F88325C4F8EF20D024BC
:101B1000AA8763D307028547A305F4FE032684F84A
:101B20008326C4F801458145EF201071AA872E88CD
:101B30002324F4F8232604F91C4093F707409DE77B
:101B400099472322F4F81DA08327C4FE13871700AA
:101B50002326E4FE130704FFBA9713070003238C20
:101B6000E7FA832744F8FD172322F4F80327C4FE7D
:101B7000FD4763E7E700032744F8A547E3E6E7FCF2
:101B8000032584F88325C4F8EF30604AAA8723220E
:101B9000F4FE032544FEEF308055AA872E883E864A
:101BA000C286032584F88325C4F8EF20F068AA874D
:101BB0002E883E85C285B7974020138787FB8327F1
:101BC00044F88E07BA9703A847009C433E86C28616
:101BD000EF20D022AA872E882324F4FC232604FD9C
:101BE000032584FC8325C4FCEF30A04AAA87232068
:101BF000F4FE032504FEEF302056AA872E883E8689
:101C0000C286032584FC8325C4FCEF20F062AA87EA
:101C10002E882328F4FC232A04FDB797402003A62E
:101C200007D683A647D6032504FD832544FDEF2070
:101C30007008AA876355F004832704FE85072320D4
:101C4000F4FE032504FEEF302051B79740201387A0
:101C500087FB832744F88E07BA9703A847009C4365
:101C60003E86C286EF201005AA8763C5070423209D
:101C700004FE832744FE85072322F4FE25A8B79798
:101C8000402003A607D683A647D6032504FD832557
:101C900044FDEF20700CAA8763CE0700832704FE63
:101CA00089C7832704FE858B91C7832704FE850798
:101CB0002320F4FE832744F8D9E7032544FEEF30C0
:101CC0000043AA872E883E86C286032584F8832592
:101CD000C4F8EF207056AA872E882328F4FC232A04
:101CE00004FD8544B797402003A607D683A647D6B0
:101CF000032504FD832544FDEF201006AA8763C356
:101D00000700814493F7F40F93C7170093F7F70F79
:101D100085E3B797402003A607D683A647D60325B9
:101D200004FD832544FDEF20E078AA87635AF00C78
:101D3000832744FE858B63860710832744FE85072F
:101D40002322F4FEFDA8832744F8232EF4FCB1A03F
:101D50008327C4FDFD17232EF4FC032704FEA947A7
:101D6000B377F70213F7F70F8327C4FE93861700A4
:101D70002326D4FE130707031377F70F930604FFF8
:101D8000B697238CE7FA032704FEA947B357F70257
:101D90002320F4FE832704FE99C70327C4FEFD47D2
:101DA000E3F8E7FA05A0010031A88327C4FE1387F2
:101DB00017002326E4FE130704FFBA971307000356
:101DC000238CE7FA0327C4FEFD4763E9E700832776
:101DD000C4FD1387F7FF232EE4FCE1FB0327C4FEB9
:101DE000FD4763E0E7068327C4FE13871700232619
:101DF000E4FE130704FFBA971307E002238CE7FA07
:101E000089A0032744FEA947B367F70213F7F70F2A
:101E10008327C4FE938617002326D4FE13070703E7
:101E20001377F70F930604FFB697238CE7FA03277F
:101E300044FEA947B347F7022322F4FE832744FE5A
:101E400099C70327C4FEFD47E3FDE7FA11A001008F
:101E50001C40898BB9EB1C40858BA1CB832704F8F0
:101E600095CB8347B4FE81E71C40B18B85C78327A0
:101E700004F8FD172320F4F831A88327C4FE138744
:101E800017002326E4FE130704FFBA971307000385
:101E9000238CE7FA0327C4FE832704F86377F7004F
:101EA0000327C4FEFD47E3FAE7FC0327C4FEFD4712
:101EB00063E4E7068347B4FE99CF8327C4FE138704
:101EC00017002326E4FE130704FFBA971307D00276
:101ED000238CE7FA91A01C40918B99CF8327C4FEF5
:101EE000138717002326E4FE130704FFBA9713078E
:101EF000B002238CE7FA0DA01C40A18B91CF832761
:101F0000C4FE138717002326E4FE130704FFBA97C5
:101F100013070002238CE7FA130784FA83280400CE
:101F2000032804F88327C4FE832604F9032644F912
:101F3000832584F90325C4F9EFF06FCAAA873E858B
:101F4000BA402A449A4449618280317106DF22DD19
:101F500026DB4AD94ED752D556D35AD15ECF62CD61
:101F600066CB6AC96EC78001232EA4F6232CB4F673
:101F7000232AC4F62328D4F62324E4F62326F4F6F1
:101F8000232204F7232014F7032684F68326C4F6BD
:101F9000032584F68325C4F6EF20204BAA879DEF06
:101FA000B797402003A687D483A6C7D4032584F619
:101FB0008325C4F6EF200050AA876341F002B7974B
:101FC000402003A607D483A647D4032584F683259F
:101FD000C4F6EF206058AA8763D807021C403EC0B1
:101FE000832804F6032844F6032784F68327C4F6DF
:101FF000832604F7032644F7832584F70325C4F7D3
:10200000EFF07F97AA8749AB8544014681460325B7
:1020100084F68325C4F6EF202054AA8763C3070003
:102020008144A30994FA834734FB81CF832784F644
:102030002324F4F60327C4F6B7070080B98F2326BC
:10204000F4F61C4093F7074081E799472322F4F602
:10205000832784F60328C4F62324F4F8232604F9FE
:10206000832784F80328C4F893574801232CF4F4F9
:10207000232E04F4832784F593F7F77F938717C003
:102080002326F4FA832784F80328C4F813F9F7FF0A
:10209000370710007D17B379E800136B0900B70705
:1020A000F03FB3EBF900232464F9232674F90325E8
:1020B000C4FAEF30C003B797402003A687D683A6A3
:1020C000C7D6EF20A053AA872E883E85C285B79732
:1020D000402003A607D783A647D7EF109004AA870E
:1020E0002E883E89C289832784F80328C4F837974D
:1020F0004020032687D78326C7D73E85C285EF2099
:10210000B013AA872E883E85C285B797402003A6C4
:1021100007D883A647D8EF20604EAA872E883E8630
:10212000C2864A85CE85EF10C07FAA872E883E855D
:10213000C285EF20D06FAA87232EF4FA0325C4FBB3
:10214000EF20F07AB797402003A687D883A6C7D898
:10215000EF20C04AAA872E883E85C285B7974020C7
:1021600003A607D683A647D6EF10A07BAA872E88A2
:102170003E85C285EF20B06BAA872326F4FA03259B
:10218000C4FBEF20D076B797402003A607D983A6DB
:1021900047D9EF20A046AA872E883E89C289032509
:1021A000C4FAEF20D074B797402003A687D983A63E
:1021B000C7D9EF20A044AA872E883E86C2864A85CA
:1021C000CE85EF207007AA872E882320F4FA2322D9
:1021D00004FB032604FA832644FA032504FA832524
:1021E00044FAEF20A041AA872E88232CF4F8232E4E
:1021F00004F98327C4FA9387F73F3E8DFD87BE8D90
:10220000931C4D01014C232484F9232694F90329BE
:1022100084F88329C4F8832704FA032844FA3E8605
:10222000C2863E85C285EF10C06FAA872E883E8B7E
:10223000C28BB7974020032604FA832644FA03A5ED
:1022400007DA83A547DAEF20207FAA872E883E8C05
:10225000C28CB797402003A687DA83A6C7DA032586
:1022600084F98325C4F9EF10F04AAA872E883E85A9
:10227000C285B797402003A607DB83A647DBEF1094
:10228000406AAA872E883E86C286032584F9832564
:10229000C4F9EF103048AA872E883E85C285B797CB
:1022A000402003A687DB83A6C7DBEF108067AA87E1
:1022B0002E883E86C286032584F98325C4F9EF1053
:1022C0007045AA872E883E86C2866285E685EF1015
:1022D0004065AA872E883E86C2865A85DE85EF1025
:1022E0007043AA872E883E85C285B797402003A6F3
:1022F00007DC83A647DCEF10C062AA872E883E86E3
:10230000C2864A85CE85EF20602FAA872E88232497
:10231000F4F8232604F9832784F80328C4F83E86BA
:10232000C286032584F68325C4F6EF20E022AA871F
:1023300063DB07028327C4FBFD17232EF4FA8327F0
:1023400084F80328C4F837974020032607DB832648
:1023500047DB3E85C285EF10F03BAA872E882324F9
:10236000F4F8232604F90327C4FB9307300663CA55
:10237000E7000327C4FB9307D0F96344F7009147B4
:1023800011A09547232CF4FA18408567938707809E
:10239000F98FD1C7B797402003A687DC83A6C7DC97
:1023A000032584F68325C4F6EF20C010AA8763CCEA
:1023B0000704B797402003A607DD83A647DD032562
:1023C00084F68325C4F6EF202019AA8763DD07026F
:1023D000832744F60327C4FB635CF700032744F616
:1023E0008327C4FBB307F740FD172322F4F619A097
:1023F000232204F61C4093E707401CC0232C04FA58
:10240000232E04FA29A8832744F691CB1C4093F786
:10241000074091C7832744F6FD172322F4F683274C
:1024200004F6232AF4FA032704F6832784FB63FBCC
:10243000E700032744FB832784FBB307F740232AE5
:10244000F4FA19A0232A04FA1C40898B91C7832728
:1024500084FB99C3232A04FA8327C4FB9DC38327E3
:1024600084F80328C4F83E86C286032584F68325B3
:10247000C4F6EF10302AAA872E882324F4F62326E8
:1024800004F7832744F7232AF4F8834734FB91CBDE
:10249000032A84F60327C4F6B7070080B34AF7007F
:1024A00029A0032A84F6832AC4F61840FD7793876F
:1024B000F77FF98F3EC0832844FB032844F65287F8
:1024C000D687832604F7032644F7832584F703255C
:1024D000C4F7EFF04FCA232AA4F6832784FBDDCB91
:1024E0001C4093F7070281C79307500419A0930774
:1024F0005006032744F793061700232AD4F603282F
:10250000C4F7832604F73A86832584F73E8502982C
:102510008327C4FB13D7F7418327C4FBB98F998F57
:102520003E868327C4FBFD8393F6F70F832784FB46
:10253000FD1715473AC23EC081482948B687328701
:10254000832604F7032644F7832584F70325C4F77D
:10255000EFF04F9F232AA4F61C40898B85CF0DA056
:10256000832744F713871700232AE4F60327C4F7C9
:10257000832604F73E86832584F71305000202971D
:10258000032744F7832744F9B307F740032704F6EA
:10259000E3E8E7FC832744F73E85FA506A54DA54AF
:1025A0004A59BA592A5A9A5A0A5BFA4B6A4CDA4C77
:1025B0004A4DBA4D29618280717106D722D54AD31E
:1025C0004ED152CF56CD5ACB5EC962C766C56AC3DB
:1025D0006EC10019232EA4F6232CB4F6232AC4F6C8
:1025E0002328D4F62326E4F6232E04FA832784F73F
:1025F000E396072EB71740209387872A232EF4F6F9
:102600006F00D02D832704F703C7070093075002FC
:10261000630BF702832704F703C507008327C4FB76
:1026200013871700232EE4FA0327C4F7832644F701
:102630003E86832584F70297832704F7850723289E
:10264000F4F66F00B029832704F785072328F4F6F2
:10265000232604FC832704F783C70700811741471B
:102660006366F70A13972700B7974020938787DDA3
:10267000BA979C4382878327C4FC93E717002326DD
:10268000F4FC832704F785072328F4F685472320E5
:10269000F4FC41A08327C4FC93E727002326F4FC25
:1026A000832704F785072328F4F685472320F4FCC5
:1026B0008DA08327C4FC93E747002326F4FC8327DF
:1026C00004F785072328F4F685472320F4FC91A01E
:1026D0008327C4FC93E787002326F4FC832704F7B1
:1026E00085072328F4F685472320F4FC1DA08327C3
:1026F000C4FC93E707012326F4FC832704F785072E
:102700002328F4F685472320F4FC21A0232004FC91
:102710000100832704FC9DFF232404FC832704F786
:1027200083C707003E85EFE03FC2AA8789CB9307A6
:1027300004F73E85EFE0DFC42324A4FCA1A883278F
:1027400004F703C707009307A0026315F704832764
:10275000C4F6138747002326E4F69C432324F4FAA7
:10276000832784FA63DF07008327C4FC93E72700ED
:102770002326F4FC832784FAB307F0402324F4FCD7
:1027800029A0832784FA2324F4FC832704F78507F0
:102790002328F4F6232204FC832704F703C7070049
:1027A0009307E002631BF7068327C4FC93E7074007
:1027B0002326F4FC832704F785072328F4F68327D0
:1027C00004F783C707003E85EFE01FB8AA8789CBCF
:1027D000930704F73E85EFE0BFBA2322A4FC35A897
:1027E000832704F703C707009307A0026317F702C4
:1027F0008327C4F6138747002326E4F69C4323224D
:10280000F4FA832744FA63D3070081472322F4FCB8
:10281000832704F785072328F4F6832704F783C763
:102820000700938787F94947636DF70C13972700D3
:10283000B79740209387C7E1BA979C438287832745
:10284000C4FC93E707102326F4FC832704F78507CD
:102850002328F4F6832704F703C707009307C0066D
:102860006313F70A8327C4FC93E707202326F4FCAD
:10287000832704F785072328F4F671A08327C4FC77
:1028800093E707082326F4FC832704F7850723280A
:10289000F4F6832704F703C707009307800663163F
:1028A000F7068327C4FC93E707042326F4FC832759
:1028B00004F785072328F4F689A88327C4FC93E747
:1028C00007102326F4FC832704F785072328F4F652
:1028D00035A88327C4FC93E707202326F4FC83272D
:1028E00004F785072328F4F615A08327C4FC93E793
:1028F00007102326F4FC832704F785072328F4F622
:1029000031A0010021A0010011A00100832704F7DC
:1029100083C707009387B7FD130730056368F7780F
:1029200013972700B7974020938787E6BA979C4371
:102930008287832704F703C7070093078007630A8A
:10294000F700832704F703C7070093078005631682
:10295000F700C147232CF4FA89A0832704F703C7A3
:1029600007009307F0066316F700A147232CF4FA3B
:102970002DA0832704F703C70700930720066316DB
:10298000F7008947232CF4FA09A8A947232CF4FA65
:102990008327C4FCBD9B2326F4FC832704F703C7CD
:1029A0000700930780056318F7008327C4FC93E7AB
:1029B00007022326F4FC832704F703C707009307C5
:1029C0009006630FF700832704F703C707009307F8
:1029D00040066307F7008327C4FCCD9B2326F4FC45
:1029E0008327C4FC93F7074091C78327C4FCF99B56
:1029F0002326F4FC832704F703C7070093079006F8
:102A0000630AF700832704F703C70700930740060C
:102A1000631BF71A8327C4FC93F70720D5C38327CA
:102A2000C4F69D07E19B138787002326E4F603A8DD
:102A300047009C43232CF4F8232E04F98327C4F980
:102A400013D9F7418327C4F993D9F741832784F930
:102A500033CA27018327C4F9B3CA3701B3072A4110
:102A60003E873337EA0033883A413307E8403A88F3
:102A70003E8AC28A5286D6868327C4F9FD8313F71D
:102A8000F70F832784FB3E8B814B8327C4FC3EC614
:102A9000832784FC3EC4832744FC3EC25EC0DA88A0
:102AA0003A883287B687832644F70326C4FB8325FA
:102AB00084F70325C4F7EFE03FD9232EA4FA25A419
:102AC0008327C4FC93F70710ADC38327C4F613878D
:102AD00047002326E4F69C43232AF4F8832744F98D
:102AE00013D7F741832744F9B98F998FBE8683277F
:102AF00044F9FD8313F7F70F8327C4FC3EC28327F5
:102B000084FC3EC0832844FC032884FBBA873687B4
:102B1000832644F70326C4FB832584F70325C4F7E3
:102B2000EFE05FC2232EA4FA7DAA8327C4FC93F7AB
:102B3000070499CB8327C4F6138747002326E4F6BE
:102B40009C4393F7F70F3DA08327C4FC93F7070836
:102B500099CB8327C4F6138747002326E4F69C43CA
:102B6000C207C18701A88327C4F61387470023261D
:102B7000E4F69C432328F4F8832704F913D7F7419C
:102B8000832704F9B98F998FBE86832704F9FD83C3
:102B900013F7F70F8327C4FC3EC2832784FC3EC093
:102BA000832844FC032884FBBA873687832644F7AE
:102BB0000326C4FB832584F70325C4F7EFE09FB801
:102BC000232EA4FA0DA28327C4FC93F70720A1CBE0
:102BD0008327C4F69D07E19B138787002326E4F62D
:102BE0009843DC43832684FB368C814C8326C4FCCB
:102BF00036C6832684FC36C4832644FC36C266C0AF
:102C0000E2880148832644F70326C4FB832584F722
:102C10000325C4F7EFE05FC3232EA4FAE9A08327BE
:102C2000C4FC93F70710A1C38327C4F6138747009A
:102C30002326E4F698438327C4FC3EC2832784FC02
:102C40003EC0832844FC032884FB8147832644F745
:102C50000326C4FB832584F70325C4F7EFE09FAE6A
:102C6000232EA4FA49A08327C4FC93F7070499CB29
:102C70008327C4F6138747002326E4F69C4393F783
:102C8000F70F3DA08327C4FC93F7070899CB832750
:102C9000C4F6138747002326E4F69C43C207C1838A
:102CA00001A88327C4F6138747002326E4F69C4334
:102CB0002320F4FA8327C4FC3EC2832784FC3EC051
:102CC000832844FC032884FB8147032704FA8326D6
:102CD00044F70326C4FB832584F70325C4F7EFE0FC
:102CE0007FA6232EA4FA832704F785072328F4F66A
:102CF000F5A6832704F703C707009307600463184A
:102D0000F7008327C4FC93E707022326F4FC8327FC
:102D1000C4F69D07E19B138787002326E4F69843BA
:102D2000DC438326C4FC36C0832884FC032844FC8F
:102D3000832644F70326C4FB832584F70325C4F7C1
:102D4000EFE07FC3232EA4FA832704F78507232807
:102D5000F4F669A6832704F703C7070093077006F4
:102D6000630AF700832704F703C70700930770047B
:102D7000631AF7000327C4FC856793870780D98F00
:102D80002326F4FC832704F703C7070093075004A6
:102D9000630AF700832704F703C70700930770044B
:102DA0006318F7008327C4FC93E707022326F4FC8B
:102DB0008327C4F69D07E19B138787002326E4F64B
:102DC0009843DC438326C4FC36C0832884FC032854
:102DD00044FC832644F70326C4FB832584F703259C
:102DE000C4F7EFF08F96232EA4FA832704F7850704
:102DF0002328F4F6E5A48547232AF4FA8327C4FCA4
:102E0000898B85EF0DA08327C4FB13871700232E22
:102E1000E4FA0327C4F7832644F73E86832584F724
:102E2000130500020297832744FB13871700232A08
:102E3000E4FA032784FCE3E8E7FC8327C4F613875E
:102E400047002326E4F69C4313F5F70F8327C4FBC2
:102E500013871700232EE4FA0327C4F7832644F7C9
:102E60003E86832584F702978327C4FC898B85CF10
:102E70000DA08327C4FB13871700232EE4FA032732
:102E8000C4F7832644F73E86832584F713050002A2
:102E90000297832744FB13871700232AE4FA0327AA
:102EA00084FCE3E8E7FC832704F785072328F4F68E
:102EB00035A48327C4F6138747002326E4F69C43F2
:102EC0002328F4FA832744FC81C7832744FC11A0FC
:102ED000FD57BE85032504FBEFE02FC22326A4FA8D
:102EE0008327C4FC93F7074091CB0327C4FA8327B9
:102EF00044FC6373F700BA872326F4FA8327C4FCE3
:102F0000898BBDE30DA08327C4FB13871700232EF5
:102F1000E4FA0327C4F7832644F73E86832584F723
:102F20001305000202978327C4FA1387170023268C
:102F3000E4FA032784FCE3E8E7FC3DA0832704FBD5
:102F4000138717002328E4FA03C507008327C4FB6F
:102F500013871700232EE4FA0327C4F7832644F7C8
:102F60003E86832584F70297832704FB83C70700E7
:102F700089CF8327C4FC93F70740E9D3832744FC18
:102F80001387F7FF2322E4FCD5FB8327C4FC898B3E
:102F900085CF0DA08327C4FB13871700232EE4FAE7
:102FA0000327C4F7832644F73E86832584F7130559
:102FB000000202978327C4FA138717002326E4FA36
:102FC000032784FCE3E8E7FC832704F7850723282D
:102FD000F4F629A2A1472324F4FC8327C4FC93E739
:102FE00017022326F4FCA30704F88347F4F8A9C7C3
:102FF0008327C4F6138747002326E4F69C433E8DBF
:10300000814D8327C4FC3EC6832784FC3EC48327AE
:1030100044FC3EC202C0C14801486A87EE8783264D
:1030200044F70326C4FB832584F70325C4F7EFE0A8
:10303000BF81232EA4FA3DA88327C4F61387470037
:103040002326E4F69C433E878327C4FC3EC28327A5
:1030500084FC3EC0832844FC41488147832644F7D2
:103060000326C4FB832584F70325C4F7EFE08FED27
:10307000232EA4FA832704F785072328F4F6B9A89A
:103080008327C4FB13871700232EE4FA0327C4F712
:10309000832644F73E86832584F713055002029762
:1030A000832704F785072328F4F60DA8832704F760
:1030B00003C507008327C4FB13871700232EE4FAF8
:1030C0000327C4F7832644F73E86832584F70297B7
:1030D000832704F785072328F4F60100832704F7E4
:1030E00083C70700639007D20327C4FB832744F7F5
:1030F0006366F700832744F7FD1719A08327C4FBF5
:103100000327C4F7832644F73E86832584F70145C9
:1031100002978327C4FB3E85BA502A541A598A590C
:103120007A4AEA4A5A4BCA4B3A4CAA4C1A4D8A4D33
:103130004D6182805D7106D622D40018232EA4FC36
:103140004CC010C454C418C85CC8232C0401232EDE
:1031500014019307040291172324F4FE032784FE2D
:10316000930744FE8326C4FD7D56BE85B7174020D5
:103170001385872CEFF04FC42326A4FE8327C4FEBB
:103180003E85B2502254616182803D432A87637339
:10319000C3029377F700BDEFADE5937606FF3D8A56
:1031A000BA960CC34CC30CC74CC74107E36BD7FEA0
:1031B00011E28280B306C3408A0697020000969609
:1031C0006780A6002307B700A306B7002306B70051
:1031D000A305B7002305B700A304B7002304B70075
:1031E000A303B7002303B700A302B7002302B7006D
:1031F000A301B7002301B700A300B7002300B70065
:10320000828093F5F50F93968500D58D93960501F1
:10321000D58D61B793962700970200009696868217
:10322000E78086FA9680C1171D8F3E96E374C3F837
:10323000A5B797D7BF5F93876751B2862E86AA85B9
:10324000884309A0411122C42A842E85B28536867E
:1032500023AC018A06C6EF10F078FD576317F5001E
:103260009387818B9C4391C31CC0B240224441018F
:103270008280AE87328836872A83639606209768D5
:103280000000938828E063FEC50A41676374E60A7C
:103290001307F00F3337C7000E07B356E600B69892
:1032A00083C60800369793060002998E99CAB39791
:1032B000D7003357E5003318D600B365F700331352
:1032C000D5001355080133F7A502131608014182F2
:1032D00093560301B3D5A5024207D98EB307B602B0
:1032E0002E8763FCF600C2961387F5FF63E706019D
:1032F00063F5F6001387E5FFC2969D8EB3F7A6022D
:10330000420313530301B3D6A602C20733E3670097
:10331000B305D6023685637BB30042931385F6FF6F
:10332000636603016374B3001385E6FF4207498FA8
:1033300081454DA8B70600014147E360D6F66147D5
:10334000A9BF01E6854633D8C602C166637ED808A8
:103350009306F00F63F306012147B356E800B698D1
:1033600083C60800BA9613070002158F49E7B38792
:1033700007418545135608019318080193D80801A1
:103380009356030133F7C702B3D7C7024207D98E5A
:103390003385F8023E8763FCA600C2961387F7FFC9
:1033A00063E7060163F5A6001387E7FFC296898EDF
:1033B000B3F7C602420313530301B3D6C602C207D2
:1033C00033E36700B388D8023685637B13014293E9
:1033D0001385F6FF63660301637413011385E6FF2B
:1033E0004207498F3A858280B70600014147E3666C
:1033F000D8F661479DB73318E800B3D5D70033132B
:10340000E500B356D50013550801B397E70033F72D
:10341000A502B3E8F60093170801C18313D608018B
:10342000B3D5A5024207518FB386B7022E86637CBF
:10343000D70042971386F5FF636707016375D700CE
:103440001386E5FF4297B306D74033F7A602C208BA
:1034500093D80801B3D6A6024207B385D702B36753
:103460001701368763FCB700C2971387F6FF63E73F
:10347000070163F5B7001387E6FFC2978D8F931599
:103480000601D98DC5BD63E2D514416763FEE6022E
:103490001308F00F3337D8000E0733D8E6009765CE
:1034A0000000938525BEC29503C805009305000260
:1034B0003A98B385054185E10547E3E5F6F23335F2
:1034C000C5001347150039BFB70500014147E3E6C2
:1034D000B6FC6147D9B733570601B396B600D98E0B
:1034E00093DE060133D70701B378D703B397B7004C
:1034F000335805013363F80093970601C1831358CD
:1035000003013316B6003357D703C20833E8080166
:10351000338FE7023A8E637CE8013698130EF7FF8B
:103520006367D8006375E801130EE7FF3698330828
:10353000E841B378D8033358D803C208B38E0703E1
:1035400093170301C183B3E7F800428763FCD701F7
:10355000B6971307F8FF63E7D70063F5D7011307A2
:10356000E8FFB697420EB387D741C16E3367EE00CE
:103570001388FEFF33730701935807013378060160
:103580004182330E03033388080393560E0133033D
:10359000C30242939A96B388C80263F30601F69871
:1035A00013D60601B29863E01703E39317D9C167F6
:1035B000FD17FD8EC206337EFE003315B500F29670
:1035C0008145E371D5E27D17A5B38145014719BD5A
:1035D000B2883687AA872E886398061C97660000F3
:1035E000938646AA63F8C50A4163637E660813039F
:1035F000F00F6373C30021473353E6009A9603CE5E
:103600000600130300023A9E3303C341630C030018
:10361000B3956500335EC501B31866003368BE001C
:10362000B317650013D608013377C8021395080154
:10363000418193D607013358C8024207D98E330817
:10364000050363F80601C69663E5160163F30601F8
:10365000C696B386064133F7C602C207C183B3D606
:10366000C602B306D50213150701C98F63F8D70048
:10367000C69763E5170163F3D700C697958F33D5D7
:10368000670081458280370300014147E36666F6A3
:1036900061479DB701E60546B3581603416663F3DB
:1036A000C8081306F00F63731601214733D6E800EC
:1036B000B29603CE0600130300023A9E3303C341C1
:1036C00063190306B385154113D708011395080143
:1036D000418113D60701B3F6E502B3D5E502C20670
:1036E000D18EB305B50263F8B600C69663E5160140
:1036F00063F3B600C696B385B640B3F6E502C207DB
:10370000C183B3D5E502B305B50213950601C98F90
:1037100063F8B700C69763E5170163F3B700C69770
:103720008D8FB1BF370600014147E3E1C8F861471B
:10373000B5BFB398680033D7C501B3176500335ED2
:10374000C50113D50801B376A702B3956500336EA2
:10375000BE0093950801C18113560E013357A7028D
:10376000C206D18E3387E50263F8E600C69663E5AC
:10377000160163F3E600C6963386E640B376A602EA
:10378000420E135E0E013356A602C2063386C502F0
:10379000B3E5C60163F8C500C69563E5150163F39B
:1037A000C500C695918D0DB7E3EED5EC416763F585
:1037B000E604930EF00F33B7DE000E0733D3E600B6
:1037C000976800009388088C9A9883CE0800130E9F
:1037D0000002BA9E330EDE4163170E0263E4B600A8
:1037E0006369C500B307C540958D3335F50033884F
:1037F000A5403E85C28579B5B70800014147E3EF92
:1038000016FB614765BF3357D601B396C601D98E03
:1038100013D8060133D7D50133730703B395C50118
:10382000B357D501CD8F93950601C18193D8070178
:103830003316C6013315C501335707034203B36876
:103840001301338FE5023A8363FCE801B698130352
:10385000F7FF63E7D80063F5E8011303E7FFB698C5
:10386000B388E84133FF0803B3D80803420F338815
:10387000150393950701C181B365BF00C68763FC3B
:103880000501B6959387F8FF63E7D50063F5050159
:103890009387E8FFB6954203416F3363F3009307C4
:1038A000FFFFB378F300B3850541135303011358A9
:1038B0000601F18F3387F802B307F302B3880803D8
:1038C00033030303BE981358070146986373F80047
:1038D0007A93935708013E93C167FD173378F80038
:1038E00042087D8F429763E66500639C6500637ABA
:1038F000E5003306C7403337C70036973303E3404C
:1039000032873307E5403335E500B3856540898D5F
:10391000B397D5013357C70133E5E700B3D5C501E8
:1039200095B3370810007D18B378B8008E08935708
:10393000D501011113D745013378D800B3E717013A
:1039400093D846010E0826CA4AC89374F77F93F8A5
:10395000F87F1357D60106CE22CC4EC613D9F501F7
:10396000FD82336707010E050E0633881441631686
:10397000D9226351000F63980802B366C7006387BA
:1039800006569305F8FF89E92A963335A600BA97BB
:10399000AA9732858544B1A89306F07F631DD800AD
:1039A0009304F07F79AA9306F07F638CD418B7064E
:1039B0008000558FC2859306800363C9B608FD4613
:1039C00063C0B606130800023308B840B3160701F7
:1039D000B358B60033160601B3E616013336C000FD
:1039E000558E3357B7002A963E97B337A600BA973D
:1039F0003285139787006356071485041307F07FF9
:103A00006385E448B70680FFFD16FD8E93551500CB
:103A100005899397F6014D8D5D8D93D7160015A2FC
:103A2000938605FE93080002B356D70001486388C9
:103A3000150113080004B305B8403318B700336606
:103A4000C8003336C000558E014771BF598E3336DA
:103A5000C000DDBF630B080AB38598408DE4B3E670
:103A6000A700638B06409386F5FF99E63295BA97D7
:103A70003336C500B29739BF1308F07F639D050147
:103A8000BA87328531BF9306F07FE38BD8FEB70645
:103A90008000D58FAE869305800363C4D506FD45AF
:103AA00063CBD502130800023308D8403353D50046
:103AB000B395070133150501B3E565003335A00063
:103AC0004D8DB3D6D7003295B387E6003336C500A7
:103AD000B297C68439BF938506FE13030002B3D59F
:103AE000B70001486388660013080004B306D84095
:103AF0003398D7003365A8003335A0004D8D81463B
:103B0000D9B75D8D3335A000DDBF9386140093F5E2
:103B1000E67FBDE1B3E6A700A9E463830636B3669A
:103B2000C70085C22A96BA973335A600AA9713977D
:103B30008700328563570700370780FF7D17F98FAD
:103B4000854413777500630407341377F5009146B5
:103B5000630FD7329306450033B5A600AA97368582
:103B60003DA699DE598EE30D06E20149B7074000F4
:103B700001459304F07F21AE9305F07F6385B63055
:103B80002A963E97B337A6003E971315F701058294
:103B9000518D93571700B6846DB76356000D63912E
:103BA0000808B366C700638306349305F8FF91E9FC
:103BB0003306C5403335C500998F898F32858544DA
:103BC000B1A09306F07FE30DD8DC9306800363C8B1
:103BD000B608FD4663CFB604130800023308B840A8
:103BE000B3160701B358B60033160601B3E6160143
:103BF0003336C000558E3357B7003306C540338780
:103C0000E740B337C500B307F74032851397870005
:103C1000E35907F2370480007D147D8CAA8975A2D0
:103C20009306F07FE38FD4F0B7068000558FC285EE
:103C300069BF938605FE93080002B356D70001487A
:103C40006388150113080004B305B8403318B700A2
:103C50003366C8003336C000558E014779BF598E90
:103C60003336C000DDBF6304080C3388984095E804
:103C7000B3E5A700638E05269305F8FF91E93305A8
:103C8000A640B307F7403336A600918F368905BFAB
:103C90001303F07F631F6800BA8732859304F07FB7
:103CA0007DA09305F07FE389B8FEB7058000CD8F36
:103CB000C285130880036348B8067D48634EB80286
:103CC000130300023303B340335EB500339867003B
:103CD000331565003368C8013335A0003365A8008B
:103CE000B3D5B7003305A640B307B7403336A600B7
:103CF000918FC684368919BF138805FE130E000202
:103D000033D8070101436388C50113030004B305D9
:103D1000B3403393B7003365A3003335A000336558
:103D2000A8008145C1B75D8D3335A000DDBF938507
:103D3000140093F5E57FB5E533E8A700B365C70048
:103D4000B1E4631808006389051ABA873285368999
:103D5000CDBBE38805DE3308C540B385E740B33803
:103D60000501B385154113948500635A040033059A
:103D7000A640B307F7403336A600918FC9BF33651D
:103D8000B800630F0516AE87428565BB631808004F
:103D9000638A0516BA873285368919B1E38205C070
:103DA000E9B3B309C540B33535013384E7400D8C21
:103DB0009315840063D70506B309A640B307F740FF
:103DC000333636013384C740368935C02285EF103B
:103DD000A03D130785FFFD4763C1E7069307000277
:103DE000998F3314E400B3D7F9005D8C3395E90063
:103DF000634E9706058F93071700FD4663C5F604CB
:103E0000130700021D8F3356F500B316E400331577
:103E1000E500D18E3335A000558DB357F4008144B1
:103E20000DB333E5890055F181478144C1A84E8522
:103E3000EF1080371305050269BF130485FD339425
:103E40008900014575B70517130600023357E400D2
:103E500081466387C700930600049D8EB316D40085
:103E6000558D3335A000598D814755BFB70780FF69
:103E7000FD17998CE18FF1B1BA873285AE84D1B14B
:103E8000BA8732857DB99304F07F81470145139746
:103E90008700635B070085041307F07F6389E406EE
:103EA000370780FF7D17F98F1397D7010D81598D43
:103EB0001307F07F8D836399E4005D8D814709C509
:103EC000B70708000145014913F7F47FB20752070D
:103ED000F2406244B1839315F901D98F33E7B700FB
:103EE000D2444249B249BA8505618280C28491B9FF
:103EF000BA873285C284A1BD81470145014941BFCE
:103F00008147EDBF01450149B70740009DB1814799
:103F1000014559BF797113D8450126D24ECE52CCF6
:103F20005AC85EC69394C50006D622D44AD056CA53
:103F30001378F87F2A8BB28B368AB18093D9F5013A
:103F4000630408089307F07F630AF80C935AD501BD
:103F50008E04B3E49A00B70A8000B3EA5401131444
:103F60003500130918C0014B13554A019314CA00B8
:103F70001378F57FB180135AFA016304080C930794
:103F8000F07F6309F8101395340093D7DB015D8D42
:103F9000B7048000C98C139F3B00130518C08147EC
:103FA00013172B005D8F7D17B94633C649013308BF
:103FB000A94063E3E61097560000938626050A079A
:103FC0003697184336970287B3EAA40063820A063D
:103FD0009DC82685EF10401D930755FF7147634923
:103FE000F702F54A130485FFB38AFA40B3948400BC
:103FF000B35A5B01B3EA9A0033148B001308D0C0A4
:104000003309A8408DB7EF10201A13050502E9B750
:10401000930485FDB31A9B000144CDB7B3EAA40015
:10402000638C0A002A84A68A1309F07F0D4B2DBFEA
:1040300001440149054B0DBF01441309F07F094BB1
:1040400025B733EF740163000F068DC82685EF1086
:10405000A015930755FF71476348F7027547130F83
:1040600085FF1D8FB394E40133D7EB00D98C339FC8
:10407000EB011306D0C03305A64015B75E85EF10DF
:10408000A01213050502F1B7930485FDB3949B00BC
:10409000014FC5B733EF7401630B0F005E8F13053B
:1040A000F07F8D47F5BD814401458547D5BD8144ED
:1040B0001305F07F8947EDB563E6540163939A2AAF
:1040C0006361E42B9396FA01135714009317F401DC
:1040D00093DA1A0033E4E6001395840093548F01B9
:1040E000458D135E0501B3D8CA031313050113539D
:1040F00003011357040193158F00B3F4CA03C68F4D
:10410000B3061303939A040133675701637CD70006
:104110002A97938FF8FF6367A7006375D700938F83
:10412000E8FF2A97158FB35EC703420441803377B7
:10413000C703F686B308D3034207418F637C170198
:104140002A979386FEFF6367A7006375170193861E
:10415000EEFF2A97C20FB3EFDF00C16633041741A9
:104160009388F6FF13DF0F0133F71F0193DE05017C
:10417000B3F81501B3031703B3041F033387EE022B
:10418000B302DF03330F970013D703017A976373EA
:104190009700B692135F0701169FC162FD12B376B6
:1041A0005700C206B3F353009E966367E401FE8492
:1041B000631EE40363FCD702AE9733B7B7002A97B8
:1041C0003A949384FFFF636685006311850263EF71
:1041D000B7006366E401631B8F0063F9D700AE97F5
:1041E00033B7B7002A979384EFFF3A94B386D7404A
:1041F0003304E441B3B7D7001D8C7D5F6305850EA2
:10420000335FC40313D706013374C403B307E30356
:104210004204598C7A87637CF4002A941307FFFFC9
:104220006367A4006375F4001307EFFF2A941D8CE5
:10423000335FC403C206C1823374C403FA873303F5
:10424000E3034204558C637C64002A949307FFFFC8
:104250006367A400637564009307EFFF2A94420725
:104260005D8F93170701C183330464401353070123
:10427000338E1703B308130333836E02B38EFE022B
:1042800093570E01C69EF69763F41701C1663693E5
:1042900093D807019A9841637D13B3F66700C2066D
:1042A000337E6E00F29663661401631E14193A8F12
:1042B0009DCA2A94130FF7FF6361A4026366140179
:1042C0006312141963FDD50093971500B3B5B700B9
:1042D0002E95130FE7FF2A94BE856314140163849F
:1042E000B600136F1F001307F83F6357E00A937778
:1042F0007F0081CF9377FF0091466388D7009306B4
:104300004F0033BFE601FA94368F9397740063D859
:104310000700B70700FFFD17FD8C13070840930740
:10432000E07F63C8E710135F3F009397D401B3E7C2
:10433000E70113D5340032051377F77F5207B250E7
:1043400022543181598D7E063367C500925402593B
:10435000F249624AD24A424BB24B3E85BA85456128
:1043600082807D1881478DBB4E86D684228FDA8766
:1043700009476380E70C0D476386E70A0547E39426
:10438000E7F60145814785A85286DDB7B7040800E6
:10439000014F01468D47E9BF0545198D93078003FD
:1043A000E3C1A7FEFD4763CAA7041308E841B3971A
:1043B00004013357AF0033180F01D98F3338000190
:1043C000B3E7070133D5A40013F7770001CF13F744
:1043D000F70091466308D70013874700B337F7000B
:1043E0003E95BA8713178500634A07041317D50152
:1043F0008D83D98F0D8101473DBF8557998F9306D6
:104400000002B3D7F40001476306D5001308E84360
:1044100033970401336FE701333FE001B3E7E7016E
:1044200001455DB73705080081471307F07F014656
:1044300019B7014581471307F07FF5BD0145814755
:104440000547D5BD7A873A8F69BD13D74501B707B0
:104450001000FD1713D846012A83AA8E1377F77F21
:104460001305F07FB3F8B700328FF58FFD81137815
:10447000F87FFD82631AA70033EE680005456314D8
:104480000E006305E80082806315A8005D8E054577
:104490007DFA0545E31907FFE397F8FEE395EEFF84
:1044A0006388D5006DF333E568003335A000828062
:1044B0000145828013D84501B7071000FD1713D7B7
:1044C00046011378F87F930EF07FB3F8B7002A8384
:1044D000F58FFD81328E1377F77FFD826318D80147
:1044E000B3EEA80063850E06F9550DA86316D70133
:1044F000B3EEC700E39A0EFE631D080433E5A8007F
:104500001335150019E35D8E15CE11E5638AD500CC
:1045100085C9FD5521A0FD5591C2B6852E858280A5
:10452000E34807FF6354E800F5F9E5B7E3E217FF56
:10453000639CF800E36E6EFCE368C3FF8145F9BF3E
:104540008545E9BF65FDE9B7E3E0F8FEC5BFE301D6
:1045500007FB4DFF014545BF13D84501B7071000C4
:10456000FD1713D746011378F87F930EF07FB3F849
:10457000B7002A83F58FFD81328E1377F77FFD8296
:104580006318D801B3EEA80063850E0689450DA80F
:104590006316D701B3EEC700E39A0EFE631D08044D
:1045A00033E5A8001335150019E35D8E15CE11E52E
:1045B000638AD50085C9FD5521A0FD5591C2B685F8
:1045C0002E858280E34807FF6354E800F5F9E5B7DC
:1045D000E3E217FF639CF800E36E6EFCE368C3FF41
:1045E0008145F9BF8545E9BF65FDE9B7E3E0F8FE20
:1045F000C5BFE30107FB4DFF014545BF79714ECEB5
:1046000093D9450122D426D252CC56CA5AC8939483
:10461000C50006D64AD05EC693F9F97F2A84328B4C
:10462000B68AB18013DAF501638109089307F07F38
:104630006385F90C9357D5018E04DD8CB707800094
:10464000DD8C13193500938919C0814B13D54A01AC
:104650001394CA001375F57F318093DAFA0161C1B2
:104660009307F07F6305F5109357DB010E045D8C13
:10467000B70780005D8C130515C093173B000147F9
:1046800093962B00D98E4E95FD16B94533465A01A7
:104690001308150063EED50E975500009385C59A53
:1046A0008A06AE969442AE96828633E9A400630FE2
:1046B00009048DC82685EF00302F130755FFF147F9
:1046C00063C7E702F547130985FF998FB394240167
:1046D000B357F400DD8C331924019309D0C0B3899A
:1046E000A940A5B7EF00502C13050502F9B79304B4
:1046F00085FDB31494000149CDB733E9A400630BE1
:1047000009002A899309F07F8D4B89B7814481493B
:10471000854B2DBF81449309F07F894B05BFB3675B
:104720006401B1CF0DC82285EF001028930655FF14
:10473000F14763C8D7027547930785FF158F331478
:10474000F4003357EB00598CB317FB001307D0C0AC
:104750003305A7402DB75A85EF0010251305050234
:10476000F1B7130485FD33148B008147C5B7B367D8
:10477000640191CBDA871305F07F0D4711B701442F
:1047800001450547F5BD01441305F07F0947CDBD3F
:10479000416F930EFFFF1357090193D80701337937
:1047A000D901B3F7D701B3852803B3862703B30F25
:1047B000F7023383F50193D506019A95330E17035B
:1047C00063F3F5017A9E93D30501B3F5D501B3F6F2
:1047D000D601135F0401B372D401C205B695B30EBE
:1047E0005702B386220333092F033303D90113D9A8
:1047F00006011A993307E7036374D90141631A97D5
:10480000935E0901C169BA9E1387F9FF3379E90004
:10481000F98E13D404014209F98C36993387970233
:10482000CA933303F402B3869802B3878802B3882D
:10483000660093560701C69663F36600CE9793D839
:104840000601C169B38FF8009387F9FFFD8E7D8F54
:10485000B3889202C206BA96B3075402B3049F0209
:1048600033038F02BE9413D40801A29463F3F400BF
:104870004E93C167FD1733F7F400B3F8F800420711
:104880001E9E469733392E01769733042701369EB4
:10489000B336DE00B308F401338FD8003337D701C5
:1048A00033342401598CC180B3B8F801B336DF002A
:1048B0002694B3E6D80036941A9493577F012604C1
:1048C0005D8C93179E00CD8FB337F000135E7E0191
:1048D00013179F00B3E7C701D98F131774006358EC
:1048E000070A13D71700858BD98F1317F401D98FB7
:1048F00005809306F83F635ED00813F7770001CF79
:1049000013F7F70091456308B70013874700B337E3
:10491000F7003E94BA8713177400635807003707EF
:1049200000FF7D17798C930608401307E07F634CE6
:10493000D70E13D737009317D401D98F0D803204C7
:1049400013F7F67F52073180598C7E063367C40017
:10495000B250225492540259F249624AD24A424B0E
:10496000B24B3E85BA854561828052862684CA87CD
:104970005E8789466309D70A8D46630FD708854647
:10498000E319D7F6014481479DA05686DDB72A88F2
:104990008DB78545958D13078003E345B7FE7D47A9
:1049A0006349B7041308E84133170401B3D6B700CD
:1049B000B3970701558FB337F000D98F3354B40044
:1049C00013F7770001CF13F7F70091466308D7007C
:1049D00013874700B337F7003E94BA871317840054
:1049E000634807041317D4018D83D98F0D80814646
:1049F000B9B70557158F130500023357E4008146F8
:104A00006386A5001308E843B3160401D58FB337B6
:104A1000F000D98F01446DB7370408008147930631
:104A2000F07F014629BF014481479306F07F01BF13
:104A300001448147854621B7370810007D18B378B7
:104A4000B8008E089357D501011113D7450133786B
:104A5000D800B3E7170193D8460126CA4AC8937411
:104A6000F77F13D9F5011357D6010E0806CE22CCD5
:104A70004EC693F8F87F9305F07F0E05FD823367ED
:104A800007010E066395B800B365C70099E193C6A8
:104A900016003388144163932623635C000F6395EB
:104AA0000804B366C7008DC21388F4FF631A0800B8
:104AB0002A963335A600BA97AA973285854495A8D9
:104AC0009306F07F6399D402137775006300074E55
:104AD0001377F5009146630BD74C9306450033B529
:104AE000A600AA973685D9A19306F07FE38ED4FC61
:104AF000B7068000558F9306800363C80609FD46FC
:104B000063C0060793050002B3850541B316B700DD
:104B1000B35806013316B600B3E616013336C000AB
:104B2000558E335707012A963E97B337A600BA979A
:104B3000328513978700E35907F885041307F07F40
:104B40006384E446B70680FFFD16FD8E935515007D
:104B500005899397F6014D8D5D8D93D71600ADB7FE
:104B6000930608FE93080002B356D70081456308F8
:104B700018019305000433880541B31507014D8ED4
:104B80003336C000558E014779BF598E3336C00089
:104B9000DDBF630B080AB38598408DE4B3E6A70038
:104BA000638B063E9386F5FF99E63295BA973336C6
:104BB000C500B29721B71308F07F639D0501BA873E
:104BC0003285E5AC9306F07FE38BD8FEB706800014
:104BD000D58FAE869305800363C4D506FD4563CBB0
:104BE000D502130800023308D8403353D500B395DB
:104BF000070133150501B3E565003335A0004D8D80
:104C0000B3D6D7003295B387E6003336C500B297E6
:104C1000C68405B7938506FE13030002B3D5B7001B
:104C200001486388660013080004B306D84033982F
:104C3000D7003365A8003335A0004D8D8146D9B724
:104C40005D8D3335A000DDBF9386140093F5E67FBC
:104C5000A9E5B3E6A7009DE463830634B366C70005
:104C6000E38406E62A96BA973335A600AA971397E7
:104C700087003285E35A07E4370780FF7D17F98FF5
:104C8000854499B58DDE598E630906220149B7071F
:104C9000400001459304F07F11AE9305F07F6383DC
:104CA000B6302A963E97B337A6003E971315F70104
:104CB0000582518D93571700B68439B56355000DA1
:104CC00063920808B366C700E38006E01388F4FF28
:104CD000631B08003306C5403335C500998F898FA3
:104CE00032858544B1A09306F07FE38FD4DC930630
:104CF000800363C60609FD4663CE060593050002E0
:104D0000B3850541B316B700B35806013316B60094
:104D1000B3E616013336C000558E3357070133060C
:104D2000C5403387E740B337C500B307F740328546
:104D300013978700E35A07D8370480007D147D8CD1
:104D4000AA896DA29306F07FE380D4D8B7068000CD
:104D5000558F71BF930608FE93080002B356D70023
:104D60008145630818019305000433880541B31594
:104D700007014D8E3336C000558E01474DB7598E11
:104D80003336C000DDBF6304080C3388984095E8D3
:104D9000B3E5A700638B05269305F8FF91E933057A
:104DA000A640B307F7403336A600918F368915BF6A
:104DB0001303F07F631F6800BA8732859304F07F86
:104DC0007DA09305F07FE389B8FEB7058000CD8F05
:104DD000C285130880036348B8067D48634EB80255
:104DE000130300023303B340335EB500339867000A
:104DF000331565003368C8013335A0003365A8005A
:104E0000B3D5B7003305A640B307B7403336A60085
:104E1000918FC684368929BF138805FE130E0002C0
:104E200033D8070101436388C50113030004B305A8
:104E3000B3403393B7003365A3003335A000336527
:104E4000A8008145C1B75D8D3335A000DDBF9385D6
:104E5000140093F5E57FBDE533E8A700B365C7000F
:104E6000B1E4631808006386051ABA87328536896B
:104E7000A1B9E38B05C43308C540B385E740B33817
:104E80000501B385154113948500635A0400330569
:104E9000A640B307F7403336A600918FC9BF3365EC
:104EA000B800630C0516AE87428539B9631A08004D
:104EB00063870516BA87328536899304F07F29B156
:104EC000EDDDE9B3B309C540B33535013384E740BF
:104ED0000D8C9315840063D60506B309A640B3076D
:104EE000F740333636013384C74036892DC02285DA
:104EF000652C130785FFFD4763C0E7069307000293
:104F0000998F3314E400B3D7F9005D8C3395E90031
:104F1000634D9706058F93071700FD4663C4F6049B
:104F2000130700021D8F3356F500B316E400331546
:104F3000E500D18E3335A000558DB357F400814480
:104F400061B633E589005DF181478144E9A04E8572
:104F5000A12C1305050271BF130485FD339489004C
:104F600001457DB70517130600023357E40081465B
:104F70006387C700930600049D8EB316D400558D39
:104F80003335A000598D81475DBFB70780FFFD17FE
:104F9000998CE18F15BEBA873285AE8435B6BA8753
:104FA00032851DB69304F07F814701451397870032
:104FB000635B070085041307F07F6387E406370708
:104FC00080FF7D17F98F1397D7010D81598D130736
:104FD000F07F8D836399E4005D8D814709C5B70734
:104FE00008000145014913F7F47FB2075207F24068
:104FF0006244B1839315F901D98F33E7B700D244E6
:105000004249B249BA8505618280BA873285C28435
:10501000B9BD81470145014951BF8147EDBF0145F8
:105020000149B7074000BDB18147014569BF13D7AA
:105030004501B70610009387F6FF1377F77F130635
:10504000E03FED8FFD816354E6041306D0416358C1
:10505000E600370500801345F5FF2E958280D58F39
:1050600093063043998E7D46634DD6001307D7BE15
:10507000B397E7003355D5005D8D99C93305A0403E
:10508000828013053041198D33D5A700FDB7014546
:10509000828013D74501B70610002A869387F6FF52
:1050A0001377F77F1305E03FED8FFD81635FE50226
:1050B000014591E59305E0417D5563D3E50082808C
:1050C000D58F93063043998EFD4563CAD5001307EB
:1050D000D7BEB397E7003355D6005D8D82801305A8
:1050E0003041198D33D5A70082800145828041115E
:1050F00006C622C426C231CD9357F54133C4A7005A
:105100001D8C9354F501228545201307E041A947E2
:10511000098F63CAA702AD47898F5505B357F400BD
:105120003314A4002685B2071377F77F5207B183A3
:105130007E05D98F33E7A700B240228522449244EE
:10514000BA85410182805515B317A4002685014414
:10515000D9BF01478147E5BF411122C406C62A8451
:1051600029C199201307E041A947098F63C6A70207
:10517000AD47898F5505B357F4003314A400228539
:10518000B2402244B2071377F77F5207B183B3E6E8
:10519000E700B685410182805515B317A40001448C
:1051A000F9BF81470147E1BFC1676376F502930705
:1051B000F00FB3B7A7008E07130700021D8FB35778
:1051C000F500174500001305E5EBAA9703C5070096
:1051D0003305A740828037070001C147E36EE5FC35
:1051E000E147D9BF797106D622D40018232EA4FC3A
:1051F000232CB4FC232AC4FC0327C4FD8547630980
:10520000F700A9282A87930780051CC3FD572DA8FE
:10521000832784FD2324F4FE232604FE39A80327D4
:1052200084FE8327C4FEBA9783C707003E85A12C5E
:105230008327C4FE85072326F4FE0327C4FE8327A5
:1052400044FDE36EF7FC81473E85B2502254456130
:105250008280AA85814601460145F1A897B7BF5FC4
:105260009387C74E88438280411122C406C69707A0
:105270000000938707152A8499C38145892297B72F
:10528000BF5F9387E74C88431C5591C38297228563
:10529000EF30F00D4111974700009387E72322C4B8
:1052A00017440000130444231D8C26C206C609843B
:1052B000BE8411E4B24022449244410182807D14B4
:1052C00093172400A6979C438297E5B7411197470F
:1052D00000009387272022C4174400001304841F72
:1052E0001D8C26C24AC006C6098481443E89639645
:1052F0008402974700009387E71D174400001304BA
:10530000A41D1D8C098481443E89639F8400B240A2
:105310002244924402494101828093972400CA9713
:105320009C4385048297E1B793972400CA979C43D6
:1053300085048297D9BF97B7BF5F9387A7439C43E4
:105340002A8E9DE317B7BF5F1307074397B7BF5F69
:1053500023A2E74217B5BFDF1305C5CABA8709C53F
:105360001C4123AAF18ABA87D8437D487D556347FB
:10537000E804630E0E0203A887086301080493186B
:105380002700C29823A0C80003230810054633163F
:10539000E6003363C3002320681023A0D8088946A1
:1053A0006317DE0083264810558E2322C81093060B
:1053B00017000A07D4C3BA978CC701458280797158
:1053C00052CC56CA5AC85EC606D622D426D24AD075
:1053D0004ECE62C42A8B2E8A97BABF5F938A8A39CF
:1053E000854B03A40A0011C844408329840813890B
:1053F000F4FF8A04A294635E0900B25022549254CE
:105400000259F249624AD24A424BB24B224C4561A0
:105410008280630E0A00639509007D19F114E1BFD3
:1054200093172900CE9783A70708E39847FF5840B2
:10543000DC407D176318270323222401F9DF032CA6
:1054400044006388090083A6091033972B01F98E65
:1054500089EE8297584083A70A00E31487F9E30E88
:10546000F4FA41B723A20400D1BF93162900CE96C7
:105470008C4283A64910758F01E75A858297D9BF60
:105480002E858297C1BF011106CE22CC00102326A3
:10549000A4FE0327C4FEA9476314F700354511286D
:1054A0000325C4FE3920AA873E85F2406244056187
:1054B0008280011106CE22CC00102326A4FE832573
:1054C000C4FEB707008013858772B128AA873E857E
:1054D000F240624405618280411106C622C4000880
:1054E000F16793850720B707008013858772312005
:1054F0000100B240224441018280011106CE22CC3B
:1055000000102326A4FE2324B4FE8327C4FE9C435C
:105510009C43832584FE0325C4FE82970100F2404C
:10552000624405618280011106CE22CC0010232640
:10553000A4FE2324B4FE8327C4FE9C43DC438325BE
:1055400084FE0325C4FE8297AA873E85F24062440A
:1055500005618280011106CE22CC00102326A4FE14
:105560002324B4FE8327C4FE9C43DC4B832584FEA6
:105570000325C4FE8297AA873E85F24062440561F6
:105580008280011122CE00102326A4FE0327C4FE30
:10559000B7070080938747756315F700B7070002C8
:1055A00011A081473E85724405618280011122CE9F
:1055B00000102326A4FE0327C4FEB70700809387AC
:1055C00047756314F700894711A081473E857244EF
:1055D00005618280011122CE00102326A4FE23241F
:1055E000B4FE832784FE91E7B707008093870707FF
:1055F00021A8032784FE85476317F700B7070080BB
:105600009387070711A081473E8572440561828018
:10561000011122CE00102326A4FE2324B4FE8327EA
:1056200084FE99E38D4709A8032784FE8547631408
:10563000F7009D4711A081473E8572440561828035
:105640005D7186C6A2C4CAC2CEC052DE56DC5ADA2A
:105650005ED862D666D48008232EA4FA8327C4FBC2
:105660003E8505372326A4FC0327C4FCB167F11748
:10567000BA979C432324F4FC0327C4FCB167E117C9
:10568000BA979C432322F4FC0327C4FCB167F117AB
:10569000BA979C43032784FCE318F7FC832784FC18
:1056A0003E8C814C93190C000149832744FC3E8AAF
:1056B000814A336B4901B3EB5901DA875E883E8535
:1056C000C285B640264416498649725AE25A525B50
:1056D000C25B325CA25C61618280797106D622D4A1
:1056E0004AD24ED00018232EA4FC232CB4FC23282D
:1056F000C4FC232AD4FC8327C4FD2326F4FE83277D
:10570000C4FE3E85BD3D2324A4FE832784FD8E0771
:105710003E87832784FE3E9791679107BA973E871D
:10572000FD571CC3832784FD8E073E87832784FE95
:105730003E979167BA973E87832704FD1CC3832752
:1057400044FD13D907008149832784FD8E073E87D6
:10575000832784FE3E9791679107BA974A8798C33B
:1057600081473E85B2502254125982594561828048
:10577000011106CE22CC0010232604FEF32740F1AF
:105780002326F4FE8327C4FE3E85EF30C022232467
:10579000A4FE032584FEEF30A01FAA873E85F240B9
:1057A000624405618280397106DE22DC8000232696
:1057B000A4FC0325C4FCDD3B2324A4FE8327C4FCF6
:1057C0002322F4FE832744FEDC43A9EF232604FEB4
:1057D00081A08325C4FE0325C4FCED3B2320A4FE49
:1057E0008325C4FE0325C4FC2535232EA4FC832772
:1057F00004FE9C43DC4F8326C4FC01468325C4FD84
:10580000032504FE82978327C4FE85072326F4FE22
:105810000327C4FE832784FEE34DF7FA832744FE63
:105820000547D8C30100F25062542161828039716A
:1058300006DE22DC80002326A4FC2324B4FC2322E1
:10584000C4FC2320D4FCFD572326F4FEEF10E038DF
:105850002320A4FE232404FE213F232EA4FC0325A1
:10586000C4FCA933232CA4FC032704FE854763084A
:10587000F700832704FE81C78327C4FE49A02322A3
:1058800004FE91A0832544FE0325C4FC5133232A42
:10589000A4FC832544FE0325C4FC2D3B2324A4FE45
:1058A0000327C4FD832784FE6318F700032784FCC5
:1058B000832744FD6300F702232404FE832744FE6C
:1058C00085072322F4FE032744FE832784FDE34B50
:1058D000F7FA11A00100832784FE85C3832784FE85
:1058E0009C43DC4F832604FC032644FC832584FC74
:1058F000032584FE82972326A4FE8327C4FE3E85CB
:10590000F250625421618280797122D60018232ED0
:10591000A4FC232CB4FC232AC4FC2328D4FCFD576C
:105920002326F4FE8327C4FE3E85325445618280DF
:10593000011106CE22CC00102326A4FEEF10E02990
:10594000AA873E85F240624405618280797106D65D
:1059500022D40018232EA4FC232CB4FCFD572326AC
:10596000F4FE39352324A4FE832784FE95C3032740
:1059700084FD854763EFE700832784FE9C43DC4377
:10598000832584FD032584FE82972326A4FE11A08F
:1059900001008327C4FE3E85B250225445618280B7
:1059A000397106DE22DC80002326A4FC2324B4FC0B
:1059B000FD572326F4FE832784FCD1C7232404FE4D
:1059C000453B2320A4FE0325C4FCEFF03FBE232E5D
:1059D000A4FC232204FE91A0832544FE0325C4FCDD
:1059E0000539232CA4FC832544FE0325C4FCDD36A5
:1059F0002324A4FE032704FE832784FE6318F700F4
:105A0000032784FC832784FD6300F702232404FE1C
:105A1000832744FE85072322F4FE032744FE8327C1
:105A2000C4FDE34BF7FA11A00100832784FE81CF68
:105A3000832784FE9C43DC53832584FC032584FE5A
:105A400082972326A4FE8327C4FE3E85F25062542B
:105A500021618280397106DE22DC80002326A4FCCD
:105A60002324B4FCFD572326F4FE832784FCC1CBFA
:105A7000232404FEF5392320A4FE0325C4FCEFF003
:105A8000FFB2232EA4FC232204FEA1A0832544FE02
:105A90000325C4FCEFF0DFB7232CA4FC832544FED0
:105AA0000325C4FCEFF01FB32324A4FE032704FE48
:105AB000832784FE6318F700032784FC832784FD73
:105AC0006300F702232404FE832744FE8507232274
:105AD000F4FE032744FE8327C4FDE349F7FA11A02F
:105AE0000100832784FE81CF832784FE9C439C573B
:105AF000832584FC032584FE82972326A4FE832726
:105B0000C4FE3E85F250625421618280797106D6CE
:105B100022D40018232EA4FC232CB4FC232AC4FC7A
:105B2000FD572326F4FE8327C4FD2324F4FE03251A
:105B3000C4FDEFF01FA52322A4FE032784FD89479F
