:0200000420409A
:100000009721C05F938181F097020000938282055F
:100010007390523093020000638402007350107C8E
:100020001701C0DF130101FE9700C0DF938080FD40
:10003000638300008290732540F181450146812051
:100040009700C0DF938000FC6383000082909702DA
:1000500000009382C2007390523003230000F5BF6A
:10006000F322203473231034F3233034D5BF82803D
:10007000411122C6000801003244410182800684F9
:100080009721C05F938181E81381C14C81421303A2
:1000900000406385A2001A918502E5BF137101FF3C
:1000A000930200006319550897620000938202E3EF
:1000B0001703C05F130303F593838182638C62008F
:1000C000635A730003A5020091022320A3001103C9
:1000D000E34A73FE97620000938242E01703C0E791
:1000E000130343F29703C0E79383C3F1638C620069
:1000F000635A730003A5020091022320A300110399
:10010000E34A73FE0F1000001713C05F13038362EE
:100110009383C10C63577300232003001103E34D45
:1001200073FE11C20296172500001305E500EF10BB
:10013000507CEF20A0032D3FF3271030370701003C
:1001400013078702F98F89CBF32700300967D98F0E
:100150007390073073503000054597650000938514
:1001600065A217660000130626A23120EF10D07991
:10017000A28082808280411106C2F32240F11303E3
:1001800000006385620073005010F5BFEF00900E11
:0601900092404101828053
:10020000797106D622D40018232EA4FC232CB4FC2A
:10021000232AC4FC2328D4FC832784FD9D8B91E7EB
:10022000832784FD8983860731A0832784FD898302
:10023000850786072324F4FE832744FD89C7832787
:1002400084FE910719A0832784FE2324F4FE23262D
:1002500004FE81A88327C4FE858B81E72945EF0032
:10026000D01D8327C4FE8A070327C4FDBA979C4389
:100270000326C4FEBE85B767402013850798EF00AC
:100280009017832704FD89CB8327C4FE8A070327A1
:10029000C4FDBA9723A007008327C4FE8507232641
:1002A000F4FE0327C4FE832784FEE345F7FA2945BD
:1002B000EF00B0180100B25022544561828079717C
:1002C00022D60018232EA4FC232CB4FC232AC4FC21
:1002D0000F00F00F8327C4FDBE85032684FD0BF5B8
:1002E000C5622326A4FE0F00F00F0F00F00F832736
:1002F00044FDBE850BE505642326A4FE0F00F00F28
:1003000081473E853254456182801D71A2CE8010A6
:100310002326A4FA2324B4FA8327C4FAD84F8327C8
:1003200084FA3D8F8327C4FAD8CF8327C4FA984331
:100330008327C4FA9C4B3D8F8327C4FA98C3832735
:10034000C4FAD84B8327C4FADC533D8F8327C4FA01
:10035000D8CB8327C4FA984B8327C4FADC473D8F58
:100360008327C4FA98CB8327C4FAD8538327C4FAC7
:100370009C533D8F8327C4FAD8D38327C4FA984768
:100380008327C4FADC433D8F8327C4FA98C78327A9
:10039000C4FAD84F8327C4FA9C4F3D8F8327C4FAF1
:1003A000D8CF8327C4FA98438327C4FADC4393C683
:1003B000F7FF8327C4FA9C47F58FB98F2324F4FCF9
:1003C0008327C4FAD84B8327C4FA9C4F93C6F7FF00
:1003D0008327C4FADC4FF58FB98F232EF4FC8327D3
:1003E000C4FAD8438327C4FA9C4793C6F7FF8327F0
:1003F000C4FADC47F58FB98F2326F4FC8327C4FAAF
:10040000984F8327C4FADC4F93C6F7FF8327C4FABB
:100410009C53F58FB98F2320F4FE8327C4FA9847A5
:100420008327C4FADC4793C6F7FF8327C4FA9C4BA3
:10043000F58FB98F2328F4FC8327C4FAD84F83277C
:10044000C4FA9C5393C6F7FF8327C4FADC53F58F95
:10045000B98F2322F4FE8327C4FAD8478327C4FA2E
:100460009C4B93C6F7FF8327C4FA9C43F58FB98F43
:10047000232AF4FC8327C4FA98538327C4FADC5355
:1004800093C6F7FF8327C4FADC4BF58FB98F23247B
:10049000F4FE8327C4FA984B8327C4FA9C4393C67F
:1004A000F7FF8327C4FADC43F58FB98F232CF4FCC4
:1004B0008327C4FAD8538327C4FADC4B93C6F7FFCB
:1004C0008327C4FA9C4FF58FB98F2326F4FE0327A8
:1004D000C4FC832784FCB98F2326F4FC032784FC07
:1004E000832784FDB98F2324F4FC032744FD83274D
:1004F00004FDB98F232AF4FC832704FD93C7F7FF7B
:100500002328F4FC032704FE8327C4FDB98F23208E
:10051000F4FE0327C4FD8327C4FEB98F232EF4FC09
:10052000032784FE832744FEB98F2324F4FE832708
:1005300044FE93C7F7FF2322F4FE032784FC83279E
:10054000C4FD9396D700832784FCCD83D58F3D8F40
:100550008327C4FD93964700832784FCF183D58FBE
:100560003D8F8327C4FA98C30327C4FD832784FCE7
:100570009396D7008327C4FDCD83D58F3D8F8327E6
:1005800084FC939647008327C4FDF183D58F3D8F6C
:100590008327C4FAD8CB0327C4FC8327C4FC9396D3
:1005A0003700832704FEF583D58F3D8F8327C4FC56
:1005B00093969701832704FE9D83D58F3D8F8327D4
:1005C000C4FAD8C3032704FE832704FE939637009A
:1005D0008327C4FCF583D58F3D8F832704FE939634
:1005E00097018327C4FC9D83D58F3D8F8327C4FA51
:1005F00098CF032704FD832744FE9396F7018327B2
:1006000004FD8583D58F3D8F832744FE9396A701F4
:10061000832704FD9983D58F3D8F8327C4FA98C71C
:10062000032744FE832704FD9396F701832744FEA6
:100630008583D58F3D8F832704FD9396A70183275C
:1006400044FE9983D58F3D8F8327C4FAD8CF0327E3
:1006500044FD832784FE93966701832744FDA98385
:10066000D58F3D8F832784FE9396F700832744FD23
:10067000C583D58F3D8F8327C4FAD8C7032784FE4F
:10068000832744FD93966701832784FEA983D58F32
:100690003D8F832744FD9396F700832784FEC5830F
:1006A000D58F3D8F8327C4FA98D3032784FD8327F2
:1006B000C4FE93969701832784FD9D83D58F3D8F3C
:1006C000832784FD939677018327C4FEA583D58F66
:1006D0003D8F8327C4FA98CB0327C4FE832784FD6C
:1006E000939697018327C4FE9D83D58F3D8F8327E3
:1006F000C4FE93967701832784FDA583D58F3D8F14
:100700008327C4FAD8D30100764425618280011181
:1007100006CE22CC00102326A4FE9305000F03254D
:10072000C4FEE5369305100E0325C4FEF93E93057D
:10073000200D0325C4FED13E9305300C0325C4FED5
:10074000E9369305400B0325C4FEC1369305500AD4
:100750000325C4FE5D3E930560090325C4FE75367E
:10076000930570080325C4FE4D36930580070325C5
:10077000C4FE613E930590060325C4FE79369305B9
:10078000A0050325C4FE51369305B0040325C4FE1D
:10079000AD3E0100F240624405618280797106D667
:1007A00022D40018232EA4FC232CB4FC232AC4FC3E
:1007B000832744FDA9CB0325C4FD2125232604FE60
:1007C00025A8032784FD8327C4FE8A07BA9794438C
:1007D000032784FD8327C4FE91078A07BA97DC4369
:1007E0003E86B685B76740201385879829218327E1
:1007F000C4FE85072326F4FE0327C4FE9147E3D2F7
:10080000E7FC29451D290100B25022544561828030
:100810005D7186C6A2C48008232EA4FA232CB4FAE4
:10082000232AC4FA2328D4FAB7174000938707C0B5
:100830002322F4FC93070010232CF4FC232404FC53
:10084000232E04FC232604FC232004FE232804FC7E
:10085000232204FE232A04FC232404FE930744FCE1
:10086000032604FBBE85B7674020138547993D37B3
:10087000930744FC3E85613D832784FB6384071610
:10088000B1A8032744FC8327C4FB9C43B98F2322D0
:10089000F4FC8327C4FB9107232EF4FA032784FD7D
:1008A0008327C4FB9C43B98F232CF4FC8327C4FB10
:1008B0009107232EF4FA930744FC3E85893D930764
:1008C00044FC032604FBBE85B76740201385C79A06
:1008D000F135832784FBE117232CF4FA032784FBEB
:1008E0009D47E3E0E7FA032744FC832684FB914716
:1008F00063F6D7008327C4FB9C4325A0832784FB92
:1009000085C38327C4FB9443032684FB8147918FCF
:100910008E07938707027D56B317F600F58F11A057
:100920008147B98F2322F4FC8327C4FB9107232E30
:10093000F4FA032784FD832684FB914763F1D702F1
:100940008327C4FB9443032684FB8147918F8E0742
:10095000938707047D56B317F600F58F11A08147E2
:10096000B98F232CF4FC032744FC832684FB8D479A
:1009700063EAD700832784FB8E07B7060080B3D7CE
:10098000F60011A08147B98F2322F4FC032784FDD0
:10099000832684FB8D4763F5D702832684FBA1471A
:1009A000638EF600832684FBB7070020F117B69705
:1009B0008E07B7060080B3D7F60021A0814711A0AB
:1009C0008147B98F232CF4FC930744FC032604FBD6
:1009D000BE85B76740201385879BC933930744FCC6
:1009E0003E853533232604FEA1A88327C4FE8E0747
:1009F000032744FBBA97032744FC98C38327C4FE0C
:100A00008E079107032744FBBA97032784FD98C3F9
:100A10000327C4FE894763C6E700930744FC3E856D
:100A2000FD31930744FC032604FBBE85B7674020D5
:100A3000138507A1A5338327C4FE85072326F4FE6B
:100A40000327C4FE8D47E3D2E7FA81473E85B640CF
:100A5000264461618280011122CE0010232604FE0B
:100A6000F32700B02326F4FE8327C4FE3E8572449C
:100A700005618280797106D622D40018930700029E
:100A80002326F4FE930700022324F4FE232204FE0F
:100A90008327C4FE89832320F4FE8327C4FE8D8B25
:100AA00089C7832704FE850719A0832704FE232016
:100AB000F4FEB76740201385C7A12126B707008041
:100AC00093850700B76740201385C7A22D22B7077B
:100AD00000809385077DB76740201385C7A3212A2F
:100AE000B71700809385C773B76740201385C7A4E5
:100AF0001922B7170080938507FAB767402013853E
:100B0000C7A5D528B7170080938507FBB767402096
:100B10001385C7A6CD2093854101B7674020138573
:100B2000C7A7D128232E04FCE16773900730B7676D
:100B30004020138507A97124393FAA87232CF4FC90
:100B4000138641018325C4FEB70700801385077D06
:100B5000EFF0EFF60937AA87232AF4FC032744FDB8
:100B6000832784FDB307F740BE85B7674020138510
:100B7000C7A9512085460546A14513854101EFF0DF
:100B80002FE8B7674020138587AB252CB767402037
:100B90001385C7AB3D24C135AA87232CF4FC8146BD
:100BA000138641018325C4FEB70700801385077DA6
:100BB00085315535AA87232AF4FC032744FD832772
:100BC00084FDB307F740BE85B7674020138587AC27
:100BD0001D2085460546A14513854101EFF04FE2F2
:100BE000B7674020138587ABE92A81473E85B2501D
:100BF00022544561828039713EDA2ED232D436D603
:100C00003AD842DC46DE9717C05F938727B022CCE4
:100C1000804326CA06CEAA8409C41C4C99E32285C7
:100C2000D5230C4454102686228536C6EF00F02DBD
:100C3000F2406244D2442161828001119717C05F63
:100C40009387C7AC22CC804306CEAA8519C41C4C1E
:100C500089E72AC622857D23B24510442285624455
:100C6000F240056109A0011122CC06CE2A8401C9F7
:100C70001C4D91E732C62EC471233246A2459757C8
:100C80000000938767E86315F60250401C46FD1785
:100C90001CC663DF0702184E63C7E70093F7F50F22
:100CA00029476397E70222856244F24005610DA25D
:100CB00097570000938747E76314F6001044F9B78D
:100CC00097570000938747E2E312F6FC50447DBF3C
:100CD0001C4213F5F50F1387170018C22380B700C5
:100CE000F240624405618280011126CA4AC806CEDC
:100CF00022CC4EC652C4AA842E8901C51C4D91E354
:100D000011239C4C804499E32685ED2997570000D8
:100D1000938787DF631CF402C0408357C400A18B14
:100D2000B1C71C48A1C7FD59294A1C448345090085
:100D3000FD17B1E91CC463DE07062286A945268596
:100D40004128FD576308F502294535A09757000053
:100D5000938787DD6314F4008044C1B79757000080
:100D6000938787D8E31BF4FAC04445BFA285268544
:100D7000052255D97D55F2406244D2444249B249D8
:100D8000224A056182801CC4050963D70700184CFC
:100D900063CBE700638945011C401387170018C027
:100DA0002380B70059B7228626851D20E31F35F71B
:100DB000D1B71C401387170018C029472380E700CC
:100DC00061B79717C05F93876794AA85884329BF47
:100DD000011122CC26CA4AC806CE4EC6AA842E8944
:100DE000328401C51C4D91E3312997570000938748
:100DF000A7D16319F406C0401C4C1CC48357C4001F
:100E0000A18BC9C31C48BDCF1C4808409379F90F7A
:100E10001379F90F1D8D5C486346F500A285268580
:100E2000E9242DE51C440505FD171CC41C4013874F
:100E3000170018C0238037015C486389A7008357D7
:100E4000C400858B81CBA9476316F900A28526854E
:100E5000692C0DEDF24062444A85D2444249B249C0
:100E60000561828097570000938707CC6314F400D4
:100E7000804459B797570000938707C7E31EF4F6DD
:100E8000C0449DBFA285268521203DDD7D59D9B76F
:100E900041119717C05F9387678726C2844322C496
:100EA0004AC006C62A892E8489C49C4C99E32685AB
:100EB000912E97570000938727C5631CF402C0400A
:100EC0000317C40093170701C18393F68700B5EE9B
:100ED00093F607019DEEA5472320F9001367070449
:100EE0002316E4007D55B240224492440249410158
:100EF000828097570000938727C36314F4008044CF
:100F0000C1B797570000938727BEE31BF4FAC0448C
:100F100045BF918B8DC74C5889C99307440463849E
:100F2000F5004A85C52B232A04028357C4002322D7
:100F3000040093F7B7FD2316F4001C481CC0835728
:100F4000C40093E787002316F4001C4881EF835701
:100F5000C4001307002093F707286385E700A285E4
:100F60004A85BD218357C40013F7170005C75C48A5
:100F700023240400B307F0401CCC1C480145A5F70E
:100F80008317C40013F7070839DF93E70704231614
:100F9000F40089BF898B014791E3584818C4F1BF19
:100FA00083D7C500011122CC26CA06CE4AC84EC638
:100FB00013F78700AA842E8465E7D8416347E000D1
:100FC000B8416344E0000145C1A058546DDF03A956
:100FD00004009396370123A0040063DE06066848E8
:100FE0008357C400918B99C75C401D8D5C5899C391
:100FF0003C401D8D5C540C502A8681462685829784
:10100000FD570357C400631DF5009440F54763E4A2
:10101000D708B70740208507B3D7D700858BA5CF62
:101020001C48232204001CC09317370163D8070013
:10103000FD576314F5009C4091E368C84C5823A009
:101040002401D1D1930744046384F5002685D92176
:10105000232A04028DBF0C5085460146268502973F
:10106000FD57E31FF5F69C40A5DF75476385E70054
:1010700059476395E70023A02401B1B78357C40003
:1010800093E707042316F400F2406244D244424935
:10109000B24905618280136707042316E400EDB7A7
:1010A00083A90501E38109F203A905008D8B23A023
:1010B000350133093941014791E3D84918C4E35454
:1010C00020F11C540C50CA864E8626858297634AAE
:1010D000A0008357C4007D5593E707042316F4004E
:1010E00065B7AA993309A940D9BF9C49B9CF011165
:1010F00022CC06CE2A8411C51C4D81E72EC61922AA
:10110000B24597570000938727A0639BF5004C409A
:101110008397C50095C722856244F240056149B5B1
:1011200097570000938747A06394F5000C44CDB710
:10113000975700009387479BE39CF5FC4C44C9BF3D
:10114000F24062440145056182800145828041117F
:1011500022C406C62A842316B5002317C5002320FF
:101160000500232205002324050023220506232849
:101170000500232A0500232C05002146814513057F
:10118000C505ED2497170000938767845CD09717F7
:1011900000009387C7861CD4971700009387078B9E
:1011A0005CD4971700009387C78D00D01CD8B2403D
:1011B00022444101828097050000938545F3B9A23E
:1011C000411126C2130680069384F5FFB384C4023E
:1011D0004AC02E8922C406C693854407D5262A8490
:1011E00019C92320050023222501310508C41386CF
:1011F00084068145A52C2285B240224492440249AE
:10120000410182801C4DBDE3411106C622C49707EF
:101210000000938787FA1CD59707C05F9387474FD5
:101220009C43232405042326050423280504631472
:10123000F50085471CCD2A841D2848C02285052835
:1012400008C422852D2048C44840014691450137F5
:1012500008440546A545E53D48440946C945C53D00
:1012600085471CCCB24022444101828082804111DA
:101270009707C05F9387C74926C284434AC006C602
:101280009C4C22C42A8999E32685AD3F938484042B
:101290008044DC40FD1763D607009C40B1CF8440FA
:1012A000C5BF0317C40031E7C177850723220406B1
:1012B0002320040023220400232404005CC42328E8
:1012C0000400232A0400232C040021468145130531
:1012D000C405692A232A0402232C040223240404BB
:1012E000232604042285B24022449244024941014B
:1012F00082801304840679BF91454A85D13588C020
:101300002A8451FDB1472320F900E9BF797122D425
:101310004AD052CC56CA5AC85EC606D626D24ECE3F
:101320002A8AAE8A130485040149054BFD5B09EC4A
:10133000B25022544A8592540259F249624AD24A22
:10134000424BB24B45618280044483294400FD191D
:1013500063D409000040E1BF83D7C400637BFB0076
:101360008397E40063877701A6855285829A336963
:10137000A90093848406E1BF1971A6DAAE8483952F
:10138000E500A2DC86DE328463DC050083D7C4007E
:1013900023A0060093F707089DE39307004015A0DC
:1013A000300836C6152FB246E34205FE7247BD67C8
:1013B000F98F7977BA9793B717009CC2F9BF930753
:1013C00000041CC0F6506654D65401450961828061
:1013D00083D7C500011122CC06CE26CA4AC8898B04
:1013E0002E8489CF930774041CC01CC885475CC831
:1013F000F2406244D2444249056182807400300068
:10140000AA849D3FA2452A8926855D2A01ED83177E
:10141000C40013F7072069FFF19B93E72700231609
:10142000F400C9B797070000938727D99CD4835746
:10143000C40008C008C893E707082316F400A247B1
:101440005CC8B24789CF8315E40026855D2D01C9AC
:101450008357C400F19B93E717002316F4008357CA
:10146000C4003369F9002316240159B73D432A8784
:101470006373C3029377F700BDEFADE5937606FF84
:101480003D8ABA960CC34CC30CC74CC74107E36BEB
:10149000D7FE11E28280B306C3408A06970200009D
:1014A00096966780A6002307B700A306B700230619
:1014B000B700A305B7002305B700A304B7002304B2
:1014C000B700A303B7002303B700A302B7002302AA
:1014D000B700A301B7002301B700A300B7002300A2
:1014E000B700828093F5F50F93968500D58D93967E
:1014F0000501D58D61B79396270097020000969657
:101500008682E78086FA9680C1171D8F3E96E37427
:10151000C3F8A5B7CDC583A7C5FF411122C406C630
:1015200026C21384C5FF63D307003E94AA8489258D
:101530009707C05F938707209C4389EF232204000D
:101540009707C05F23A8871E2244B2402685924495
:10155000410105A5637EF40014403307D40063966F
:10156000E7009843DC43369718C05CC0D1BFBA8708
:10157000D84319C3E37DE4FE94433386D700631F49
:1015800086001040B29694C33386D700E31EC7FA94
:1015900010435843B29694C3D8C37DB76375C40053
:1015A000B1479CC055B71040B306C4006316D700BE
:1015B00014435843B29614C058C0C0C371B7828058
:1015C000011126CA93843500F19806CE22CC4AC870
:1015D0004EC6A104B14763F7F404B14463E6B40412
:1015E0002A8979239707C05F9387C71498433A8461
:1015F00031E49707C05F938727149C4381EB8145B3
:101600004A8545269707C05F23A8A712A6854A8565
:10161000492EFD5963193507B1472320F9004A8542
:10162000892B29A0E3DC04FAB1471CC10145F24033
:101630006244D2444249B249056182801C40858F90
:1016400063C00704AD4663F6F6001CC03E9404C0B8
:1016500001A85C40631487021707C05F232CF70CB6
:101660004A85012B1305B4009307440061993307A1
:10167000F54055DF3A94898F1CC055BF5CC3CDB788
:1016800022874040B5B7130435007198E30185FC0B
:10169000B305A4404A853126E31B35FBB5BF1C4684
:1016A000FD171CC663DA0700184E63C5E700A9479B
:1016B0006394F5006FF0CFF11C422E85138717005D
:1016C00018C22380B7008280011122CC26CA4AC8E2
:1016D0004EC652C406CE2A89AE893284B304D600DF
:1016E0007D5A63149400014509A8834504004E8681
:1016F0004A8575370504E31645FFF2406244D2443B
:101700004249B249224A05618280357122CD26CBF9
:101710004AC94EC706CF52C556C35AC1DEDEE2DC07
:10172000E6DAAA89AE843289368401C51C4D91E37C
:10173000D13C974700009387273D639BF40C83A41B
:10174000490083D7C400A18BF5C79C48E5C7930720
:101750000002A304F1029307000302D22305F10261
:1017600022C6930B5002974A0000938AEA3D054C2B
:10177000294B4A848347040099C36390770FB30CC5
:101780002441638D0C00E6864A86A6854E852D3F52
:10179000FD576306F51E9256E69636D2834704003F
:1017A000638F071CFD571309140002C802CE3ECAFE
:1017B00002CCA309010482D483450900154656854D
:1017C000592E13041900C24759E913F7070109C735
:1017D00013070002A309E10413F7870009C71307E1
:1017E000B002A309E104834609001307A002638045
:1017F000E608F2474A8481462546034704009305DC
:101800001400130707FD6379E60AB5CA3ECE85A822
:1018100097470000938747316395F40083A48900BC
:101820000DB7974700009387272CE39CF4F083A41F
:10183000C90001BFA6854E85EFF08FE509D97D551A
:10184000FA406A44DA444A49BA492A4A9A4A0A4B4F
:10185000F65B665CD65C0D618280050421BF3305B2
:1018600055413315AC00C98F3EC82289B1B7324704
:1018700093064700184336C6634907023ACE03472A
:1018800004009307E002631FF70403471400930763
:10189000A002631BF702B2470904138747009C4369
:1018A0003AC663C107023ECA35A83307E04093E752
:1018B00027003ACE3EC8E1B7B387670385462E843A
:1018C000BA9725BFFD57C5B7050402CA81468147AF
:1018D00025460347040093051400130707FD6376AC
:1018E000E606F1F2834504000D4617450000130596
:1018F0002526952411CD97470000938767251D8DD8
:1019000093070004B397A700424505045D8D2AC8DC
:10191000834504001946174500001305A523130944
:1019200014002304B102052C3DC197E7BFDF938764
:10193000676D95E74247B2471377071009CF9107C4
:101940003EC69257D2973ED22DB5B38767038546E0
:101950002E84BA97BDBF9D07E19BA107D5B778003C
:1019600097060000938686D626860C084E8597003B
:101970000000E7000000FD572A8AE314F5FC83D736
:10198000C40093F70704E39C07EA125555BD78009D
:1019900097060000938686D326860C084E85CD24B4
:1019A000D9BF411122C42A842E8523A4010C06C666
:1019B000A92DFD576317F5009387810C9C4391C3B4
:1019C0001CC0B240224441018280411122C42E84B5
:1019D0008395E50006C6B123634905007C48AA97B4
:1019E0007CC8B2402244410182808357C4007D7785
:1019F0007D17F98F2316F400EDB783D7C5000111C9
:101A000022CC26CA4AC84EC606CE93F70710AA842F
:101A10002E843289B68991C78395E50089460146AF
:101A200029228357C4007D777D17F98F2316F40090
:101A30008315E4006244F240CE864A86B2494249A8
:101A40002685D24405613DA8411122C42E84839588
:101A5000E50006C6D928FD570357C400631BF500EF
:101A6000FD77FD17F98F2316F400B240224441019F
:101A700082808567D98F2316F40068C8FDB78395E7
:101A8000E5003DA0411122C42A842E85B285368608
:101A900023A4010C06C6FD23FD576317F5009387A9
:101AA000810C9C4391C31CC0B240224441018280FE
:101AB000411122C42A842E8523A4010C06C6412983
:101AC000FD576317F5009387810C9C4391C31CC09D
:101AD000B240224441018280411122C42A842E85D1
:101AE000B28523A4010C06C66121FD576317F500DA
:101AF0009387810C9C4391C31CC0B2402244410196
:101B00008280411122C42A842E8523A4010C06C69A
:101B10005921FD576317F5009387810C9C4391C3AE
:101B20001CC0B240224441018280411122C42A8457
:101B30002E85B285368623A4010C06C6AD29FD5735
:101B40006317F5009387810C9C4391C31CC0B2407E
:101B500022444101828093F5F50F2A966314C50053
:101B60000145828083470500E38DB7FE0505FDB77B
:101B700082808280797156CA9C49BA8A984522D45B
:101B800026D24ECE52CC06D64AD05AC85EC6AA89B4
:101B90002E84B284368A63D3E700BA879CC0034799
:101BA000340419C385079CC01C4093F7070281C702
:101BB0009C4089079CC00329040013796900631ABB
:101BC0000900130B9401FD5B5C449840998F634CB2
:101BD000F9041C408346340493F70702B336D0005F
:101BE000A5EB13063404D2854E85829AFD57630314
:101BF000F5041C4011469840998B544481446397E6
:101C0000C700B384E64063D3040081441C441848F1
:101C10006354F700998FBE94014969047D5B639812
:101C20002405014509A885465A86D2854E85829AA3
:101C3000631E75017D55B250225492540259F249E7
:101C4000624AD24A424BB24B456182800509ADBF20
:101C50003307D40013060003A301C7040347540449
:101C600093871600A2978906A381E7049DBF854646
:101C70002286D2854E85829AE30E65FB050945B71B
:101C8000797122D426D24AD04ECE06D652CC56CA2C
:101C90005AC8B68983C685019307E0063289AA84AB
:101CA0002E84138635046380F61E63E2D7069307FD
:101CB00030066382F60A63EDD700638A061E930737
:101CC00080056386F616930A24042301D40469A8C8
:101CD000930740066386F60093079006E395F6FEA9
:101CE0001C40084393F6070893054500C1C21C41F8
:101CF0000CC363D807001307D002B307F040A30159
:101D0000E40497460000938666E5294765A093079B
:101D100030076382F61A63EFD7009307F006638FEC
:101D2000F60493070007E390F6FA9C4193E7070255
:101D30009CC109A8930750076382F60493078007A4
:101D4000E393F6F893078007A302F4049746000094
:101D5000938606E2DDA01C43938A25049386470000
:101D60009C4314C32381F5048547ADA293F6070471
:101D70001C410CC3BDDEC207C187A5BF0C401C437C
:101D800013F80508138547006305080008C39C4342
:101D900039A093F5050408C3FDD983D707001307BD
:101DA000F006638AE60C97460000938626DB2947F7
:101DB000A30104044C400CC463C5050008406D99A0
:101DC00008C099E3B28A91CDB28AB3F5E702FD1A51
:101DD000B69583C505002380BA00B3D5E70263F248
:101DE000E70AA147631EF7001C40858B91CB584042
:101DF0001C4863C7E70093070003A38FFAFEFD1A90
:101E00003306564110C84E87CA867000A2852685C3
:101E100095337D5A6314450D7D55B250225492542A
:101E20000259F249624AD24A424B45618280A382FA
:101E3000D50497460000938666D20C40084313F8F9
:101E400005081C4111056300080208C313F71500BB
:101E500001C793E505020CC04147B9FB0C4093F55F
:101E6000F5FD0CC0B1B713F8050408C3E30008FE84
:101E7000C207C183E1BF97460000938626CE214763
:101E800005BFAE8799B794411C43CC4913F80608A7
:101E9000138547006306080008C39C438CC301A850
:101EA00008C393F606049C43F5DA2390B700232871
:101EB0000400B28A89BF1C43D04181459386470004
:101EC00014C383AA07005685793101C533055541EE
:101ED00048C05C401CC8A301040435B714485686AA
:101EE000CA8526858299E30945F31C40898B8DE7D5
:101EF000B2474844E353F5F23E8505B7854656861A
:101F0000CA8526858299E30965F1050A5C44324752
:101F1000998FE345FAFEE9BF014A930A94017D5B7C
:101F2000F5B7411122C42A842E85B285368623A4B2
:101F3000010C06C67520FD576317F5009387810CC9
:101F40009C4391C31CC0B2402244410182800111D4
:101F500006CE22CC00102326A4FE4D222A8793070A
:101F600080051CC3FD573E85F240624405618280B6
:101F7000011106CE22CC00102326A4FE2324B4FE99
:101F8000B52A2A87930780FA1CC3FD573E85F24085
:101F9000624405618280011122CE00102326A4FE36
:101FA0008327C4FEFD1793B7170093F7F70F3E85FD
:101FB000724405618280011106CE22CC00102326D6
:101FC000A4FE2324B4FE2322C4FE0D2A2A879307ED
:101FD00080051CC3FD573E85F24062440561828046
:101FE000011106CE22CC00102326A4FE2324B4FE29
:101FF0002322C4FE21222A87930780051CC3FD5794
:102000003E85F240624405618280797122D60018D3
:10201000232EA4FCB717008083A707712326F4FEA4
:102020001387C14CB7370080938747BD6314F7000F
:10203000FD57A9A0B717008003A707718327C4FD28
:102040003E97B7370080938747BD6370F702B71795
:10205000008003A707718327C4FD3E97B717008050
:1020600023A8E7708327C4FE11A8B717008037376D
:102070000080130747BD23A8E770FD573E85325403
:1020800045618280797106D622D40018232EA4FCE3
:10209000232CB4FC232AC4FC0327C4FD8547630911
:1020A000F700A9282A87930780051CC3FD572DA890
:1020B000832784FD2324F4FE232604FE39A8032766
:1020C00084FE8327C4FEBA9783C707003E85912C00
:1020D0008327C4FE85072326F4FE0327C4FE832737
:1020E00044FDE36EF7FC81473E85B25022544561C2
:1020F0008280AA85814601460145F1A897F7BF5F16
:102100009387C76088438280411122C406C697071F
:1021100000009387C7142A8499C381453D2A97F705
:10212000BF5F9387E75E88431C5591C382972285E2
:10213000EF30F0034111974700009387E7D922C49D
:1021400017440000130444D91D8C26C206C6098416
:10215000BE8411E4B24022449244410182807D1445
:1021600093172400A6979C438297E5B741119747A0
:102170000000938727D622C417440000130484D597
:102180001D8C26C24AC006C6098481443E896396D6
:102190008402974700009387E7D317440000130495
:1021A000A4D31D8C098481443E89639F8400B2407E
:1021B0002244924402494101828093972400CA97A5
:1021C0009C4385048297E1B793972400CA979C4368
:1021D00085048297D9BF97F7BF5F938727569C43A3
:1021E0002A8E8DE31387C10397F7BF5F23A8E754B7
:1021F00017E5BFDF130505E1BA8709C51C4123A216
:10220000F10CBA87D8437D487D556347E804630ED7
:102210000E0203A887086301080493182700C298D8
:1022200023A0C8000323081005463316E6003363D5
:10223000C3002320681023A0D80889466317DE0056
:1022400083264810558E2322C810930617000A07CC
:10225000D4C3BA978CC701458280797152CC56CAD3
:102260005AC85EC606D622D426D24AD04ECE62C402
:102270002A8B2E8A97FABF5F938A4A4C854B03A418
:102280000A0011C84440832984081389F4FF8A0492
:10229000A294635E0900B250225492540259F2494A
:1022A000624AD24A424BB24B224C45618280630E55
:1022B0000A00639509007D19F114E1BF9317290005
:1022C000CE9783A70708E39847FF5840DC407D1767
:1022D0006318270323222401F9DF032C44006388B9
:1022E000090083A6091033972B01F98E89EE829796
:1022F000584083A70A00E31487F9E30EF4FA41B7C4
:1023000023A20400D1BF93162900CE968C4283A647
:102310004910758F01E75A858297D9BF2E8582971C
:10232000C1BF011106CE22CC00102326A4FE032734
:10233000C4FEA9476314F700354511280325C4FEE0
:102340003920AA873E85F2406244056182800111EE
:1023500006CE22CC00102326A4FE8325C4FEB71788
:1023600000801385876EB128AA873E85F2406244BB
:1023700005618280411106C622C40008F167938579
:102380000720B71700801385876E31200100B24007
:10239000224441018280011106CE22CC0010232666
:1023A000A4FE2324B4FE8327C4FE9C439C438325C0
:1023B00084FE0325C4FE82970100F2406244056159
:1023C0008280011106CE22CC00102326A4FE2324F5
:1023D000B4FE8327C4FE9C43DC43832584FE03258F
:1023E000C4FE8297AA873E85F240624405618280DE
:1023F000011106CE22CC00102326A4FE2324B4FE15
:102400008327C4FE9C43DC4B832584FE0325C4FE46
:102410008297AA873E85F24062440561828001115D
:1024200022CE00102326A4FE0327C4FE9387018139
:102430006315F700B707000211A081473E8572447B
:1024400005618280011122CE00102326A4FE0327FD
:10245000C4FE938701816314F700894711A0814767
:102460003E85724405618280011122CE0010232630
:10247000A4FE2324B4FE832784FE91E7B7170080CF
:102480009387070321A8032784FE85476317F70076
:10249000B71700809387070311A081473E857244D8
:1024A00005618280011122CE00102326A4FE232480
:1024B000B4FE832784FE99E38D4709A8032784FE91
:1024C00085476314F7009D4711A081473E857244FC
:1024D000056182805D7186C6A2C4CAC2CEC052DECA
:1024E00056DC5ADA5ED862D666D48008232EA4FA67
:1024F0008327C4FB3E8525372326A4FC0327C4FC81
:10250000B167F117BA979C432324F4FC0327C4FC5A
:10251000B167E117BA979C432322F4FC0327C4FC5C
:10252000B167F117BA979C43032784FCE318F7FCC3
:10253000832784FC3E8C814C93190C00014983272E
:1025400044FC3E8A814A336B4901B3EB5901DA8777
:102550005E883E85C285B640264416498649725A31
:10256000E25A525BC25B325CA25C6161828079712B
:1025700006D622D44AD24ED00018232EA4FC232CF7
:10258000B4FC2328C4FC232AD4FC8327C4FD2326BF
:10259000F4FE8327C4FE3E8559352324A4FE8327F9
:1025A00084FD8E073E87832784FE3E9791679107BF
:1025B000BA973E87FD571CC3832784FD8E073E874D
:1025C000832784FE3E979167BA973E87832704FD51
:1025D0001CC3832744FD13D907008149832784FD49
:1025E0008E073E87832784FE3E9791679107BA97AF
:1025F0004A8798C381473E85B25022541259825966
:1026000045618280011106CE22CC0010232604FEF3
:10261000F32740F12326F4FE8327C4FE3E85EF30E6
:10262000801C2324A4FE032584FEEF306019AA87B2
:102630003E85F240624405618280397106DE22DC0B
:1026400080002326A4FC0325C4FCED3B2324A4FE28
:102650008327C4FC2322F4FE832744FEDC43A9EF36
:10266000232604FE81A08325C4FE0325C4FCED3B84
:102670002320A4FE8325C4FE0325C4FC2535232E78
:10268000A4FC832704FE9C43DC4F8326C4FC014644
:102690008325C4FD032504FE82978327C4FE850796
:1026A0002326F4FE0327C4FE832784FEE34DF7FAB6
:1026B000832744FE0547D8C30100F25062542161CC
:1026C0008280397106DE22DC80002326A4FC2324CC
:1026D000B4FC2322C4FC2320D4FCFD572326F4FEA3
:1026E000EF1060332320A4FE232404FE213F232E79
:1026F000A4FC0325C4FCB933232CA4FC032704FE4B
:1027000085476308F700832704FE81C78327C4FE3B
:1027100049A0232204FE91A0832544FE0325C4FC86
:102720005133232AA4FC832544FE0325C4FC2D3BFE
:102730002324A4FE0327C4FD832784FE6318F70027
:10274000032784FC832744FD6300F702232404FE4F
:10275000832744FE85072322F4FE032744FE8327B4
:1027600084FDE34BF7FA11A00100832784FE85C3A3
:10277000832784FE9C43DC4F832604FC032644FC11
:10278000832584FC032584FE82972326A4FE8327C9
:10279000C4FE3E85F250625421618280797122D656
:1027A0000018232EA4FC232CB4FC232AC4FC2328C9
:1027B000D4FCFD572326F4FE8327C4FE3E85325405
:1027C00045618280011106CE22CC00102326A4FE92
:1027D000EF106024AA873E85F24062440561828042
:1027E000797106D622D40018232EA4FC232CB4FC25
:1027F000FD572326F4FE39352324A4FE832784FEC7
:1028000095C3032784FD854763EFE700832784FE94
:102810009C43DC43832584FD032584FE8297232685
:10282000A4FE11A001008327C4FE3E85B2502254AD
:1028300045618280397106DE22DC80002326A4FCFB
:102840002324B4FCFD572326F4FE832784FCC9C748
:10285000232404FE453B2320A4FE0325C4FCDD36CF
:10286000232EA4FC232204FE91A0832544FE0325ED
:10287000C4FC0D39232CA4FC832544FE0325C4FC91
:10288000E5362324A4FE032704FE832784FE631871
:10289000F700032784FC832784FD6300F7022324C9
:1028A00004FE832744FE85072322F4FE032744FE0B
:1028B0008327C4FDE34BF7FA11A00100832784FEB0
:1028C00081CF832784FE9C43DC53832584FC03252E
:1028D00084FE82972326A4FE8327C4FE3E85F25001
:1028E000625421618280397106DE22DC8000232659
:1028F000A4FC2324B4FCFD572326F4FE832784FC88
:10290000D9C7232404FEFD392320A4FE0325C4FCDB
:10291000EFF05FB3232EA4FC232204FE99A08325AD
:1029200044FE0325C4FCBD3E232CA4FC832544FEA9
:102930000325C4FCEFF05FB32324A4FE032704FEA9
:10294000832784FE6318F700032784FC832784FD14
:102950006300F702232404FE832744FE8507232215
:10296000F4FE032744FE8327C4FDE34AF7FA11A0CF
:102970000100832784FE81CF832784FE9C439C57DC
:10298000832584FC032584FE82972326A4FE8327C7
:10299000C4FE3E85F250625421618280797106D670
:1029A00022D40018232EA4FC232CB4FC232AC4FC1C
:1029B000FD572326F4FE8327C4FD2324F4FE0325BC
:1029C000C4FDEFF0DFA52322A4FE032784FD894781
:1029D0006309F704032784FD894763C8E7000327D9
:1029E00084FD8547630EF700F1A8032784FD8D471A
:1029F000630DF704032784FD91476309F708D9A005
:102A0000832744FDCDCB032584FEEFF0BFACAA871E
:102A10002E88032744FD1CC323220701232604FE1E
:102A200059A8832744FDD1CB832744FD9C43232011
:102A3000F4FE832704FE8A073E87832744FEBA9765
:102A400023A00700232604FE8DA8832744FDA5CBE1
:102A5000832744FD9C432320F4FE832704FE8A073A
:102A60003E87832744FEBA973E8785471CC30F00E5
:102A70008004832704FE8A073E87832744FEBA9793
:102A80009C432326F4FE232604FE15A8232604FED9
:102A9000832744FD9DC7832744FD9C432320F4FEE8
:102AA000832704FE8A073E87832744FEBA979C4308
:102AB0002326F4FE39A0010031A0010021A001006D
:102AC00011A001008327C4FE3E85B2502254456107
:102AD0008280797106D622D40018232EA4FC232CE0
:102AE000B4FCEF20F052AA872326F4FE9307C4FE1D
:102AF0003E8689450325C4FD5535AA873E85B250DB
:102B0000225445618280797106D622D40018232E82
:102B1000A4FC232CB4FCEF20B04FAA872326F4FE9C
:102B20009307C4FE3E868D450325C4FD853DAA87D7
:102B30003E85B250225445618280011122CE0010A0
:102B40002326A4FE0327C4FE938781816314F70024
:102B5000814711A0FD573E857244056182800111B5
:102B600022CE00102326A4FE0327C4FE9387818172
:102B70006317F700B7470F009387072411A0814719
:102B80003E85724405618280011122CE0010232609
:102B9000A4FE0327C4FE938781816317F700B7174C
:102BA00000809387070311A081473E857244056129
:102BB0008280011122CE00102326A4FE8327C4FEAA
:102BC000634AF0000327C4FE0A079387C180BA97BF
:102BD0009C4311A081473E857244056182800111AA
:102BE00022CE0010F32740F12326F4FE8327C4FEF3
:102BF0003E85724405618280011122CE0010A147FA
:102C0000F3A707302326F4FE010072440561828099
:102C1000011122CE0010A147F3B707302326F4FE9E
:102C20000100724405618280011122CE0010A1478B
:102C3000F3A747302326F4FE010072440561828029
:102C4000011122CE0010A147F3B747302326F4FE2E
:102C50000100724405618280011122CE00109307A9
:102C60000008F3A747302326F4FE010072440561F3
:102C70008280011122CE001093070008F3B747307D
:102C80002326F4FE0100724405618280011122CEE8
:102C90000010856793870780F3A747302326F4FE4B
:102CA0000100724405618280011122CE0010856707
:102CB00093870780F3B747302326F4FE0100724460
:102CC00005618280797122D60018232EA4FC832707
:102CD000C4FD0547B317F7002326F4FE8327C4FE7F
:102CE000F3A747302324F4FE01003254456182806B
:102CF000797122D60018232EA4FC8327C4FD054732
:102D0000B317F7002326F4FE8327C4FEF3B747303A
:102D10002324F4FE0100325445618280011106CE65
:102D200022CC00102326A4FE2324B4FE1305400663
:102D3000EF20B02F011106CE22CC00102326A4FED6
:102D40002324B4FE1305800CEF20302E5D7186C65F
:102D500096C49AC29EC022DE2ADC2EDA32D836D63B
:102D60003AD43ED242D046CE72CC76CA7AC87EC61B
:102D700080081305C012EF20502B1D7186CE96CC13
:102D80009ACA9EC8A2C6AAC4AEC2B2C036DE3ADC97
:102D90003EDA42D846D672D476D27AD07ECE801031
:102DA0003D3D2A870A079387C180BA979C43232613
:102DB000F4FA8327C4FA85C70325C4FAF133232420
:102DC000A4FA832784FA83A7070E2322F4FA832721
:102DD00084FA83A7870D832544FA0D458297010065
:102DE000F640E6425643C6433644264596450646D7
:102DF000F2566257D2574258B258225E925E025F34
:102E0000F24F256173002030797106D622D4001864
:102E1000232EA4FC232CB4FCD9332A870A079387DA
:102E2000C180BA979C432326F4FEF3272034232441
:102E3000F4FE8327C4FE95C70325C4FEB1332322C5
:102E4000A4FE832784FE93F7F73F032744FE93876E
:102E5000070E8A07BA979C478325C4FD0325C4FE45
:102E600082970100B2502254456182801D7186CE46
:102E700096CC9ACA9EC8A2C6AAC4AEC2B2C036DE5A
:102E80003ADC3EDA42D846D672D476D27AD07ECEBA
:102E90008010B1332A870A079387C180BA979C4371
:102EA0002326F4FA8327C4FA85C70325C4FAE9392F
:102EB0002324A4FA832784FA83A707142322F4FA8D
:102EC000832784FA83A78713832544FA1D458297B5
:102ED0000100F640E6425643C64336442645964531
:102EE0000646F2566257D2574258B258225E925E58
:102EF000025FF24F256173002030797106D622D42B
:102F00000018232EA4FC232CB4FCD139AA873E85BB
:102F10004D312326A4FE0325C4FEEF1060152320A7
:102F2000A4FE2322B4FE832704FE032844FEA94501
:102F30000146B386B70036853335F5003307C80040
:102F4000B307E5003E87B6873A88BE8542860325EB
:102F5000C4FEEF1040180100B25022544561828037
:102F60000000000000000000000000000000000061
:102F70000000000000000000000000000000000051
:102F8000197186DE96DC9ADA9ED8A2D6AAD4AED281
:102F9000B2D0B6CEBACCBECAC2C8C6C6F2C4F6C299
:102FA000FAC07EDE0001EFF09FC32A870A079387ED
:102FB000C180BA979C432326F4FAF32720342324B4
:102FC000F4FAF32710342322F4FAF32730342320C1
:102FD000F4FAF3275030232EF4F88327C4FAE9C714
:102FE0000325C4FAEFF05FBA232CA4F8832784FAF0
:102FF00093F7F73F232AF4F8832784FA63D8070866
:10300000032744F9AD4763D7E7008327C4F993F753
:10301000F7039DEF832684F9032744F9BA878607CF
:10302000BA978E07B69783A787092326F4F88326D5
:1030300084F9032744F9BA878607BA978E07B697AB
:1030400083A707098325C4F8032544F98297A9A813
:103050008327C4F913F7F70389476317F704F327A6
:1030600070302328F4F8832784F983A7C70D23261B
:10307000F4F8832704F99C432324F4F8832784F885
:103080008325C4F8032544F9829739A8032784F9D6
:10309000832744F99387070E8A07BA979C478325AD
:1030A00044F90325C4FA8297F650E6525653C653A4
:1030B0003654265596550656F6466647D647464830
:1030C000B648264E964E064FF25F096173002030D7
:1030D00000000000000000000000000000000000F0
:1030E00000000000000000000000000000000000E0
:1030F0000000000000001D7186CE96CC9ACA9EC8C2
:10310000A2C6AAC4AEC2B2C036DE3ADC3EDA42D8AB
:1031100046D672D476D27AD07ECE8010EFF03FAC15
:103120002A870A079387C180BA979C432326F4FA1B
:103130008327C4FA8DC70325C4FAEFF0FFA4232424
:10314000A4FA832784FA83A787212322F4FA83270A
:1031500084FA83A70721832544FA41458297010019
:10316000F640E6425643C643364426459645064653
:10317000F2566257D2574258B258225E925E025FB0
:10318000F24F2561730020301D7186CE96CC9ACA0D
:103190009EC8A2C6AAC4AEC2B2C036DE3ADC3EDACF
:1031A00042D846D672D476D27AD07ECE8010EFF056
:1031B0001FA32A870A079387C180BA979C432326B7
:1031C000F4FA8327C4FA8DC70325C4FAEFF0DF9B16
:1031D0002324A4FA832784FA83A707232322F4FA5B
:1031E000832784FA83A78722832544FA454582975B
:1031F0000100F640E6425643C6433644264596450E
:103200000646F2566257D2574258B258225E925E34
:10321000025FF24F2561730020301D7186CE96CC7F
:103220009ACA9EC8A2C6AAC4AEC2B2C036DE3ADCF2
:103230003EDA42D846D672D476D27AD07ECE80108C
:10324000EFF0FF992A870A079387C180BA979C43BA
:103250002326F4FA8327C4FA8DC70325C4FAEFF0B6
:10326000BF922324A4FA832784FA83A787242322E6
:10327000F4FA832784FA83A70724832544FA49456F
:1032800082970100F640E6425643C643364426453F
:1032900096450646F2566257D2574258B258225EB9
:1032A000925E025FF24F2561730020301D7186CE61
:1032B00096CC9ACA9EC8A2C6AAC4AEC2B2C036DE16
:1032C0003ADC3EDA42D846D672D476D27AD07ECE76
:1032D0008010EFF0DF902A870A079387C180BA97A2
:1032E0009C432326F4FA8327C4FA8DC70325C4FA26
:1032F000EFF09F892324A4FA832784FA83A7072663
:103300002322F4FA832784FA83A78725832544FAA6
:103310004D4582970100F640E6425643C643364487
:10332000264596450646F2566257D2574258B2583D
:10333000225E925E025FF24F2561730020301D71A4
:1033400086CE96CC9ACA9EC8A2C6AAC4AEC2B2C045
:1033500036DE3ADC3EDA42D846D672D476D27AD01D
:103360007ECE8010EFF0BF872A870A079387C1803F
:10337000BA979C432326F4FA8327C4FA8DC7032502
:10338000C4FAEFF07F802324A4FA832784FA83A76A
:1033900087272322F4FA832784FA83A70727832524
:1033A00044FA514582970100F640E6425643C6432F
:1033B0003644264596450646F2566257D25742583D
:1033C000B258225E925E025FF24F25617300203098
:1033D0001D7186CE96CC9ACA9EC8A2C6AAC4AEC299
:1033E000B2C036DE3ADC3EDA42D846D672D476D265
:1033F0007AD07ECE8010EFF08FFE2A870A0793875F
:10340000C180BA979C432326F4FA8327C4FA8DC758
:103410000325C4FAEFF04FF72324A4FA832784FA94
:1034200083A707292322F4FA832784FA83A787280E
:10343000832544FA554582970100F640E6425643FB
:10344000C6433644264596450646F2566257D2573D
:103450004258B258225E925E025FF24F25617300BD
:1034600020301D7186CE96CC9ACA9EC8A2C6AAC428
:10347000AEC2B2C036DE3ADC3EDA42D846D672D4AC
:1034800076D27AD07ECE8010EFF06FF52A870A07C9
:103490009387C180BA979C432326F4FA8327C4FA02
:1034A0008DC70325C4FAEFF02FEE2324A4FA832757
:1034B00084FA83A7872A2322F4FA832784FA83A72E
:1034C000072A832544FA594582970100F640E642CF
:1034D0005643C6433644264596450646F25662573D
:1034E000D2574258B258225E925E025FF24F256177
:1034F000730020301D7186CE96CC9ACA9EC8A2C693
:10350000AAC4AEC2B2C036DE3ADC3EDA42D846D6F3
:1035100072D476D27AD07ECE8010EFF04FEC2A872C
:103520000A079387C180BA979C432326F4FA83271E
:10353000C4FA8DC70325C4FAEFF00FE52324A4FADB
:10354000832784FA83A7072C2322F4FA832784FA9B
:1035500083A7872B832544FA5D4582970100F640B7
:10356000E6425643C6433644264596450646F2563D
:103570006257D2574258B258225E925E025FF24FB3
:103580002561730020301D7186CE96CC9ACA9EC8E4
:10359000A2C6AAC4AEC2B2C036DE3ADC3EDA42D817
:1035A00046D672D476D27AD07ECE8010EFF02FE35A
:1035B0002A870A079387C180BA979C432326F4FA87
:1035C0008327C4FA8DC70325C4FAEFF0EFDB232469
:1035D000A4FA832784FA83A7872D2322F4FA83276A
:1035E00084FA83A7072D832544FA61458297010059
:1035F000F640E6425643C6433644264596450646BF
:10360000F2566257D2574258B258225E925E025F1B
:10361000F24F2561730020301D7186CE96CC9ACA78
:103620009EC8A2C6AAC4AEC2B2C036DE3ADC3EDA3A
:1036300042D846D672D476D27AD07ECE8010EFF0C1
:103640000FDA2A870A079387C180BA979C432326FB
:10365000F4FA8327C4FA8DC70325C4FAEFF0CFD25A
:103660002324A4FA832784FA83A7072F2322F4FABA
:10367000832784FA83A7872E832544FA654582979A
:103680000100F640E6425643C64336442645964579
:103690000646F2566257D2574258B258225E925EA0
:1036A000025FF24F2561730020301D7186CE96CCEB
:1036B0009ACA9EC8A2C6AAC4AEC2B2C036DE3ADC5E
:1036C0003EDA42D846D672D476D27AD07ECE8010F8
:1036D000EFF0EFD02A870A079387C180BA979C43FF
:1036E0002326F4FA8327C4FA8DC70325C4FAEFF022
:1036F000AFC92324A4FA832784FA83A7873023221F
:10370000F4FA832784FA83A70730832544FA6945AE
:1037100082970100F640E6425643C64336442645AA
:1037200096450646F2566257D2574258B258225E24
:10373000925E025FF24F2561730020301D7186CECC
:1037400096CC9ACA9EC8A2C6AAC4AEC2B2C036DE81
:103750003ADC3EDA42D846D672D476D27AD07ECEE1
:103760008010EFF0CFC72A870A079387C180BA97E6
:103770009C432326F4FA8327C4FA8DC70325C4FA91
:10378000EFF08FC02324A4FA832784FA83A707329B
:103790002322F4FA832784FA83A78731832544FA06
:1037A0006D4582970100F640E6425643C6433644D3
:1037B000264596450646F2566257D2574258B258A9
:1037C000225E925E025FF24F2561730020301D7110
:1037D00086CE96CC9ACA9EC8A2C6AAC4AEC2B2C0B1
:1037E00036DE3ADC3EDA42D846D672D476D27AD089
:1037F0007ECE8010EFF0AFBE2A870A079387C18084
:10380000BA979C432326F4FA8327C4FA8DC703256D
:10381000C4FAEFF06FB72324A4FA832784FA83A7AE
:1038200087332322F4FA832784FA83A70733832577
:1038300044FA714582970100F640E6425643C6437A
:103840003644264596450646F2566257D2574258A8
:10385000B258225E925E025FF24F25617300203003
:103860001D7186CE96CC9ACA9EC8A2C6AAC4AEC204
:10387000B2C036DE3ADC3EDA42D846D672D476D2D0
:103880007AD07ECE8010EFF08FB52A870A07938713
:10389000C180BA979C432326F4FA8327C4FA8DC7C4
:1038A0000325C4FAEFF04FAE2324A4FA832784FA49
:1038B00083A707352322F4FA832784FA83A7873462
:1038C000832544FA754582970100F640E642564347
:1038D000C6433644264596450646F2566257D257A9
:1038E0004258B258225E925E025FF24F2561730029
:1038F00020301D7186CE96CC9ACA9EC8A2C6AAC494
:10390000AEC2B2C036DE3ADC3EDA42D846D672D417
:1039100076D27AD07ECE8010EFF06FAC2A870A077D
:103920009387C180BA979C432326F4FA8327C4FA6D
:103930008DC70325C4FAEFF02FA52324A4FA83270B
:1039400084FA83A787362322F4FA832784FA83A78D
:103950000736832544FA794582970100F640E6420E
:103960005643C6433644264596450646F2566257A8
:10397000D2574258B258225E925E025FF24F2561E2
:10398000730020301D7186CE96CC9ACA9EC8A2C6FE
:10399000AAC4AEC2B2C036DE3ADC3EDA42D846D65F
:1039A00072D476D27AD07ECE8010EFF04FA32A87E1
:1039B0000A079387C180BA979C432326F4FA83278A
:1039C000C4FA8DC70325C4FAEFF00F9C2324A4FA90
:1039D000832784FA83A707382322F4FA832784FAFB
:1039E00083A78737832544FA7D4582970100F640F7
:1039F000E6425643C6433644264596450646F256A9
:103A00006257D2574258B258225E925E025FF24F1E
:103A1000256173002030011122CE0010F3275030B1
:103A20002326F4FE8327C4FE93F7F7032326F4FE30
:103A30000327C4FE8947630DF7000327C4FE8D47A3
:103A4000630AF7000327C4FE85476307F70039A020
:103A50008D4731A0914721A0854711A081473E8520
:103A6000724405618280797122D60018232EA4FC4D
:103A7000232CB4FCF32750302326F4FE8327C4FE06
:103A800093F707FC2326F4FE832784FD2324F4FE0A
:103A90000327C4FD914763E0E7068327C4FD13971E
:103AA0002700B7674020938707BEBA979C43828759
:103AB000832784FE739077308327C4FE93E7270023
:103AC000739057300DA8832784FE73907730832737
:103AD000C4FE93E737007390573031A8832784FEE4
:103AE00093E717007390573039A0832784FEF19B2A
:103AF00073905730010001003254456182800111FA
:103B000022CE00102326A4FE8327C4FEF51771479A
:103B1000636DF70013972700B7674020938747BF6F
:103B2000BA979C438287854719A0010081473E854B
:103B3000724405618280797106D622D40018232E42
:103B4000A4FC232CB4FC232AC4FC232604FE8327D4
:103B5000C4FD99E3FD5749A8032784FDFD4763E0B1
:103B6000E708832784FD13972700B76740209387D2
:103B700087C6BA979C438287832744FD81C7EFF0AD
:103B8000AF878DA0EFF0CF88B1A8832744FD81C710
:103B9000EFF08F8981A8EFF0AF8AA9A0832744FDB9
:103BA00081C7EFF06F8B3DA8EFF0AF8C25A883277E
:103BB00044FD81C7EFF08F8D35A0EFF0EF8E1DA093
:103BC000832744FD99C7832784FD3E85EFF08F8FBF
:103BD00011A8832784FD3E85EFF08F9121A0FD572A
:103BE0002326F4FE8327C4FE3E85B250225445614D
:103BF0008280797122D60018232EA4FC232CB4FCD9
:103C0000232AC4FC8327C4FD2326F4FE032784FD56
:103C1000AD4763C2E702832744FD91CF0327C4FE6B
:103C2000832784FD9387070E8A07BA97032744FDED
:103C300098C7814711A0FD573E8532544561828067
:103C4000397106DE22DC80002326A4FC8327C4FC15
:103C50002322F4FE832744FEDC43639D0710FD57B7
:103C600073B04730FD5773B04734F327103023202B
:103C7000F4FE032704FE8967F98F99E7032704FE02
:103C8000B7070400F98F99C7FD5773B03730FD5758
:103C900073B02730032704FEB7070400F98F81C7EC
:103CA000FD5773B00718232604FEB9A0832644FEEF
:103CB0000327C4FEBA878607BA978E07B69723A84C
:103CC0000708832644FE0327C4FEBA878607BA97EF
:103CD0008E07B69723AA0708832644FE0327C4FE4F
:103CE000BA878607BA978E07B69723AC070883274B
:103CF000C4FE85072326F4FE0327C4FEFD47E3D751
:103D0000E7FA232404FE1DA0032744FE832784FE34
:103D10009387070E8A07BA97373740201307C7D112
:103D200098C7832784FE85072324F4FE032784FE97
:103D3000AD47E3DBE7FCB7374020938507F8014543
:103D40001D33F3271030232EF4FC0327C4FDC16775
:103D500093878702F98F99CBF3270030232EF4FC49
:103D60000327C4FD8967D98F73900730832744FEEA
:103D70000547D8C30100F2506254216182807971F5
:103D800006D622D40018232EA4FC232CB4FC232A0C
:103D9000C4FC2328D4FC232604FE8327C4FD23244B
:103DA000F4FE032584FDA13BAA8799E3D55711AA08
:103DB000832744FD85CF832684FE032784FDBA87AD
:103DC0008607BA978E07B697032744FD23A8E7080E
:103DD000832684FE032784FDBA878607BA978E0759
:103DE000B697032704FD23ACE708D1A8832784FDF9
:103DF000F51771476362F70C13972700B7674020E8
:103E0000938787CEBA979C438287832684FE0327B5
:103E100084FDBA878607BA978E07B6973737402052
:103E2000130787E023A8E708832684FE032784FD81
:103E3000BA878607BA978E07B697032704FD23AA89
:103E4000E708B5A8832684FE032784FDBA87860782
:103E5000BA978E07B697373740201307A7EF23A8E6
:103E6000E708832684FE032784FDBA878607BA976E
:103E70008E07B697032704FD23AAE70889A08326A7
:103E800084FE032784FDBA878607BA978E07B69704
:103E900037374020130747D323A8E708832684FE3B
:103EA000032784FDBA878607BA978E07B69703273C
:103EB00004FD23AAE70821A0D1572326F4FE832777
:103EC000C4FE3E85B250225445618280011106CE67
:103ED00022CC00102326A4FE2324B4FE832784FED4
:103EE0000546BE850325C4FEEFF0FFC4AA873E85C4
:103EF000F240624405618280011106CE22CC00109E
:103F00002326A4FE2324B4FE832784FE0146BE8517
:103F10000325C4FEEFF03FC2AA873E85F24062440B
:103F200005618280011106CE22CC00102326A4FE5A
:103F3000EFF07FAEAA873E85F24062440561828041
:103F4000797106D622D40018232EA4FC232CB4FCAD
:103F50008327C4FD2326F4FE832784FD99EBB7371E
:103F60004020938507F8032584FDEFF0DFAF8147FC
:103F70000DA0032784FD8547631CF700B767402029
:103F800093850788032584FDEFF0FFAD814711A0DD
:103F9000FD573E85B250225445618280011122CEE8
:103FA00000102326A4FE2324B4FE2322C4FE81474E
:103FB0003E85724405618280397122DE80002326AD
:103FC000A4FC01438143232464FE232674FE73254D
:103FD00000B82322A4FE732500B02320A4FE73257D
:103FE00000B8232EA4FC832844FE0325C4FD63955A
:103FF000A802032544FEAA850146139805008147BF
:10400000032604FEB286014733E6D7002324C4FE0C
:10401000B367E8002326F4FE832784FE0328C4FE4A
:104020003E85C285725421618280797106D622D480
:104030004AD24ED00018232EA4FC8327C4FD81E76A
:104040000149814921A80325C4FDEFE05FB1232682
:10405000A4FE8327C4FE3E89FD87BE89CA874E8899
:104060003E85C285B25022541259825945618280E0
:10407000797106D622D40018232EA4FC814701486A
:104080002320F4FE232204FF0325C4FDEFE0DFAF6D
:104090002326A4FE8327C4FE8DC78327C4FE83A7DF
:1040A000C7132324F4FE832784FE81CF832784FE55
:1040B0009C43F843930704FE3E868545032584FE12
:1040C0000297832704FE032844FE3E85C285B25032
:1040D000225445618280797106D622D426D20018F6
:1040E000232EA4FC2328B4FC232AC4FCFD5723263A
:1040F000F4FE0325C4FDEFE03FA92324A4FE83279B
:1041000084FE8DCF832784FE83A7C7132322F4FE6A
:10411000832744FE85C7832744FE9C43A447032589
:10412000C4FDEFE09FA1AA87032604FD832644FD7A
:10413000BE85032544FE82942326A4FE8327C4FE65
:104140003E85B2502254925445618280011122CEA4
:1041500000102326A4FE938701813E8572440561E9
:104160008280011122CE00102326A4FE9D473E85A9
:10417000724405618280011122CE00102326A4FE24
:10418000938701813E85724405618280011122CEB0
:1041900000102326A4FE8D473E857244056182806F
:1041A000797106D622D40018232EA4FC232CB4FC4B
:1041B000FD572326F4FE0325C4FDEFE0FF9C2324D6
:1041C000A4FE832784FE9DC7832784FE83A7C70D93
:1041D0002322F4FE832744FE91CF832744FE9C4391
:1041E000F843930784FD3E868D45032544FE0297E0
:1041F0002326A4FE8327C4FE3E85B2502254456187
:104200008280797106D622D40018232EA4FC232C98
:10421000B4FCFD572326F4FE0325C4FDEFE0DF9632
:104220002324A4FE832784FE9DC7832784FE83A7BF
:10423000C70D2322F4FE832744FE91CF832744FE3B
:104240009C43F843930784FD3E868945032544FE3D
:1042500002972326A4FE8327C4FE3E85B250225433
:1042600045618280797106D622D40018232EA4FCE1
:10427000232CB4FC232604FE0325C4FDEFE0DF90CD
:104280002324A4FE832784FE9DC7832784FE83A75F
:10429000C70D2322F4FE832744FE91CF832744FEDB
:1042A0009C43F843930784FD3E869145032544FED5
:1042B00002972326A4FE8327C4FE3E85B2502254D3
:1042C00045618280011106CE22CC00102326A4FE77
:1042D0000325C4FEEFE05F8BAA873E85F24062446F
:1042E00005618280797106D622D40018232EA4FCA1
:1042F000232CB4FC232AC4FC0325C4FDEFE0DF8893
:104300002326A4FE8327C4FE99CB032644FD8325E0
:1043100084FD0325C4FEEFF0DF8DAA8711A0FD57B1
:104320003E85B250225445618280011122CE001098
:104330002326A4FE2324B4FE832784FE83D707000C
:1043400013F737008D476314F700914711A0894791
:104350003E85724405618280797122D60018232E31
:10436000A4FCF32710342326F4FE8327C4FE3E85E5
:10437000325445618280011122CE00102326A4FE12
:104380002324B4FE832784FE7390173481473E852F
:10439000724405618280011122CE00102326A4FE02
:1043A0000327C4FEB71700809387873E6315F70085
:1043B000B707000C11A081473E85724405618280D9
:1043C000011122CE00102326A4FE0327C4FEB71736
:1043D00000809387873E6314F700ED4711A0814763
:1043E0003E85724405618280011122CE0010232691
:1043F000A4FE0327C4FEB71700809387873E63148B
:10440000F7009D4711A081473E8572440561828077
:10441000011122CE00102326A4FE2324B4FE8327FC
:1044200084FE91E7B71700809387070311A08147A7
:104430003E85724405618280011122CE0010232640
:10444000A4FE2324B4FE832784FE99E3AD4711A084
:1044500081473E85724405618280797106D622D4F7
:104460000018232EA4FC0325C4FD35372326A4FE03
:104470000327C4FEB70720009107BA979C433E85E7
:10448000B250225445618280797106D622D4001838
:10449000232EA4FC232CB4FC0325C4FDED3D2326D0
:1044A000A4FE0327C4FEB70720009107BA973E87F2
:1044B000832784FD1CC30100B250225445618280D1
:1044C000797106D622D40018232EA4FC232CB4FC28
:1044D0000325C4FDC9352326A4FE0327C4FEB70760
:1044E0002000BA973E87832784FD1CC381473E8501
:1044F000B250225445618280797106D622D40018C8
:10450000232EA4FC0325C4FD79352326A4FE03270E
:10451000C4FEB7072000BA979C433E85B250225490
:1045200045618280797106D622D40018232EA4FC1E
:10453000232CB4FC232AC4FC0325C4FDA93D232657
:10454000A4FE0325C4FD4D35AA872324F4FE83274A
:1045500084FE85C7032744FD832784FE637FF7001D
:10456000832784FD8A073E878327C4FEBA973E8748
:10457000832744FD1CC3814711A0FD573E85B250DF
:10458000225445618280797106D622D40018232EE8
:10459000A4FC232CB4FC0325C4FDF53B2326A4FE78
:1045A000832784FD8A073E878327C4FEBA979C43EE
:1045B0003E85B250225445618280797106D622D45C
:1045C0000018232EA4FC232CB4FC232AC4FC0325AE
:1045D000C4FDD1332326A4FE832784FD95878A0753
:1045E0003E878327C4FE3E978967BA979C4323245E
:1045F000F4FE832744FD81CF832784FDFD8B05478F
:10460000B317F7003E87832784FED98F29A8832715
:1046100084FDFD8B0547B317F70093C7F7FF3E876F
:10462000832784FEF98F032784FD15870A07BA863E
:104630000327C4FEBA96096736971CC30100B2501F
:10464000225445618280011106CE22CC001023261F
:10465000A4FE2324B4FE1305C012EF10001D7971CF
:1046600006D622D40018232EA4FC232CB4FC8327C6
:1046700084FD2326F4FE0325C4FEC5332324A4FEB3
:104680000325C4FEEFF0DFD3AA872322F4FE03271D
:1046900084FE832744FE6372F7040327C4FE832746
:1046A00084FE8A07BA979C478DCB0327C4FE8327D5
:1046B00084FE8A07BA9703A88700032684FE832610
:1046C000C4FE032784FEBA878607BA978E07B6977B
:1046D00083A78708BE8532850298832584FE03253B
:1046E000C4FE5D330100B2502254456182803971AD
:1046F00006DE22DC80002326A4FC8327C4FC2322C0
:10470000F4FE832744FEDC4363900712232604FE55
:1047100021A20325C4FCEFF0BFCA2320A4FE8325F9
:10472000C4FE0325C4FCEFF0BFCE232EA4FC8325DA
:10473000C4FE0325C4FCEFF03FD0232CA4FC832748
:10474000C4FD9C439C430325C4FD8297232404FE9F
:1047500085A00146832584FE032544FEB93D01461C
:10476000832584FE0325C4FC753B032744FE832771
:1047700084FE8A07BA9723A40700832644FE0327F2
:1047800084FEBA878607BA978E07B69723A20708D2
:10479000832644FE032784FEBA878607BA978E07CE
:1047A000B69723A40708832784FE85072324F4FEF5
:1047B000032784FE832704FEE34DF7F88145032594
:1047C000C4FCEFF0FFCF8327C4FD9C43DC4F83265E
:1047D00044FE0146832584FD0325C4FD829783277B
:1047E000C4FD9C43D84F832644FEB7474020138620
:1047F000E765832584FD0325C4FD02978327C4FD57
:104800009C43DC53832584FD0325C4FD82978327C5
:10481000C4FE85072326F4FE8327C4FEE35BF0EE87
:10482000832744FE0547D8C30100F250625421613A
:104830008280797106D622D40018232EA4FC232C62
:10484000B4FC232AC4FC2328D4FC8327C4FD2326DC
:10485000F4FE0325C4FDEFF0BFB62A87832784FD4D
:1048600063C4E700FD5751A0832744FD9DCF09464F
:10487000832584FD0325C4FDEFF0DFCA0327C4FEB2
:10488000832784FD8A07BA97032744FD98C78326A8
:10489000C4FE032784FDBA878607BA978E07B697AA
:1048A000032704FD23A4E70881A00546832584FD92
:1048B0000325C4FDEFF01FC70327C4FE832784FD33
:1048C0008A07BA97374740201307676498C783263B
:1048D000C4FE032784FDBA878607BA978E07B6976A
:1048E000032704FD23A2E70881473E85B2502254E6
:1048F00045618280797106D622D40018232EA4FC4B
:10490000232CB4FC8327C4FD2326F4FE0325C4FD19
:10491000EFF01FAB2A87832784FD63C4E700FD57B0
:1049200009A80546832584FD0325C4FEEFF0FFC8D2
:1049300081473E85B250225445618280797106D606
:1049400022D40018232EA4FC232CB4FC8327C4FDFE
:104950002326F4FE0325C4FDEFF09FA62A878327B4
:1049600084FD63C4E700FD5709A80146832584FD43
:104970000325C4FEEFF07FC481473E85B250225428
:1049800045618280011122CE00102326A4FE032758
:10499000C4FE9387C1816315F700B727011011A0EA
:1049A00081473E85724405618280011122CE00104C
:1049B0002326A4FE0327C4FE9387C1816317F70053
:1049C000B71700809387873E11A081473E857244C8
:1049D00005618280011122CE00102326A4FE23242B
:1049E000B4FE0327C4FE9387C1816317F7008327B2
:1049F00084FE99E39D4769A20327C4FE9387C18182
:104A00006319F700032784FE85476314F700A14765
:104A100085AA0327C4FE9387C1816319F700032782
:104A200084FE89476314F700A54799AA0327C4FEAB
:104A30009387C1816319F700032784FE8D476314B0
:104A4000F700A94735AA0327C4FE9387C1816319DC
:104A5000F700032784FE91476314F700AD470DA2CA
:104A60000327C4FE9387C1816319F700032784FEDF
:104A700095476314F700B14721A20327C4FE93872B
:104A8000C1816319F700032784FE99476314F70077
:104A9000B547FDA00327C4FE9387C1816319F700C2
:104AA000032784FE9D476314F700B947D1A8032765
:104AB000C4FE9387C1816319F700032784FEA147D1
:104AC0006314F700BD476DA80327C4FE9387C18117
:104AD0006319F700032784FEA5476314F700C14755
:104AE00045A00327C4FE9387C1816319F7000327FC
:104AF00084FEA9476314F700C54759A00327C4FEE5
:104B00009387C1816319F700032784FEAD476314BF
:104B1000F700C947B5A00327C4FE9387C181631975
:104B2000F700032784FEB1476314F700CD4789A837
:104B30000327C4FE9387C1816319F700032784FE0E
:104B4000B5476314F700D14725A80327C4FE938710
:104B5000C1816319F700032784FEB9476314F70086
:104B6000D54739A80327C4FE9387C1816319F7008D
:104B7000032784FEBD476314F700D94711A081477E
:104B80003E85724405618280797106D622D4001870
:104B9000232EA4FC232CB4FC0325C4FDEFF09FDEE0
:104BA000AA872326F4FE8327C4FE91079843832710
:104BB00084FD8326C4FE9106D98F9CC281473E8521
:104BC000B250225445618280797106D622D40018F1
:104BD000232EA4FC232CB4FC0325C4FDEFF09FDAA4
:104BE000AA872326F4FE8327C4FE91079C4303274C
:104BF00084FD1347F7FFBA860327C4FE1107F58F1C
:104C00001CC381473E85B250225445618280797130
:104C100006D622D40018232EA4FC0325C4FDEFF0F1
:104C20007FD6AA872326F4FE8327C4FE9C433E85B5
:104C3000B250225445618280797106D622D4001880
:104C4000232EA4FC0325C4FDEFF0DFD3AA8723267F
:104C5000F4FE8327C4FEB1079C433E85B250225424
:104C600045618280797106D622D40018232EA4FCD7
:104C7000232CB4FC0325C4FDEFF0DFD0AA87232644
:104C8000F4FE8327C4FEA1079C43032784FD13473A
:104C9000F7FFBA860327C4FE2107F58F1CC381479F
:104CA0003E85B250225445618280797106D622D465
:104CB0000018232EA4FC232CB4FC0325C4FDEFF024
:104CC0007FCCAA872326F4FE8327C4FEA10798433E
:104CD000832784FD8326C4FEA106D98F9CC2814709
:104CE0003E85B250225445618280797106D622D425
:104CF0000018232EA4FC232CB4FC0325C4FDEFF0E4
:104D00007FC8AA872326F4FE8327C4FEB1079843F1
:104D1000832784FD8326C4FEB106D98F9CC28147B8
:104D20003E85B250225445618280797106D622D4E4
:104D30000018232EA4FC232CB4FC0325C4FDEFF0A3
:104D40007FC4AA872326F4FE8327C4FEB1079C43B1
:104D5000032784FD1347F7FFBA860327C4FE3107F4
:104D6000F58F1CC381473E85B25022544561828035
:104D7000797106D622D40018232EA4FC232CB4FC6F
:104D80000325C4FDEFF01FC0AA872326F4FE832766
:104D9000C4FEB1079843832784FD8326C4FEB10671
:104DA000B98F9CC281473E85B250225445618280B2
:104DB000797106D622D40018232EA4FC232CB4FC2F
:104DC000232AC4FC0325C4FDEFF0DFBBAA872326FA
:104DD000F4FE8327C4FE9387C7039C43032784FD07
:104DE0001347F7FFBA860327C4FE1307C703F58FDF
:104DF0001CC38327C4FE938787039843832744FDFE
:104E00008326C4FE93868603D98F9CC281473E8544
:104E1000B250225445618280797106D622D400189E
:104E2000232EA4FC232CB4FC0325C4FDEFF09FB576
:104E3000AA872326F4FE8327C4FE938787039C4317
:104E4000032784FD1347F7FFBA860327C4FE130721
:104E50008703F58F1CC381473E85B25022544561BC
:104E60008280797106D622D40018232EA4FC232C2C
:104E7000B4FC232AC4FC0325C4FDEFF0BFB0AA870D
:104E80002326F4FE032744FD9D4763E9E71C83279F
:104E900044FD13972700B7674020938747E3BA97ED
:104EA0009C4382878327C4FEE1079C43032784FD3C
:104EB0001347F7FFBA860327C4FE6107F58F1CC3AB
:104EC0008327C4FE938707029C43032784FD13476F
:104ED000F7FFBA860327C4FE13070702F58F1CC32A
:104EE0008327C4FE938787029C43032784FD1347CF
:104EF000F7FFBA860327C4FE13078702F58F1CC38A
:104F00008327C4FE938707039C43032784FD13472D
:104F1000F7FFBA860327C4FE13070703F58F1CC3E8
:104F200035AA8327C4FEE1079843832784FD83269F
:104F3000C4FEE106D98F9CC215A28327C4FE9387C5
:104F400007029843832784FD8326C4FE93860602C6
:104F5000D98F9CC221A28327C4FEE10798438327EF
:104F600084FD8326C4FEE106D98F9CC28327C4FE3C
:104F7000938707029843832784FD8326C4FE938684
:104F80000602D98F9CC2D9A88327C4FE93878702C3
:104F90009843832784FD8326C4FE93868602D98F97
:104FA0009CC26DA88327C4FE938707039843832779
:104FB00084FD8326C4FE93860603D98F9CC279A8FC
:104FC0008327C4FE938787029843832784FD832623
:104FD000C4FE93868602D98F9CC28327C4FE938722
:104FE00007039843832784FD8326C4FE9386060324
:104FF000D98F9CC2A5A08327C4FEE10798438327CD
:1050000084FD8326C4FEE106D98F9CC28327C4FE9B
:10501000938707029843832784FD8326C4FE9386E3
:105020000602D98F9CC28327C4FE938787029843C8
:10503000832784FD8326C4FE93868602D98F9CC273
:105040008327C4FE938707039843832784FD832621
:10505000C4FE93860603D98F9CC2010081473E851A
:10506000B250225445618280797106D622D400184C
:10507000232EA4FC232CB4FC232AC4FC0325C4FD4A
:10508000EFF05F90AA872326F4FE032744FD9D4797
:1050900063EAE714832744FD13972700B76740208E
:1050A000938747E5BA979C4382878327C4FEF1071D
:1050B0009843832784FD8326C4FEF106D98F9CC2C2
:1050C00015A28327C4FE938747029843832784FD54
:1050D0008326C4FE93864602D98F9CC221A28327D1
:1050E000C4FEF1079843832784FD8326C4FEF1069E
:1050F000D98F9CC28327C4FE938747029843832796
:1051000084FD8326C4FE93864602D98F9CC2D9A80B
:105110008327C4FE9387C7029843832784FD832691
:10512000C4FE9386C602D98F9CC26DA88327C4FE95
:10513000938747039843832784FD8326C4FE938681
:105140004603D98F9CC279A88327C4FE9387C702E0
:105150009843832784FD8326C4FE9386C602D98F95
:105160009CC28327C4FE938747039843832784FD0B
:105170008326C4FE93864603D98F9CC2A5A08327AD
:10518000C4FEF1079843832784FD8326C4FEF106FD
:10519000D98F9CC28327C4FE9387470298438327F5
:1051A00084FD8326C4FE93864602D98F9CC2832742
:1051B000C4FE9387C7029843832784FD8326C4FED9
:1051C0009386C602D98F9CC28327C4FE9387470368
:1051D0009843832784FD8326C4FE93864603D98F94
:1051E0009CC2010081473E85B250225445618280B5
:1051F000011106CE22CC00102326A4FE0325C4FEF6
:10520000EFF0AFFAAA873E85F240624405618280E2
:10521000797106D622D40018232EA4FC232CB4FCCA
:10522000832584FD0325C4FDEFF0CFFA2326A4FED9
:105230008327C4FE3E85B25022544561828001110D
:1052400022CE00102326A4FE0327C4FEB717008039
:105250009387876E6315F700B737011011A0814758
:105260003E85724405618280011122CE0010232602
:10527000A4FE0327C4FEB71700809387876E6317C9
:10528000F700B71700809387873E11A081473E85BE
:10529000724405618280011122CE00102326A4FEF3
:1052A0000327C4FEB71700809387876E6314F70047
:1052B000954711A081473E857244056182800111A6
:1052C00022CE00102326A4FE0327C4FEB7170080B9
:1052D0009387876E6317F700B717008093870702DD
:1052E00011A081473E85724405618280011122CE62
:1052F00000102326A4FE0327C4FEB717008093875F
:10530000876E6315F7009387C18111A081473E85A1
:10531000724405618280011122CE00102326A4FE72
:105320000327C4FEB71700809387876E6315F700C5
:10533000B707030011A081473E8572440561828052
:10534000011122CE00102326A4FE0327C4FEB717A6
:1053500000809387876E6315F700B707030011A0DD
:1053600081473E85724405618280011106CE22CCC0
:1053700000102326A4FE0325C4FEFD35AA873E8522
:10538000F240624405618280011106CE22CC0010F9
:105390002326A4FE0325C4FEFD3DAA8793870702AA
:1053A0003E85F240624405618280797106D622D43E
:1053B0000018232EA4FC0325C4FD5135AA872326FB
:1053C000F4FE8327C4FE9C4393C7F7FFFD8393F746
:1053D000F70F3E85B250225445618280797106D61E
:1053E00022D40018232EA4FC232CB4FC0325C4FDD6
:1053F000EFF0FFE4AA872326F4FE01000325C4FD95
:105400006D37AA87E5DF8327C4FE032784FD98C391
:1054100081473E85B250225445618280797106D61B
:1054200022D40018232EA4FC232CB4FC0325C4FD95
:10543000EFF0FFE0AA872326F4FE8327C4FE91073E
:105440009C432324F4FE832784FE63D7070083272D
:1054500084FD7D5798C301A8832784FE13F7F70FB7
:10546000832784FD98C381473E85B250225445610D
:105470008280797122D60018232EA4FC8327C4FDD4
:105480002326F4FE8327C4FEDC433E853254456167
:105490008280797106D622D40018232EA4FC232CF6
:1054A000B4FC8327C4FD2326F4FE0325C4FDEFF0DE
:1054B0001FD9AA872324F4FE0325C4FDEFF03FE0A3
:1054C0002322A4FE032784FD8327C4FED8C3832799
:1054D00044FEB1CB832744FE9C439C43032544FEFA
:1054E00082972320A4FE032704FE832784FDB3476D
:1054F000F7021387F7FF832784FEE10798C383270A
:1055000084FEA1079C43032784FE210793E717002D
:105510001CC3832784FEB1079C43032784FE310705
:1055200093E717001CC381473E85B2502254456162
:105530008280397106DE22DC80002326A4FC8327CA
:10554000C4FC2326F4FE0325C4FCEFF05FCFAA873A
:105550002324F4FE0325C4FCEFF07FD62322A4FE0F
:10556000832784FEA1079843832784FEA107BE8674
:10557000B707F9FFFD17F98F9CC2832784FEA107A7
:105580009843832784FEA107BE86C167D98F9CC23A
:105590000100832784FED1079C43858BFDDB832795
:1055A00084FEA1079C43898B99C3A54711A0A947F5
:1055B0002320F4FE832744FE9C439C43032544FEA2
:1055C0008297232EA4FC032704FE8327C4FDB30780
:1055D000F7023E878327C4FEDC43B357F702232C30
:1055E000F4FC232A04FC39A00100832744FD85072D
:1055F000232AF4FC832744FD032784FDE3C6E7FE4A
:105600000100F250625421618280797106D622D461
:105610000018232EA4FC8327C4FD2326F4FE0327B1
:10562000C4FE8327C4FEDC43BE853A85EFC05FDC41
:105630000100B250225445618280397106DE22DCBD
:1056400080002326A4FC2324B4FC8327C4FC232647
:10565000F4FE0325C4FCEFF09FC62324A4FE03251B
:10566000C4FCEFF0BFC82322A4FE832784FEB9C781
:105670008327C4FE375740201307275398C7832733
:10568000C4FE0327C4FCD8C78327C4FEA107BE8578
:10569000032584FEF1208327C4FE375740201307DB
:1056A000A760D8CB8327C4FE0327C4FC98CF8327E9
:1056B000C4FED107BE85032584FED9288327C4FEF6
:1056C000832584FC3E85EFC0BFD2832744FE95CB63
:1056D0000325C4FCEFF03FC4AA872320F4FE032572
:1056E000C4FCEFF0FFC5AA87232EF4FC832744FEF9
:1056F0009C43DC530326C4FD832504FE032544FE9E
:1057000082970100F250625421618280797122D621
:105710000018232EA4FC232CB4FC832784FD23A48F
:1057200007008327C4FD81E7832784FD35A08327F5
:10573000C4FD2326F4FE31A08327C4FE9C47232604
:10574000F4FE8327C4FE9C47E5FB8327C4FE0327A2
:1057500084FD98C78327C4FD3E853254456182800D
:10576000011106CE22CC00102326A4FE2324B4FE71
:105770008327C4FEDC43832584FE3E85413F2A8780
:105780008327C4FED8C30100F240624405618280D1
:10579000011106CE22CC00102326A4FE2324B4FE41
:1057A0008327C4FE9C47832584FE3E8585372A8750
:1057B0008327C4FE98C70100F240624405618280DD
:1057C000011106CE22CC00102326A4FE8327C4FE9E
:1057D0009C43DC570325C4FE8297AA873E85F2408E
:1057E000624405618280011122CE00102326A4FEAE
:1057F0008327C4FE89EB0327C4FE0A079387C18071
:10580000BA979C4311A081473E857244056182800E
:10581000011122CE0010F32740F12326F4FE832746
:10582000C4FE3E85724405618280011122CE0010C3
:105830002326A4FE0100FDBF0000000000000000C0
:105840000000000000000000000000000000000058
:105850000000000000000000000000000000000048
:105860000000000000000000000000000000000038
:105870000000000000000000000000000000000028
:105880006FD0CFCC6FD08FCC6FD04FCC6FD0EFCE4E
:105890006FD0CFCB6FD08FCB6FD04FCB6FD00FDD12
:1058A0006FD0CFCA6FD08FCA6FD04FCA6FD00FCA18
:1058B0006FD0CFC96FD08FC96FD04FC96FD00FC90C
:1058C0006FD07F836FD05F8C6FD03F956FD01F9E5E
:1058D0006FD0FFA66FD0DFAF6FD0BFB86FD09FC1C2
:1058E0006FD07FCA6FD05FD36FD03FDC6FD01FE522
:1058F0006FD0FFED6FD0DFF66FD0BFFF6FE08F8806
:10590000011122CE00102326A4FE0327C4FEB717E0
:105910000080938707026317F700B7D7DF039387E9
:10592000072411A081473E857244056182800111E0
:1059300006CE22CC00102326A4FE0325C4FEC937C0
:10594000AA873E85F240624405618280011106CE3D
:1059500022CC00102326A4FE2324B4FE0325C4FE7B
:10596000F937AA873E85F2406244056182800111C1
:1059700006CE22CC00102326A4FE0325C4FE7535D6
:105980002530387820000000253038582025303860
:1059900058200A00416674657220696E69740000BF
:1059A000586F722032206B65790000004162736F7E
:1059B00072622041440000005061646465642041CB
:1059C00044000000446F6D61696E20536570617220
:1059D0006174696F6E0000004162736F7262204DE6
:1059E00000000000506164204D000000586F7220DC
:1059F0006B65792031000000586F72206B6579204B
:105A000032000000636C6561722062797465730016
:105A10004861736820526F756E640000496E697446
:105A2000204173636F6E20446563200041642061F0
:105A3000646472203D20253038780A00506C206163
:105A4000646472203D20253038780A004374206158
:105A5000646472203D20253038780A004B6520614F
:105A6000646472203D20253038780A004E70206131
:105A7000646472203D20253038780A0068617368BC
:105A80002061646472203D20253038780A000000CF
:105A90004465632048573A2000000000546F746149
:105AA0006C2074696D65204857203D202564206373
:105AB00079636C65730A00000A580000446563202E
:105AC00053573A2000000000546F74616C207469D1
:105AD0006D65205357203D202564206379636C65F4
:105AE000730A000000000000000000000000000039
:105AF00000000000000000000000000000000000A6
:105B00000000000000000000000000000000000095
:105B10000000000000000000000000000000000085
:105B20000000000000000000000000000000000075
:105B30000000000000000000000000000000000065
